{"abi":[{"type":"constructor","inputs":[{"name":"_owner","type":"address","internalType":"address"},{"name":"_authority","type":"address","internalType":"contract Authority"}],"stateMutability":"nonpayable"},{"type":"function","name":"BPS_DENOMINATOR","inputs":[],"outputs":[{"name":"","type":"uint256","internalType":"uint256"}],"stateMutability":"view"},{"type":"function","name":"MAX_FEE_BPS","inputs":[],"outputs":[{"name":"","type":"uint256","internalType":"uint256"}],"stateMutability":"view"},{"type":"function","name":"addProvider","inputs":[{"name":"providerId","type":"bytes32","internalType":"bytes32"},{"name":"provider","type":"address","internalType":"address"},{"name":"feeBps","type":"uint256","internalType":"uint256"}],"outputs":[],"stateMutability":"nonpayable"},{"type":"function","name":"authority","inputs":[],"outputs":[{"name":"","type":"address","internalType":"contract Authority"}],"stateMutability":"view"},{"type":"function","name":"authorizedExecutors","inputs":[{"name":"","type":"address","internalType":"address"}],"outputs":[{"name":"","type":"bool","internalType":"bool"}],"stateMutability":"view"},{"type":"function","name":"defaultSlippageBps","inputs":[],"outputs":[{"name":"","type":"uint256","internalType":"uint256"}],"stateMutability":"view"},{"type":"function","name":"executeFlashLoanArbitrage","inputs":[{"name":"providerId","type":"bytes32","internalType":"bytes32"},{"name":"token","type":"address","internalType":"address"},{"name":"amount","type":"uint256","internalType":"uint256"},{"name":"dexPath","type":"address[]","internalType":"address[]"},{"name":"swapData","type":"bytes[]","internalType":"bytes[]"},{"name":"minProfit","type":"uint256","internalType":"uint256"}],"outputs":[{"name":"profit","type":"uint256","internalType":"uint256"}],"stateMutability":"nonpayable"},{"type":"function","name":"getAllProviderIds","inputs":[],"outputs":[{"name":"","type":"bytes32[]","internalType":"bytes32[]"}],"stateMutability":"view"},{"type":"function","name":"getProvider","inputs":[{"name":"providerId","type":"bytes32","internalType":"bytes32"}],"outputs":[{"name":"","type":"tuple","internalType":"struct FlashLoanEngine.FlashLoanProvider","components":[{"name":"provider","type":"address","internalType":"address"},{"name":"feeBps","type":"uint256","internalType":"uint256"},{"name":"active","type":"bool","internalType":"bool"}]}],"stateMutability":"view"},{"type":"function","name":"getProviderCount","inputs":[],"outputs":[{"name":"","type":"uint256","internalType":"uint256"}],"stateMutability":"view"},{"type":"function","name":"isProviderActive","inputs":[{"name":"providerId","type":"bytes32","internalType":"bytes32"}],"outputs":[{"name":"","type":"bool","internalType":"bool"}],"stateMutability":"view"},{"type":"function","name":"maxSlippageBps","inputs":[],"outputs":[{"name":"","type":"uint256","internalType":"uint256"}],"stateMutability":"view"},{"type":"function","name":"owner","inputs":[],"outputs":[{"name":"","type":"address","internalType":"address"}],"stateMutability":"view"},{"type":"function","name":"providerIds","inputs":[{"name":"","type":"uint256","internalType":"uint256"}],"outputs":[{"name":"","type":"bytes32","internalType":"bytes32"}],"stateMutability":"view"},{"type":"function","name":"providers","inputs":[{"name":"","type":"bytes32","internalType":"bytes32"}],"outputs":[{"name":"provider","type":"address","internalType":"address"},{"name":"feeBps","type":"uint256","internalType":"uint256"},{"name":"active","type":"bool","internalType":"bool"}],"stateMutability":"view"},{"type":"function","name":"removeProvider","inputs":[{"name":"providerId","type":"bytes32","internalType":"bytes32"}],"outputs":[],"stateMutability":"nonpayable"},{"type":"function","name":"setAuthority","inputs":[{"name":"newAuthority","type":"address","internalType":"contract Authority"}],"outputs":[],"stateMutability":"nonpayable"},{"type":"function","name":"setDexRouterWhitelist","inputs":[{"name":"router","type":"address","internalType":"address"},{"name":"status","type":"bool","internalType":"bool"}],"outputs":[],"stateMutability":"nonpayable"},{"type":"function","name":"setExecutorStatus","inputs":[{"name":"executor","type":"address","internalType":"address"},{"name":"status","type":"bool","internalType":"bool"}],"outputs":[],"stateMutability":"nonpayable"},{"type":"function","name":"setSlippageLimits","inputs":[{"name":"_defaultBps","type":"uint256","internalType":"uint256"},{"name":"_maxBps","type":"uint256","internalType":"uint256"}],"outputs":[],"stateMutability":"nonpayable"},{"type":"function","name":"transferOwnership","inputs":[{"name":"newOwner","type":"address","internalType":"address"}],"outputs":[],"stateMutability":"nonpayable"},{"type":"function","name":"updateProvider","inputs":[{"name":"providerId","type":"bytes32","internalType":"bytes32"},{"name":"newFeeBps","type":"uint256","internalType":"uint256"},{"name":"active","type":"bool","internalType":"bool"}],"outputs":[],"stateMutability":"nonpayable"},{"type":"function","name":"whitelistedDexRouters","inputs":[{"name":"","type":"address","internalType":"address"}],"outputs":[{"name":"","type":"bool","internalType":"bool"}],"stateMutability":"view"},{"type":"event","name":"AuthorityUpdated","inputs":[{"name":"user","type":"address","indexed":true,"internalType":"address"},{"name":"newAuthority","type":"address","indexed":true,"internalType":"contract Authority"}],"anonymous":false},{"type":"event","name":"DexRouterWhitelistUpdated","inputs":[{"name":"router","type":"address","indexed":true,"internalType":"address"},{"name":"status","type":"bool","indexed":false,"internalType":"bool"}],"anonymous":false},{"type":"event","name":"ExecutorUpdated","inputs":[{"name":"executor","type":"address","indexed":true,"internalType":"address"},{"name":"status","type":"bool","indexed":false,"internalType":"bool"}],"anonymous":false},{"type":"event","name":"FlashLoanExecuted","inputs":[{"name":"providerId","type":"bytes32","indexed":true,"internalType":"bytes32"},{"name":"token","type":"address","indexed":true,"internalType":"address"},{"name":"amount","type":"uint256","indexed":false,"internalType":"uint256"},{"name":"fee","type":"uint256","indexed":false,"internalType":"uint256"}],"anonymous":false},{"type":"event","name":"OwnershipTransferred","inputs":[{"name":"user","type":"address","indexed":true,"internalType":"address"},{"name":"newOwner","type":"address","indexed":true,"internalType":"address"}],"anonymous":false},{"type":"event","name":"ProviderAdded","inputs":[{"name":"providerId","type":"bytes32","indexed":true,"internalType":"bytes32"},{"name":"provider","type":"address","indexed":false,"internalType":"address"},{"name":"feeBps","type":"uint256","indexed":false,"internalType":"uint256"}],"anonymous":false},{"type":"event","name":"ProviderRemoved","inputs":[{"name":"providerId","type":"bytes32","indexed":true,"internalType":"bytes32"}],"anonymous":false},{"type":"event","name":"ProviderUpdated","inputs":[{"name":"providerId","type":"bytes32","indexed":true,"internalType":"bytes32"},{"name":"newFeeBps","type":"uint256","indexed":false,"internalType":"uint256"},{"name":"active","type":"bool","indexed":false,"internalType":"bool"}],"anonymous":false},{"type":"event","name":"SlippageLimitsUpdated","inputs":[{"name":"defaultBps","type":"uint256","indexed":false,"internalType":"uint256"},{"name":"maxBps","type":"uint256","indexed":false,"internalType":"uint256"}],"anonymous":false},{"type":"error","name":"DexNotWhitelisted","inputs":[{"name":"dex","type":"address","internalType":"address"}]},{"type":"error","name":"FeeExceedsMax","inputs":[{"name":"fee","type":"uint256","internalType":"uint256"},{"name":"maxFee","type":"uint256","internalType":"uint256"}]},{"type":"error","name":"InsufficientProfit","inputs":[{"name":"profit","type":"uint256","internalType":"uint256"},{"name":"required","type":"uint256","internalType":"uint256"}]},{"type":"error","name":"ProviderAlreadyExists","inputs":[{"name":"providerId","type":"bytes32","internalType":"bytes32"}]},{"type":"error","name":"ProviderNotActive","inputs":[{"name":"providerId","type":"bytes32","internalType":"bytes32"}]},{"type":"error","name":"ProviderNotFound","inputs":[{"name":"providerId","type":"bytes32","internalType":"bytes32"}]},{"type":"error","name":"Reentrancy","inputs":[]},{"type":"error","name":"SlippageExceedsMax","inputs":[{"name":"slippage","type":"uint256","internalType":"uint256"},{"name":"maxSlippage","type":"uint256","internalType":"uint256"}]},{"type":"error","name":"Unauthorized","inputs":[]},{"type":"error","name":"ZeroAddress","inputs":[]},{"type":"error","name":"ZeroAmount","inputs":[]}],"bytecode":{"object":"0x6080604052600160025560326007556101f460085534801561001f575f5ffd5b5060405161283c38038061283c83398181016040528101906100419190610218565b8181815f5f6101000a81548173ffffffffffffffffffffffffffffffffffffffff021916908373ffffffffffffffffffffffffffffffffffffffff1602179055508060015f6101000a81548173ffffffffffffffffffffffffffffffffffffffff021916908373ffffffffffffffffffffffffffffffffffffffff1602179055508173ffffffffffffffffffffffffffffffffffffffff165f73ffffffffffffffffffffffffffffffffffffffff167f8be0079c531659141344cd1fd0a4f28419497f9722a3daafe3b4186f6b6457e060405160405180910390a38073ffffffffffffffffffffffffffffffffffffffff165f73ffffffffffffffffffffffffffffffffffffffff167fa3396fd7f6e0a21b50e5089d2da70d5ac0a3bbbd1f617a93f134b7638998019860405160405180910390a350505050610256565b5f5ffd5b5f73ffffffffffffffffffffffffffffffffffffffff82169050919050565b5f6101ac82610183565b9050919050565b6101bc816101a2565b81146101c6575f5ffd5b50565b5f815190506101d7816101b3565b92915050565b5f6101e7826101a2565b9050919050565b6101f7816101dd565b8114610201575f5ffd5b50565b5f81519050610212816101ee565b92915050565b5f5f6040838503121561022e5761022d61017f565b5b5f61023b858286016101c9565b925050602061024c85828601610204565b9150509250929050565b6125d9806102635f395ff3fe608060405234801561000f575f5ffd5b506004361061014b575f3560e01c80636605a2dd116100c1578063bf7e214f1161007a578063bf7e214f146103ad578063c38f7af4146103cb578063c4aa7395146103fb578063d55be8c614610419578063e1a4521814610437578063f2fde38b146104555761014b565b80636605a2dd146102eb578063679d86a71461030757806376f30174146103375780637a9e5e4b146103555780638da5cb5b14610371578063966676211461038f5761014b565b80632c18e9a5116101135780632c18e9a51461021957806333c0950a14610249578063363cc3ad1461027957806346ce417514610295578063602fdf0b146102b357806362bb2f40146102cf5761014b565b80630392f1bb1461014f5780630b29f0321461016b5780631408e119146101875780631acc050e146101b75780631d661b47146101e9575b5f5ffd5b61016960048036038101906101649190611b5d565b610471565b005b61018560048036038101906101809190611bad565b610740565b005b6101a1600480360381019061019c9190611ca1565b610835565b6040516101ae9190611d7a565b60405180910390f35b6101d160048036038101906101cc9190611d93565b610d58565b6040516101e093929190611de7565b60405180910390f35b61020360048036038101906101fe9190611d93565b610da9565b6040516102109190611e1c565b60405180910390f35b610233600480360381019061022e9190611e35565b610dd2565b6040516102409190611e6f565b60405180910390f35b610263600480360381019061025e9190611d93565b610df2565b6040516102709190611ef5565b60405180910390f35b610293600480360381019061028e9190611f38565b610e95565b005b61029d611003565b6040516102aa9190611d7a565b60405180910390f35b6102cd60048036038101906102c89190611d93565b61100f565b005b6102e960048036038101906102e49190611f38565b611252565b005b61030560048036038101906103009190611f76565b6113c0565b005b610321600480360381019061031c9190611fc6565b611593565b60405161032e9190611e1c565b60405180910390f35b61033f6115b0565b60405161034c91906120a8565b60405180910390f35b61036f600480360381019061036a9190612103565b611606565b005b610379611728565b604051610386919061212e565b60405180910390f35b61039761174c565b6040516103a49190611d7a565b60405180910390f35b6103b5611752565b6040516103c291906121a2565b60405180910390f35b6103e560048036038101906103e09190611fc6565b611777565b6040516103f29190611e1c565b60405180910390f35b610403611794565b6040516104109190611d7a565b60405180910390f35b61042161179a565b60405161042e9190611d7a565b60405180910390f35b61043f6117a0565b60405161044c9190611d7a565b60405180910390f35b61046f600480360381019061046a9190611fc6565b6117a6565b005b61049e335f357fffffffff00000000000000000000000000000000000000000000000000000000166118c7565b6104d4576040517f82b4290000000000000000000000000000000000000000000000000000000000815260040160405180910390fd5b5f73ffffffffffffffffffffffffffffffffffffffff168273ffffffffffffffffffffffffffffffffffffffff1603610539576040517fd92e233d00000000000000000000000000000000000000000000000000000000815260040160405180910390fd5b6101f481111561058457806101f46040517f03fe22fa00000000000000000000000000000000000000000000000000000000815260040161057b9291906121bb565b60405180910390fd5b5f73ffffffffffffffffffffffffffffffffffffffff1660035f8581526020019081526020015f205f015f9054906101000a900473ffffffffffffffffffffffffffffffffffffffff1673ffffffffffffffffffffffffffffffffffffffff161461062657826040517fcd5bd91600000000000000000000000000000000000000000000000000000000815260040161061d9190611e6f565b60405180910390fd5b60405180606001604052808373ffffffffffffffffffffffffffffffffffffffff1681526020018281526020016001151581525060035f8581526020019081526020015f205f820151815f015f6101000a81548173ffffffffffffffffffffffffffffffffffffffff021916908373ffffffffffffffffffffffffffffffffffffffff160217905550602082015181600101556040820151816002015f6101000a81548160ff021916908315150217905550905050600483908060018154018082558091505060019003905f5260205f20015f9091909190915055827f3002bb40053c0e15a814fb7770be56233bcb58b5e2e3789e728497a57bdb86e083836040516107339291906121e2565b60405180910390a2505050565b61076d335f357fffffffff00000000000000000000000000000000000000000000000000000000166118c7565b6107a3576040517f82b4290000000000000000000000000000000000000000000000000000000000815260040160405180910390fd5b808211156107ea5781816040517f661c5f650000000000000000000000000000000000000000000000000000000081526004016107e19291906121bb565b60405180910390fd5b81600781905550806008819055507f191c97414b9f095caa63f64f09a7ff7a678fb8d535075b30afa787cf3fd1be5d82826040516108299291906121bb565b60405180910390a15050565b5f6002805403610871576040517fab143c0600000000000000000000000000000000000000000000000000000000815260040160405180910390fd5b600280819055506108a5335f357fffffffff00000000000000000000000000000000000000000000000000000000166118c7565b6108db576040517f82b4290000000000000000000000000000000000000000000000000000000000815260040160405180910390fd5b5f60035f8b81526020019081526020015f206040518060600160405290815f82015f9054906101000a900473ffffffffffffffffffffffffffffffffffffffff1673ffffffffffffffffffffffffffffffffffffffff1673ffffffffffffffffffffffffffffffffffffffff16815260200160018201548152602001600282015f9054906101000a900460ff161515151581525050905080604001516109b857896040517fb89ccc670000000000000000000000000000000000000000000000000000000081526004016109af9190611e6f565b60405180910390fd5b5f88036109f1576040517f1f2a200500000000000000000000000000000000000000000000000000000000815260040160405180910390fd5b5f5f90505b87879050811015610ae75760055f898984818110610a1757610a16612209565b5b9050602002016020810190610a2c9190611fc6565b73ffffffffffffffffffffffffffffffffffffffff1673ffffffffffffffffffffffffffffffffffffffff1681526020019081526020015f205f9054906101000a900460ff16610ada57878782818110610a8957610a88612209565b5b9050602002016020810190610a9e9190611fc6565b6040517fe8176846000000000000000000000000000000000000000000000000000000008152600401610ad1919061212e565b60405180910390fd5b80806001019150506109f6565b505f610b12308b73ffffffffffffffffffffffffffffffffffffffff16611a0090919063ffffffff16565b90505f5f90505b88889050811015610c26575f898983818110610b3857610b37612209565b5b9050602002016020810190610b4d9190611fc6565b73ffffffffffffffffffffffffffffffffffffffff16888884818110610b7657610b75612209565b5b9050602002810190610b889190612242565b604051610b969291906122e0565b5f604051808303815f865af19150503d805f8114610bcf576040519150601f19603f3d011682016040523d82523d5f602084013e610bd4565b606091505b5050905080610c18576040517f08c379a0000000000000000000000000000000000000000000000000000000008152600401610c0f90612352565b60405180910390fd5b508080600101915050610b19565b505f610c51308c73ffffffffffffffffffffffffffffffffffffffff16611a0090919063ffffffff16565b90505f61271084602001518c610c67919061239d565b610c71919061240b565b90508083610c7f919061243b565b821015610c8e575f9450610ca8565b808383610c9b919061246e565b610ca5919061246e565b94505b85851015610cef5784866040517f4e88422a000000000000000000000000000000000000000000000000000000008152600401610ce69291906121bb565b60405180910390fd5b8b73ffffffffffffffffffffffffffffffffffffffff168d7fce3a4faa63c2e344a14564932d8e29f85e50087e1e13218370235f3e2dcec7a28d84604051610d389291906121bb565b60405180910390a350505050600160028190555098975050505050505050565b6003602052805f5260405f205f91509050805f015f9054906101000a900473ffffffffffffffffffffffffffffffffffffffff1690806001015490806002015f9054906101000a900460ff16905083565b5f60035f8381526020019081526020015f206002015f9054906101000a900460ff169050919050565b60048181548110610de1575f80fd5b905f5260205f20015f915090505481565b610dfa611a5f565b60035f8381526020019081526020015f206040518060600160405290815f82015f9054906101000a900473ffffffffffffffffffffffffffffffffffffffff1673ffffffffffffffffffffffffffffffffffffffff1673ffffffffffffffffffffffffffffffffffffffff16815260200160018201548152602001600282015f9054906101000a900460ff1615151515815250509050919050565b610ec2335f357fffffffff00000000000000000000000000000000000000000000000000000000166118c7565b610ef8576040517f82b4290000000000000000000000000000000000000000000000000000000000815260040160405180910390fd5b5f73ffffffffffffffffffffffffffffffffffffffff168273ffffffffffffffffffffffffffffffffffffffff1603610f5d576040517fd92e233d00000000000000000000000000000000000000000000000000000000815260040160405180910390fd5b8060055f8473ffffffffffffffffffffffffffffffffffffffff1673ffffffffffffffffffffffffffffffffffffffff1681526020019081526020015f205f6101000a81548160ff0219169083151502179055508173ffffffffffffffffffffffffffffffffffffffff167f655e4fa82869de5d03a3a31e048bd522dc8d5b171452e89d1030c081786dd14b82604051610ff79190611e1c565b60405180910390a25050565b5f600480549050905090565b61103c335f357fffffffff00000000000000000000000000000000000000000000000000000000166118c7565b611072576040517f82b4290000000000000000000000000000000000000000000000000000000000815260040160405180910390fd5b5f73ffffffffffffffffffffffffffffffffffffffff1660035f8381526020019081526020015f205f015f9054906101000a900473ffffffffffffffffffffffffffffffffffffffff1673ffffffffffffffffffffffffffffffffffffffff160361111457806040517f5a402a8000000000000000000000000000000000000000000000000000000000815260040161110b9190611e6f565b60405180910390fd5b60035f8281526020019081526020015f205f5f82015f6101000a81549073ffffffffffffffffffffffffffffffffffffffff0219169055600182015f9055600282015f6101000a81549060ff021916905550505f5f90505b60048054905081101561122157816004828154811061118e5761118d612209565b5b905f5260205f2001540361121457600460016004805490506111b0919061246e565b815481106111c1576111c0612209565b5b905f5260205f200154600482815481106111de576111dd612209565b5b905f5260205f20018190555060048054806111fc576111fb6124a1565b5b600190038181905f5260205f20015f90559055611221565b808060010191505061116c565b50807f8ff904e4b42585f1f2cb73869349c4eac41d8715d0bfb32ac1087d9623147c4a60405160405180910390a250565b61127f335f357fffffffff00000000000000000000000000000000000000000000000000000000166118c7565b6112b5576040517f82b4290000000000000000000000000000000000000000000000000000000000815260040160405180910390fd5b5f73ffffffffffffffffffffffffffffffffffffffff168273ffffffffffffffffffffffffffffffffffffffff160361131a576040517fd92e233d00000000000000000000000000000000000000000000000000000000815260040160405180910390fd5b8060065f8473ffffffffffffffffffffffffffffffffffffffff1673ffffffffffffffffffffffffffffffffffffffff1681526020019081526020015f205f6101000a81548160ff0219169083151502179055508173ffffffffffffffffffffffffffffffffffffffff167f9fdbc2d48b8a0db2f62663bf9312ad02f5b1f6414ad600b55a247d09aeec3ea2826040516113b49190611e1c565b60405180910390a25050565b6113ed335f357fffffffff00000000000000000000000000000000000000000000000000000000166118c7565b611423576040517f82b4290000000000000000000000000000000000000000000000000000000000815260040160405180910390fd5b5f73ffffffffffffffffffffffffffffffffffffffff1660035f8581526020019081526020015f205f015f9054906101000a900473ffffffffffffffffffffffffffffffffffffffff1673ffffffffffffffffffffffffffffffffffffffff16036114c557826040517f5a402a800000000000000000000000000000000000000000000000000000000081526004016114bc9190611e6f565b60405180910390fd5b6101f482111561151057816101f46040517f03fe22fa0000000000000000000000000000000000000000000000000000000081526004016115079291906121bb565b60405180910390fd5b8160035f8581526020019081526020015f20600101819055508060035f8581526020019081526020015f206002015f6101000a81548160ff021916908315150217905550827f7186b991304216e25ce88e85460e9a834465d8bb8545980df184321fe1d44b2383836040516115869291906124ce565b60405180910390a2505050565b6006602052805f5260405f205f915054906101000a900460ff1681565b606060048054806020026020016040519081016040528092919081815260200182805480156115fc57602002820191905f5260205f20905b8154815260200190600101908083116115e8575b5050505050905090565b5f5f9054906101000a900473ffffffffffffffffffffffffffffffffffffffff1673ffffffffffffffffffffffffffffffffffffffff163373ffffffffffffffffffffffffffffffffffffffff161461168b576040517f82b4290000000000000000000000000000000000000000000000000000000000815260040160405180910390fd5b8060015f6101000a81548173ffffffffffffffffffffffffffffffffffffffff021916908373ffffffffffffffffffffffffffffffffffffffff1602179055508073ffffffffffffffffffffffffffffffffffffffff163373ffffffffffffffffffffffffffffffffffffffff167fa3396fd7f6e0a21b50e5089d2da70d5ac0a3bbbd1f617a93f134b7638998019860405160405180910390a350565b5f5f9054906101000a900473ffffffffffffffffffffffffffffffffffffffff1681565b60075481565b60015f9054906101000a900473ffffffffffffffffffffffffffffffffffffffff1681565b6005602052805f5260405f205f915054906101000a900460ff1681565b60085481565b6101f481565b61271081565b5f5f9054906101000a900473ffffffffffffffffffffffffffffffffffffffff1673ffffffffffffffffffffffffffffffffffffffff163373ffffffffffffffffffffffffffffffffffffffff161461182b576040517f82b4290000000000000000000000000000000000000000000000000000000000815260040160405180910390fd5b805f5f6101000a81548173ffffffffffffffffffffffffffffffffffffffff021916908373ffffffffffffffffffffffffffffffffffffffff1602179055508073ffffffffffffffffffffffffffffffffffffffff163373ffffffffffffffffffffffffffffffffffffffff167f8be0079c531659141344cd1fd0a4f28419497f9722a3daafe3b4186f6b6457e060405160405180910390a350565b5f5f60015f9054906101000a900473ffffffffffffffffffffffffffffffffffffffff1690505f73ffffffffffffffffffffffffffffffffffffffff168173ffffffffffffffffffffffffffffffffffffffff16141580156119a157508073ffffffffffffffffffffffffffffffffffffffff1663b70096138530866040518463ffffffff1660e01b81526004016119619392919061252f565b602060405180830381865afa15801561197c573d5f5f3e3d5ffd5b505050506040513d601f19601f820116820180604052508101906119a09190612578565b5b806119f757505f5f9054906101000a900473ffffffffffffffffffffffffffffffffffffffff1673ffffffffffffffffffffffffffffffffffffffff168473ffffffffffffffffffffffffffffffffffffffff16145b91505092915050565b5f6040517f70a0823100000000000000000000000000000000000000000000000000000000815273ffffffffffffffffffffffffffffffffffffffff83166004820152602081602483875afa611a54575f5ffd5b805191505092915050565b60405180606001604052805f73ffffffffffffffffffffffffffffffffffffffff1681526020015f81526020015f151581525090565b5f5ffd5b5f5ffd5b5f819050919050565b611aaf81611a9d565b8114611ab9575f5ffd5b50565b5f81359050611aca81611aa6565b92915050565b5f73ffffffffffffffffffffffffffffffffffffffff82169050919050565b5f611af982611ad0565b9050919050565b611b0981611aef565b8114611b13575f5ffd5b50565b5f81359050611b2481611b00565b92915050565b5f819050919050565b611b3c81611b2a565b8114611b46575f5ffd5b50565b5f81359050611b5781611b33565b92915050565b5f5f5f60608486031215611b7457611b73611a95565b5b5f611b8186828701611abc565b9350506020611b9286828701611b16565b9250506040611ba386828701611b49565b9150509250925092565b5f5f60408385031215611bc357611bc2611a95565b5b5f611bd085828601611b49565b9250506020611be185828601611b49565b9150509250929050565b5f5ffd5b5f5ffd5b5f5ffd5b5f5f83601f840112611c0c57611c0b611beb565b5b8235905067ffffffffffffffff811115611c2957611c28611bef565b5b602083019150836020820283011115611c4557611c44611bf3565b5b9250929050565b5f5f83601f840112611c6157611c60611beb565b5b8235905067ffffffffffffffff811115611c7e57611c7d611bef565b5b602083019150836020820283011115611c9a57611c99611bf3565b5b9250929050565b5f5f5f5f5f5f5f5f60c0898b031215611cbd57611cbc611a95565b5b5f611cca8b828c01611abc565b9850506020611cdb8b828c01611b16565b9750506040611cec8b828c01611b49565b965050606089013567ffffffffffffffff811115611d0d57611d0c611a99565b5b611d198b828c01611bf7565b9550955050608089013567ffffffffffffffff811115611d3c57611d3b611a99565b5b611d488b828c01611c4c565b935093505060a0611d5b8b828c01611b49565b9150509295985092959890939650565b611d7481611b2a565b82525050565b5f602082019050611d8d5f830184611d6b565b92915050565b5f60208284031215611da857611da7611a95565b5b5f611db584828501611abc565b91505092915050565b611dc781611aef565b82525050565b5f8115159050919050565b611de181611dcd565b82525050565b5f606082019050611dfa5f830186611dbe565b611e076020830185611d6b565b611e146040830184611dd8565b949350505050565b5f602082019050611e2f5f830184611dd8565b92915050565b5f60208284031215611e4a57611e49611a95565b5b5f611e5784828501611b49565b91505092915050565b611e6981611a9d565b82525050565b5f602082019050611e825f830184611e60565b92915050565b611e9181611aef565b82525050565b611ea081611b2a565b82525050565b611eaf81611dcd565b82525050565b606082015f820151611ec95f850182611e88565b506020820151611edc6020850182611e97565b506040820151611eef6040850182611ea6565b50505050565b5f606082019050611f085f830184611eb5565b92915050565b611f1781611dcd565b8114611f21575f5ffd5b50565b5f81359050611f3281611f0e565b92915050565b5f5f60408385031215611f4e57611f4d611a95565b5b5f611f5b85828601611b16565b9250506020611f6c85828601611f24565b9150509250929050565b5f5f5f60608486031215611f8d57611f8c611a95565b5b5f611f9a86828701611abc565b9350506020611fab86828701611b49565b9250506040611fbc86828701611f24565b9150509250925092565b5f60208284031215611fdb57611fda611a95565b5b5f611fe884828501611b16565b91505092915050565b5f81519050919050565b5f82825260208201905092915050565b5f819050602082019050919050565b61202381611a9d565b82525050565b5f612034838361201a565b60208301905092915050565b5f602082019050919050565b5f61205682611ff1565b6120608185611ffb565b935061206b8361200b565b805f5b8381101561209b5781516120828882612029565b975061208d83612040565b92505060018101905061206e565b5085935050505092915050565b5f6020820190508181035f8301526120c0818461204c565b905092915050565b5f6120d282611aef565b9050919050565b6120e2816120c8565b81146120ec575f5ffd5b50565b5f813590506120fd816120d9565b92915050565b5f6020828403121561211857612117611a95565b5b5f612125848285016120ef565b91505092915050565b5f6020820190506121415f830184611dbe565b92915050565b5f819050919050565b5f61216a61216561216084611ad0565b612147565b611ad0565b9050919050565b5f61217b82612150565b9050919050565b5f61218c82612171565b9050919050565b61219c81612182565b82525050565b5f6020820190506121b55f830184612193565b92915050565b5f6040820190506121ce5f830185611d6b565b6121db6020830184611d6b565b9392505050565b5f6040820190506121f55f830185611dbe565b6122026020830184611d6b565b9392505050565b7f4e487b71000000000000000000000000000000000000000000000000000000005f52603260045260245ffd5b5f5ffd5b5f5ffd5b5f5ffd5b5f5f8335600160200384360303811261225e5761225d612236565b5b80840192508235915067ffffffffffffffff8211156122805761227f61223a565b5b60208301925060018202360383131561229c5761229b61223e565b5b509250929050565b5f81905092915050565b828183375f83830152505050565b5f6122c783856122a4565b93506122d48385846122ae565b82840190509392505050565b5f6122ec8284866122bc565b91508190509392505050565b5f82825260208201905092915050565b7f535741505f4641494c45440000000000000000000000000000000000000000005f82015250565b5f61233c600b836122f8565b915061234782612308565b602082019050919050565b5f6020820190508181035f83015261236981612330565b9050919050565b7f4e487b71000000000000000000000000000000000000000000000000000000005f52601160045260245ffd5b5f6123a782611b2a565b91506123b283611b2a565b92508282026123c081611b2a565b915082820484148315176123d7576123d6612370565b5b5092915050565b7f4e487b71000000000000000000000000000000000000000000000000000000005f52601260045260245ffd5b5f61241582611b2a565b915061242083611b2a565b9250826124305761242f6123de565b5b828204905092915050565b5f61244582611b2a565b915061245083611b2a565b925082820190508082111561246857612467612370565b5b92915050565b5f61247882611b2a565b915061248383611b2a565b925082820390508181111561249b5761249a612370565b5b92915050565b7f4e487b71000000000000000000000000000000000000000000000000000000005f52603160045260245ffd5b5f6040820190506124e15f830185611d6b565b6124ee6020830184611dd8565b9392505050565b5f7fffffffff0000000000000000000000000000000000000000000000000000000082169050919050565b612529816124f5565b82525050565b5f6060820190506125425f830186611dbe565b61254f6020830185611dbe565b61255c6040830184612520565b949350505050565b5f8151905061257281611f0e565b92915050565b5f6020828403121561258d5761258c611a95565b5b5f61259a84828501612564565b9150509291505056fea26469706673582212201b10530fca03e675cb163e9616cc64948068208d947f3cd7921ec13df3ccc8be64736f6c634300081e0033","linkReferences":{}},"methodIdentifiers":{"BPS_DENOMINATOR()":"e1a45218","MAX_FEE_BPS()":"d55be8c6","addProvider(bytes32,address,uint256)":"0392f1bb","authority()":"bf7e214f","authorizedExecutors(address)":"679d86a7","defaultSlippageBps()":"96667621","executeFlashLoanArbitrage(bytes32,address,uint256,address[],bytes[],uint256)":"1408e119","getAllProviderIds()":"76f30174","getProvider(bytes32)":"33c0950a","getProviderCount()":"46ce4175","isProviderActive(bytes32)":"1d661b47","maxSlippageBps()":"c4aa7395","owner()":"8da5cb5b","providerIds(uint256)":"2c18e9a5","providers(bytes32)":"1acc050e","removeProvider(bytes32)":"602fdf0b","setAuthority(address)":"7a9e5e4b","setDexRouterWhitelist(address,bool)":"363cc3ad","setExecutorStatus(address,bool)":"62bb2f40","setSlippageLimits(uint256,uint256)":"0b29f032","transferOwnership(address)":"f2fde38b","updateProvider(bytes32,uint256,bool)":"6605a2dd","whitelistedDexRouters(address)":"c38f7af4"},"id":34}