{"abi":[{"type":"constructor","inputs":[{"name":"_owner","type":"address","internalType":"address"},{"name":"_authority","type":"address","internalType":"contract Authority"}],"stateMutability":"nonpayable"},{"type":"function","name":"MAX_STRATEGIES","inputs":[],"outputs":[{"name":"","type":"uint256","internalType":"uint256"}],"stateMutability":"view"},{"type":"function","name":"addStrategy","inputs":[{"name":"strategyId","type":"bytes32","internalType":"bytes32"},{"name":"strategyType","type":"uint8","internalType":"enum StrategyOrchestrator.StrategyType"},{"name":"capitalAllocation","type":"uint256","internalType":"uint256"},{"name":"riskTolerance","type":"uint256","internalType":"uint256"},{"name":"profitTarget","type":"uint256","internalType":"uint256"},{"name":"stopLoss","type":"uint256","internalType":"uint256"}],"outputs":[],"stateMutability":"nonpayable"},{"type":"function","name":"authority","inputs":[],"outputs":[{"name":"","type":"address","internalType":"contract Authority"}],"stateMutability":"view"},{"type":"function","name":"executeStrategyFlow","inputs":[{"name":"strategyId","type":"bytes32","internalType":"bytes32"}],"outputs":[{"name":"","type":"bool","internalType":"bool"}],"stateMutability":"nonpayable"},{"type":"function","name":"getActiveStrategies","inputs":[],"outputs":[{"name":"","type":"bytes32[]","internalType":"bytes32[]"}],"stateMutability":"view"},{"type":"function","name":"getStrategiesByType","inputs":[{"name":"strategyType","type":"uint8","internalType":"enum StrategyOrchestrator.StrategyType"}],"outputs":[{"name":"","type":"bytes32[]","internalType":"bytes32[]"}],"stateMutability":"view"},{"type":"function","name":"getStrategiesPaginated","inputs":[{"name":"offset","type":"uint256","internalType":"uint256"},{"name":"limit","type":"uint256","internalType":"uint256"}],"outputs":[{"name":"result","type":"tuple[]","internalType":"struct StrategyOrchestrator.StrategyConfig[]","components":[{"name":"strategyId","type":"bytes32","internalType":"bytes32"},{"name":"strategyType","type":"uint8","internalType":"enum StrategyOrchestrator.StrategyType"},{"name":"capitalAllocation","type":"uint256","internalType":"uint256"},{"name":"riskTolerance","type":"uint256","internalType":"uint256"},{"name":"profitTarget","type":"uint256","internalType":"uint256"},{"name":"stopLoss","type":"uint256","internalType":"uint256"},{"name":"active","type":"bool","internalType":"bool"},{"name":"createdAt","type":"uint256","internalType":"uint256"},{"name":"lastExecutedAt","type":"uint256","internalType":"uint256"}]},{"name":"total","type":"uint256","internalType":"uint256"}],"stateMutability":"view"},{"type":"function","name":"getStrategy","inputs":[{"name":"strategyId","type":"bytes32","internalType":"bytes32"}],"outputs":[{"name":"","type":"tuple","internalType":"struct StrategyOrchestrator.StrategyConfig","components":[{"name":"strategyId","type":"bytes32","internalType":"bytes32"},{"name":"strategyType","type":"uint8","internalType":"enum StrategyOrchestrator.StrategyType"},{"name":"capitalAllocation","type":"uint256","internalType":"uint256"},{"name":"riskTolerance","type":"uint256","internalType":"uint256"},{"name":"profitTarget","type":"uint256","internalType":"uint256"},{"name":"stopLoss","type":"uint256","internalType":"uint256"},{"name":"active","type":"bool","internalType":"bool"},{"name":"createdAt","type":"uint256","internalType":"uint256"},{"name":"lastExecutedAt","type":"uint256","internalType":"uint256"}]}],"stateMutability":"view"},{"type":"function","name":"getStrategyCount","inputs":[],"outputs":[{"name":"","type":"uint256","internalType":"uint256"}],"stateMutability":"view"},{"type":"function","name":"owner","inputs":[],"outputs":[{"name":"","type":"address","internalType":"address"}],"stateMutability":"view"},{"type":"function","name":"removeStrategy","inputs":[{"name":"strategyId","type":"bytes32","internalType":"bytes32"}],"outputs":[],"stateMutability":"nonpayable"},{"type":"function","name":"setAuthority","inputs":[{"name":"newAuthority","type":"address","internalType":"contract Authority"}],"outputs":[],"stateMutability":"nonpayable"},{"type":"function","name":"strategies","inputs":[{"name":"","type":"bytes32","internalType":"bytes32"}],"outputs":[{"name":"strategyId","type":"bytes32","internalType":"bytes32"},{"name":"strategyType","type":"uint8","internalType":"enum StrategyOrchestrator.StrategyType"},{"name":"capitalAllocation","type":"uint256","internalType":"uint256"},{"name":"riskTolerance","type":"uint256","internalType":"uint256"},{"name":"profitTarget","type":"uint256","internalType":"uint256"},{"name":"stopLoss","type":"uint256","internalType":"uint256"},{"name":"active","type":"bool","internalType":"bool"},{"name":"createdAt","type":"uint256","internalType":"uint256"},{"name":"lastExecutedAt","type":"uint256","internalType":"uint256"}],"stateMutability":"view"},{"type":"function","name":"strategyIds","inputs":[{"name":"","type":"uint256","internalType":"uint256"}],"outputs":[{"name":"","type":"bytes32","internalType":"bytes32"}],"stateMutability":"view"},{"type":"function","name":"strategyTypeCount","inputs":[{"name":"","type":"uint8","internalType":"enum StrategyOrchestrator.StrategyType"}],"outputs":[{"name":"","type":"uint256","internalType":"uint256"}],"stateMutability":"view"},{"type":"function","name":"toggleStrategy","inputs":[{"name":"strategyId","type":"bytes32","internalType":"bytes32"},{"name":"active","type":"bool","internalType":"bool"}],"outputs":[],"stateMutability":"nonpayable"},{"type":"function","name":"transferOwnership","inputs":[{"name":"newOwner","type":"address","internalType":"address"}],"outputs":[],"stateMutability":"nonpayable"},{"type":"function","name":"updateStrategy","inputs":[{"name":"strategyId","type":"bytes32","internalType":"bytes32"},{"name":"capitalAllocation","type":"uint256","internalType":"uint256"},{"name":"riskTolerance","type":"uint256","internalType":"uint256"},{"name":"profitTarget","type":"uint256","internalType":"uint256"},{"name":"stopLoss","type":"uint256","internalType":"uint256"}],"outputs":[],"stateMutability":"nonpayable"},{"type":"event","name":"AuthorityUpdated","inputs":[{"name":"user","type":"address","indexed":true,"internalType":"address"},{"name":"newAuthority","type":"address","indexed":true,"internalType":"contract Authority"}],"anonymous":false},{"type":"event","name":"OwnershipTransferred","inputs":[{"name":"user","type":"address","indexed":true,"internalType":"address"},{"name":"newOwner","type":"address","indexed":true,"internalType":"address"}],"anonymous":false},{"type":"event","name":"StrategyAdded","inputs":[{"name":"strategyId","type":"bytes32","indexed":true,"internalType":"bytes32"},{"name":"strategyType","type":"uint8","indexed":false,"internalType":"enum StrategyOrchestrator.StrategyType"},{"name":"capitalAllocation","type":"uint256","indexed":false,"internalType":"uint256"}],"anonymous":false},{"type":"event","name":"StrategyExecuted","inputs":[{"name":"strategyId","type":"bytes32","indexed":true,"internalType":"bytes32"},{"name":"profit","type":"uint256","indexed":false,"internalType":"uint256"},{"name":"timestamp","type":"uint256","indexed":false,"internalType":"uint256"}],"anonymous":false},{"type":"event","name":"StrategyRemoved","inputs":[{"name":"strategyId","type":"bytes32","indexed":true,"internalType":"bytes32"}],"anonymous":false},{"type":"event","name":"StrategyToggled","inputs":[{"name":"strategyId","type":"bytes32","indexed":true,"internalType":"bytes32"},{"name":"active","type":"bool","indexed":false,"internalType":"bool"}],"anonymous":false},{"type":"event","name":"StrategyUpdated","inputs":[{"name":"strategyId","type":"bytes32","indexed":true,"internalType":"bytes32"},{"name":"capitalAllocation","type":"uint256","indexed":false,"internalType":"uint256"},{"name":"riskTolerance","type":"uint256","indexed":false,"internalType":"uint256"}],"anonymous":false},{"type":"error","name":"InvalidCapitalAllocation","inputs":[]},{"type":"error","name":"InvalidRiskTolerance","inputs":[]},{"type":"error","name":"MaxStrategiesReached","inputs":[{"name":"current","type":"uint256","internalType":"uint256"},{"name":"max","type":"uint256","internalType":"uint256"}]},{"type":"error","name":"StrategyAlreadyExists","inputs":[{"name":"strategyId","type":"bytes32","internalType":"bytes32"}]},{"type":"error","name":"StrategyNotActive","inputs":[{"name":"strategyId","type":"bytes32","internalType":"bytes32"}]},{"type":"error","name":"StrategyNotFound","inputs":[{"name":"strategyId","type":"bytes32","internalType":"bytes32"}]},{"type":"error","name":"Unauthorized","inputs":[]}],"bytecode":{"object":"0x608060405234801561000f575f5ffd5b5060405161271738038061271783398181016040528101906100319190610208565b8181815f5f6101000a81548173ffffffffffffffffffffffffffffffffffffffff021916908373ffffffffffffffffffffffffffffffffffffffff1602179055508060015f6101000a81548173ffffffffffffffffffffffffffffffffffffffff021916908373ffffffffffffffffffffffffffffffffffffffff1602179055508173ffffffffffffffffffffffffffffffffffffffff165f73ffffffffffffffffffffffffffffffffffffffff167f8be0079c531659141344cd1fd0a4f28419497f9722a3daafe3b4186f6b6457e060405160405180910390a38073ffffffffffffffffffffffffffffffffffffffff165f73ffffffffffffffffffffffffffffffffffffffff167fa3396fd7f6e0a21b50e5089d2da70d5ac0a3bbbd1f617a93f134b7638998019860405160405180910390a350505050610246565b5f5ffd5b5f73ffffffffffffffffffffffffffffffffffffffff82169050919050565b5f61019c82610173565b9050919050565b6101ac81610192565b81146101b6575f5ffd5b50565b5f815190506101c7816101a3565b92915050565b5f6101d782610192565b9050919050565b6101e7816101cd565b81146101f1575f5ffd5b50565b5f81519050610202816101de565b92915050565b5f5f6040838503121561021e5761021d61016f565b5b5f61022b858286016101b9565b925050602061023c858286016101f4565b9150509250929050565b6124c4806102535f395ff3fe608060405234801561000f575f5ffd5b5060043610610114575f3560e01c806392ca6601116100a0578063e065a9eb1161006f578063e065a9eb146102fa578063e0d528fa1461032b578063f1e2ecc21461035b578063f2fde38b14610377578063f6e9016c1461039357610114565b806392ca660114610260578063b9d56e9414610290578063bf7e214f146102ac578063de741225146102ca57610114565b8063553bdff7116100e7578063553bdff7146101ce578063587436e4146101ea578063767f06ae146102085780637a9e5e4b146102265780638da5cb5b1461024257610114565b806328c84bbd146101185780632dc1eaf01461014857806331e19cfa146101785780633ff34eb914610196575b5f5ffd5b610132600480360381019061012d91906118c6565b6103af565b60405161013f9190611a5a565b60405180910390f35b610162600480360381019061015d9190611a9e565b610474565b60405161016f9190611ad8565b60405180910390f35b610180610494565b60405161018d9190611b00565b60405180910390f35b6101b060048036038101906101ab91906118c6565b6104a0565b6040516101c599989796959493929190611b37565b60405180910390f35b6101e860048036038101906101e39190611bec565b610502565b005b6101f2610624565b6040516101ff9190611cd2565b60405180910390f35b61021061079f565b60405161021d9190611b00565b60405180910390f35b610240600480360381019061023b9190611d5d565b6107a4565b005b61024a6108c6565b6040516102579190611d97565b60405180910390f35b61027a60048036038101906102759190611dd3565b6108ea565b6040516102879190611b00565b60405180910390f35b6102aa60048036038101906102a59190611dfe565b6108ff565b005b6102b4610aa8565b6040516102c19190611ed0565b60405180910390f35b6102e460048036038101906102df9190611dd3565b610acd565b6040516102f19190611cd2565b60405180910390f35b610314600480360381019061030f9190611ee9565b610c44565b604051610322929190612085565b60405180910390f35b610345600480360381019061034091906118c6565b610e48565b60405161035291906120b3565b60405180910390f35b610375600480360381019061037091906120cc565b610fa7565b005b610391600480360381019061038c919061217f565b6112d6565b005b6103ad60048036038101906103a891906118c6565b6113f7565b005b6103b7611838565b60025f8381526020019081526020015f20604051806101200160405290815f8201548152602001600182015f9054906101000a900460ff16600581111561040157610400611900565b5b600581111561041357610412611900565b5b815260200160028201548152602001600382015481526020016004820154815260200160058201548152602001600682015f9054906101000a900460ff16151515158152602001600782015481526020016008820154815250509050919050565b60038181548110610483575f80fd5b905f5260205f20015f915090505481565b5f600380549050905090565b6002602052805f5260405f205f91509050805f015490806001015f9054906101000a900460ff1690806002015490806003015490806004015490806005015490806006015f9054906101000a900460ff16908060070154908060080154905089565b61052f335f357fffffffff00000000000000000000000000000000000000000000000000000000166116ff565b610565576040517f82b4290000000000000000000000000000000000000000000000000000000000815260040160405180910390fd5b5f60025f8481526020019081526020015f2060070154036105bd57816040517f5c66724c0000000000000000000000000000000000000000000000000000000081526004016105b49190611ad8565b60405180910390fd5b8060025f8481526020019081526020015f206006015f6101000a81548160ff021916908315150217905550817facb36b91af963483f3c6c1328f88689fd7a552fdb0b394aebfafc4f7e9ac23558260405161061891906120b3565b60405180910390a25050565b60605f5f90505f5f90505b60038054905081101561069a5760025f60038381548110610653576106526121aa565b5b905f5260205f20015481526020019081526020015f206006015f9054906101000a900460ff161561068d57818061068990612204565b9250505b808060010191505061062f565b505f8167ffffffffffffffff8111156106b6576106b561224b565b5b6040519080825280602002602001820160405280156106e45781602001602082028036833780820191505090505b5090505f5f90505f5f90505b6003805490508110156107955760025f60038381548110610714576107136121aa565b5b905f5260205f20015481526020019081526020015f206006015f9054906101000a900460ff16156107885760038181548110610753576107526121aa565b5b905f5260205f20015483838061076890612204565b94508151811061077b5761077a6121aa565b5b6020026020010181815250505b80806001019150506106f0565b5081935050505090565b606481565b5f5f9054906101000a900473ffffffffffffffffffffffffffffffffffffffff1673ffffffffffffffffffffffffffffffffffffffff163373ffffffffffffffffffffffffffffffffffffffff1614610829576040517f82b4290000000000000000000000000000000000000000000000000000000000815260040160405180910390fd5b8060015f6101000a81548173ffffffffffffffffffffffffffffffffffffffff021916908373ffffffffffffffffffffffffffffffffffffffff1602179055508073ffffffffffffffffffffffffffffffffffffffff163373ffffffffffffffffffffffffffffffffffffffff167fa3396fd7f6e0a21b50e5089d2da70d5ac0a3bbbd1f617a93f134b7638998019860405160405180910390a350565b5f5f9054906101000a900473ffffffffffffffffffffffffffffffffffffffff1681565b6004602052805f5260405f205f915090505481565b61092c335f357fffffffff00000000000000000000000000000000000000000000000000000000166116ff565b610962576040517f82b4290000000000000000000000000000000000000000000000000000000000815260040160405180910390fd5b5f60025f8781526020019081526020015f2060070154036109ba57846040517f5c66724c0000000000000000000000000000000000000000000000000000000081526004016109b19190611ad8565b60405180910390fd5b5f84036109f3576040517fbdc9b78600000000000000000000000000000000000000000000000000000000815260040160405180910390fd5b6064831115610a2e576040517f1b513bd800000000000000000000000000000000000000000000000000000000815260040160405180910390fd5b5f60025f8781526020019081526020015f209050848160020181905550838160030181905550828160040181905550818160050181905550857fa48412e66025242c052e9062cd3c496ca6a49577cd255e583aa36a0a8473c4068686604051610a98929190612278565b60405180910390a2505050505050565b60015f9054906101000a900473ffffffffffffffffffffffffffffffffffffffff1681565b60605f60045f846005811115610ae657610ae5611900565b5b6005811115610af857610af7611900565b5b81526020019081526020015f205490505f8167ffffffffffffffff811115610b2357610b2261224b565b5b604051908082528060200260200182016040528015610b515781602001602082028036833780820191505090505b5090505f5f90505f5f90505b60038054905081108015610b7057508382105b15610c3857856005811115610b8857610b87611900565b5b60025f60038481548110610b9f57610b9e6121aa565b5b905f5260205f20015481526020019081526020015f206001015f9054906101000a900460ff166005811115610bd757610bd6611900565b5b03610c255760038181548110610bf057610bef6121aa565b5b905f5260205f200154838380610c0590612204565b945081518110610c1857610c176121aa565b5b6020026020010181815250505b8080610c3090612204565b915050610b5d565b50819350505050919050565b60605f6003805490509050808410610cb1575f67ffffffffffffffff811115610c7057610c6f61224b565b5b604051908082528060200260200182016040528015610ca957816020015b610c96611838565b815260200190600190039081610c8e5790505b509150610e41565b5f8482610cbe919061229f565b90505f848210610cce5784610cd0565b815b90508067ffffffffffffffff811115610cec57610ceb61224b565b5b604051908082528060200260200182016040528015610d2557816020015b610d12611838565b815260200190600190039081610d0a5790505b5093505f5f90505b81811015610e3d5760025f6003838a610d4691906122d2565b81548110610d5757610d566121aa565b5b905f5260205f20015481526020019081526020015f20604051806101200160405290815f8201548152602001600182015f9054906101000a900460ff166005811115610da657610da5611900565b5b6005811115610db857610db7611900565b5b815260200160028201548152602001600382015481526020016004820154815260200160058201548152602001600682015f9054906101000a900460ff1615151515815260200160078201548152602001600882015481525050858281518110610e2557610e246121aa565b5b60200260200101819052508080600101915050610d2d565b5050505b9250929050565b5f610e76335f357fffffffff00000000000000000000000000000000000000000000000000000000166116ff565b610eac576040517f82b4290000000000000000000000000000000000000000000000000000000000815260040160405180910390fd5b5f60025f8481526020019081526020015f2090505f816007015403610f0857826040517f5c66724c000000000000000000000000000000000000000000000000000000008152600401610eff9190611ad8565b60405180910390fd5b806006015f9054906101000a900460ff16610f5a57826040517fc46fed16000000000000000000000000000000000000000000000000000000008152600401610f519190611ad8565b60405180910390fd5b428160080181905550827ffbe74b6a86d74ac8d81b6ae27a2754c5d8a0e61ab54e14d1696033eda36af91a5f42604051610f9592919061233e565b60405180910390a26001915050919050565b610fd4335f357fffffffff00000000000000000000000000000000000000000000000000000000166116ff565b61100a576040517f82b4290000000000000000000000000000000000000000000000000000000000815260040160405180910390fd5b60646003805490501061105c5760038054905060646040517f73a519e5000000000000000000000000000000000000000000000000000000008152600401611053929190612278565b60405180910390fd5b5f60025f8881526020019081526020015f2060070154146110b457856040517f6409ce550000000000000000000000000000000000000000000000000000000081526004016110ab9190611ad8565b60405180910390fd5b5f84036110ed576040517fbdc9b78600000000000000000000000000000000000000000000000000000000815260040160405180910390fd5b6064831115611128576040517f1b513bd800000000000000000000000000000000000000000000000000000000815260040160405180910390fd5b60405180610120016040528087815260200186600581111561114d5761114c611900565b5b81526020018581526020018481526020018381526020018281526020016001151581526020014281526020015f81525060025f8881526020019081526020015f205f820151815f01556020820151816001015f6101000a81548160ff021916908360058111156111c0576111bf611900565b5b021790555060408201518160020155606082015181600301556080820151816004015560a0820151816005015560c0820151816006015f6101000a81548160ff02191690831515021790555060e082015181600701556101008201518160080155905050600386908060018154018082558091505060019003905f5260205f20015f909190919091505560045f8660058111156112605761125f611900565b5b600581111561127257611271611900565b5b81526020019081526020015f205f81548092919061128f90612204565b9190505550857fb4ea640a8c4f16d947fdeff0e30601f4c53dd4a69839a3531eb77a9b25a4c27986866040516112c6929190612365565b60405180910390a2505050505050565b5f5f9054906101000a900473ffffffffffffffffffffffffffffffffffffffff1673ffffffffffffffffffffffffffffffffffffffff163373ffffffffffffffffffffffffffffffffffffffff161461135b576040517f82b4290000000000000000000000000000000000000000000000000000000000815260040160405180910390fd5b805f5f6101000a81548173ffffffffffffffffffffffffffffffffffffffff021916908373ffffffffffffffffffffffffffffffffffffffff1602179055508073ffffffffffffffffffffffffffffffffffffffff163373ffffffffffffffffffffffffffffffffffffffff167f8be0079c531659141344cd1fd0a4f28419497f9722a3daafe3b4186f6b6457e060405160405180910390a350565b611424335f357fffffffff00000000000000000000000000000000000000000000000000000000166116ff565b61145a576040517f82b4290000000000000000000000000000000000000000000000000000000000815260040160405180910390fd5b5f60025f8381526020019081526020015f20604051806101200160405290815f8201548152602001600182015f9054906101000a900460ff1660058111156114a5576114a4611900565b5b60058111156114b7576114b6611900565b5b815260200160028201548152602001600382015481526020016004820154815260200160058201548152602001600682015f9054906101000a900460ff161515151581526020016007820154815260200160088201548152505090505f8160e001510361155b57816040517f5c66724c0000000000000000000000000000000000000000000000000000000081526004016115529190611ad8565b60405180910390fd5b60045f8260200151600581111561157557611574611900565b5b600581111561158757611586611900565b5b81526020019081526020015f205f8154809291906115a49061238c565b919050555060025f8381526020019081526020015f205f5f82015f9055600182015f6101000a81549060ff0219169055600282015f9055600382015f9055600482015f9055600582015f9055600682015f6101000a81549060ff0219169055600782015f9055600882015f905550505f5f90505b6003805490508110156116cd57826003828154811061163a576116396121aa565b5b905f5260205f200154036116c0576003600160038054905061165c919061229f565b8154811061166d5761166c6121aa565b5b905f5260205f2001546003828154811061168a576116896121aa565b5b905f5260205f20018190555060038054806116a8576116a76123b3565b5b600190038181905f5260205f20015f905590556116cd565b8080600101915050611618565b50817fc461e1e12b72099557560f27b379a579bc7713e54dfe6c01aef4c18b770efbbd60405160405180910390a25050565b5f5f60015f9054906101000a900473ffffffffffffffffffffffffffffffffffffffff1690505f73ffffffffffffffffffffffffffffffffffffffff168173ffffffffffffffffffffffffffffffffffffffff16141580156117d957508073ffffffffffffffffffffffffffffffffffffffff1663b70096138530866040518463ffffffff1660e01b81526004016117999392919061241a565b602060405180830381865afa1580156117b4573d5f5f3e3d5ffd5b505050506040513d601f19601f820116820180604052508101906117d89190612463565b5b8061182f57505f5f9054906101000a900473ffffffffffffffffffffffffffffffffffffffff1673ffffffffffffffffffffffffffffffffffffffff168473ffffffffffffffffffffffffffffffffffffffff16145b91505092915050565b6040518061012001604052805f81526020015f600581111561185d5761185c611900565b5b81526020015f81526020015f81526020015f81526020015f81526020015f151581526020015f81526020015f81525090565b5f5ffd5b5f819050919050565b6118a581611893565b81146118af575f5ffd5b50565b5f813590506118c08161189c565b92915050565b5f602082840312156118db576118da61188f565b5b5f6118e8848285016118b2565b91505092915050565b6118fa81611893565b82525050565b7f4e487b71000000000000000000000000000000000000000000000000000000005f52602160045260245ffd5b6006811061193e5761193d611900565b5b50565b5f81905061194e8261192d565b919050565b5f61195d82611941565b9050919050565b61196d81611953565b82525050565b5f819050919050565b61198581611973565b82525050565b5f8115159050919050565b61199f8161198b565b82525050565b61012082015f8201516119ba5f8501826118f1565b5060208201516119cd6020850182611964565b5060408201516119e0604085018261197c565b5060608201516119f3606085018261197c565b506080820151611a06608085018261197c565b5060a0820151611a1960a085018261197c565b5060c0820151611a2c60c0850182611996565b5060e0820151611a3f60e085018261197c565b50610100820151611a5461010085018261197c565b50505050565b5f61012082019050611a6e5f8301846119a5565b92915050565b611a7d81611973565b8114611a87575f5ffd5b50565b5f81359050611a9881611a74565b92915050565b5f60208284031215611ab357611ab261188f565b5b5f611ac084828501611a8a565b91505092915050565b611ad281611893565b82525050565b5f602082019050611aeb5f830184611ac9565b92915050565b611afa81611973565b82525050565b5f602082019050611b135f830184611af1565b92915050565b611b2281611953565b82525050565b611b318161198b565b82525050565b5f61012082019050611b4b5f83018c611ac9565b611b58602083018b611b19565b611b65604083018a611af1565b611b726060830189611af1565b611b7f6080830188611af1565b611b8c60a0830187611af1565b611b9960c0830186611b28565b611ba660e0830185611af1565b611bb4610100830184611af1565b9a9950505050505050505050565b611bcb8161198b565b8114611bd5575f5ffd5b50565b5f81359050611be681611bc2565b92915050565b5f5f60408385031215611c0257611c0161188f565b5b5f611c0f858286016118b2565b9250506020611c2085828601611bd8565b9150509250929050565b5f81519050919050565b5f82825260208201905092915050565b5f819050602082019050919050565b5f611c5e83836118f1565b60208301905092915050565b5f602082019050919050565b5f611c8082611c2a565b611c8a8185611c34565b9350611c9583611c44565b805f5b83811015611cc5578151611cac8882611c53565b9750611cb783611c6a565b925050600181019050611c98565b5085935050505092915050565b5f6020820190508181035f830152611cea8184611c76565b905092915050565b5f73ffffffffffffffffffffffffffffffffffffffff82169050919050565b5f611d1b82611cf2565b9050919050565b5f611d2c82611d11565b9050919050565b611d3c81611d22565b8114611d46575f5ffd5b50565b5f81359050611d5781611d33565b92915050565b5f60208284031215611d7257611d7161188f565b5b5f611d7f84828501611d49565b91505092915050565b611d9181611d11565b82525050565b5f602082019050611daa5f830184611d88565b92915050565b60068110611dbc575f5ffd5b50565b5f81359050611dcd81611db0565b92915050565b5f60208284031215611de857611de761188f565b5b5f611df584828501611dbf565b91505092915050565b5f5f5f5f5f60a08688031215611e1757611e1661188f565b5b5f611e24888289016118b2565b9550506020611e3588828901611a8a565b9450506040611e4688828901611a8a565b9350506060611e5788828901611a8a565b9250506080611e6888828901611a8a565b9150509295509295909350565b5f819050919050565b5f611e98611e93611e8e84611cf2565b611e75565b611cf2565b9050919050565b5f611ea982611e7e565b9050919050565b5f611eba82611e9f565b9050919050565b611eca81611eb0565b82525050565b5f602082019050611ee35f830184611ec1565b92915050565b5f5f60408385031215611eff57611efe61188f565b5b5f611f0c85828601611a8a565b9250506020611f1d85828601611a8a565b9150509250929050565b5f81519050919050565b5f82825260208201905092915050565b5f819050602082019050919050565b61012082015f820151611f655f8501826118f1565b506020820151611f786020850182611964565b506040820151611f8b604085018261197c565b506060820151611f9e606085018261197c565b506080820151611fb1608085018261197c565b5060a0820151611fc460a085018261197c565b5060c0820151611fd760c0850182611996565b5060e0820151611fea60e085018261197c565b50610100820151611fff61010085018261197c565b50505050565b5f6120108383611f50565b6101208301905092915050565b5f602082019050919050565b5f61203382611f27565b61203d8185611f31565b935061204883611f41565b805f5b8381101561207857815161205f8882612005565b975061206a8361201d565b92505060018101905061204b565b5085935050505092915050565b5f6040820190508181035f83015261209d8185612029565b90506120ac6020830184611af1565b9392505050565b5f6020820190506120c65f830184611b28565b92915050565b5f5f5f5f5f5f60c087890312156120e6576120e561188f565b5b5f6120f389828a016118b2565b965050602061210489828a01611dbf565b955050604061211589828a01611a8a565b945050606061212689828a01611a8a565b935050608061213789828a01611a8a565b92505060a061214889828a01611a8a565b9150509295509295509295565b61215e81611d11565b8114612168575f5ffd5b50565b5f8135905061217981612155565b92915050565b5f602082840312156121945761219361188f565b5b5f6121a18482850161216b565b91505092915050565b7f4e487b71000000000000000000000000000000000000000000000000000000005f52603260045260245ffd5b7f4e487b71000000000000000000000000000000000000000000000000000000005f52601160045260245ffd5b5f61220e82611973565b91507fffffffffffffffffffffffffffffffffffffffffffffffffffffffffffffffff82036122405761223f6121d7565b5b600182019050919050565b7f4e487b71000000000000000000000000000000000000000000000000000000005f52604160045260245ffd5b5f60408201905061228b5f830185611af1565b6122986020830184611af1565b9392505050565b5f6122a982611973565b91506122b483611973565b92508282039050818111156122cc576122cb6121d7565b5b92915050565b5f6122dc82611973565b91506122e783611973565b92508282019050808211156122ff576122fe6121d7565b5b92915050565b5f819050919050565b5f61232861232361231e84612305565b611e75565b611973565b9050919050565b6123388161230e565b82525050565b5f6040820190506123515f83018561232f565b61235e6020830184611af1565b9392505050565b5f6040820190506123785f830185611b19565b6123856020830184611af1565b9392505050565b5f61239682611973565b91505f82036123a8576123a76121d7565b5b600182039050919050565b7f4e487b71000000000000000000000000000000000000000000000000000000005f52603160045260245ffd5b5f7fffffffff0000000000000000000000000000000000000000000000000000000082169050919050565b612414816123e0565b82525050565b5f60608201905061242d5f830186611d88565b61243a6020830185611d88565b612447604083018461240b565b949350505050565b5f8151905061245d81611bc2565b92915050565b5f602082840312156124785761247761188f565b5b5f6124858482850161244f565b9150509291505056fea2646970667358221220e4b445826f0212050df638b36af3d3532e78fc91dd4bf3e200225de83432a65864736f6c634300081e0033","linkReferences":{}},"methodIdentifiers":{"MAX_STRATEGIES()":"767f06ae","addStrategy(bytes32,uint8,uint256,uint256,uint256,uint256)":"f1e2ecc2","authority()":"bf7e214f","executeStrategyFlow(bytes32)":"e0d528fa","getActiveStrategies()":"587436e4","getStrategiesByType(uint8)":"de741225","getStrategiesPaginated(uint256,uint256)":"e065a9eb","getStrategy(bytes32)":"28c84bbd","getStrategyCount()":"31e19cfa","owner()":"8da5cb5b","removeStrategy(bytes32)":"f6e9016c","setAuthority(address)":"7a9e5e4b","strategies(bytes32)":"3ff34eb9","strategyIds(uint256)":"2dc1eaf0","strategyTypeCount(uint8)":"92ca6601","toggleStrategy(bytes32,bool)":"553bdff7","transferOwnership(address)":"f2fde38b","updateStrategy(bytes32,uint256,uint256,uint256,uint256)":"b9d56e94"},"id":43}