{"abi":[{"type":"constructor","inputs":[{"name":"_owner","type":"address","internalType":"address"},{"name":"_authority","type":"address","internalType":"contract Authority"}],"stateMutability":"nonpayable"},{"type":"function","name":"authority","inputs":[],"outputs":[{"name":"","type":"address","internalType":"contract Authority"}],"stateMutability":"view"},{"type":"function","name":"executorTradeCount","inputs":[{"name":"","type":"address","internalType":"address"}],"outputs":[{"name":"","type":"uint256","internalType":"uint256"}],"stateMutability":"view"},{"type":"function","name":"getMetrics","inputs":[{"name":"strategyId","type":"bytes32","internalType":"bytes32"}],"outputs":[{"name":"","type":"tuple","internalType":"struct StrategyAnalytics.StrategyMetrics","components":[{"name":"totalTrades","type":"uint256","internalType":"uint256"},{"name":"successfulTrades","type":"uint256","internalType":"uint256"},{"name":"totalProfit","type":"uint256","internalType":"uint256"},{"name":"totalLoss","type":"uint256","internalType":"uint256"},{"name":"lastExecutionTime","type":"uint256","internalType":"uint256"},{"name":"avgExecutionTime","type":"uint256","internalType":"uint256"}]}],"stateMutability":"view"},{"type":"function","name":"getNetProfit","inputs":[{"name":"strategyId","type":"bytes32","internalType":"bytes32"}],"outputs":[{"name":"","type":"int256","internalType":"int256"}],"stateMutability":"view"},{"type":"function","name":"getProtocolStats","inputs":[],"outputs":[{"name":"trades","type":"uint256","internalType":"uint256"},{"name":"profit","type":"uint256","internalType":"uint256"}],"stateMutability":"view"},{"type":"function","name":"getSuccessRate","inputs":[{"name":"strategyId","type":"bytes32","internalType":"bytes32"}],"outputs":[{"name":"","type":"uint256","internalType":"uint256"}],"stateMutability":"view"},{"type":"function","name":"owner","inputs":[],"outputs":[{"name":"","type":"address","internalType":"address"}],"stateMutability":"view"},{"type":"function","name":"recordTrade","inputs":[{"name":"strategyId","type":"bytes32","internalType":"bytes32"},{"name":"success","type":"bool","internalType":"bool"},{"name":"profit","type":"uint256","internalType":"uint256"},{"name":"loss","type":"uint256","internalType":"uint256"},{"name":"executionTime","type":"uint256","internalType":"uint256"}],"outputs":[],"stateMutability":"nonpayable"},{"type":"function","name":"resetMetrics","inputs":[{"name":"strategyId","type":"bytes32","internalType":"bytes32"}],"outputs":[],"stateMutability":"nonpayable"},{"type":"function","name":"setAuthority","inputs":[{"name":"newAuthority","type":"address","internalType":"contract Authority"}],"outputs":[],"stateMutability":"nonpayable"},{"type":"function","name":"strategyMetrics","inputs":[{"name":"","type":"bytes32","internalType":"bytes32"}],"outputs":[{"name":"totalTrades","type":"uint256","internalType":"uint256"},{"name":"successfulTrades","type":"uint256","internalType":"uint256"},{"name":"totalProfit","type":"uint256","internalType":"uint256"},{"name":"totalLoss","type":"uint256","internalType":"uint256"},{"name":"lastExecutionTime","type":"uint256","internalType":"uint256"},{"name":"avgExecutionTime","type":"uint256","internalType":"uint256"}],"stateMutability":"view"},{"type":"function","name":"totalProtocolProfit","inputs":[],"outputs":[{"name":"","type":"uint256","internalType":"uint256"}],"stateMutability":"view"},{"type":"function","name":"totalProtocolTrades","inputs":[],"outputs":[{"name":"","type":"uint256","internalType":"uint256"}],"stateMutability":"view"},{"type":"function","name":"transferOwnership","inputs":[{"name":"newOwner","type":"address","internalType":"address"}],"outputs":[],"stateMutability":"nonpayable"},{"type":"event","name":"AuthorityUpdated","inputs":[{"name":"user","type":"address","indexed":true,"internalType":"address"},{"name":"newAuthority","type":"address","indexed":true,"internalType":"contract Authority"}],"anonymous":false},{"type":"event","name":"MetricsReset","inputs":[{"name":"strategyId","type":"bytes32","indexed":true,"internalType":"bytes32"}],"anonymous":false},{"type":"event","name":"OwnershipTransferred","inputs":[{"name":"user","type":"address","indexed":true,"internalType":"address"},{"name":"newOwner","type":"address","indexed":true,"internalType":"address"}],"anonymous":false},{"type":"event","name":"TradeRecorded","inputs":[{"name":"strategyId","type":"bytes32","indexed":true,"internalType":"bytes32"},{"name":"success","type":"bool","indexed":false,"internalType":"bool"},{"name":"profit","type":"uint256","indexed":false,"internalType":"uint256"},{"name":"loss","type":"uint256","indexed":false,"internalType":"uint256"}],"anonymous":false},{"type":"error","name":"Unauthorized","inputs":[]},{"type":"error","name":"ZeroStrategyId","inputs":[]}],"bytecode":{"object":"0x608060405234801561000f575f5ffd5b5060405161150138038061150183398181016040528101906100319190610208565b8181815f5f6101000a81548173ffffffffffffffffffffffffffffffffffffffff021916908373ffffffffffffffffffffffffffffffffffffffff1602179055508060015f6101000a81548173ffffffffffffffffffffffffffffffffffffffff021916908373ffffffffffffffffffffffffffffffffffffffff1602179055508173ffffffffffffffffffffffffffffffffffffffff165f73ffffffffffffffffffffffffffffffffffffffff167f8be0079c531659141344cd1fd0a4f28419497f9722a3daafe3b4186f6b6457e060405160405180910390a38073ffffffffffffffffffffffffffffffffffffffff165f73ffffffffffffffffffffffffffffffffffffffff167fa3396fd7f6e0a21b50e5089d2da70d5ac0a3bbbd1f617a93f134b7638998019860405160405180910390a350505050610246565b5f5ffd5b5f73ffffffffffffffffffffffffffffffffffffffff82169050919050565b5f61019c82610173565b9050919050565b6101ac81610192565b81146101b6575f5ffd5b50565b5f815190506101c7816101a3565b92915050565b5f6101d782610192565b9050919050565b6101e7816101cd565b81146101f1575f5ffd5b50565b5f81519050610202816101de565b92915050565b5f5f6040838503121561021e5761021d61016f565b5b5f61022b858286016101b9565b925050602061023c858286016101f4565b9150509250929050565b6112ae806102535f395ff3fe608060405234801561000f575f5ffd5b50600436106100e8575f3560e01c806393299fec1161008a578063bf7e214f11610064578063bf7e214f14610260578063dabbf75d1461027e578063e55d11d41461029c578063f2fde38b146102cc576100e8565b806393299fec146101f1578063945a4b861461020f5780639bb3ddb91461022b576100e8565b8063771aceef116100c6578063771aceef1461017c5780637785d21c1461019b5780637a9e5e4b146101b75780638da5cb5b146101d3576100e8565b80630fdfe2af146100ec578063158b342f1461011c5780634e4c4b4e1461014c575b5f5ffd5b61010660048036038101906101019190610c17565b6102e8565b6040516101139190610c5a565b60405180910390f35b61013660048036038101906101319190610ca6565b6102fd565b6040516101439190610ce9565b60405180910390f35b61016660048036038101906101619190610ca6565b610374565b6040516101739190610c5a565b60405180910390f35b61018461040b565b604051610192929190610d02565b60405180910390f35b6101b560048036038101906101b09190610ca6565b61041b565b005b6101d160048036038101906101cc9190610d64565b6104eb565b005b6101db61060d565b6040516101e89190610d9e565b60405180910390f35b6101f9610631565b6040516102069190610c5a565b60405180910390f35b61022960048036038101906102249190610e16565b610637565b005b61024560048036038101906102409190610ca6565b610866565b60405161025796959493929190610e8d565b60405180910390f35b61026861089e565b6040516102759190610f47565b60405180910390f35b6102866108c3565b6040516102939190610c5a565b60405180910390f35b6102b660048036038101906102b19190610ca6565b6108c9565b6040516102c39190610fe8565b60405180910390f35b6102e660048036038101906102e19190610c17565b61092f565b005b6003602052805f5260405f205f915090505481565b5f5f60025f8481526020019081526020015f206040518060c00160405290815f82015481526020016001820154815260200160028201548152602001600382015481526020016004820154815260200160058201548152505090508060600151816040015161036c919061102e565b915050919050565b5f5f60025f8481526020019081526020015f206040518060c00160405290815f82015481526020016001820154815260200160028201548152602001600382015481526020016004820154815260200160058201548152505090505f815f0151036103e2575f915050610406565b805f015161271082602001516103f8919061106e565b61040291906110dc565b9150505b919050565b5f5f600554600454915091509091565b610448335f357fffffffff0000000000000000000000000000000000000000000000000000000016610a50565b61047e576040517f82b4290000000000000000000000000000000000000000000000000000000000815260040160405180910390fd5b60025f8281526020019081526020015f205f5f82015f9055600182015f9055600282015f9055600382015f9055600482015f9055600582015f90555050807f06632f69262669d324925e7e6fa09c7b0de5a7ff5e1b3f8389d88ab70807c4fd60405160405180910390a250565b5f5f9054906101000a900473ffffffffffffffffffffffffffffffffffffffff1673ffffffffffffffffffffffffffffffffffffffff163373ffffffffffffffffffffffffffffffffffffffff1614610570576040517f82b4290000000000000000000000000000000000000000000000000000000000815260040160405180910390fd5b8060015f6101000a81548173ffffffffffffffffffffffffffffffffffffffff021916908373ffffffffffffffffffffffffffffffffffffffff1602179055508073ffffffffffffffffffffffffffffffffffffffff163373ffffffffffffffffffffffffffffffffffffffff167fa3396fd7f6e0a21b50e5089d2da70d5ac0a3bbbd1f617a93f134b7638998019860405160405180910390a350565b5f5f9054906101000a900473ffffffffffffffffffffffffffffffffffffffff1681565b60055481565b610664335f357fffffffff0000000000000000000000000000000000000000000000000000000016610a50565b61069a576040517f82b4290000000000000000000000000000000000000000000000000000000000815260040160405180910390fd5b5f5f1b85036106d5576040517f482df1ef00000000000000000000000000000000000000000000000000000000815260040160405180910390fd5b5f60025f8781526020019081526020015f209050805f015f8154809291906106fc9061110c565b9190505550841561075757806001015f81548092919061071b9061110c565b919050555083816002015f8282546107339190611153565b925050819055508360045f82825461074b9190611153565b92505081905550610772565b82816003015f82825461076a9190611153565b925050819055505b5f81600501540361078b578181600501819055506107b0565b600282826005015461079d9190611153565b6107a791906110dc565b81600501819055505b42816004018190555060035f3373ffffffffffffffffffffffffffffffffffffffff1673ffffffffffffffffffffffffffffffffffffffff1681526020019081526020015f205f8154809291906108069061110c565b919050555060055f81548092919061081d9061110c565b9190505550857fe4855a6d085a769033825a75a95c89c3a9880d0d979738eca5a523b07ccfeb9d86868660405161085693929190611195565b60405180910390a2505050505050565b6002602052805f5260405f205f91509050805f0154908060010154908060020154908060030154908060040154908060050154905086565b60015f9054906101000a900473ffffffffffffffffffffffffffffffffffffffff1681565b60045481565b6108d1610b89565b60025f8381526020019081526020015f206040518060c00160405290815f8201548152602001600182015481526020016002820154815260200160038201548152602001600482015481526020016005820154815250509050919050565b5f5f9054906101000a900473ffffffffffffffffffffffffffffffffffffffff1673ffffffffffffffffffffffffffffffffffffffff163373ffffffffffffffffffffffffffffffffffffffff16146109b4576040517f82b4290000000000000000000000000000000000000000000000000000000000815260040160405180910390fd5b805f5f6101000a81548173ffffffffffffffffffffffffffffffffffffffff021916908373ffffffffffffffffffffffffffffffffffffffff1602179055508073ffffffffffffffffffffffffffffffffffffffff163373ffffffffffffffffffffffffffffffffffffffff167f8be0079c531659141344cd1fd0a4f28419497f9722a3daafe3b4186f6b6457e060405160405180910390a350565b5f5f60015f9054906101000a900473ffffffffffffffffffffffffffffffffffffffff1690505f73ffffffffffffffffffffffffffffffffffffffff168173ffffffffffffffffffffffffffffffffffffffff1614158015610b2a57508073ffffffffffffffffffffffffffffffffffffffff1663b70096138530866040518463ffffffff1660e01b8152600401610aea93929190611204565b602060405180830381865afa158015610b05573d5f5f3e3d5ffd5b505050506040513d601f19601f82011682018060405250810190610b29919061124d565b5b80610b8057505f5f9054906101000a900473ffffffffffffffffffffffffffffffffffffffff1673ffffffffffffffffffffffffffffffffffffffff168473ffffffffffffffffffffffffffffffffffffffff16145b91505092915050565b6040518060c001604052805f81526020015f81526020015f81526020015f81526020015f81526020015f81525090565b5f5ffd5b5f73ffffffffffffffffffffffffffffffffffffffff82169050919050565b5f610be682610bbd565b9050919050565b610bf681610bdc565b8114610c00575f5ffd5b50565b5f81359050610c1181610bed565b92915050565b5f60208284031215610c2c57610c2b610bb9565b5b5f610c3984828501610c03565b91505092915050565b5f819050919050565b610c5481610c42565b82525050565b5f602082019050610c6d5f830184610c4b565b92915050565b5f819050919050565b610c8581610c73565b8114610c8f575f5ffd5b50565b5f81359050610ca081610c7c565b92915050565b5f60208284031215610cbb57610cba610bb9565b5b5f610cc884828501610c92565b91505092915050565b5f819050919050565b610ce381610cd1565b82525050565b5f602082019050610cfc5f830184610cda565b92915050565b5f604082019050610d155f830185610c4b565b610d226020830184610c4b565b9392505050565b5f610d3382610bdc565b9050919050565b610d4381610d29565b8114610d4d575f5ffd5b50565b5f81359050610d5e81610d3a565b92915050565b5f60208284031215610d7957610d78610bb9565b5b5f610d8684828501610d50565b91505092915050565b610d9881610bdc565b82525050565b5f602082019050610db15f830184610d8f565b92915050565b5f8115159050919050565b610dcb81610db7565b8114610dd5575f5ffd5b50565b5f81359050610de681610dc2565b92915050565b610df581610c42565b8114610dff575f5ffd5b50565b5f81359050610e1081610dec565b92915050565b5f5f5f5f5f60a08688031215610e2f57610e2e610bb9565b5b5f610e3c88828901610c92565b9550506020610e4d88828901610dd8565b9450506040610e5e88828901610e02565b9350506060610e6f88828901610e02565b9250506080610e8088828901610e02565b9150509295509295909350565b5f60c082019050610ea05f830189610c4b565b610ead6020830188610c4b565b610eba6040830187610c4b565b610ec76060830186610c4b565b610ed46080830185610c4b565b610ee160a0830184610c4b565b979650505050505050565b5f819050919050565b5f610f0f610f0a610f0584610bbd565b610eec565b610bbd565b9050919050565b5f610f2082610ef5565b9050919050565b5f610f3182610f16565b9050919050565b610f4181610f27565b82525050565b5f602082019050610f5a5f830184610f38565b92915050565b610f6981610c42565b82525050565b60c082015f820151610f835f850182610f60565b506020820151610f966020850182610f60565b506040820151610fa96040850182610f60565b506060820151610fbc6060850182610f60565b506080820151610fcf6080850182610f60565b5060a0820151610fe260a0850182610f60565b50505050565b5f60c082019050610ffb5f830184610f6f565b92915050565b7f4e487b71000000000000000000000000000000000000000000000000000000005f52601160045260245ffd5b5f61103882610cd1565b915061104383610cd1565b925082820390508181125f8412168282135f85121516171561106857611067611001565b5b92915050565b5f61107882610c42565b915061108383610c42565b925082820261109181610c42565b915082820484148315176110a8576110a7611001565b5b5092915050565b7f4e487b71000000000000000000000000000000000000000000000000000000005f52601260045260245ffd5b5f6110e682610c42565b91506110f183610c42565b925082611101576111006110af565b5b828204905092915050565b5f61111682610c42565b91507fffffffffffffffffffffffffffffffffffffffffffffffffffffffffffffffff820361114857611147611001565b5b600182019050919050565b5f61115d82610c42565b915061116883610c42565b92508282019050808211156111805761117f611001565b5b92915050565b61118f81610db7565b82525050565b5f6060820190506111a85f830186611186565b6111b56020830185610c4b565b6111c26040830184610c4b565b949350505050565b5f7fffffffff0000000000000000000000000000000000000000000000000000000082169050919050565b6111fe816111ca565b82525050565b5f6060820190506112175f830186610d8f565b6112246020830185610d8f565b61123160408301846111f5565b949350505050565b5f8151905061124781610dc2565b92915050565b5f6020828403121561126257611261610bb9565b5b5f61126f84828501611239565b9150509291505056fea2646970667358221220721bae6c5081da3e17939ee712b6391959e9f318c6f12d7f3d6b1b22258d732564736f6c634300081e0033","linkReferences":{}},"methodIdentifiers":{"authority()":"bf7e214f","executorTradeCount(address)":"0fdfe2af","getMetrics(bytes32)":"e55d11d4","getNetProfit(bytes32)":"158b342f","getProtocolStats()":"771aceef","getSuccessRate(bytes32)":"4e4c4b4e","owner()":"8da5cb5b","recordTrade(bytes32,bool,uint256,uint256,uint256)":"945a4b86","resetMetrics(bytes32)":"7785d21c","setAuthority(address)":"7a9e5e4b","strategyMetrics(bytes32)":"9bb3ddb9","totalProtocolProfit()":"dabbf75d","totalProtocolTrades()":"93299fec","transferOwnership(address)":"f2fde38b"},"id":42}