{"abi":[{"type":"constructor","inputs":[{"name":"_owner","type":"address","internalType":"address"},{"name":"_authority","type":"address","internalType":"contract Authority"},{"name":"_feeVault","type":"address","internalType":"address"}],"stateMutability":"nonpayable"},{"type":"function","name":"authority","inputs":[],"outputs":[{"name":"","type":"address","internalType":"contract Authority"}],"stateMutability":"view"},{"type":"function","name":"authorizedExecutors","inputs":[{"name":"","type":"address","internalType":"address"}],"outputs":[{"name":"","type":"bool","internalType":"bool"}],"stateMutability":"view"},{"type":"function","name":"executeArbitrage","inputs":[{"name":"flashLoanPool","type":"address","internalType":"address"},{"name":"token","type":"address","internalType":"address"},{"name":"amount","type":"uint256","internalType":"uint256"},{"name":"arbitrageData","type":"bytes","internalType":"bytes"}],"outputs":[{"name":"profit","type":"uint256","internalType":"uint256"}],"stateMutability":"nonpayable"},{"type":"function","name":"feeVault","inputs":[],"outputs":[{"name":"","type":"address","internalType":"address"}],"stateMutability":"view"},{"type":"function","name":"isExecutorAuthorized","inputs":[{"name":"executor","type":"address","internalType":"address"}],"outputs":[{"name":"","type":"bool","internalType":"bool"}],"stateMutability":"view"},{"type":"function","name":"isPoolWhitelisted","inputs":[{"name":"pool","type":"address","internalType":"address"}],"outputs":[{"name":"","type":"bool","internalType":"bool"}],"stateMutability":"view"},{"type":"function","name":"onFlashLoan","inputs":[{"name":"initiator","type":"address","internalType":"address"},{"name":"token","type":"address","internalType":"address"},{"name":"amount","type":"uint256","internalType":"uint256"},{"name":"fee","type":"uint256","internalType":"uint256"},{"name":"data","type":"bytes","internalType":"bytes"}],"outputs":[{"name":"","type":"bytes32","internalType":"bytes32"}],"stateMutability":"nonpayable"},{"type":"function","name":"owner","inputs":[],"outputs":[{"name":"","type":"address","internalType":"address"}],"stateMutability":"view"},{"type":"function","name":"performanceFeeBps","inputs":[],"outputs":[{"name":"","type":"uint256","internalType":"uint256"}],"stateMutability":"view"},{"type":"function","name":"setAuthority","inputs":[{"name":"newAuthority","type":"address","internalType":"contract Authority"}],"outputs":[],"stateMutability":"nonpayable"},{"type":"function","name":"setExecutorAuthorization","inputs":[{"name":"executor","type":"address","internalType":"address"},{"name":"status","type":"bool","internalType":"bool"}],"outputs":[],"stateMutability":"nonpayable"},{"type":"function","name":"setFeeVault","inputs":[{"name":"_feeVault","type":"address","internalType":"address"}],"outputs":[],"stateMutability":"nonpayable"},{"type":"function","name":"setFlashLoanPoolWhitelist","inputs":[{"name":"pool","type":"address","internalType":"address"},{"name":"status","type":"bool","internalType":"bool"}],"outputs":[],"stateMutability":"nonpayable"},{"type":"function","name":"setPerformanceFee","inputs":[{"name":"feeBps","type":"uint256","internalType":"uint256"}],"outputs":[],"stateMutability":"nonpayable"},{"type":"function","name":"transferOwnership","inputs":[{"name":"newOwner","type":"address","internalType":"address"}],"outputs":[],"stateMutability":"nonpayable"},{"type":"function","name":"whitelistedFlashLoanPools","inputs":[{"name":"","type":"address","internalType":"address"}],"outputs":[{"name":"","type":"bool","internalType":"bool"}],"stateMutability":"view"},{"type":"event","name":"ArbitrageExecuted","inputs":[{"name":"executor","type":"address","indexed":true,"internalType":"address"},{"name":"token","type":"address","indexed":true,"internalType":"address"},{"name":"profit","type":"uint256","indexed":false,"internalType":"uint256"},{"name":"fee","type":"uint256","indexed":false,"internalType":"uint256"}],"anonymous":false},{"type":"event","name":"AuthorityUpdated","inputs":[{"name":"user","type":"address","indexed":true,"internalType":"address"},{"name":"newAuthority","type":"address","indexed":true,"internalType":"contract Authority"}],"anonymous":false},{"type":"event","name":"ExecutorAuthorized","inputs":[{"name":"executor","type":"address","indexed":true,"internalType":"address"},{"name":"status","type":"bool","indexed":false,"internalType":"bool"}],"anonymous":false},{"type":"event","name":"FeeVaultUpdated","inputs":[{"name":"oldVault","type":"address","indexed":true,"internalType":"address"},{"name":"newVault","type":"address","indexed":true,"internalType":"address"}],"anonymous":false},{"type":"event","name":"FlashLoanPoolWhitelisted","inputs":[{"name":"pool","type":"address","indexed":true,"internalType":"address"},{"name":"status","type":"bool","indexed":false,"internalType":"bool"}],"anonymous":false},{"type":"event","name":"OwnershipTransferred","inputs":[{"name":"user","type":"address","indexed":true,"internalType":"address"},{"name":"newOwner","type":"address","indexed":true,"internalType":"address"}],"anonymous":false},{"type":"event","name":"PerformanceFeeUpdated","inputs":[{"name":"oldFee","type":"uint256","indexed":false,"internalType":"uint256"},{"name":"newFee","type":"uint256","indexed":false,"internalType":"uint256"}],"anonymous":false},{"type":"error","name":"ExecutionFailed","inputs":[]},{"type":"error","name":"InvalidFee","inputs":[{"name":"fee","type":"uint256","internalType":"uint256"}]},{"type":"error","name":"PoolNotWhitelisted","inputs":[{"name":"pool","type":"address","internalType":"address"}]},{"type":"error","name":"Reentrancy","inputs":[]},{"type":"error","name":"Unauthorized","inputs":[]},{"type":"error","name":"ZeroAddress","inputs":[]},{"type":"error","name":"ZeroProfit","inputs":[]}],"bytecode":{"object":"0x608060405260016002556103e860065534801561001a575f5ffd5b50604051611dda380380611dda833981810160405281019061003c91906102b9565b8282815f5f6101000a81548173ffffffffffffffffffffffffffffffffffffffff021916908373ffffffffffffffffffffffffffffffffffffffff1602179055508060015f6101000a81548173ffffffffffffffffffffffffffffffffffffffff021916908373ffffffffffffffffffffffffffffffffffffffff1602179055508173ffffffffffffffffffffffffffffffffffffffff165f73ffffffffffffffffffffffffffffffffffffffff167f8be0079c531659141344cd1fd0a4f28419497f9722a3daafe3b4186f6b6457e060405160405180910390a38073ffffffffffffffffffffffffffffffffffffffff165f73ffffffffffffffffffffffffffffffffffffffff167fa3396fd7f6e0a21b50e5089d2da70d5ac0a3bbbd1f617a93f134b7638998019860405160405180910390a350505f73ffffffffffffffffffffffffffffffffffffffff168173ffffffffffffffffffffffffffffffffffffffff16036101d8576040517fd92e233d00000000000000000000000000000000000000000000000000000000815260040160405180910390fd5b8060055f6101000a81548173ffffffffffffffffffffffffffffffffffffffff021916908373ffffffffffffffffffffffffffffffffffffffff160217905550505050610309565b5f5ffd5b5f73ffffffffffffffffffffffffffffffffffffffff82169050919050565b5f61024d82610224565b9050919050565b61025d81610243565b8114610267575f5ffd5b50565b5f8151905061027881610254565b92915050565b5f61028882610243565b9050919050565b6102988161027e565b81146102a2575f5ffd5b50565b5f815190506102b38161028f565b92915050565b5f5f5f606084860312156102d0576102cf610220565b5b5f6102dd8682870161026a565b93505060206102ee868287016102a5565b92505060406102ff8682870161026a565b9150509250925092565b611ac4806103165f395ff3fe608060405234801561000f575f5ffd5b50600436106100fe575f3560e01c80638da5cb5b11610095578063be3fc68f11610064578063be3fc68f146102bc578063bf7e214f146102d8578063d29b0fbc146102f6578063f2fde38b14610326576100fe565b80638da5cb5b14610234578063a591f97f14610252578063b9d4e8791461026e578063bbee9c621461028c576100fe565b80635dd022ff116100d15780635dd022ff146101b0578063679d86a7146101cc57806370897b23146101fc5780637a9e5e4b14610218576100fe565b806323e30c8b146101025780632b26a98214610132578063478222c214610162578063548b514e14610180575b5f5ffd5b61011c60048036038101906101179190611456565b610342565b6040516101299190611504565b60405180910390f35b61014c6004803603810190610147919061151d565b6104d8565b6040516101599190611562565b60405180910390f35b61016a61052a565b604051610177919061158a565b60405180910390f35b61019a6004803603810190610195919061151d565b61054f565b6040516101a79190611562565b60405180910390f35b6101ca60048036038101906101c591906115cd565b6105a1565b005b6101e660048036038101906101e1919061151d565b61070f565b6040516101f39190611562565b60405180910390f35b6102166004803603810190610211919061160b565b61072c565b005b610232600480360381019061022d9190611671565b61081b565b005b61023c61093d565b604051610249919061158a565b60405180910390f35b61026c6004803603810190610267919061151d565b610961565b005b610276610ae7565b60405161028391906116ab565b60405180910390f35b6102a660048036038101906102a191906116c4565b610aed565b6040516102b391906116ab565b60405180910390f35b6102d660048036038101906102d191906115cd565b610e4d565b005b6102e0610fbb565b6040516102ed91906117a3565b60405180910390f35b610310600480360381019061030b919061151d565b610fe0565b60405161031d9190611562565b60405180910390f35b610340600480360381019061033b919061151d565b610ffd565b005b5f60035f3373ffffffffffffffffffffffffffffffffffffffff1673ffffffffffffffffffffffffffffffffffffffff1681526020019081526020015f205f9054906101000a900460ff166103ce57336040517facffe8cc0000000000000000000000000000000000000000000000000000000081526004016103c5919061158a565b60405180910390fd5b5f3073ffffffffffffffffffffffffffffffffffffffff1684846040516103f69291906117f8565b5f604051808303815f865af19150503d805f811461042f576040519150601f19603f3d011682016040523d82523d5f602084013e610434565b606091505b505090508061046f576040517facfdb44400000000000000000000000000000000000000000000000000000000815260040160405180910390fd5b5f858761047c919061183d565b90506104a933828a73ffffffffffffffffffffffffffffffffffffffff1661111e9092919063ffffffff16565b7f439148f0bbc682ca079e46d6e2c2f0c1e3b820f1a291b069d8882abf8cf18dd9925050509695505050505050565b5f60035f8373ffffffffffffffffffffffffffffffffffffffff1673ffffffffffffffffffffffffffffffffffffffff1681526020019081526020015f205f9054906101000a900460ff169050919050565b60055f9054906101000a900473ffffffffffffffffffffffffffffffffffffffff1681565b5f60045f8373ffffffffffffffffffffffffffffffffffffffff1673ffffffffffffffffffffffffffffffffffffffff1681526020019081526020015f205f9054906101000a900460ff169050919050565b6105ce335f357fffffffff00000000000000000000000000000000000000000000000000000000166111c8565b610604576040517f82b4290000000000000000000000000000000000000000000000000000000000815260040160405180910390fd5b5f73ffffffffffffffffffffffffffffffffffffffff168273ffffffffffffffffffffffffffffffffffffffff1603610669576040517fd92e233d00000000000000000000000000000000000000000000000000000000815260040160405180910390fd5b8060035f8473ffffffffffffffffffffffffffffffffffffffff1673ffffffffffffffffffffffffffffffffffffffff1681526020019081526020015f205f6101000a81548160ff0219169083151502179055508173ffffffffffffffffffffffffffffffffffffffff167f194dd73c8223fe170ef2d7992d3ec2ff75ba291f2dfb55cdb275ef83bdf721a8826040516107039190611562565b60405180910390a25050565b6004602052805f5260405f205f915054906101000a900460ff1681565b610759335f357fffffffff00000000000000000000000000000000000000000000000000000000166111c8565b61078f576040517f82b4290000000000000000000000000000000000000000000000000000000000815260040160405180910390fd5b6113888111156107d657806040517f2f38c6ee0000000000000000000000000000000000000000000000000000000081526004016107cd91906116ab565b60405180910390fd5b7f607b1c943753982194530bf7133a5972ea2626e028005410efa54ab20035caf860065482604051610809929190611870565b60405180910390a18060068190555050565b5f5f9054906101000a900473ffffffffffffffffffffffffffffffffffffffff1673ffffffffffffffffffffffffffffffffffffffff163373ffffffffffffffffffffffffffffffffffffffff16146108a0576040517f82b4290000000000000000000000000000000000000000000000000000000000815260040160405180910390fd5b8060015f6101000a81548173ffffffffffffffffffffffffffffffffffffffff021916908373ffffffffffffffffffffffffffffffffffffffff1602179055508073ffffffffffffffffffffffffffffffffffffffff163373ffffffffffffffffffffffffffffffffffffffff167fa3396fd7f6e0a21b50e5089d2da70d5ac0a3bbbd1f617a93f134b7638998019860405160405180910390a350565b5f5f9054906101000a900473ffffffffffffffffffffffffffffffffffffffff1681565b61098e335f357fffffffff00000000000000000000000000000000000000000000000000000000166111c8565b6109c4576040517f82b4290000000000000000000000000000000000000000000000000000000000815260040160405180910390fd5b5f73ffffffffffffffffffffffffffffffffffffffff168173ffffffffffffffffffffffffffffffffffffffff1603610a29576040517fd92e233d00000000000000000000000000000000000000000000000000000000815260040160405180910390fd5b8073ffffffffffffffffffffffffffffffffffffffff1660055f9054906101000a900473ffffffffffffffffffffffffffffffffffffffff1673ffffffffffffffffffffffffffffffffffffffff167f47ffc4777a9849fd88ac272225845f7bbcfa9920f222b459c2e6b28156ce724960405160405180910390a38060055f6101000a81548173ffffffffffffffffffffffffffffffffffffffff021916908373ffffffffffffffffffffffffffffffffffffffff16021790555050565b60065481565b5f6002805403610b29576040517fab143c0600000000000000000000000000000000000000000000000000000000815260040160405180910390fd5b60028081905550610b5d335f357fffffffff00000000000000000000000000000000000000000000000000000000166111c8565b610b93576040517f82b4290000000000000000000000000000000000000000000000000000000000815260040160405180910390fd5b60035f8773ffffffffffffffffffffffffffffffffffffffff1673ffffffffffffffffffffffffffffffffffffffff1681526020019081526020015f205f9054906101000a900460ff16610c1e57856040517facffe8cc000000000000000000000000000000000000000000000000000000008152600401610c15919061158a565b60405180910390fd5b5f610c48308773ffffffffffffffffffffffffffffffffffffffff1661130190919063ffffffff16565b90505f8773ffffffffffffffffffffffffffffffffffffffff168585604051610c729291906117f8565b5f604051808303815f865af19150503d805f8114610cab576040519150601f19603f3d011682016040523d82523d5f602084013e610cb0565b606091505b5050905080610ceb576040517facfdb44400000000000000000000000000000000000000000000000000000000815260040160405180910390fd5b5f610d15308973ffffffffffffffffffffffffffffffffffffffff1661130190919063ffffffff16565b9050828111610d50576040517f154b67a500000000000000000000000000000000000000000000000000000000815260040160405180910390fd5b8281610d5c9190611897565b93505f61271060065486610d7091906118ca565b610d7a9190611938565b90505f811115610dd157610dd060055f9054906101000a900473ffffffffffffffffffffffffffffffffffffffff16828b73ffffffffffffffffffffffffffffffffffffffff1661111e9092919063ffffffff16565b5b8873ffffffffffffffffffffffffffffffffffffffff163373ffffffffffffffffffffffffffffffffffffffff167f18be1daca870ce76ea02f4cefe3c78f1a21c7d42693c068e2d0bbf060f53ab538784604051610e30929190611870565b60405180910390a350505050600160028190555095945050505050565b610e7a335f357fffffffff00000000000000000000000000000000000000000000000000000000166111c8565b610eb0576040517f82b4290000000000000000000000000000000000000000000000000000000000815260040160405180910390fd5b5f73ffffffffffffffffffffffffffffffffffffffff168273ffffffffffffffffffffffffffffffffffffffff1603610f15576040517fd92e233d00000000000000000000000000000000000000000000000000000000815260040160405180910390fd5b8060045f8473ffffffffffffffffffffffffffffffffffffffff1673ffffffffffffffffffffffffffffffffffffffff1681526020019081526020015f205f6101000a81548160ff0219169083151502179055508173ffffffffffffffffffffffffffffffffffffffff167f61e59429ef81596566b5f5d75085a25d4043be4dd2ba28cc98d8677718e6d0c382604051610faf9190611562565b60405180910390a25050565b60015f9054906101000a900473ffffffffffffffffffffffffffffffffffffffff1681565b6003602052805f5260405f205f915054906101000a900460ff1681565b5f5f9054906101000a900473ffffffffffffffffffffffffffffffffffffffff1673ffffffffffffffffffffffffffffffffffffffff163373ffffffffffffffffffffffffffffffffffffffff1614611082576040517f82b4290000000000000000000000000000000000000000000000000000000000815260040160405180910390fd5b805f5f6101000a81548173ffffffffffffffffffffffffffffffffffffffff021916908373ffffffffffffffffffffffffffffffffffffffff1602179055508073ffffffffffffffffffffffffffffffffffffffff163373ffffffffffffffffffffffffffffffffffffffff167f8be0079c531659141344cd1fd0a4f28419497f9722a3daafe3b4186f6b6457e060405160405180910390a350565b5f6040517fa9059cbb00000000000000000000000000000000000000000000000000000000815273ffffffffffffffffffffffffffffffffffffffff8416600482015282602482015260205f6044835f895af13d15601f3d1160015f5114161716915050806111c2576040517f08c379a00000000000000000000000000000000000000000000000000000000081526004016111b9906119c2565b60405180910390fd5b50505050565b5f5f60015f9054906101000a900473ffffffffffffffffffffffffffffffffffffffff1690505f73ffffffffffffffffffffffffffffffffffffffff168173ffffffffffffffffffffffffffffffffffffffff16141580156112a257508073ffffffffffffffffffffffffffffffffffffffff1663b70096138530866040518463ffffffff1660e01b815260040161126293929190611a1a565b602060405180830381865afa15801561127d573d5f5f3e3d5ffd5b505050506040513d601f19601f820116820180604052508101906112a19190611a63565b5b806112f857505f5f9054906101000a900473ffffffffffffffffffffffffffffffffffffffff1673ffffffffffffffffffffffffffffffffffffffff168473ffffffffffffffffffffffffffffffffffffffff16145b91505092915050565b5f6040517f70a0823100000000000000000000000000000000000000000000000000000000815273ffffffffffffffffffffffffffffffffffffffff83166004820152602081602483875afa611355575f5ffd5b805191505092915050565b5f5ffd5b5f5ffd5b5f73ffffffffffffffffffffffffffffffffffffffff82169050919050565b5f61139182611368565b9050919050565b6113a181611387565b81146113ab575f5ffd5b50565b5f813590506113bc81611398565b92915050565b5f819050919050565b6113d4816113c2565b81146113de575f5ffd5b50565b5f813590506113ef816113cb565b92915050565b5f5ffd5b5f5ffd5b5f5ffd5b5f5f83601f840112611416576114156113f5565b5b8235905067ffffffffffffffff811115611433576114326113f9565b5b60208301915083600182028301111561144f5761144e6113fd565b5b9250929050565b5f5f5f5f5f5f60a087890312156114705761146f611360565b5b5f61147d89828a016113ae565b965050602061148e89828a016113ae565b955050604061149f89828a016113e1565b94505060606114b089828a016113e1565b935050608087013567ffffffffffffffff8111156114d1576114d0611364565b5b6114dd89828a01611401565b92509250509295509295509295565b5f819050919050565b6114fe816114ec565b82525050565b5f6020820190506115175f8301846114f5565b92915050565b5f6020828403121561153257611531611360565b5b5f61153f848285016113ae565b91505092915050565b5f8115159050919050565b61155c81611548565b82525050565b5f6020820190506115755f830184611553565b92915050565b61158481611387565b82525050565b5f60208201905061159d5f83018461157b565b92915050565b6115ac81611548565b81146115b6575f5ffd5b50565b5f813590506115c7816115a3565b92915050565b5f5f604083850312156115e3576115e2611360565b5b5f6115f0858286016113ae565b9250506020611601858286016115b9565b9150509250929050565b5f602082840312156116205761161f611360565b5b5f61162d848285016113e1565b91505092915050565b5f61164082611387565b9050919050565b61165081611636565b811461165a575f5ffd5b50565b5f8135905061166b81611647565b92915050565b5f6020828403121561168657611685611360565b5b5f6116938482850161165d565b91505092915050565b6116a5816113c2565b82525050565b5f6020820190506116be5f83018461169c565b92915050565b5f5f5f5f5f608086880312156116dd576116dc611360565b5b5f6116ea888289016113ae565b95505060206116fb888289016113ae565b945050604061170c888289016113e1565b935050606086013567ffffffffffffffff81111561172d5761172c611364565b5b61173988828901611401565b92509250509295509295909350565b5f819050919050565b5f61176b61176661176184611368565b611748565b611368565b9050919050565b5f61177c82611751565b9050919050565b5f61178d82611772565b9050919050565b61179d81611783565b82525050565b5f6020820190506117b65f830184611794565b92915050565b5f81905092915050565b828183375f83830152505050565b5f6117df83856117bc565b93506117ec8385846117c6565b82840190509392505050565b5f6118048284866117d4565b91508190509392505050565b7f4e487b71000000000000000000000000000000000000000000000000000000005f52601160045260245ffd5b5f611847826113c2565b9150611852836113c2565b925082820190508082111561186a57611869611810565b5b92915050565b5f6040820190506118835f83018561169c565b611890602083018461169c565b9392505050565b5f6118a1826113c2565b91506118ac836113c2565b92508282039050818111156118c4576118c3611810565b5b92915050565b5f6118d4826113c2565b91506118df836113c2565b92508282026118ed816113c2565b9150828204841483151761190457611903611810565b5b5092915050565b7f4e487b71000000000000000000000000000000000000000000000000000000005f52601260045260245ffd5b5f611942826113c2565b915061194d836113c2565b92508261195d5761195c61190b565b5b828204905092915050565b5f82825260208201905092915050565b7f5452414e534645525f4641494c454400000000000000000000000000000000005f82015250565b5f6119ac600f83611968565b91506119b782611978565b602082019050919050565b5f6020820190508181035f8301526119d9816119a0565b9050919050565b5f7fffffffff0000000000000000000000000000000000000000000000000000000082169050919050565b611a14816119e0565b82525050565b5f606082019050611a2d5f83018661157b565b611a3a602083018561157b565b611a476040830184611a0b565b949350505050565b5f81519050611a5d816115a3565b92915050565b5f60208284031215611a7857611a77611360565b5b5f611a8584828501611a4f565b9150509291505056fea264697066735822122032b6b7bc087a60f2b97517e6ed7f4d3ead572cc3130df0b6ad722fd14b9a118b64736f6c634300081e0033","linkReferences":{}},"methodIdentifiers":{"authority()":"bf7e214f","authorizedExecutors(address)":"679d86a7","executeArbitrage(address,address,uint256,bytes)":"bbee9c62","feeVault()":"478222c2","isExecutorAuthorized(address)":"548b514e","isPoolWhitelisted(address)":"2b26a982","onFlashLoan(address,address,uint256,uint256,bytes)":"23e30c8b","owner()":"8da5cb5b","performanceFeeBps()":"b9d4e879","setAuthority(address)":"7a9e5e4b","setExecutorAuthorization(address,bool)":"be3fc68f","setFeeVault(address)":"a591f97f","setFlashLoanPoolWhitelist(address,bool)":"5dd022ff","setPerformanceFee(uint256)":"70897b23","transferOwnership(address)":"f2fde38b","whitelistedFlashLoanPools(address)":"d29b0fbc"},"id":44}