{"abi":[{"type":"constructor","inputs":[{"name":"_owner","type":"address","internalType":"address"},{"name":"_authority","type":"address","internalType":"contract Authority"}],"stateMutability":"nonpayable"},{"type":"function","name":"MAX_TRIGGERS","inputs":[],"outputs":[{"name":"","type":"uint256","internalType":"uint256"}],"stateMutability":"view"},{"type":"function","name":"addTrigger","inputs":[{"name":"triggerId","type":"bytes32","internalType":"bytes32"},{"name":"triggerType","type":"uint8","internalType":"enum ExecutionTrigger.TriggerType"},{"name":"threshold","type":"uint256","internalType":"uint256"},{"name":"cooldown","type":"uint256","internalType":"uint256"}],"outputs":[],"stateMutability":"nonpayable"},{"type":"function","name":"authority","inputs":[],"outputs":[{"name":"","type":"address","internalType":"contract Authority"}],"stateMutability":"view"},{"type":"function","name":"canTriggerFire","inputs":[{"name":"triggerId","type":"bytes32","internalType":"bytes32"},{"name":"currentValue","type":"uint256","internalType":"uint256"}],"outputs":[{"name":"","type":"bool","internalType":"bool"}],"stateMutability":"view"},{"type":"function","name":"checkAndExecuteTriggers","inputs":[{"name":"currentValue","type":"uint256","internalType":"uint256"}],"outputs":[{"name":"firedTriggers","type":"bytes32[]","internalType":"bytes32[]"}],"stateMutability":"nonpayable"},{"type":"function","name":"getActiveTriggers","inputs":[],"outputs":[{"name":"","type":"bytes32[]","internalType":"bytes32[]"}],"stateMutability":"view"},{"type":"function","name":"getTrigger","inputs":[{"name":"triggerId","type":"bytes32","internalType":"bytes32"}],"outputs":[{"name":"","type":"tuple","internalType":"struct ExecutionTrigger.Trigger","components":[{"name":"triggerId","type":"bytes32","internalType":"bytes32"},{"name":"triggerType","type":"uint8","internalType":"enum ExecutionTrigger.TriggerType"},{"name":"threshold","type":"uint256","internalType":"uint256"},{"name":"cooldown","type":"uint256","internalType":"uint256"},{"name":"lastTriggered","type":"uint256","internalType":"uint256"},{"name":"active","type":"bool","internalType":"bool"}]}],"stateMutability":"view"},{"type":"function","name":"getTriggerCount","inputs":[],"outputs":[{"name":"","type":"uint256","internalType":"uint256"}],"stateMutability":"view"},{"type":"function","name":"owner","inputs":[],"outputs":[{"name":"","type":"address","internalType":"address"}],"stateMutability":"view"},{"type":"function","name":"removeTrigger","inputs":[{"name":"triggerId","type":"bytes32","internalType":"bytes32"}],"outputs":[],"stateMutability":"nonpayable"},{"type":"function","name":"setAuthority","inputs":[{"name":"newAuthority","type":"address","internalType":"contract Authority"}],"outputs":[],"stateMutability":"nonpayable"},{"type":"function","name":"toggleTrigger","inputs":[{"name":"triggerId","type":"bytes32","internalType":"bytes32"},{"name":"active","type":"bool","internalType":"bool"}],"outputs":[],"stateMutability":"nonpayable"},{"type":"function","name":"transferOwnership","inputs":[{"name":"newOwner","type":"address","internalType":"address"}],"outputs":[],"stateMutability":"nonpayable"},{"type":"function","name":"triggerIds","inputs":[{"name":"","type":"uint256","internalType":"uint256"}],"outputs":[{"name":"","type":"bytes32","internalType":"bytes32"}],"stateMutability":"view"},{"type":"function","name":"triggers","inputs":[{"name":"","type":"bytes32","internalType":"bytes32"}],"outputs":[{"name":"triggerId","type":"bytes32","internalType":"bytes32"},{"name":"triggerType","type":"uint8","internalType":"enum ExecutionTrigger.TriggerType"},{"name":"threshold","type":"uint256","internalType":"uint256"},{"name":"cooldown","type":"uint256","internalType":"uint256"},{"name":"lastTriggered","type":"uint256","internalType":"uint256"},{"name":"active","type":"bool","internalType":"bool"}],"stateMutability":"view"},{"type":"function","name":"updateCooldown","inputs":[{"name":"triggerId","type":"bytes32","internalType":"bytes32"},{"name":"newCooldown","type":"uint256","internalType":"uint256"}],"outputs":[],"stateMutability":"nonpayable"},{"type":"function","name":"updateThreshold","inputs":[{"name":"triggerId","type":"bytes32","internalType":"bytes32"},{"name":"newThreshold","type":"uint256","internalType":"uint256"}],"outputs":[],"stateMutability":"nonpayable"},{"type":"event","name":"AuthorityUpdated","inputs":[{"name":"user","type":"address","indexed":true,"internalType":"address"},{"name":"newAuthority","type":"address","indexed":true,"internalType":"contract Authority"}],"anonymous":false},{"type":"event","name":"OwnershipTransferred","inputs":[{"name":"user","type":"address","indexed":true,"internalType":"address"},{"name":"newOwner","type":"address","indexed":true,"internalType":"address"}],"anonymous":false},{"type":"event","name":"TriggerAdded","inputs":[{"name":"triggerId","type":"bytes32","indexed":true,"internalType":"bytes32"},{"name":"triggerType","type":"uint8","indexed":false,"internalType":"enum ExecutionTrigger.TriggerType"},{"name":"threshold","type":"uint256","indexed":false,"internalType":"uint256"}],"anonymous":false},{"type":"event","name":"TriggerFired","inputs":[{"name":"triggerId","type":"bytes32","indexed":true,"internalType":"bytes32"},{"name":"timestamp","type":"uint256","indexed":false,"internalType":"uint256"}],"anonymous":false},{"type":"event","name":"TriggerRemoved","inputs":[{"name":"triggerId","type":"bytes32","indexed":true,"internalType":"bytes32"}],"anonymous":false},{"type":"event","name":"TriggerToggled","inputs":[{"name":"triggerId","type":"bytes32","indexed":true,"internalType":"bytes32"},{"name":"active","type":"bool","indexed":false,"internalType":"bool"}],"anonymous":false},{"type":"event","name":"TriggerUpdated","inputs":[{"name":"triggerId","type":"bytes32","indexed":true,"internalType":"bytes32"},{"name":"newThreshold","type":"uint256","indexed":false,"internalType":"uint256"},{"name":"newCooldown","type":"uint256","indexed":false,"internalType":"uint256"}],"anonymous":false},{"type":"error","name":"MaxTriggersReached","inputs":[{"name":"current","type":"uint256","internalType":"uint256"},{"name":"max","type":"uint256","internalType":"uint256"}]},{"type":"error","name":"TriggerAlreadyExists","inputs":[{"name":"triggerId","type":"bytes32","internalType":"bytes32"}]},{"type":"error","name":"TriggerNotActive","inputs":[{"name":"triggerId","type":"bytes32","internalType":"bytes32"}]},{"type":"error","name":"TriggerNotFound","inputs":[{"name":"triggerId","type":"bytes32","internalType":"bytes32"}]},{"type":"error","name":"TriggerOnCooldown","inputs":[{"name":"triggerId","type":"bytes32","internalType":"bytes32"},{"name":"remainingTime","type":"uint256","internalType":"uint256"}]},{"type":"error","name":"Unauthorized","inputs":[]}],"bytecode":{"object":"0x608060405234801561000f575f5ffd5b5060405161211a38038061211a83398181016040528101906100319190610208565b8181815f5f6101000a81548173ffffffffffffffffffffffffffffffffffffffff021916908373ffffffffffffffffffffffffffffffffffffffff1602179055508060015f6101000a81548173ffffffffffffffffffffffffffffffffffffffff021916908373ffffffffffffffffffffffffffffffffffffffff1602179055508173ffffffffffffffffffffffffffffffffffffffff165f73ffffffffffffffffffffffffffffffffffffffff167f8be0079c531659141344cd1fd0a4f28419497f9722a3daafe3b4186f6b6457e060405160405180910390a38073ffffffffffffffffffffffffffffffffffffffff165f73ffffffffffffffffffffffffffffffffffffffff167fa3396fd7f6e0a21b50e5089d2da70d5ac0a3bbbd1f617a93f134b7638998019860405160405180910390a350505050610246565b5f5ffd5b5f73ffffffffffffffffffffffffffffffffffffffff82169050919050565b5f61019c82610173565b9050919050565b6101ac81610192565b81146101b6575f5ffd5b50565b5f815190506101c7816101a3565b92915050565b5f6101d782610192565b9050919050565b6101e7816101cd565b81146101f1575f5ffd5b50565b5f81519050610202816101de565b92915050565b5f5f6040838503121561021e5761021d61016f565b5b5f61022b858286016101b9565b925050602061023c858286016101f4565b9150509250929050565b611ec7806102535f395ff3fe608060405234801561000f575f5ffd5b5060043610610109575f3560e01c80638da5cb5b116100a0578063c96ba89d1161006f578063c96ba89d146102ba578063d930df87146102d8578063e8471ddb146102f4578063f2fde38b14610324578063fdeaa1971461034057610109565b80638da5cb5b14610232578063adede0c814610250578063bf335bba1461026c578063bf7e214f1461029c57610109565b8063742cd89b116100dc578063742cd89b146101ac578063765b8940146101ca5780637a9e5e4b146101fa578063857684ff1461021657610109565b80630b0dea7d1461010d57806319bf20951461012b57806332ea121d1461015b578063353378f314610177575b5f5ffd5b61011561035c565b6040516101229190611695565b60405180910390f35b610145600480360381019061014091906116ec565b6104d7565b6040516101529190611695565b60405180910390f35b61017560048036038101906101709190611776565b610746565b005b610191600480360381019061018c91906117b4565b610893565b6040516101a39695949392919061187f565b60405180910390f35b6101b46108e3565b6040516101c191906118de565b60405180910390f35b6101e460048036038101906101df91906118f7565b6108ef565b6040516101f19190611935565b60405180910390f35b610214600480360381019061020f91906119b9565b6109d2565b005b610230600480360381019061022b91906118f7565b610af4565b005b61023a610c45565b60405161024791906119f3565b60405180910390f35b61026a600480360381019061026591906118f7565b610c69565b005b610286600480360381019061028191906117b4565b610dba565b6040516102939190611ab2565b60405180910390f35b6102a4610e60565b6040516102b19190611b26565b60405180910390f35b6102c2610e85565b6040516102cf91906118de565b60405180910390f35b6102f260048036038101906102ed9190611b62565b610e8a565b005b61030e600480360381019061030991906116ec565b6110f1565b60405161031b9190611bc6565b60405180910390f35b61033e60048036038101906103399190611c09565b611111565b005b61035a600480360381019061035591906117b4565b611232565b005b60605f5f90505f5f90505b6003805490508110156103d25760025f6003838154811061038b5761038a611c34565b5b905f5260205f20015481526020019081526020015f206005015f9054906101000a900460ff16156103c55781806103c190611c8e565b9250505b8080600101915050610367565b505f8167ffffffffffffffff8111156103ee576103ed611cd5565b5b60405190808252806020026020018201604052801561041c5781602001602082028036833780820191505090505b5090505f5f90505f5f90505b6003805490508110156104cd5760025f6003838154811061044c5761044b611c34565b5b905f5260205f20015481526020019081526020015f206005015f9054906101000a900460ff16156104c0576003818154811061048b5761048a611c34565b5b905f5260205f2001548383806104a090611c8e565b9450815181106104b3576104b2611c34565b5b6020026020010181815250505b8080600101915050610428565b5081935050505090565b6060610506335f357fffffffff0000000000000000000000000000000000000000000000000000000016611458565b61053c576040517f82b4290000000000000000000000000000000000000000000000000000000000815260040160405180910390fd5b5f5f90505f60038054905067ffffffffffffffff8111156105605761055f611cd5565b5b60405190808252806020026020018201604052801561058e5781602001602082028036833780820191505090505b5090505f5f90505b60038054905081101561069e575f600382815481106105b8576105b7611c34565b5b905f5260205f20015490505f60025f8381526020019081526020015f209050806005015f9054906101000a900460ff166105f3575050610691565b806003015481600401546106079190611d02565b421015610615575050610691565b8060020154871061068e574281600401819055508184868061063690611c8e565b97508151811061064957610648611c34565b5b602002602001018181525050817ff7857c34a46fba96fdc394481ba07fd500456566704fed50c130bc6e9bfff0a24260405161068591906118de565b60405180910390a25b50505b8080600101915050610596565b508167ffffffffffffffff8111156106b9576106b8611cd5565b5b6040519080825280602002602001820160405280156106e75781602001602082028036833780820191505090505b5092505f5f90505b8281101561073e5781818151811061070a57610709611c34565b5b602002602001015184828151811061072557610724611c34565b5b60200260200101818152505080806001019150506106ef565b505050919050565b610773335f357fffffffff0000000000000000000000000000000000000000000000000000000016611458565b6107a9576040517f82b4290000000000000000000000000000000000000000000000000000000000815260040160405180910390fd5b5f60025f8481526020019081526020015f20600201541480156107ea575060025f8381526020019081526020015f206005015f9054906101000a900460ff16155b1561082c57816040517f822af40e0000000000000000000000000000000000000000000000000000000081526004016108239190611bc6565b60405180910390fd5b8060025f8481526020019081526020015f206005015f6101000a81548160ff021916908315150217905550817f4a243c4b35db8db8a90ec410083abbb0a5853aa9075b7fc2a68c68aedf10829a826040516108879190611935565b60405180910390a25050565b6002602052805f5260405f205f91509050805f015490806001015f9054906101000a900460ff1690806002015490806003015490806004015490806005015f9054906101000a900460ff16905086565b5f600380549050905090565b5f5f60025f8581526020019081526020015f206040518060c00160405290815f8201548152602001600182015f9054906101000a900460ff16600481111561093a576109396117ee565b5b600481111561094c5761094b6117ee565b5b8152602001600282015481526020016003820154815260200160048201548152602001600582015f9054906101000a900460ff16151515158152505090508060a0015161099c575f9150506109cc565b806060015181608001516109b09190611d02565b4210156109c0575f9150506109cc565b80604001518310159150505b92915050565b5f5f9054906101000a900473ffffffffffffffffffffffffffffffffffffffff1673ffffffffffffffffffffffffffffffffffffffff163373ffffffffffffffffffffffffffffffffffffffff1614610a57576040517f82b4290000000000000000000000000000000000000000000000000000000000815260040160405180910390fd5b8060015f6101000a81548173ffffffffffffffffffffffffffffffffffffffff021916908373ffffffffffffffffffffffffffffffffffffffff1602179055508073ffffffffffffffffffffffffffffffffffffffff163373ffffffffffffffffffffffffffffffffffffffff167fa3396fd7f6e0a21b50e5089d2da70d5ac0a3bbbd1f617a93f134b7638998019860405160405180910390a350565b610b21335f357fffffffff0000000000000000000000000000000000000000000000000000000016611458565b610b57576040517f82b4290000000000000000000000000000000000000000000000000000000000815260040160405180910390fd5b5f60025f8481526020019081526020015f2060020154148015610b98575060025f8381526020019081526020015f206005015f9054906101000a900460ff16155b15610bda57816040517f822af40e000000000000000000000000000000000000000000000000000000008152600401610bd19190611bc6565b60405180910390fd5b8060025f8481526020019081526020015f2060030181905550817fc4a416123ca932e4dc90ef6041830b595930d95d17587bef6b4d7a5dcbac190f60025f8581526020019081526020015f206002015483604051610c39929190611d35565b60405180910390a25050565b5f5f9054906101000a900473ffffffffffffffffffffffffffffffffffffffff1681565b610c96335f357fffffffff0000000000000000000000000000000000000000000000000000000016611458565b610ccc576040517f82b4290000000000000000000000000000000000000000000000000000000000815260040160405180910390fd5b5f60025f8481526020019081526020015f2060020154148015610d0d575060025f8381526020019081526020015f206005015f9054906101000a900460ff16155b15610d4f57816040517f822af40e000000000000000000000000000000000000000000000000000000008152600401610d469190611bc6565b60405180910390fd5b8060025f8481526020019081526020015f2060020181905550817fc4a416123ca932e4dc90ef6041830b595930d95d17587bef6b4d7a5dcbac190f8260025f8681526020019081526020015f2060030154604051610dae929190611d35565b60405180910390a25050565b610dc2611591565b60025f8381526020019081526020015f206040518060c00160405290815f8201548152602001600182015f9054906101000a900460ff166004811115610e0b57610e0a6117ee565b5b6004811115610e1d57610e1c6117ee565b5b8152602001600282015481526020016003820154815260200160048201548152602001600582015f9054906101000a900460ff1615151515815250509050919050565b60015f9054906101000a900473ffffffffffffffffffffffffffffffffffffffff1681565b603281565b610eb7335f357fffffffff0000000000000000000000000000000000000000000000000000000016611458565b610eed576040517f82b4290000000000000000000000000000000000000000000000000000000000815260040160405180910390fd5b603260038054905010610f3f5760038054905060326040517f30532b97000000000000000000000000000000000000000000000000000000008152600401610f36929190611d35565b60405180910390fd5b5f60025f8681526020019081526020015f2060020154141580610f7f575060025f8581526020019081526020015f206005015f9054906101000a900460ff165b15610fc157836040517f0624c3ad000000000000000000000000000000000000000000000000000000008152600401610fb89190611bc6565b60405180910390fd5b6040518060c00160405280858152602001846004811115610fe557610fe46117ee565b5b81526020018381526020018281526020015f81526020016001151581525060025f8681526020019081526020015f205f820151815f01556020820151816001015f6101000a81548160ff02191690836004811115611046576110456117ee565b5b021790555060408201518160020155606082015181600301556080820151816004015560a0820151816005015f6101000a81548160ff021916908315150217905550905050600384908060018154018082558091505060019003905f5260205f20015f9091909190915055837fffb3f09816d23a3b4ba52cefcf6a4383037bc8eeab63f89869a00e4528b952f284846040516110e3929190611d5c565b60405180910390a250505050565b60038181548110611100575f80fd5b905f5260205f20015f915090505481565b5f5f9054906101000a900473ffffffffffffffffffffffffffffffffffffffff1673ffffffffffffffffffffffffffffffffffffffff163373ffffffffffffffffffffffffffffffffffffffff1614611196576040517f82b4290000000000000000000000000000000000000000000000000000000000815260040160405180910390fd5b805f5f6101000a81548173ffffffffffffffffffffffffffffffffffffffff021916908373ffffffffffffffffffffffffffffffffffffffff1602179055508073ffffffffffffffffffffffffffffffffffffffff163373ffffffffffffffffffffffffffffffffffffffff167f8be0079c531659141344cd1fd0a4f28419497f9722a3daafe3b4186f6b6457e060405160405180910390a350565b61125f335f357fffffffff0000000000000000000000000000000000000000000000000000000016611458565b611295576040517f82b4290000000000000000000000000000000000000000000000000000000000815260040160405180910390fd5b5f60025f8381526020019081526020015f20600201541480156112d6575060025f8281526020019081526020015f206005015f9054906101000a900460ff16155b1561131857806040517f822af40e00000000000000000000000000000000000000000000000000000000815260040161130f9190611bc6565b60405180910390fd5b60025f8281526020019081526020015f205f5f82015f9055600182015f6101000a81549060ff0219169055600282015f9055600382015f9055600482015f9055600582015f6101000a81549060ff021916905550505f5f90505b60038054905081101561142757816003828154811061139457611393611c34565b5b905f5260205f2001540361141a57600360016003805490506113b69190611d83565b815481106113c7576113c6611c34565b5b905f5260205f200154600382815481106113e4576113e3611c34565b5b905f5260205f200181905550600380548061140257611401611db6565b5b600190038181905f5260205f20015f90559055611427565b8080600101915050611372565b50807fe99d6c33ea03e4e1fadf82227ba9df476d2ddb9c91230003de05e61ef029dfa460405160405180910390a250565b5f5f60015f9054906101000a900473ffffffffffffffffffffffffffffffffffffffff1690505f73ffffffffffffffffffffffffffffffffffffffff168173ffffffffffffffffffffffffffffffffffffffff161415801561153257508073ffffffffffffffffffffffffffffffffffffffff1663b70096138530866040518463ffffffff1660e01b81526004016114f293929190611e1d565b602060405180830381865afa15801561150d573d5f5f3e3d5ffd5b505050506040513d601f19601f820116820180604052508101906115319190611e66565b5b8061158857505f5f9054906101000a900473ffffffffffffffffffffffffffffffffffffffff1673ffffffffffffffffffffffffffffffffffffffff168473ffffffffffffffffffffffffffffffffffffffff16145b91505092915050565b6040518060c001604052805f81526020015f60048111156115b5576115b46117ee565b5b81526020015f81526020015f81526020015f81526020015f151581525090565b5f81519050919050565b5f82825260208201905092915050565b5f819050602082019050919050565b5f819050919050565b611610816115fe565b82525050565b5f6116218383611607565b60208301905092915050565b5f602082019050919050565b5f611643826115d5565b61164d81856115df565b9350611658836115ef565b805f5b8381101561168857815161166f8882611616565b975061167a8361162d565b92505060018101905061165b565b5085935050505092915050565b5f6020820190508181035f8301526116ad8184611639565b905092915050565b5f5ffd5b5f819050919050565b6116cb816116b9565b81146116d5575f5ffd5b50565b5f813590506116e6816116c2565b92915050565b5f60208284031215611701576117006116b5565b5b5f61170e848285016116d8565b91505092915050565b611720816115fe565b811461172a575f5ffd5b50565b5f8135905061173b81611717565b92915050565b5f8115159050919050565b61175581611741565b811461175f575f5ffd5b50565b5f813590506117708161174c565b92915050565b5f5f6040838503121561178c5761178b6116b5565b5b5f6117998582860161172d565b92505060206117aa85828601611762565b9150509250929050565b5f602082840312156117c9576117c86116b5565b5b5f6117d68482850161172d565b91505092915050565b6117e8816115fe565b82525050565b7f4e487b71000000000000000000000000000000000000000000000000000000005f52602160045260245ffd5b6005811061182c5761182b6117ee565b5b50565b5f81905061183c8261181b565b919050565b5f61184b8261182f565b9050919050565b61185b81611841565b82525050565b61186a816116b9565b82525050565b61187981611741565b82525050565b5f60c0820190506118925f8301896117df565b61189f6020830188611852565b6118ac6040830187611861565b6118b96060830186611861565b6118c66080830185611861565b6118d360a0830184611870565b979650505050505050565b5f6020820190506118f15f830184611861565b92915050565b5f5f6040838503121561190d5761190c6116b5565b5b5f61191a8582860161172d565b925050602061192b858286016116d8565b9150509250929050565b5f6020820190506119485f830184611870565b92915050565b5f73ffffffffffffffffffffffffffffffffffffffff82169050919050565b5f6119778261194e565b9050919050565b5f6119888261196d565b9050919050565b6119988161197e565b81146119a2575f5ffd5b50565b5f813590506119b38161198f565b92915050565b5f602082840312156119ce576119cd6116b5565b5b5f6119db848285016119a5565b91505092915050565b6119ed8161196d565b82525050565b5f602082019050611a065f8301846119e4565b92915050565b611a1581611841565b82525050565b611a24816116b9565b82525050565b611a3381611741565b82525050565b60c082015f820151611a4d5f850182611607565b506020820151611a606020850182611a0c565b506040820151611a736040850182611a1b565b506060820151611a866060850182611a1b565b506080820151611a996080850182611a1b565b5060a0820151611aac60a0850182611a2a565b50505050565b5f60c082019050611ac55f830184611a39565b92915050565b5f819050919050565b5f611aee611ae9611ae48461194e565b611acb565b61194e565b9050919050565b5f611aff82611ad4565b9050919050565b5f611b1082611af5565b9050919050565b611b2081611b06565b82525050565b5f602082019050611b395f830184611b17565b92915050565b60058110611b4b575f5ffd5b50565b5f81359050611b5c81611b3f565b92915050565b5f5f5f5f60808587031215611b7a57611b796116b5565b5b5f611b878782880161172d565b9450506020611b9887828801611b4e565b9350506040611ba9878288016116d8565b9250506060611bba878288016116d8565b91505092959194509250565b5f602082019050611bd95f8301846117df565b92915050565b611be88161196d565b8114611bf2575f5ffd5b50565b5f81359050611c0381611bdf565b92915050565b5f60208284031215611c1e57611c1d6116b5565b5b5f611c2b84828501611bf5565b91505092915050565b7f4e487b71000000000000000000000000000000000000000000000000000000005f52603260045260245ffd5b7f4e487b71000000000000000000000000000000000000000000000000000000005f52601160045260245ffd5b5f611c98826116b9565b91507fffffffffffffffffffffffffffffffffffffffffffffffffffffffffffffffff8203611cca57611cc9611c61565b5b600182019050919050565b7f4e487b71000000000000000000000000000000000000000000000000000000005f52604160045260245ffd5b5f611d0c826116b9565b9150611d17836116b9565b9250828201905080821115611d2f57611d2e611c61565b5b92915050565b5f604082019050611d485f830185611861565b611d556020830184611861565b9392505050565b5f604082019050611d6f5f830185611852565b611d7c6020830184611861565b9392505050565b5f611d8d826116b9565b9150611d98836116b9565b9250828203905081811115611db057611daf611c61565b5b92915050565b7f4e487b71000000000000000000000000000000000000000000000000000000005f52603160045260245ffd5b5f7fffffffff0000000000000000000000000000000000000000000000000000000082169050919050565b611e1781611de3565b82525050565b5f606082019050611e305f8301866119e4565b611e3d60208301856119e4565b611e4a6040830184611e0e565b949350505050565b5f81519050611e608161174c565b92915050565b5f60208284031215611e7b57611e7a6116b5565b5b5f611e8884828501611e52565b9150509291505056fea26469706673582212201e186aa5e9c3027a376add02244e79eca2028966cb262972d5916d9b6395897264736f6c634300081e0033","linkReferences":{}},"methodIdentifiers":{"MAX_TRIGGERS()":"c96ba89d","addTrigger(bytes32,uint8,uint256,uint256)":"d930df87","authority()":"bf7e214f","canTriggerFire(bytes32,uint256)":"765b8940","checkAndExecuteTriggers(uint256)":"19bf2095","getActiveTriggers()":"0b0dea7d","getTrigger(bytes32)":"bf335bba","getTriggerCount()":"742cd89b","owner()":"8da5cb5b","removeTrigger(bytes32)":"fdeaa197","setAuthority(address)":"7a9e5e4b","toggleTrigger(bytes32,bool)":"32ea121d","transferOwnership(address)":"f2fde38b","triggerIds(uint256)":"e8471ddb","triggers(bytes32)":"353378f3","updateCooldown(bytes32,uint256)":"857684ff","updateThreshold(bytes32,uint256)":"adede0c8"},"id":32}