{"abi":[{"type":"constructor","inputs":[{"name":"_owner","type":"address","internalType":"address"},{"name":"_authority","type":"address","internalType":"contract Authority"}],"stateMutability":"nonpayable"},{"type":"function","name":"authority","inputs":[],"outputs":[{"name":"","type":"address","internalType":"contract Authority"}],"stateMutability":"view"},{"type":"function","name":"canCall","inputs":[{"name":"user","type":"address","internalType":"address"},{"name":"target","type":"address","internalType":"address"},{"name":"functionSig","type":"bytes4","internalType":"bytes4"}],"outputs":[{"name":"","type":"bool","internalType":"bool"}],"stateMutability":"view"},{"type":"function","name":"doesRoleHaveCapability","inputs":[{"name":"role","type":"uint8","internalType":"uint8"},{"name":"target","type":"address","internalType":"address"},{"name":"functionSig","type":"bytes4","internalType":"bytes4"}],"outputs":[{"name":"","type":"bool","internalType":"bool"}],"stateMutability":"view"},{"type":"function","name":"doesUserHaveRole","inputs":[{"name":"user","type":"address","internalType":"address"},{"name":"role","type":"uint8","internalType":"uint8"}],"outputs":[{"name":"","type":"bool","internalType":"bool"}],"stateMutability":"view"},{"type":"function","name":"getRolesWithCapability","inputs":[{"name":"","type":"address","internalType":"address"},{"name":"","type":"bytes4","internalType":"bytes4"}],"outputs":[{"name":"","type":"bytes32","internalType":"bytes32"}],"stateMutability":"view"},{"type":"function","name":"getUserRoles","inputs":[{"name":"","type":"address","internalType":"address"}],"outputs":[{"name":"","type":"bytes32","internalType":"bytes32"}],"stateMutability":"view"},{"type":"function","name":"isCapabilityPublic","inputs":[{"name":"","type":"address","internalType":"address"},{"name":"","type":"bytes4","internalType":"bytes4"}],"outputs":[{"name":"","type":"bool","internalType":"bool"}],"stateMutability":"view"},{"type":"function","name":"owner","inputs":[],"outputs":[{"name":"","type":"address","internalType":"address"}],"stateMutability":"view"},{"type":"function","name":"setAuthority","inputs":[{"name":"newAuthority","type":"address","internalType":"contract Authority"}],"outputs":[],"stateMutability":"nonpayable"},{"type":"function","name":"setPublicCapability","inputs":[{"name":"target","type":"address","internalType":"address"},{"name":"functionSig","type":"bytes4","internalType":"bytes4"},{"name":"enabled","type":"bool","internalType":"bool"}],"outputs":[],"stateMutability":"nonpayable"},{"type":"function","name":"setRoleCapability","inputs":[{"name":"role","type":"uint8","internalType":"uint8"},{"name":"target","type":"address","internalType":"address"},{"name":"functionSig","type":"bytes4","internalType":"bytes4"},{"name":"enabled","type":"bool","internalType":"bool"}],"outputs":[],"stateMutability":"nonpayable"},{"type":"function","name":"setUserRole","inputs":[{"name":"user","type":"address","internalType":"address"},{"name":"role","type":"uint8","internalType":"uint8"},{"name":"enabled","type":"bool","internalType":"bool"}],"outputs":[],"stateMutability":"nonpayable"},{"type":"function","name":"transferOwnership","inputs":[{"name":"newOwner","type":"address","internalType":"address"}],"outputs":[],"stateMutability":"nonpayable"},{"type":"event","name":"AuthorityUpdated","inputs":[{"name":"user","type":"address","indexed":true,"internalType":"address"},{"name":"newAuthority","type":"address","indexed":true,"internalType":"contract Authority"}],"anonymous":false},{"type":"event","name":"OwnershipTransferred","inputs":[{"name":"user","type":"address","indexed":true,"internalType":"address"},{"name":"newOwner","type":"address","indexed":true,"internalType":"address"}],"anonymous":false},{"type":"event","name":"PublicCapabilityUpdated","inputs":[{"name":"target","type":"address","indexed":true,"internalType":"address"},{"name":"functionSig","type":"bytes4","indexed":true,"internalType":"bytes4"},{"name":"enabled","type":"bool","indexed":false,"internalType":"bool"}],"anonymous":false},{"type":"event","name":"RoleCapabilityUpdated","inputs":[{"name":"role","type":"uint8","indexed":true,"internalType":"uint8"},{"name":"target","type":"address","indexed":true,"internalType":"address"},{"name":"functionSig","type":"bytes4","indexed":true,"internalType":"bytes4"},{"name":"enabled","type":"bool","indexed":false,"internalType":"bool"}],"anonymous":false},{"type":"event","name":"UserRoleUpdated","inputs":[{"name":"user","type":"address","indexed":true,"internalType":"address"},{"name":"role","type":"uint8","indexed":true,"internalType":"uint8"},{"name":"enabled","type":"bool","indexed":false,"internalType":"bool"}],"anonymous":false},{"type":"error","name":"Unauthorized","inputs":[]}],"bytecode":{"object":"0x608060405234801561000f575f5ffd5b5060405161162838038061162883398181016040528101906100319190610208565b8181815f5f6101000a81548173ffffffffffffffffffffffffffffffffffffffff021916908373ffffffffffffffffffffffffffffffffffffffff1602179055508060015f6101000a81548173ffffffffffffffffffffffffffffffffffffffff021916908373ffffffffffffffffffffffffffffffffffffffff1602179055508173ffffffffffffffffffffffffffffffffffffffff165f73ffffffffffffffffffffffffffffffffffffffff167f8be0079c531659141344cd1fd0a4f28419497f9722a3daafe3b4186f6b6457e060405160405180910390a38073ffffffffffffffffffffffffffffffffffffffff165f73ffffffffffffffffffffffffffffffffffffffff167fa3396fd7f6e0a21b50e5089d2da70d5ac0a3bbbd1f617a93f134b7638998019860405160405180910390a350505050610246565b5f5ffd5b5f73ffffffffffffffffffffffffffffffffffffffff82169050919050565b5f61019c82610173565b9050919050565b6101ac81610192565b81146101b6575f5ffd5b50565b5f815190506101c7816101a3565b92915050565b5f6101d782610192565b9050919050565b6101e7816101cd565b81146101f1575f5ffd5b50565b5f81519050610202816101de565b92915050565b5f5f6040838503121561021e5761021d61016f565b5b5f61022b858286016101b9565b925050602061023c858286016101f4565b9150509250929050565b6113d5806102535f395ff3fe608060405234801561000f575f5ffd5b50600436106100cd575f3560e01c80638da5cb5b1161008a578063bf7e214f11610064578063bf7e214f14610233578063c6b0263e14610251578063ea7ca2761461026d578063f2fde38b1461029d576100cd565b80638da5cb5b146101b5578063b4bad06a146101d3578063b700961314610203576100cd565b806306a36aee146100d15780632f47571f1461010157806367aff484146101315780637917b7941461014d5780637a9e5e4b1461017d5780637d40583d14610199575b5f5ffd5b6100eb60048036038101906100e69190610eb6565b6102b9565b6040516100f89190610ef9565b60405180910390f35b61011b60048036038101906101169190610f67565b6102ce565b6040516101289190610fbf565b60405180910390f35b61014b60048036038101906101469190611038565b6102f8565b005b61016760048036038101906101629190610f67565b610465565b6040516101749190610ef9565b60405180910390f35b610197600480360381019061019291906110c3565b610485565b005b6101b360048036038101906101ae91906110ee565b6105a7565b005b6101bd6107cf565b6040516101ca9190611161565b60405180910390f35b6101ed60048036038101906101e8919061117a565b6107f3565b6040516101fa9190610fbf565b60405180910390f35b61021d600480360381019061021891906111ca565b610896565b60405161022a9190610fbf565b60405180910390f35b61023b610a0d565b6040516102489190611275565b60405180910390f35b61026b6004803603810190610266919061128e565b610a32565b005b610287600480360381019061028291906112de565b610ba9565b6040516102949190610fbf565b60405180910390f35b6102b760048036038101906102b29190610eb6565b610bfe565b005b6002602052805f5260405f205f915090505481565b6003602052815f5260405f20602052805f5260405f205f915091509054906101000a900460ff1681565b610325335f357fffffffff0000000000000000000000000000000000000000000000000000000016610d1f565b61035b576040517f82b4290000000000000000000000000000000000000000000000000000000000815260040160405180910390fd5b80156103b9578160ff166001901b5f1b60025f8573ffffffffffffffffffffffffffffffffffffffff1673ffffffffffffffffffffffffffffffffffffffff1681526020019081526020015f205f828254179250508190555061040e565b8160ff166001901b5f1b1960025f8573ffffffffffffffffffffffffffffffffffffffff1673ffffffffffffffffffffffffffffffffffffffff1681526020019081526020015f205f82825416925050819055505b8160ff168373ffffffffffffffffffffffffffffffffffffffff167f4c9bdd0c8e073eb5eda2250b18d8e5121ff27b62064fbeeeed4869bb99bc5bf2836040516104589190610fbf565b60405180910390a3505050565b6004602052815f5260405f20602052805f5260405f205f91509150505481565b5f5f9054906101000a900473ffffffffffffffffffffffffffffffffffffffff1673ffffffffffffffffffffffffffffffffffffffff163373ffffffffffffffffffffffffffffffffffffffff161461050a576040517f82b4290000000000000000000000000000000000000000000000000000000000815260040160405180910390fd5b8060015f6101000a81548173ffffffffffffffffffffffffffffffffffffffff021916908373ffffffffffffffffffffffffffffffffffffffff1602179055508073ffffffffffffffffffffffffffffffffffffffff163373ffffffffffffffffffffffffffffffffffffffff167fa3396fd7f6e0a21b50e5089d2da70d5ac0a3bbbd1f617a93f134b7638998019860405160405180910390a350565b6105d4335f357fffffffff0000000000000000000000000000000000000000000000000000000016610d1f565b61060a576040517f82b4290000000000000000000000000000000000000000000000000000000000815260040160405180910390fd5b80156106b5578360ff166001901b5f1b60045f8573ffffffffffffffffffffffffffffffffffffffff1673ffffffffffffffffffffffffffffffffffffffff1681526020019081526020015f205f847bffffffffffffffffffffffffffffffffffffffffffffffffffffffff19167bffffffffffffffffffffffffffffffffffffffffffffffffffffffff191681526020019081526020015f205f8282541792505081905550610757565b8360ff166001901b5f1b1960045f8573ffffffffffffffffffffffffffffffffffffffff1673ffffffffffffffffffffffffffffffffffffffff1681526020019081526020015f205f847bffffffffffffffffffffffffffffffffffffffffffffffffffffffff19167bffffffffffffffffffffffffffffffffffffffffffffffffffffffff191681526020019081526020015f205f82825416925050819055505b817bffffffffffffffffffffffffffffffffffffffffffffffffffffffff19168373ffffffffffffffffffffffffffffffffffffffff168560ff167fa52ea92e6e955aa8ac66420b86350f7139959adfcc7e6a14eee1bd116d09860e846040516107c19190610fbf565b60405180910390a450505050565b5f5f9054906101000a900473ffffffffffffffffffffffffffffffffffffffff1681565b5f5f60018560ff1660045f8773ffffffffffffffffffffffffffffffffffffffff1673ffffffffffffffffffffffffffffffffffffffff1681526020019081526020015f205f867bffffffffffffffffffffffffffffffffffffffffffffffffffffffff19167bffffffffffffffffffffffffffffffffffffffffffffffffffffffff191681526020019081526020015f20545f1c901c16141590509392505050565b5f60035f8473ffffffffffffffffffffffffffffffffffffffff1673ffffffffffffffffffffffffffffffffffffffff1681526020019081526020015f205f837bffffffffffffffffffffffffffffffffffffffffffffffffffffffff19167bffffffffffffffffffffffffffffffffffffffffffffffffffffffff191681526020019081526020015f205f9054906101000a900460ff1680610a04575060045f8473ffffffffffffffffffffffffffffffffffffffff1673ffffffffffffffffffffffffffffffffffffffff1681526020019081526020015f205f837bffffffffffffffffffffffffffffffffffffffffffffffffffffffff19167bffffffffffffffffffffffffffffffffffffffffffffffffffffffff191681526020019081526020015f205460025f8673ffffffffffffffffffffffffffffffffffffffff1673ffffffffffffffffffffffffffffffffffffffff1681526020019081526020015f2054165f5f1b14155b90509392505050565b60015f9054906101000a900473ffffffffffffffffffffffffffffffffffffffff1681565b610a5f335f357fffffffff0000000000000000000000000000000000000000000000000000000016610d1f565b610a95576040517f82b4290000000000000000000000000000000000000000000000000000000000815260040160405180910390fd5b8060035f8573ffffffffffffffffffffffffffffffffffffffff1673ffffffffffffffffffffffffffffffffffffffff1681526020019081526020015f205f847bffffffffffffffffffffffffffffffffffffffffffffffffffffffff19167bffffffffffffffffffffffffffffffffffffffffffffffffffffffff191681526020019081526020015f205f6101000a81548160ff021916908315150217905550817bffffffffffffffffffffffffffffffffffffffffffffffffffffffff19168373ffffffffffffffffffffffffffffffffffffffff167f950a343f5d10445e82a71036d3f4fb3016180a25805141932543b83e2078a93e83604051610b9c9190610fbf565b60405180910390a3505050565b5f5f60018360ff1660025f8773ffffffffffffffffffffffffffffffffffffffff1673ffffffffffffffffffffffffffffffffffffffff1681526020019081526020015f20545f1c901c161415905092915050565b5f5f9054906101000a900473ffffffffffffffffffffffffffffffffffffffff1673ffffffffffffffffffffffffffffffffffffffff163373ffffffffffffffffffffffffffffffffffffffff1614610c83576040517f82b4290000000000000000000000000000000000000000000000000000000000815260040160405180910390fd5b805f5f6101000a81548173ffffffffffffffffffffffffffffffffffffffff021916908373ffffffffffffffffffffffffffffffffffffffff1602179055508073ffffffffffffffffffffffffffffffffffffffff163373ffffffffffffffffffffffffffffffffffffffff167f8be0079c531659141344cd1fd0a4f28419497f9722a3daafe3b4186f6b6457e060405160405180910390a350565b5f5f60015f9054906101000a900473ffffffffffffffffffffffffffffffffffffffff1690505f73ffffffffffffffffffffffffffffffffffffffff168173ffffffffffffffffffffffffffffffffffffffff1614158015610df957508073ffffffffffffffffffffffffffffffffffffffff1663b70096138530866040518463ffffffff1660e01b8152600401610db99392919061132b565b602060405180830381865afa158015610dd4573d5f5f3e3d5ffd5b505050506040513d601f19601f82011682018060405250810190610df89190611374565b5b80610e4f57505f5f9054906101000a900473ffffffffffffffffffffffffffffffffffffffff1673ffffffffffffffffffffffffffffffffffffffff168473ffffffffffffffffffffffffffffffffffffffff16145b91505092915050565b5f5ffd5b5f73ffffffffffffffffffffffffffffffffffffffff82169050919050565b5f610e8582610e5c565b9050919050565b610e9581610e7b565b8114610e9f575f5ffd5b50565b5f81359050610eb081610e8c565b92915050565b5f60208284031215610ecb57610eca610e58565b5b5f610ed884828501610ea2565b91505092915050565b5f819050919050565b610ef381610ee1565b82525050565b5f602082019050610f0c5f830184610eea565b92915050565b5f7fffffffff0000000000000000000000000000000000000000000000000000000082169050919050565b610f4681610f12565b8114610f50575f5ffd5b50565b5f81359050610f6181610f3d565b92915050565b5f5f60408385031215610f7d57610f7c610e58565b5b5f610f8a85828601610ea2565b9250506020610f9b85828601610f53565b9150509250929050565b5f8115159050919050565b610fb981610fa5565b82525050565b5f602082019050610fd25f830184610fb0565b92915050565b5f60ff82169050919050565b610fed81610fd8565b8114610ff7575f5ffd5b50565b5f8135905061100881610fe4565b92915050565b61101781610fa5565b8114611021575f5ffd5b50565b5f813590506110328161100e565b92915050565b5f5f5f6060848603121561104f5761104e610e58565b5b5f61105c86828701610ea2565b935050602061106d86828701610ffa565b925050604061107e86828701611024565b9150509250925092565b5f61109282610e7b565b9050919050565b6110a281611088565b81146110ac575f5ffd5b50565b5f813590506110bd81611099565b92915050565b5f602082840312156110d8576110d7610e58565b5b5f6110e5848285016110af565b91505092915050565b5f5f5f5f6080858703121561110657611105610e58565b5b5f61111387828801610ffa565b945050602061112487828801610ea2565b935050604061113587828801610f53565b925050606061114687828801611024565b91505092959194509250565b61115b81610e7b565b82525050565b5f6020820190506111745f830184611152565b92915050565b5f5f5f6060848603121561119157611190610e58565b5b5f61119e86828701610ffa565b93505060206111af86828701610ea2565b92505060406111c086828701610f53565b9150509250925092565b5f5f5f606084860312156111e1576111e0610e58565b5b5f6111ee86828701610ea2565b93505060206111ff86828701610ea2565b925050604061121086828701610f53565b9150509250925092565b5f819050919050565b5f61123d61123861123384610e5c565b61121a565b610e5c565b9050919050565b5f61124e82611223565b9050919050565b5f61125f82611244565b9050919050565b61126f81611255565b82525050565b5f6020820190506112885f830184611266565b92915050565b5f5f5f606084860312156112a5576112a4610e58565b5b5f6112b286828701610ea2565b93505060206112c386828701610f53565b92505060406112d486828701611024565b9150509250925092565b5f5f604083850312156112f4576112f3610e58565b5b5f61130185828601610ea2565b925050602061131285828601610ffa565b9150509250929050565b61132581610f12565b82525050565b5f60608201905061133e5f830186611152565b61134b6020830185611152565b611358604083018461131c565b949350505050565b5f8151905061136e8161100e565b92915050565b5f6020828403121561138957611388610e58565b5b5f61139684828501611360565b9150509291505056fea264697066735822122072d1f72b58427cdae80cd362a0318e3d77e4e13dedce5a00e001eb616e5717a964736f6c634300081e0033","linkReferences":{}},"methodIdentifiers":{"authority()":"bf7e214f","canCall(address,address,bytes4)":"b7009613","doesRoleHaveCapability(uint8,address,bytes4)":"b4bad06a","doesUserHaveRole(address,uint8)":"ea7ca276","getRolesWithCapability(address,bytes4)":"7917b794","getUserRoles(address)":"06a36aee","isCapabilityPublic(address,bytes4)":"2f47571f","owner()":"8da5cb5b","setAuthority(address)":"7a9e5e4b","setPublicCapability(address,bytes4,bool)":"c6b0263e","setRoleCapability(uint8,address,bytes4,bool)":"7d40583d","setUserRole(address,uint8,bool)":"67aff484","transferOwnership(address)":"f2fde38b"},"id":24}