{"abi":[{"type":"constructor","inputs":[{"name":"_owner","type":"address","internalType":"address"},{"name":"_authority","type":"address","internalType":"contract Authority"}],"stateMutability":"nonpayable"},{"type":"function","name":"MAX_CALLS_PER_PERIOD","inputs":[],"outputs":[{"name":"","type":"uint256","internalType":"uint256"}],"stateMutability":"view"},{"type":"function","name":"MAX_SECURITY_SCORE","inputs":[],"outputs":[{"name":"","type":"uint256","internalType":"uint256"}],"stateMutability":"view"},{"type":"function","name":"RATE_LIMIT_PERIOD","inputs":[],"outputs":[{"name":"","type":"uint256","internalType":"uint256"}],"stateMutability":"view"},{"type":"function","name":"authority","inputs":[],"outputs":[{"name":"","type":"address","internalType":"contract Authority"}],"stateMutability":"view"},{"type":"function","name":"canExecute","inputs":[{"name":"user","type":"address","internalType":"address"},{"name":"target","type":"address","internalType":"address"},{"name":"selector","type":"bytes4","internalType":"bytes4"}],"outputs":[{"name":"","type":"bool","internalType":"bool"}],"stateMutability":"view"},{"type":"function","name":"executeWithMaximumSecurity","inputs":[{"name":"target","type":"address","internalType":"address"},{"name":"selector","type":"bytes4","internalType":"bytes4"},{"name":"params","type":"bytes","internalType":"bytes"},{"name":"userAddress","type":"address","internalType":"address"}],"outputs":[{"name":"success","type":"bool","internalType":"bool"},{"name":"result","type":"bytes","internalType":"bytes"}],"stateMutability":"nonpayable"},{"type":"function","name":"getRateLimitStatus","inputs":[{"name":"user","type":"address","internalType":"address"}],"outputs":[{"name":"remaining","type":"uint256","internalType":"uint256"},{"name":"resetTime","type":"uint256","internalType":"uint256"}],"stateMutability":"view"},{"type":"function","name":"owner","inputs":[],"outputs":[{"name":"","type":"address","internalType":"address"}],"stateMutability":"view"},{"type":"function","name":"rateLimits","inputs":[{"name":"","type":"address","internalType":"address"}],"outputs":[{"name":"callCount","type":"uint256","internalType":"uint256"},{"name":"periodStart","type":"uint256","internalType":"uint256"}],"stateMutability":"view"},{"type":"function","name":"securityConfig","inputs":[],"outputs":[{"name":"minSecurityScore","type":"uint256","internalType":"uint256"},{"name":"requiresCommitment","type":"bool","internalType":"bool"},{"name":"maxValuePerCall","type":"uint256","internalType":"uint256"}],"stateMutability":"view"},{"type":"function","name":"setAuthority","inputs":[{"name":"newAuthority","type":"address","internalType":"contract Authority"}],"outputs":[],"stateMutability":"nonpayable"},{"type":"function","name":"setSecurityConfig","inputs":[{"name":"minScore","type":"uint256","internalType":"uint256"},{"name":"requiresCommitment","type":"bool","internalType":"bool"},{"name":"maxValue","type":"uint256","internalType":"uint256"}],"outputs":[],"stateMutability":"nonpayable"},{"type":"function","name":"setSelectorWhitelist","inputs":[{"name":"target","type":"address","internalType":"address"},{"name":"selector","type":"bytes4","internalType":"bytes4"},{"name":"status","type":"bool","internalType":"bool"}],"outputs":[],"stateMutability":"nonpayable"},{"type":"function","name":"setTargetWhitelist","inputs":[{"name":"target","type":"address","internalType":"address"},{"name":"status","type":"bool","internalType":"bool"}],"outputs":[],"stateMutability":"nonpayable"},{"type":"function","name":"setUserSecurityScore","inputs":[{"name":"user","type":"address","internalType":"address"},{"name":"score","type":"uint256","internalType":"uint256"}],"outputs":[],"stateMutability":"nonpayable"},{"type":"function","name":"transferOwnership","inputs":[{"name":"newOwner","type":"address","internalType":"address"}],"outputs":[],"stateMutability":"nonpayable"},{"type":"function","name":"userSecurityScores","inputs":[{"name":"","type":"address","internalType":"address"}],"outputs":[{"name":"","type":"uint256","internalType":"uint256"}],"stateMutability":"view"},{"type":"function","name":"whitelistedSelectors","inputs":[{"name":"","type":"address","internalType":"address"},{"name":"","type":"bytes4","internalType":"bytes4"}],"outputs":[{"name":"","type":"bool","internalType":"bool"}],"stateMutability":"view"},{"type":"function","name":"whitelistedTargets","inputs":[{"name":"","type":"address","internalType":"address"}],"outputs":[{"name":"","type":"bool","internalType":"bool"}],"stateMutability":"view"},{"type":"event","name":"AuthorityUpdated","inputs":[{"name":"user","type":"address","indexed":true,"internalType":"address"},{"name":"newAuthority","type":"address","indexed":true,"internalType":"contract Authority"}],"anonymous":false},{"type":"event","name":"OwnershipTransferred","inputs":[{"name":"user","type":"address","indexed":true,"internalType":"address"},{"name":"newOwner","type":"address","indexed":true,"internalType":"address"}],"anonymous":false},{"type":"event","name":"RateLimitExceeded","inputs":[{"name":"user","type":"address","indexed":true,"internalType":"address"},{"name":"callCount","type":"uint256","indexed":false,"internalType":"uint256"}],"anonymous":false},{"type":"event","name":"SecureExecutionComplete","inputs":[{"name":"user","type":"address","indexed":true,"internalType":"address"},{"name":"target","type":"address","indexed":true,"internalType":"address"},{"name":"selector","type":"bytes4","indexed":false,"internalType":"bytes4"},{"name":"success","type":"bool","indexed":false,"internalType":"bool"}],"anonymous":false},{"type":"event","name":"SecurityConfigUpdated","inputs":[{"name":"minScore","type":"uint256","indexed":false,"internalType":"uint256"},{"name":"requiresCommitment","type":"bool","indexed":false,"internalType":"bool"},{"name":"maxValue","type":"uint256","indexed":false,"internalType":"uint256"}],"anonymous":false},{"type":"event","name":"SecurityScoreUpdated","inputs":[{"name":"user","type":"address","indexed":true,"internalType":"address"},{"name":"oldScore","type":"uint256","indexed":false,"internalType":"uint256"},{"name":"newScore","type":"uint256","indexed":false,"internalType":"uint256"}],"anonymous":false},{"type":"event","name":"SelectorWhitelistUpdated","inputs":[{"name":"target","type":"address","indexed":true,"internalType":"address"},{"name":"selector","type":"bytes4","indexed":false,"internalType":"bytes4"},{"name":"status","type":"bool","indexed":false,"internalType":"bool"}],"anonymous":false},{"type":"event","name":"TargetWhitelistUpdated","inputs":[{"name":"target","type":"address","indexed":true,"internalType":"address"},{"name":"status","type":"bool","indexed":false,"internalType":"bool"}],"anonymous":false},{"type":"error","name":"ExecutionFailed","inputs":[]},{"type":"error","name":"InvalidSecurityScore","inputs":[{"name":"score","type":"uint256","internalType":"uint256"}]},{"type":"error","name":"RateLimitExceededError","inputs":[{"name":"user","type":"address","internalType":"address"},{"name":"callCount","type":"uint256","internalType":"uint256"},{"name":"maxCalls","type":"uint256","internalType":"uint256"}]},{"type":"error","name":"Reentrancy","inputs":[]},{"type":"error","name":"SecurityScoreTooLow","inputs":[{"name":"score","type":"uint256","internalType":"uint256"},{"name":"required","type":"uint256","internalType":"uint256"}]},{"type":"error","name":"SelectorNotWhitelisted","inputs":[{"name":"target","type":"address","internalType":"address"},{"name":"selector","type":"bytes4","internalType":"bytes4"}]},{"type":"error","name":"TargetNotWhitelisted","inputs":[{"name":"target","type":"address","internalType":"address"}]},{"type":"error","name":"Unauthorized","inputs":[]},{"type":"error","name":"ValueExceedsMax","inputs":[{"name":"value","type":"uint256","internalType":"uint256"},{"name":"maxValue","type":"uint256","internalType":"uint256"}]},{"type":"error","name":"ZeroAddress","inputs":[]}],"bytecode":{"object":"0x60806040526001600255348015610014575f5ffd5b5060405161220d38038061220d83398181016040528101906100369190610281565b8181815f5f6101000a81548173ffffffffffffffffffffffffffffffffffffffff021916908373ffffffffffffffffffffffffffffffffffffffff1602179055508060015f6101000a81548173ffffffffffffffffffffffffffffffffffffffff021916908373ffffffffffffffffffffffffffffffffffffffff1602179055508173ffffffffffffffffffffffffffffffffffffffff165f73ffffffffffffffffffffffffffffffffffffffff167f8be0079c531659141344cd1fd0a4f28419497f9722a3daafe3b4186f6b6457e060405160405180910390a38073ffffffffffffffffffffffffffffffffffffffff165f73ffffffffffffffffffffffffffffffffffffffff167fa3396fd7f6e0a21b50e5089d2da70d5ac0a3bbbd1f617a93f134b7638998019860405160405180910390a350506040518060600160405280603281526020015f151581526020017fffffffffffffffffffffffffffffffffffffffffffffffffffffffffffffffff81525060075f820151815f01556020820151816001015f6101000a81548160ff0219169083151502179055506040820151816002015590505050506102bf565b5f5ffd5b5f73ffffffffffffffffffffffffffffffffffffffff82169050919050565b5f610215826101ec565b9050919050565b6102258161020b565b811461022f575f5ffd5b50565b5f815190506102408161021c565b92915050565b5f6102508261020b565b9050919050565b61026081610246565b811461026a575f5ffd5b50565b5f8151905061027b81610257565b92915050565b5f5f60408385031215610297576102966101e8565b5b5f6102a485828601610232565b92505060206102b58582860161026d565b9150509250929050565b611f41806102cc5f395ff3fe608060405234801561000f575f5ffd5b506004361061011f575f3560e01c8063bf7e214f116100ab578063eab8e2b81161006f578063eab8e2b81461030a578063ef735e2c1461033b578063f2fde38b14610357578063f836dc5514610373578063fb9ed257146103a45761011f565b8063bf7e214f14610264578063c8a44efa14610282578063daf593c6146102b2578063dc6b8812146102d0578063e08d7b65146102ec5761011f565b80638da5cb5b116100f25780638da5cb5b146101a8578063a342e321146101c6578063b7b188d1146101f6578063bab0eca214610214578063be11b1d0146102445761011f565b8063108bdc141461012357806356e1800d1461013f5780637a14c7d21461015b5780637a9e5e4b1461018c575b5f5ffd5b61013d600480360381019061013891906116d2565b6103d4565b005b61015960048036038101906101549190611743565b610542565b005b61017560048036038101906101709190611793565b61067e565b6040516101839291906117cd565b60405180910390f35b6101a660048036038101906101a1919061182f565b61069e565b005b6101b06107c0565b6040516101bd9190611869565b60405180910390f35b6101e060048036038101906101db9190611793565b6107e4565b6040516101ed9190611882565b60405180910390f35b6101fe6107f9565b60405161020b9190611882565b60405180910390f35b61022e600480360381019061022991906118f0565b6107fe565b60405161023b919061194f565b60405180910390f35b61024c6109e1565b60405161025b93929190611968565b60405180910390f35b61026c610a04565b60405161027991906119f8565b60405180910390f35b61029c60048036038101906102979190611a11565b610a29565b6040516102a9919061194f565b60405180910390f35b6102ba610a53565b6040516102c79190611882565b60405180910390f35b6102ea60048036038101906102e59190611a4f565b610a58565b005b6102f4610c16565b6040516103019190611882565b60405180910390f35b610324600480360381019061031f9190611793565b610c1b565b6040516103329291906117cd565b60405180910390f35b61035560048036038101906103509190611a9f565b610cd3565b005b610371600480360381019061036c9190611793565b610eb9565b005b61038d60048036038101906103889190611b3e565b610fda565b60405161039b929190611c32565b60405180910390f35b6103be60048036038101906103b99190611793565b6114e5565b6040516103cb919061194f565b60405180910390f35b610401335f357fffffffff0000000000000000000000000000000000000000000000000000000016611502565b610437576040517f82b4290000000000000000000000000000000000000000000000000000000000815260040160405180910390fd5b5f73ffffffffffffffffffffffffffffffffffffffff168273ffffffffffffffffffffffffffffffffffffffff160361049c576040517fd92e233d00000000000000000000000000000000000000000000000000000000815260040160405180910390fd5b8060055f8473ffffffffffffffffffffffffffffffffffffffff1673ffffffffffffffffffffffffffffffffffffffff1681526020019081526020015f205f6101000a81548160ff0219169083151502179055508173ffffffffffffffffffffffffffffffffffffffff167f52eec1a0372bcc0f149dd096fc04f013047c878bd949d11adecf9b39bc0c71dc82604051610536919061194f565b60405180910390a25050565b61056f335f357fffffffff0000000000000000000000000000000000000000000000000000000016611502565b6105a5576040517f82b4290000000000000000000000000000000000000000000000000000000000815260040160405180910390fd5b60648311156105eb57826040517fea28a1190000000000000000000000000000000000000000000000000000000081526004016105e29190611882565b60405180910390fd5b604051806060016040528084815260200183151581526020018281525060075f820151815f01556020820151816001015f6101000a81548160ff021916908315150217905550604082015181600201559050507fc4a5290be045d64b26736767ff706f88bb8f066c8d4e8f658f6d5825120d64bc83838360405161067193929190611968565b60405180910390a1505050565b6003602052805f5260405f205f91509050805f0154908060010154905082565b5f5f9054906101000a900473ffffffffffffffffffffffffffffffffffffffff1673ffffffffffffffffffffffffffffffffffffffff163373ffffffffffffffffffffffffffffffffffffffff1614610723576040517f82b4290000000000000000000000000000000000000000000000000000000000815260040160405180910390fd5b8060015f6101000a81548173ffffffffffffffffffffffffffffffffffffffff021916908373ffffffffffffffffffffffffffffffffffffffff1602179055508073ffffffffffffffffffffffffffffffffffffffff163373ffffffffffffffffffffffffffffffffffffffff167fa3396fd7f6e0a21b50e5089d2da70d5ac0a3bbbd1f617a93f134b7638998019860405160405180910390a350565b5f5f9054906101000a900473ffffffffffffffffffffffffffffffffffffffff1681565b6004602052805f5260405f205f915090505481565b603c81565b5f60055f8473ffffffffffffffffffffffffffffffffffffffff1673ffffffffffffffffffffffffffffffffffffffff1681526020019081526020015f205f9054906101000a900460ff16610855575f90506109da565b60065f8473ffffffffffffffffffffffffffffffffffffffff1673ffffffffffffffffffffffffffffffffffffffff1681526020019081526020015f205f837bffffffffffffffffffffffffffffffffffffffffffffffffffffffff19167bffffffffffffffffffffffffffffffffffffffffffffffffffffffff191681526020019081526020015f205f9054906101000a900460ff166108f8575f90506109da565b60075f015460045f8673ffffffffffffffffffffffffffffffffffffffff1673ffffffffffffffffffffffffffffffffffffffff1681526020019081526020015f20541015610949575f90506109da565b5f60035f8673ffffffffffffffffffffffffffffffffffffffff1673ffffffffffffffffffffffffffffffffffffffff1681526020019081526020015f206040518060400160405290815f82015481526020016001820154815250509050603c81602001516109b89190611c8d565b4210156109d457600a815f0151106109d3575f9150506109da565b5b60019150505b9392505050565b6007805f015490806001015f9054906101000a900460ff16908060020154905083565b60015f9054906101000a900473ffffffffffffffffffffffffffffffffffffffff1681565b6006602052815f5260405f20602052805f5260405f205f915091509054906101000a900460ff1681565b600a81565b610a85335f357fffffffff0000000000000000000000000000000000000000000000000000000016611502565b610abb576040517f82b4290000000000000000000000000000000000000000000000000000000000815260040160405180910390fd5b5f73ffffffffffffffffffffffffffffffffffffffff168373ffffffffffffffffffffffffffffffffffffffff1603610b20576040517fd92e233d00000000000000000000000000000000000000000000000000000000815260040160405180910390fd5b8060065f8573ffffffffffffffffffffffffffffffffffffffff1673ffffffffffffffffffffffffffffffffffffffff1681526020019081526020015f205f847bffffffffffffffffffffffffffffffffffffffffffffffffffffffff19167bffffffffffffffffffffffffffffffffffffffffffffffffffffffff191681526020019081526020015f205f6101000a81548160ff0219169083151502179055508273ffffffffffffffffffffffffffffffffffffffff167f7358e0c8cc4e599d3dce63ee899196498191b6d98bb616b28162ff0658fba3f58383604051610c09929190611ccf565b60405180910390a2505050565b606481565b5f5f5f60035f8573ffffffffffffffffffffffffffffffffffffffff1673ffffffffffffffffffffffffffffffffffffffff1681526020019081526020015f206040518060400160405290815f820154815260200160018201548152505090505f603c8260200151610c8d9190611c8d565b9050804210610ca457600a42935093505050610cce565b815f0151600a11610cb5575f610cc6565b815f0151600a610cc59190611cf6565b5b935080925050505b915091565b610d00335f357fffffffff0000000000000000000000000000000000000000000000000000000016611502565b610d36576040517f82b4290000000000000000000000000000000000000000000000000000000000815260040160405180910390fd5b5f73ffffffffffffffffffffffffffffffffffffffff168273ffffffffffffffffffffffffffffffffffffffff1603610d9b576040517fd92e233d00000000000000000000000000000000000000000000000000000000815260040160405180910390fd5b6064811115610de157806040517fea28a119000000000000000000000000000000000000000000000000000000008152600401610dd89190611882565b60405180910390fd5b5f60045f8473ffffffffffffffffffffffffffffffffffffffff1673ffffffffffffffffffffffffffffffffffffffff1681526020019081526020015f205490508160045f8573ffffffffffffffffffffffffffffffffffffffff1673ffffffffffffffffffffffffffffffffffffffff1681526020019081526020015f20819055508273ffffffffffffffffffffffffffffffffffffffff167ffbec5bfb188c423111b9d192e41c19f491dd503deb02bfcae95b023fb525d7e28284604051610eac9291906117cd565b60405180910390a2505050565b5f5f9054906101000a900473ffffffffffffffffffffffffffffffffffffffff1673ffffffffffffffffffffffffffffffffffffffff163373ffffffffffffffffffffffffffffffffffffffff1614610f3e576040517f82b4290000000000000000000000000000000000000000000000000000000000815260040160405180910390fd5b805f5f6101000a81548173ffffffffffffffffffffffffffffffffffffffff021916908373ffffffffffffffffffffffffffffffffffffffff1602179055508073ffffffffffffffffffffffffffffffffffffffff163373ffffffffffffffffffffffffffffffffffffffff167f8be0079c531659141344cd1fd0a4f28419497f9722a3daafe3b4186f6b6457e060405160405180910390a350565b5f60606002805403611018576040517fab143c0600000000000000000000000000000000000000000000000000000000815260040160405180910390fd5b6002808190555061104c335f357fffffffff0000000000000000000000000000000000000000000000000000000016611502565b611082576040517f82b4290000000000000000000000000000000000000000000000000000000000815260040160405180910390fd5b60055f8873ffffffffffffffffffffffffffffffffffffffff1673ffffffffffffffffffffffffffffffffffffffff1681526020019081526020015f205f9054906101000a900460ff1661110d57866040517f47ccabe70000000000000000000000000000000000000000000000000000000081526004016111049190611869565b60405180910390fd5b60065f8873ffffffffffffffffffffffffffffffffffffffff1673ffffffffffffffffffffffffffffffffffffffff1681526020019081526020015f205f877bffffffffffffffffffffffffffffffffffffffffffffffffffffffff19167bffffffffffffffffffffffffffffffffffffffffffffffffffffffff191681526020019081526020015f205f9054906101000a900460ff166111e75786866040517fd241bce00000000000000000000000000000000000000000000000000000000081526004016111de929190611d29565b60405180910390fd5b5f60045f8573ffffffffffffffffffffffffffffffffffffffff1673ffffffffffffffffffffffffffffffffffffffff1681526020019081526020015f2054905060075f0154811015611277578060075f01546040517f2244dc6500000000000000000000000000000000000000000000000000000000815260040161126e9291906117cd565b60405180910390fd5b5f60035f8673ffffffffffffffffffffffffffffffffffffffff1673ffffffffffffffffffffffffffffffffffffffff1681526020019081526020015f209050603c81600101546112c89190611c8d565b42106112e5576001815f018190555042816001018190555061139f565b600a815f015410611386578473ffffffffffffffffffffffffffffffffffffffff167fa7382e9b0f37a34b8c7659176b27a0e82d2fb18f6eb6472b63d78ec4b498c4e5825f01546040516113399190611882565b60405180910390a284815f0154600a6040517f3ab1e41f00000000000000000000000000000000000000000000000000000000815260040161137d93929190611d50565b60405180910390fd5b805f015f81548092919061139990611d85565b91905055505b5f8888886040516020016113b593929190611e28565b60405160208183030381529060405290508973ffffffffffffffffffffffffffffffffffffffff16816040516113eb9190611e81565b5f604051808303815f865af19150503d805f8114611424576040519150601f19603f3d011682016040523d82523d5f602084013e611429565b606091505b50809550819650505084611469576040517facfdb44400000000000000000000000000000000000000000000000000000000815260040160405180910390fd5b8973ffffffffffffffffffffffffffffffffffffffff168673ffffffffffffffffffffffffffffffffffffffff167ff7bb07c987c66d7b063ec1cb9320cba3e4b5782b5122c7b7396afd2696892c678b886040516114c8929190611ccf565b60405180910390a350505060016002819055509550959350505050565b6005602052805f5260405f205f915054906101000a900460ff1681565b5f5f60015f9054906101000a900473ffffffffffffffffffffffffffffffffffffffff1690505f73ffffffffffffffffffffffffffffffffffffffff168173ffffffffffffffffffffffffffffffffffffffff16141580156115dc57508073ffffffffffffffffffffffffffffffffffffffff1663b70096138530866040518463ffffffff1660e01b815260040161159c93929190611e97565b602060405180830381865afa1580156115b7573d5f5f3e3d5ffd5b505050506040513d601f19601f820116820180604052508101906115db9190611ee0565b5b8061163257505f5f9054906101000a900473ffffffffffffffffffffffffffffffffffffffff1673ffffffffffffffffffffffffffffffffffffffff168473ffffffffffffffffffffffffffffffffffffffff16145b91505092915050565b5f5ffd5b5f5ffd5b5f73ffffffffffffffffffffffffffffffffffffffff82169050919050565b5f61166c82611643565b9050919050565b61167c81611662565b8114611686575f5ffd5b50565b5f8135905061169781611673565b92915050565b5f8115159050919050565b6116b18161169d565b81146116bb575f5ffd5b50565b5f813590506116cc816116a8565b92915050565b5f5f604083850312156116e8576116e761163b565b5b5f6116f585828601611689565b9250506020611706858286016116be565b9150509250929050565b5f819050919050565b61172281611710565b811461172c575f5ffd5b50565b5f8135905061173d81611719565b92915050565b5f5f5f6060848603121561175a5761175961163b565b5b5f6117678682870161172f565b9350506020611778868287016116be565b92505060406117898682870161172f565b9150509250925092565b5f602082840312156117a8576117a761163b565b5b5f6117b584828501611689565b91505092915050565b6117c781611710565b82525050565b5f6040820190506117e05f8301856117be565b6117ed60208301846117be565b9392505050565b5f6117fe82611662565b9050919050565b61180e816117f4565b8114611818575f5ffd5b50565b5f8135905061182981611805565b92915050565b5f602082840312156118445761184361163b565b5b5f6118518482850161181b565b91505092915050565b61186381611662565b82525050565b5f60208201905061187c5f83018461185a565b92915050565b5f6020820190506118955f8301846117be565b92915050565b5f7fffffffff0000000000000000000000000000000000000000000000000000000082169050919050565b6118cf8161189b565b81146118d9575f5ffd5b50565b5f813590506118ea816118c6565b92915050565b5f5f5f606084860312156119075761190661163b565b5b5f61191486828701611689565b935050602061192586828701611689565b9250506040611936868287016118dc565b9150509250925092565b6119498161169d565b82525050565b5f6020820190506119625f830184611940565b92915050565b5f60608201905061197b5f8301866117be565b6119886020830185611940565b61199560408301846117be565b949350505050565b5f819050919050565b5f6119c06119bb6119b684611643565b61199d565b611643565b9050919050565b5f6119d1826119a6565b9050919050565b5f6119e2826119c7565b9050919050565b6119f2816119d8565b82525050565b5f602082019050611a0b5f8301846119e9565b92915050565b5f5f60408385031215611a2757611a2661163b565b5b5f611a3485828601611689565b9250506020611a45858286016118dc565b9150509250929050565b5f5f5f60608486031215611a6657611a6561163b565b5b5f611a7386828701611689565b9350506020611a84868287016118dc565b9250506040611a95868287016116be565b9150509250925092565b5f5f60408385031215611ab557611ab461163b565b5b5f611ac285828601611689565b9250506020611ad38582860161172f565b9150509250929050565b5f5ffd5b5f5ffd5b5f5ffd5b5f5f83601f840112611afe57611afd611add565b5b8235905067ffffffffffffffff811115611b1b57611b1a611ae1565b5b602083019150836001820283011115611b3757611b36611ae5565b5b9250929050565b5f5f5f5f5f60808688031215611b5757611b5661163b565b5b5f611b6488828901611689565b9550506020611b75888289016118dc565b945050604086013567ffffffffffffffff811115611b9657611b9561163f565b5b611ba288828901611ae9565b93509350506060611bb588828901611689565b9150509295509295909350565b5f81519050919050565b5f82825260208201905092915050565b8281835e5f83830152505050565b5f601f19601f8301169050919050565b5f611c0482611bc2565b611c0e8185611bcc565b9350611c1e818560208601611bdc565b611c2781611bea565b840191505092915050565b5f604082019050611c455f830185611940565b8181036020830152611c578184611bfa565b90509392505050565b7f4e487b71000000000000000000000000000000000000000000000000000000005f52601160045260245ffd5b5f611c9782611710565b9150611ca283611710565b9250828201905080821115611cba57611cb9611c60565b5b92915050565b611cc98161189b565b82525050565b5f604082019050611ce25f830185611cc0565b611cef6020830184611940565b9392505050565b5f611d0082611710565b9150611d0b83611710565b9250828203905081811115611d2357611d22611c60565b5b92915050565b5f604082019050611d3c5f83018561185a565b611d496020830184611cc0565b9392505050565b5f606082019050611d635f83018661185a565b611d7060208301856117be565b611d7d60408301846117be565b949350505050565b5f611d8f82611710565b91507fffffffffffffffffffffffffffffffffffffffffffffffffffffffffffffffff8203611dc157611dc0611c60565b5b600182019050919050565b5f819050919050565b611de6611de18261189b565b611dcc565b82525050565b5f81905092915050565b828183375f83830152505050565b5f611e0f8385611dec565b9350611e1c838584611df6565b82840190509392505050565b5f611e338286611dd5565b600482019150611e44828486611e04565b9150819050949350505050565b5f611e5b82611bc2565b611e658185611dec565b9350611e75818560208601611bdc565b80840191505092915050565b5f611e8c8284611e51565b915081905092915050565b5f606082019050611eaa5f83018661185a565b611eb7602083018561185a565b611ec46040830184611cc0565b949350505050565b5f81519050611eda816116a8565b92915050565b5f60208284031215611ef557611ef461163b565b5b5f611f0284828501611ecc565b9150509291505056fea2646970667358221220e664ee14c339c8d4bbb05f1bb6a03bba4348a4c5112c06a6829a79c746e7b04c64736f6c634300081e0033","linkReferences":{}},"methodIdentifiers":{"MAX_CALLS_PER_PERIOD()":"daf593c6","MAX_SECURITY_SCORE()":"e08d7b65","RATE_LIMIT_PERIOD()":"b7b188d1","authority()":"bf7e214f","canExecute(address,address,bytes4)":"bab0eca2","executeWithMaximumSecurity(address,bytes4,bytes,address)":"f836dc55","getRateLimitStatus(address)":"eab8e2b8","owner()":"8da5cb5b","rateLimits(address)":"7a14c7d2","securityConfig()":"be11b1d0","setAuthority(address)":"7a9e5e4b","setSecurityConfig(uint256,bool,uint256)":"56e1800d","setSelectorWhitelist(address,bytes4,bool)":"dc6b8812","setTargetWhitelist(address,bool)":"108bdc14","setUserSecurityScore(address,uint256)":"ef735e2c","transferOwnership(address)":"f2fde38b","userSecurityScores(address)":"a342e321","whitelistedSelectors(address,bytes4)":"c8a44efa","whitelistedTargets(address)":"fb9ed257"},"id":37}