{"abi":[{"type":"constructor","inputs":[{"name":"_owner","type":"address","internalType":"address"},{"name":"_authority","type":"address","internalType":"contract Authority"},{"name":"_flashLoanEngine","type":"address","internalType":"address"},{"name":"_riskEngine","type":"address","internalType":"address"}],"stateMutability":"nonpayable"},{"type":"function","name":"ENGINE_UPDATE_TIMELOCK","inputs":[],"outputs":[{"name":"","type":"uint256","internalType":"uint256"}],"stateMutability":"view"},{"type":"function","name":"authority","inputs":[],"outputs":[{"name":"","type":"address","internalType":"contract Authority"}],"stateMutability":"view"},{"type":"function","name":"blockExecutionCount","inputs":[{"name":"","type":"uint256","internalType":"uint256"}],"outputs":[{"name":"","type":"uint256","internalType":"uint256"}],"stateMutability":"view"},{"type":"function","name":"cancelPendingFlashLoanUpdate","inputs":[],"outputs":[],"stateMutability":"nonpayable"},{"type":"function","name":"cancelPendingRiskUpdate","inputs":[],"outputs":[],"stateMutability":"nonpayable"},{"type":"function","name":"executeArbitrage","inputs":[{"name":"executionData","type":"bytes","internalType":"bytes"}],"outputs":[{"name":"","type":"bool","internalType":"bool"}],"stateMutability":"nonpayable"},{"type":"function","name":"executeFlashLoanEngineUpdate","inputs":[],"outputs":[],"stateMutability":"nonpayable"},{"type":"function","name":"executeRiskEngineUpdate","inputs":[],"outputs":[],"stateMutability":"nonpayable"},{"type":"function","name":"flashLoanEngine","inputs":[],"outputs":[{"name":"","type":"address","internalType":"address"}],"stateMutability":"view"},{"type":"function","name":"getPendingFlashLoanUpdate","inputs":[],"outputs":[{"name":"newEngine","type":"address","internalType":"address"},{"name":"executeAfter","type":"uint256","internalType":"uint256"},{"name":"exists","type":"bool","internalType":"bool"}],"stateMutability":"view"},{"type":"function","name":"getPendingRiskUpdate","inputs":[],"outputs":[{"name":"newEngine","type":"address","internalType":"address"},{"name":"executeAfter","type":"uint256","internalType":"uint256"},{"name":"exists","type":"bool","internalType":"bool"}],"stateMutability":"view"},{"type":"function","name":"getRemainingExecutions","inputs":[],"outputs":[{"name":"","type":"uint256","internalType":"uint256"}],"stateMutability":"view"},{"type":"function","name":"maxExecutionsPerBlock","inputs":[],"outputs":[{"name":"","type":"uint256","internalType":"uint256"}],"stateMutability":"view"},{"type":"function","name":"minRiskScore","inputs":[],"outputs":[{"name":"","type":"uint256","internalType":"uint256"}],"stateMutability":"view"},{"type":"function","name":"owner","inputs":[],"outputs":[{"name":"","type":"address","internalType":"address"}],"stateMutability":"view"},{"type":"function","name":"pendingFlashLoanEngine","inputs":[],"outputs":[{"name":"newEngine","type":"address","internalType":"address"},{"name":"executeAfter","type":"uint256","internalType":"uint256"},{"name":"exists","type":"bool","internalType":"bool"}],"stateMutability":"view"},{"type":"function","name":"pendingRiskEngine","inputs":[],"outputs":[{"name":"newEngine","type":"address","internalType":"address"},{"name":"executeAfter","type":"uint256","internalType":"uint256"},{"name":"exists","type":"bool","internalType":"bool"}],"stateMutability":"view"},{"type":"function","name":"queueFlashLoanEngineUpdate","inputs":[{"name":"newEngine","type":"address","internalType":"address"}],"outputs":[],"stateMutability":"nonpayable"},{"type":"function","name":"queueRiskEngineUpdate","inputs":[{"name":"newEngine","type":"address","internalType":"address"}],"outputs":[],"stateMutability":"nonpayable"},{"type":"function","name":"riskEngine","inputs":[],"outputs":[{"name":"","type":"address","internalType":"address"}],"stateMutability":"view"},{"type":"function","name":"setAuthority","inputs":[{"name":"newAuthority","type":"address","internalType":"contract Authority"}],"outputs":[],"stateMutability":"nonpayable"},{"type":"function","name":"setMaxExecutionsPerBlock","inputs":[{"name":"newMax","type":"uint256","internalType":"uint256"}],"outputs":[],"stateMutability":"nonpayable"},{"type":"function","name":"setMinRiskScore","inputs":[{"name":"newScore","type":"uint256","internalType":"uint256"}],"outputs":[],"stateMutability":"nonpayable"},{"type":"function","name":"transferOwnership","inputs":[{"name":"newOwner","type":"address","internalType":"address"}],"outputs":[],"stateMutability":"nonpayable"},{"type":"event","name":"ArbitrageExecuted","inputs":[{"name":"executor","type":"address","indexed":true,"internalType":"address"},{"name":"riskScore","type":"uint256","indexed":false,"internalType":"uint256"},{"name":"blockNumber","type":"uint256","indexed":false,"internalType":"uint256"}],"anonymous":false},{"type":"event","name":"AuthorityUpdated","inputs":[{"name":"user","type":"address","indexed":true,"internalType":"address"},{"name":"newAuthority","type":"address","indexed":true,"internalType":"contract Authority"}],"anonymous":false},{"type":"event","name":"FlashLoanEngineUpdateQueued","inputs":[{"name":"newEngine","type":"address","indexed":true,"internalType":"address"},{"name":"executeAfter","type":"uint256","indexed":false,"internalType":"uint256"}],"anonymous":false},{"type":"event","name":"FlashLoanEngineUpdated","inputs":[{"name":"oldEngine","type":"address","indexed":true,"internalType":"address"},{"name":"newEngine","type":"address","indexed":true,"internalType":"address"}],"anonymous":false},{"type":"event","name":"MaxExecutionsUpdated","inputs":[{"name":"oldMax","type":"uint256","indexed":false,"internalType":"uint256"},{"name":"newMax","type":"uint256","indexed":false,"internalType":"uint256"}],"anonymous":false},{"type":"event","name":"MinRiskScoreUpdated","inputs":[{"name":"oldScore","type":"uint256","indexed":false,"internalType":"uint256"},{"name":"newScore","type":"uint256","indexed":false,"internalType":"uint256"}],"anonymous":false},{"type":"event","name":"OwnershipTransferred","inputs":[{"name":"user","type":"address","indexed":true,"internalType":"address"},{"name":"newOwner","type":"address","indexed":true,"internalType":"address"}],"anonymous":false},{"type":"event","name":"RiskEngineUpdateQueued","inputs":[{"name":"newEngine","type":"address","indexed":true,"internalType":"address"},{"name":"executeAfter","type":"uint256","indexed":false,"internalType":"uint256"}],"anonymous":false},{"type":"event","name":"RiskEngineUpdated","inputs":[{"name":"oldEngine","type":"address","indexed":true,"internalType":"address"},{"name":"newEngine","type":"address","indexed":true,"internalType":"address"}],"anonymous":false},{"type":"event","name":"UpdateCancelled","inputs":[{"name":"engineType","type":"string","indexed":false,"internalType":"string"}],"anonymous":false},{"type":"error","name":"BlockExecutionLimitReached","inputs":[{"name":"current","type":"uint256","internalType":"uint256"},{"name":"max","type":"uint256","internalType":"uint256"}]},{"type":"error","name":"ExecutionFailed","inputs":[]},{"type":"error","name":"NoPendingUpdate","inputs":[]},{"type":"error","name":"Reentrancy","inputs":[]},{"type":"error","name":"RiskScoreTooLow","inputs":[{"name":"score","type":"uint256","internalType":"uint256"},{"name":"required","type":"uint256","internalType":"uint256"}]},{"type":"error","name":"TimelockActive","inputs":[{"name":"executeAfter","type":"uint256","internalType":"uint256"},{"name":"currentTime","type":"uint256","internalType":"uint256"}]},{"type":"error","name":"Unauthorized","inputs":[]},{"type":"error","name":"ZeroAddress","inputs":[]}],"bytecode":{"object":"0x60806040526001600255601e600b556005600c5534801561001e575f5ffd5b5060405161257d38038061257d83398181016040528101906100409190610335565b8383815f5f6101000a81548173ffffffffffffffffffffffffffffffffffffffff021916908373ffffffffffffffffffffffffffffffffffffffff1602179055508060015f6101000a81548173ffffffffffffffffffffffffffffffffffffffff021916908373ffffffffffffffffffffffffffffffffffffffff1602179055508173ffffffffffffffffffffffffffffffffffffffff165f73ffffffffffffffffffffffffffffffffffffffff167f8be0079c531659141344cd1fd0a4f28419497f9722a3daafe3b4186f6b6457e060405160405180910390a38073ffffffffffffffffffffffffffffffffffffffff165f73ffffffffffffffffffffffffffffffffffffffff167fa3396fd7f6e0a21b50e5089d2da70d5ac0a3bbbd1f617a93f134b7638998019860405160405180910390a350505f73ffffffffffffffffffffffffffffffffffffffff168273ffffffffffffffffffffffffffffffffffffffff1614806101dc57505f73ffffffffffffffffffffffffffffffffffffffff168173ffffffffffffffffffffffffffffffffffffffff16145b15610213576040517fd92e233d00000000000000000000000000000000000000000000000000000000815260040160405180910390fd5b8160035f6101000a81548173ffffffffffffffffffffffffffffffffffffffff021916908373ffffffffffffffffffffffffffffffffffffffff1602179055508060045f6101000a81548173ffffffffffffffffffffffffffffffffffffffff021916908373ffffffffffffffffffffffffffffffffffffffff16021790555050505050610399565b5f5ffd5b5f73ffffffffffffffffffffffffffffffffffffffff82169050919050565b5f6102c9826102a0565b9050919050565b6102d9816102bf565b81146102e3575f5ffd5b50565b5f815190506102f4816102d0565b92915050565b5f610304826102bf565b9050919050565b610314816102fa565b811461031e575f5ffd5b50565b5f8151905061032f8161030b565b92915050565b5f5f5f5f6080858703121561034d5761034c61029c565b5b5f61035a878288016102e6565b945050602061036b87828801610321565b935050604061037c878288016102e6565b925050606061038d878288016102e6565b91505092959194509250565b6121d7806103a65f395ff3fe608060405234801561000f575f5ffd5b5060043610610156575f3560e01c806392b888ae116100c1578063dec4618d1161007a578063dec4618d14610336578063ecfa296a14610356578063f2fde38b14610372578063f992852d1461038e578063faa84292146103ac578063fe6b3062146103ca57610156565b806392b888ae14610296578063ab2bcb59146102b4578063aba2a4a1146102d4578063bf7e214f146102f2578063da83ff7114610310578063db41cd8d1461031a57610156565b806358d999df1161011357806358d999df146101e4578063739d3c28146102005780637a9e5e4b146102205780638a04d2a31461023c5780638da5cb5b146102585780638faff6831461027657610156565b8063109d4da51461015a57806345dafbff14610164578063464682961461016e5780634bd6ae3614610178578063518a7e9a14610196578063585da1e7146101c6575b5f5ffd5b6101626103fa565b005b61016c61067c565b005b6101766107a2565b005b610180610a24565b60405161018d9190611a80565b60405180910390f35b6101b060048036038101906101ab9190611b02565b610a2a565b6040516101bd9190611b67565b60405180910390f35b6101ce610e14565b6040516101db9190611a80565b60405180910390f35b6101fe60048036038101906101f99190611baa565b610e4f565b005b610208610ef7565b60405161021793929190611c14565b60405180910390f35b61023a60048036038101906102359190611c84565b610f9c565b005b61025660048036038101906102519190611cd9565b6110be565b005b610260611290565b60405161026d9190611d04565b60405180910390f35b61027e6112b4565b60405161028d93929190611c14565b60405180910390f35b61029e611359565b6040516102ab9190611d04565b60405180910390f35b6102bc61137e565b6040516102cb93929190611c14565b60405180910390f35b6102dc6113c0565b6040516102e99190611d04565b60405180910390f35b6102fa6113e5565b6040516103079190611d78565b60405180910390f35b61031861140a565b005b610334600480360381019061032f9190611baa565b611530565b005b61033e6115d8565b60405161034d93929190611c14565b60405180910390f35b610370600480360381019061036b9190611cd9565b61161a565b005b61038c60048036038101906103879190611cd9565b6117ec565b005b61039661190d565b6040516103a39190611a80565b60405180910390f35b6103b4611913565b6040516103c19190611a80565b60405180910390f35b6103e460048036038101906103df9190611baa565b61191a565b6040516103f19190611a80565b60405180910390f35b610427335f357fffffffff000000000000000000000000000000000000000000000000000000001661192f565b61045d576040517f82b4290000000000000000000000000000000000000000000000000000000000815260040160405180910390fd5b5f60086040518060600160405290815f82015f9054906101000a900473ffffffffffffffffffffffffffffffffffffffff1673ffffffffffffffffffffffffffffffffffffffff1673ffffffffffffffffffffffffffffffffffffffff16815260200160018201548152602001600282015f9054906101000a900460ff16151515158152505090508060400151610520576040517fcd96377800000000000000000000000000000000000000000000000000000000815260040160405180910390fd5b806020015142101561056f578060200151426040517fe2ff0569000000000000000000000000000000000000000000000000000000008152600401610566929190611d91565b60405180910390fd5b5f60045f9054906101000a900473ffffffffffffffffffffffffffffffffffffffff169050815f015160045f6101000a81548173ffffffffffffffffffffffffffffffffffffffff021916908373ffffffffffffffffffffffffffffffffffffffff16021790555060085f5f82015f6101000a81549073ffffffffffffffffffffffffffffffffffffffff0219169055600182015f9055600282015f6101000a81549060ff02191690555050815f015173ffffffffffffffffffffffffffffffffffffffff168173ffffffffffffffffffffffffffffffffffffffff167f85dd9f880c0f86949f13350f6a63963cac0722131b5461426828cde322d464e060405160405180910390a35050565b6106a9335f357fffffffff000000000000000000000000000000000000000000000000000000001661192f565b6106df576040517f82b4290000000000000000000000000000000000000000000000000000000000815260040160405180910390fd5b60086002015f9054906101000a900460ff16610727576040517fcd96377800000000000000000000000000000000000000000000000000000000815260040160405180910390fd5b60085f5f82015f6101000a81549073ffffffffffffffffffffffffffffffffffffffff0219169055600182015f9055600282015f6101000a81549060ff021916905550507fd2a51f4506c3ec7e9d1f5389cdbc4bdabd5677146d709c6f07be9b626437cdda60405161079890611e12565b60405180910390a1565b6107cf335f357fffffffff000000000000000000000000000000000000000000000000000000001661192f565b610805576040517f82b4290000000000000000000000000000000000000000000000000000000000815260040160405180910390fd5b5f60056040518060600160405290815f82015f9054906101000a900473ffffffffffffffffffffffffffffffffffffffff1673ffffffffffffffffffffffffffffffffffffffff1673ffffffffffffffffffffffffffffffffffffffff16815260200160018201548152602001600282015f9054906101000a900460ff161515151581525050905080604001516108c8576040517fcd96377800000000000000000000000000000000000000000000000000000000815260040160405180910390fd5b8060200151421015610917578060200151426040517fe2ff056900000000000000000000000000000000000000000000000000000000815260040161090e929190611d91565b60405180910390fd5b5f60035f9054906101000a900473ffffffffffffffffffffffffffffffffffffffff169050815f015160035f6101000a81548173ffffffffffffffffffffffffffffffffffffffff021916908373ffffffffffffffffffffffffffffffffffffffff16021790555060055f5f82015f6101000a81549073ffffffffffffffffffffffffffffffffffffffff0219169055600182015f9055600282015f6101000a81549060ff02191690555050815f015173ffffffffffffffffffffffffffffffffffffffff168173ffffffffffffffffffffffffffffffffffffffff167fa1a82e330c5e32ae5b309c821d4bd8bafb12233fc7e95c273fe249b789b169fe60405160405180910390a35050565b600b5481565b5f6002805403610a66576040517fab143c0600000000000000000000000000000000000000000000000000000000815260040160405180910390fd5b60028081905550610a9a335f357fffffffff000000000000000000000000000000000000000000000000000000001661192f565b610ad0576040517f82b4290000000000000000000000000000000000000000000000000000000000815260040160405180910390fd5b5f600d5f4381526020019081526020015f20549050600c548110610b2f5780600c546040517fb51e7f00000000000000000000000000000000000000000000000000000000008152600401610b26929190611d91565b60405180910390fd5b600d5f4381526020019081526020015f205f815480929190610b5090611e5d565b91905055505f5f60045f9054906101000a900473ffffffffffffffffffffffffffffffffffffffff1673ffffffffffffffffffffffffffffffffffffffff16335f42604051602401610ba493929190611ee9565b6040516020818303038152906040527f41a33c36000000000000000000000000000000000000000000000000000000007bffffffffffffffffffffffffffffffffffffffffffffffffffffffff19166020820180517bffffffffffffffffffffffffffffffffffffffffffffffffffffffff8381831617835250505050604051610c2e9190611f70565b5f60405180830381855afa9150503d805f8114610c66576040519150601f19603f3d011682016040523d82523d5f602084013e610c6b565b606091505b50915091505f60329050828015610c8457506020825110155b15610ca05781806020019051810190610c9d9190611f9a565b90505b600b54811015610ceb5780600b546040517f3ae9ae60000000000000000000000000000000000000000000000000000000008152600401610ce2929190611d91565b60405180910390fd5b5f60035f9054906101000a900473ffffffffffffffffffffffffffffffffffffffff1673ffffffffffffffffffffffffffffffffffffffff168888604051610d34929190611ff7565b5f604051808303815f865af19150503d805f8114610d6d576040519150601f19603f3d011682016040523d82523d5f602084013e610d72565b606091505b5050905080610dad576040517facfdb44400000000000000000000000000000000000000000000000000000000815260040160405180910390fd5b3373ffffffffffffffffffffffffffffffffffffffff167f147eadb5569d263d5aba3ca005001b85a1651d8da1204f22327ecdac7459e2ea8343604051610df5929190611d91565b60405180910390a2600195505050505050600160028190555092915050565b5f5f600d5f4381526020019081526020015f20549050600c54811015610e475780600c54610e42919061200f565b610e49565b5f5b91505090565b610e7c335f357fffffffff000000000000000000000000000000000000000000000000000000001661192f565b610eb2576040517f82b4290000000000000000000000000000000000000000000000000000000000815260040160405180910390fd5b7f810a9a9ea54912d336132f005b1fa1c7b57cd89a58210fc49a612f161f942866600b5482604051610ee5929190611d91565b60405180910390a180600b8190555050565b5f5f5f5f60086040518060600160405290815f82015f9054906101000a900473ffffffffffffffffffffffffffffffffffffffff1673ffffffffffffffffffffffffffffffffffffffff1673ffffffffffffffffffffffffffffffffffffffff16815260200160018201548152602001600282015f9054906101000a900460ff1615151515815250509050805f01518160200151826040015193509350935050909192565b5f5f9054906101000a900473ffffffffffffffffffffffffffffffffffffffff1673ffffffffffffffffffffffffffffffffffffffff163373ffffffffffffffffffffffffffffffffffffffff1614611021576040517f82b4290000000000000000000000000000000000000000000000000000000000815260040160405180910390fd5b8060015f6101000a81548173ffffffffffffffffffffffffffffffffffffffff021916908373ffffffffffffffffffffffffffffffffffffffff1602179055508073ffffffffffffffffffffffffffffffffffffffff163373ffffffffffffffffffffffffffffffffffffffff167fa3396fd7f6e0a21b50e5089d2da70d5ac0a3bbbd1f617a93f134b7638998019860405160405180910390a350565b6110eb335f357fffffffff000000000000000000000000000000000000000000000000000000001661192f565b611121576040517f82b4290000000000000000000000000000000000000000000000000000000000815260040160405180910390fd5b5f73ffffffffffffffffffffffffffffffffffffffff168173ffffffffffffffffffffffffffffffffffffffff1603611186576040517fd92e233d00000000000000000000000000000000000000000000000000000000815260040160405180910390fd5b5f62015180426111969190612042565b905060405180606001604052808373ffffffffffffffffffffffffffffffffffffffff1681526020018281526020016001151581525060085f820151815f015f6101000a81548173ffffffffffffffffffffffffffffffffffffffff021916908373ffffffffffffffffffffffffffffffffffffffff160217905550602082015181600101556040820151816002015f6101000a81548160ff0219169083151502179055509050508173ffffffffffffffffffffffffffffffffffffffff167f79d2fe59acb3024f8be742dfb73c1838c061a359d9179129a739a0c678a4d074826040516112849190611a80565b60405180910390a25050565b5f5f9054906101000a900473ffffffffffffffffffffffffffffffffffffffff1681565b5f5f5f5f60056040518060600160405290815f82015f9054906101000a900473ffffffffffffffffffffffffffffffffffffffff1673ffffffffffffffffffffffffffffffffffffffff1673ffffffffffffffffffffffffffffffffffffffff16815260200160018201548152602001600282015f9054906101000a900460ff1615151515815250509050805f01518160200151826040015193509350935050909192565b60045f9054906101000a900473ffffffffffffffffffffffffffffffffffffffff1681565b6005805f015f9054906101000a900473ffffffffffffffffffffffffffffffffffffffff1690806001015490806002015f9054906101000a900460ff16905083565b60035f9054906101000a900473ffffffffffffffffffffffffffffffffffffffff1681565b60015f9054906101000a900473ffffffffffffffffffffffffffffffffffffffff1681565b611437335f357fffffffff000000000000000000000000000000000000000000000000000000001661192f565b61146d576040517f82b4290000000000000000000000000000000000000000000000000000000000815260040160405180910390fd5b60056002015f9054906101000a900460ff166114b5576040517fcd96377800000000000000000000000000000000000000000000000000000000815260040160405180910390fd5b60055f5f82015f6101000a81549073ffffffffffffffffffffffffffffffffffffffff0219169055600182015f9055600282015f6101000a81549060ff021916905550507fd2a51f4506c3ec7e9d1f5389cdbc4bdabd5677146d709c6f07be9b626437cdda604051611526906120bf565b60405180910390a1565b61155d335f357fffffffff000000000000000000000000000000000000000000000000000000001661192f565b611593576040517f82b4290000000000000000000000000000000000000000000000000000000000815260040160405180910390fd5b7f482e5ffe78cf770fa5e1c46e251695fc34a2181b165b2a7a0790247586f76bad600c54826040516115c6929190611d91565b60405180910390a180600c8190555050565b6008805f015f9054906101000a900473ffffffffffffffffffffffffffffffffffffffff1690806001015490806002015f9054906101000a900460ff16905083565b611647335f357fffffffff000000000000000000000000000000000000000000000000000000001661192f565b61167d576040517f82b4290000000000000000000000000000000000000000000000000000000000815260040160405180910390fd5b5f73ffffffffffffffffffffffffffffffffffffffff168173ffffffffffffffffffffffffffffffffffffffff16036116e2576040517fd92e233d00000000000000000000000000000000000000000000000000000000815260040160405180910390fd5b5f62015180426116f29190612042565b905060405180606001604052808373ffffffffffffffffffffffffffffffffffffffff1681526020018281526020016001151581525060055f820151815f015f6101000a81548173ffffffffffffffffffffffffffffffffffffffff021916908373ffffffffffffffffffffffffffffffffffffffff160217905550602082015181600101556040820151816002015f6101000a81548160ff0219169083151502179055509050508173ffffffffffffffffffffffffffffffffffffffff167fa60038164d1b19310dbd397d88ba40ece0b8906a38e182955e9e6d6b3a45f45b826040516117e09190611a80565b60405180910390a25050565b5f5f9054906101000a900473ffffffffffffffffffffffffffffffffffffffff1673ffffffffffffffffffffffffffffffffffffffff163373ffffffffffffffffffffffffffffffffffffffff1614611871576040517f82b4290000000000000000000000000000000000000000000000000000000000815260040160405180910390fd5b805f5f6101000a81548173ffffffffffffffffffffffffffffffffffffffff021916908373ffffffffffffffffffffffffffffffffffffffff1602179055508073ffffffffffffffffffffffffffffffffffffffff163373ffffffffffffffffffffffffffffffffffffffff167f8be0079c531659141344cd1fd0a4f28419497f9722a3daafe3b4186f6b6457e060405160405180910390a350565b600c5481565b6201518081565b600d602052805f5260405f205f915090505481565b5f5f60015f9054906101000a900473ffffffffffffffffffffffffffffffffffffffff1690505f73ffffffffffffffffffffffffffffffffffffffff168173ffffffffffffffffffffffffffffffffffffffff1614158015611a0957508073ffffffffffffffffffffffffffffffffffffffff1663b70096138530866040518463ffffffff1660e01b81526004016119c993929190612117565b602060405180830381865afa1580156119e4573d5f5f3e3d5ffd5b505050506040513d601f19601f82011682018060405250810190611a089190612176565b5b80611a5f57505f5f9054906101000a900473ffffffffffffffffffffffffffffffffffffffff1673ffffffffffffffffffffffffffffffffffffffff168473ffffffffffffffffffffffffffffffffffffffff16145b91505092915050565b5f819050919050565b611a7a81611a68565b82525050565b5f602082019050611a935f830184611a71565b92915050565b5f5ffd5b5f5ffd5b5f5ffd5b5f5ffd5b5f5ffd5b5f5f83601f840112611ac257611ac1611aa1565b5b8235905067ffffffffffffffff811115611adf57611ade611aa5565b5b602083019150836001820283011115611afb57611afa611aa9565b5b9250929050565b5f5f60208385031215611b1857611b17611a99565b5b5f83013567ffffffffffffffff811115611b3557611b34611a9d565b5b611b4185828601611aad565b92509250509250929050565b5f8115159050919050565b611b6181611b4d565b82525050565b5f602082019050611b7a5f830184611b58565b92915050565b611b8981611a68565b8114611b93575f5ffd5b50565b5f81359050611ba481611b80565b92915050565b5f60208284031215611bbf57611bbe611a99565b5b5f611bcc84828501611b96565b91505092915050565b5f73ffffffffffffffffffffffffffffffffffffffff82169050919050565b5f611bfe82611bd5565b9050919050565b611c0e81611bf4565b82525050565b5f606082019050611c275f830186611c05565b611c346020830185611a71565b611c416040830184611b58565b949350505050565b5f611c5382611bf4565b9050919050565b611c6381611c49565b8114611c6d575f5ffd5b50565b5f81359050611c7e81611c5a565b92915050565b5f60208284031215611c9957611c98611a99565b5b5f611ca684828501611c70565b91505092915050565b611cb881611bf4565b8114611cc2575f5ffd5b50565b5f81359050611cd381611caf565b92915050565b5f60208284031215611cee57611ced611a99565b5b5f611cfb84828501611cc5565b91505092915050565b5f602082019050611d175f830184611c05565b92915050565b5f819050919050565b5f611d40611d3b611d3684611bd5565b611d1d565b611bd5565b9050919050565b5f611d5182611d26565b9050919050565b5f611d6282611d47565b9050919050565b611d7281611d58565b82525050565b5f602082019050611d8b5f830184611d69565b92915050565b5f604082019050611da45f830185611a71565b611db16020830184611a71565b9392505050565b5f82825260208201905092915050565b7f7269736b456e67696e65000000000000000000000000000000000000000000005f82015250565b5f611dfc600a83611db8565b9150611e0782611dc8565b602082019050919050565b5f6020820190508181035f830152611e2981611df0565b9050919050565b7f4e487b71000000000000000000000000000000000000000000000000000000005f52601160045260245ffd5b5f611e6782611a68565b91507fffffffffffffffffffffffffffffffffffffffffffffffffffffffffffffffff8203611e9957611e98611e30565b5b600182019050919050565b5f819050919050565b5f60ff82169050919050565b5f611ed3611ece611ec984611ea4565b611d1d565b611ead565b9050919050565b611ee381611eb9565b82525050565b5f606082019050611efc5f830186611c05565b611f096020830185611eda565b611f166040830184611a71565b949350505050565b5f81519050919050565b5f81905092915050565b8281835e5f83830152505050565b5f611f4a82611f1e565b611f548185611f28565b9350611f64818560208601611f32565b80840191505092915050565b5f611f7b8284611f40565b915081905092915050565b5f81519050611f9481611b80565b92915050565b5f60208284031215611faf57611fae611a99565b5b5f611fbc84828501611f86565b91505092915050565b828183375f83830152505050565b5f611fde8385611f28565b9350611feb838584611fc5565b82840190509392505050565b5f612003828486611fd3565b91508190509392505050565b5f61201982611a68565b915061202483611a68565b925082820390508181111561203c5761203b611e30565b5b92915050565b5f61204c82611a68565b915061205783611a68565b925082820190508082111561206f5761206e611e30565b5b92915050565b7f666c6173684c6f616e456e67696e6500000000000000000000000000000000005f82015250565b5f6120a9600f83611db8565b91506120b482612075565b602082019050919050565b5f6020820190508181035f8301526120d68161209d565b9050919050565b5f7fffffffff0000000000000000000000000000000000000000000000000000000082169050919050565b612111816120dd565b82525050565b5f60608201905061212a5f830186611c05565b6121376020830185611c05565b6121446040830184612108565b949350505050565b61215581611b4d565b811461215f575f5ffd5b50565b5f815190506121708161214c565b92915050565b5f6020828403121561218b5761218a611a99565b5b5f61219884828501612162565b9150509291505056fea2646970667358221220afdc5bb1bab7c1b7b424c54d096889bbd72db2db82f28cf3124edf7c17b0eebc64736f6c634300081e0033","linkReferences":{}},"methodIdentifiers":{"ENGINE_UPDATE_TIMELOCK()":"faa84292","authority()":"bf7e214f","blockExecutionCount(uint256)":"fe6b3062","cancelPendingFlashLoanUpdate()":"da83ff71","cancelPendingRiskUpdate()":"45dafbff","executeArbitrage(bytes)":"518a7e9a","executeFlashLoanEngineUpdate()":"46468296","executeRiskEngineUpdate()":"109d4da5","flashLoanEngine()":"aba2a4a1","getPendingFlashLoanUpdate()":"8faff683","getPendingRiskUpdate()":"739d3c28","getRemainingExecutions()":"585da1e7","maxExecutionsPerBlock()":"f992852d","minRiskScore()":"4bd6ae36","owner()":"8da5cb5b","pendingFlashLoanEngine()":"ab2bcb59","pendingRiskEngine()":"dec4618d","queueFlashLoanEngineUpdate(address)":"ecfa296a","queueRiskEngineUpdate(address)":"8a04d2a3","riskEngine()":"92b888ae","setAuthority(address)":"7a9e5e4b","setMaxExecutionsPerBlock(uint256)":"db41cd8d","setMinRiskScore(uint256)":"58d999df","transferOwnership(address)":"f2fde38b"},"id":39}