{"abi":[{"type":"constructor","inputs":[{"name":"_owner","type":"address","internalType":"address"},{"name":"_authority","type":"address","internalType":"contract Authority"}],"stateMutability":"nonpayable"},{"type":"function","name":"MAX_OPPORTUNITIES_PER_TYPE","inputs":[],"outputs":[{"name":"","type":"uint256","internalType":"uint256"}],"stateMutability":"view"},{"type":"function","name":"addOpportunity","inputs":[{"name":"opportunityId","type":"bytes32","internalType":"bytes32"},{"name":"oppType","type":"uint8","internalType":"enum IntelligenceProcessor.OpportunityType"},{"name":"estimatedProfit","type":"uint256","internalType":"uint256"},{"name":"riskScore","type":"uint256","internalType":"uint256"},{"name":"expiryTime","type":"uint256","internalType":"uint256"}],"outputs":[],"stateMutability":"nonpayable"},{"type":"function","name":"authority","inputs":[],"outputs":[{"name":"","type":"address","internalType":"contract Authority"}],"stateMutability":"view"},{"type":"function","name":"clearExpiredOpportunities","inputs":[{"name":"oppType","type":"uint8","internalType":"enum IntelligenceProcessor.OpportunityType"}],"outputs":[],"stateMutability":"nonpayable"},{"type":"function","name":"getActiveOpportunities","inputs":[{"name":"oppType","type":"uint8","internalType":"enum IntelligenceProcessor.OpportunityType"}],"outputs":[{"name":"","type":"bytes32[]","internalType":"bytes32[]"}],"stateMutability":"view"},{"type":"function","name":"getOpportunitiesByType","inputs":[{"name":"oppType","type":"uint8","internalType":"enum IntelligenceProcessor.OpportunityType"}],"outputs":[{"name":"","type":"bytes32[]","internalType":"bytes32[]"}],"stateMutability":"view"},{"type":"function","name":"getOpportunity","inputs":[{"name":"opportunityId","type":"bytes32","internalType":"bytes32"}],"outputs":[{"name":"","type":"tuple","internalType":"struct IntelligenceProcessor.Opportunity","components":[{"name":"opportunityId","type":"bytes32","internalType":"bytes32"},{"name":"oppType","type":"uint8","internalType":"enum IntelligenceProcessor.OpportunityType"},{"name":"estimatedProfit","type":"uint256","internalType":"uint256"},{"name":"riskScore","type":"uint256","internalType":"uint256"},{"name":"expiryTime","type":"uint256","internalType":"uint256"},{"name":"processed","type":"bool","internalType":"bool"}]}],"stateMutability":"view"},{"type":"function","name":"markProcessed","inputs":[{"name":"opportunityId","type":"bytes32","internalType":"bytes32"},{"name":"success","type":"bool","internalType":"bool"}],"outputs":[],"stateMutability":"nonpayable"},{"type":"function","name":"opportunities","inputs":[{"name":"","type":"bytes32","internalType":"bytes32"}],"outputs":[{"name":"opportunityId","type":"bytes32","internalType":"bytes32"},{"name":"oppType","type":"uint8","internalType":"enum IntelligenceProcessor.OpportunityType"},{"name":"estimatedProfit","type":"uint256","internalType":"uint256"},{"name":"riskScore","type":"uint256","internalType":"uint256"},{"name":"expiryTime","type":"uint256","internalType":"uint256"},{"name":"processed","type":"bool","internalType":"bool"}],"stateMutability":"view"},{"type":"function","name":"opportunitiesByType","inputs":[{"name":"","type":"uint8","internalType":"enum IntelligenceProcessor.OpportunityType"},{"name":"","type":"uint256","internalType":"uint256"}],"outputs":[{"name":"","type":"bytes32","internalType":"bytes32"}],"stateMutability":"view"},{"type":"function","name":"opportunityCount","inputs":[{"name":"","type":"uint8","internalType":"enum IntelligenceProcessor.OpportunityType"}],"outputs":[{"name":"","type":"uint256","internalType":"uint256"}],"stateMutability":"view"},{"type":"function","name":"owner","inputs":[],"outputs":[{"name":"","type":"address","internalType":"address"}],"stateMutability":"view"},{"type":"function","name":"setAuthority","inputs":[{"name":"newAuthority","type":"address","internalType":"contract Authority"}],"outputs":[],"stateMutability":"nonpayable"},{"type":"function","name":"transferOwnership","inputs":[{"name":"newOwner","type":"address","internalType":"address"}],"outputs":[],"stateMutability":"nonpayable"},{"type":"event","name":"AuthorityUpdated","inputs":[{"name":"user","type":"address","indexed":true,"internalType":"address"},{"name":"newAuthority","type":"address","indexed":true,"internalType":"contract Authority"}],"anonymous":false},{"type":"event","name":"OpportunitiesCleared","inputs":[{"name":"oppType","type":"uint8","indexed":false,"internalType":"enum IntelligenceProcessor.OpportunityType"},{"name":"count","type":"uint256","indexed":false,"internalType":"uint256"}],"anonymous":false},{"type":"event","name":"OpportunityAdded","inputs":[{"name":"opportunityId","type":"bytes32","indexed":true,"internalType":"bytes32"},{"name":"oppType","type":"uint8","indexed":false,"internalType":"enum IntelligenceProcessor.OpportunityType"},{"name":"estimatedProfit","type":"uint256","indexed":false,"internalType":"uint256"}],"anonymous":false},{"type":"event","name":"OpportunityProcessed","inputs":[{"name":"opportunityId","type":"bytes32","indexed":true,"internalType":"bytes32"},{"name":"success","type":"bool","indexed":false,"internalType":"bool"}],"anonymous":false},{"type":"event","name":"OwnershipTransferred","inputs":[{"name":"user","type":"address","indexed":true,"internalType":"address"},{"name":"newOwner","type":"address","indexed":true,"internalType":"address"}],"anonymous":false},{"type":"error","name":"MaxOpportunitiesReached","inputs":[{"name":"oppType","type":"uint8","internalType":"enum IntelligenceProcessor.OpportunityType"}]},{"type":"error","name":"OpportunityAlreadyProcessed","inputs":[{"name":"opportunityId","type":"bytes32","internalType":"bytes32"}]},{"type":"error","name":"OpportunityExpired","inputs":[{"name":"opportunityId","type":"bytes32","internalType":"bytes32"}]},{"type":"error","name":"OpportunityNotFound","inputs":[{"name":"opportunityId","type":"bytes32","internalType":"bytes32"}]},{"type":"error","name":"Unauthorized","inputs":[]}],"bytecode":{"object":"0x608060405234801561000f575f5ffd5b50604051611e05380380611e0583398181016040528101906100319190610208565b8181815f5f6101000a81548173ffffffffffffffffffffffffffffffffffffffff021916908373ffffffffffffffffffffffffffffffffffffffff1602179055508060015f6101000a81548173ffffffffffffffffffffffffffffffffffffffff021916908373ffffffffffffffffffffffffffffffffffffffff1602179055508173ffffffffffffffffffffffffffffffffffffffff165f73ffffffffffffffffffffffffffffffffffffffff167f8be0079c531659141344cd1fd0a4f28419497f9722a3daafe3b4186f6b6457e060405160405180910390a38073ffffffffffffffffffffffffffffffffffffffff165f73ffffffffffffffffffffffffffffffffffffffff167fa3396fd7f6e0a21b50e5089d2da70d5ac0a3bbbd1f617a93f134b7638998019860405160405180910390a350505050610246565b5f5ffd5b5f73ffffffffffffffffffffffffffffffffffffffff82169050919050565b5f61019c82610173565b9050919050565b6101ac81610192565b81146101b6575f5ffd5b50565b5f815190506101c7816101a3565b92915050565b5f6101d782610192565b9050919050565b6101e7816101cd565b81146101f1575f5ffd5b50565b5f81519050610202816101de565b92915050565b5f5f6040838503121561021e5761021d61016f565b5b5f61022b858286016101b9565b925050602061023c858286016101f4565b9150509250929050565b611bb2806102535f395ff3fe608060405234801561000f575f5ffd5b50600436106100e8575f3560e01c80638da5cb5b1161008a578063bf7e214f11610064578063bf7e214f14610271578063cc60e77d1461028f578063f2fde38b146102ab578063fbfdcfe6146102c7576100e8565b80638da5cb5b146101f35780639005682d14610211578063bae328fa14610241576100e8565b80633abca317116100c65780633abca317146101685780633d834506146101845780637a9e5e4b146101b95780637ffba02f146101d5576100e8565b8063187fed21146100ec5780631cf2d17f1461011c5780633841148f1461014c575b5f5ffd5b610106600480360381019061010191906112ee565b6102f7565b60405161011391906113d9565b60405180910390f35b610136600480360381019061013191906112ee565b610382565b6040516101439190611411565b60405180910390f35b6101666004803603810190610161919061147e565b610397565b005b610182600480360381019061017d91906112ee565b610622565b005b61019e600480360381019061019991906114f5565b6108be565b6040516101b0969594939291906115bc565b60405180910390f35b6101d360048036038101906101ce9190611686565b61090e565b005b6101dd610a30565b6040516101ea9190611411565b60405180910390f35b6101fb610a36565b60405161020891906116c0565b60405180910390f35b61022b600480360381019061022691906112ee565b610a5a565b60405161023891906113d9565b60405180910390f35b61025b600480360381019061025691906114f5565b610d6f565b604051610268919061177f565b60405180910390f35b610279610e15565b60405161028691906117f3565b60405180910390f35b6102a960048036038101906102a49190611836565b610e3a565b005b6102c560048036038101906102c0919061189e565b610ffe565b005b6102e160048036038101906102dc91906118c9565b61111f565b6040516102ee9190611907565b60405180910390f35b606060035f83600481111561030f5761030e61152f565b5b60048111156103215761032061152f565b5b81526020019081526020015f2080548060200260200160405190810160405280929190818152602001828054801561037657602002820191905f5260205f20905b815481526020019060010190808311610362575b50505050509050919050565b6004602052805f5260405f205f915090505481565b6103c4335f357fffffffff000000000000000000000000000000000000000000000000000000001661114a565b6103fa576040517f82b4290000000000000000000000000000000000000000000000000000000000815260040160405180910390fd5b6103e860045f8660048111156104135761041261152f565b5b60048111156104255761042461152f565b5b81526020019081526020015f20541061047557836040517fec9c5bcf00000000000000000000000000000000000000000000000000000000815260040161046c9190611920565b60405180910390fd5b6040518060c001604052808681526020018560048111156104995761049861152f565b5b81526020018481526020018381526020018281526020015f151581525060025f8781526020019081526020015f205f820151815f01556020820151816001015f6101000a81548160ff021916908360048111156104f9576104f861152f565b5b021790555060408201518160020155606082015181600301556080820151816004015560a0820151816005015f6101000a81548160ff02191690831515021790555090505060035f8560048111156105545761055361152f565b5b60048111156105665761056561152f565b5b81526020019081526020015f2085908060018154018082558091505060019003905f5260205f20015f909190919091505560045f8560048111156105ad576105ac61152f565b5b60048111156105bf576105be61152f565b5b81526020019081526020015f205f8154809291906105dc90611966565b9190505550847f133ec2460c9af982a940ef1ec673392ae59758bb1f5c09c9cc4f95cb4005e77a85856040516106139291906119ad565b60405180910390a25050505050565b61064f335f357fffffffff000000000000000000000000000000000000000000000000000000001661114a565b610685576040517f82b4290000000000000000000000000000000000000000000000000000000000815260040160405180910390fd5b5f60035f83600481111561069c5761069b61152f565b5b60048111156106ae576106ad61152f565b5b81526020019081526020015f2090505f5f90505f828054905090505b5f811115610834575f836001836106e191906119d4565b815481106106f2576106f1611a07565b5b905f5260205f200154905060025f8281526020019081526020015f206004015442118061073c575060025f8281526020019081526020015f206005015f9054906101000a900460ff165b156108205760025f8281526020019081526020015f205f5f82015f9055600182015f6101000a81549060ff0219169055600282015f9055600382015f9055600482015f9055600582015f6101000a81549060ff0219169055505083600185805490506107a891906119d4565b815481106107b9576107b8611a07565b5b905f5260205f200154846001846107d091906119d4565b815481106107e1576107e0611a07565b5b905f5260205f200181905550838054806107fe576107fd611a34565b5b600190038181905f5260205f20015f90559055828061081c90611966565b9350505b50808061082c90611a61565b9150506106ca565b508060045f85600481111561084c5761084b61152f565b5b600481111561085e5761085d61152f565b5b81526020019081526020015f205f82825461087991906119d4565b925050819055507f233e3565bba6808350077ef99d81a6506933ee80e9a0eace3f18804c3e3e170683826040516108b19291906119ad565b60405180910390a1505050565b6002602052805f5260405f205f91509050805f015490806001015f9054906101000a900460ff1690806002015490806003015490806004015490806005015f9054906101000a900460ff16905086565b5f5f9054906101000a900473ffffffffffffffffffffffffffffffffffffffff1673ffffffffffffffffffffffffffffffffffffffff163373ffffffffffffffffffffffffffffffffffffffff1614610993576040517f82b4290000000000000000000000000000000000000000000000000000000000815260040160405180910390fd5b8060015f6101000a81548173ffffffffffffffffffffffffffffffffffffffff021916908373ffffffffffffffffffffffffffffffffffffffff1602179055508073ffffffffffffffffffffffffffffffffffffffff163373ffffffffffffffffffffffffffffffffffffffff167fa3396fd7f6e0a21b50e5089d2da70d5ac0a3bbbd1f617a93f134b7638998019860405160405180910390a350565b6103e881565b5f5f9054906101000a900473ffffffffffffffffffffffffffffffffffffffff1681565b60605f60035f846004811115610a7357610a7261152f565b5b6004811115610a8557610a8461152f565b5b81526020019081526020015f20805480602002602001604051908101604052809291908181526020018280548015610ada57602002820191905f5260205f20905b815481526020019060010190808311610ac6575b505050505090505f5f90505f5f90505b8251811015610bdf575f60025f858481518110610b0a57610b09611a07565b5b602002602001015181526020019081526020015f206040518060c00160405290815f8201548152602001600182015f9054906101000a900460ff166004811115610b5757610b5661152f565b5b6004811115610b6957610b6861152f565b5b8152602001600282015481526020016003820154815260200160048201548152602001600582015f9054906101000a900460ff16151515158152505090508060a00151158015610bbd575080608001514211155b15610bd1578280610bcd90611966565b9350505b508080600101915050610aea565b505f8167ffffffffffffffff811115610bfb57610bfa611a88565b5b604051908082528060200260200182016040528015610c295781602001602082028036833780820191505090505b5090505f5f90505f5f90505b8451811015610d62575f60025f878481518110610c5557610c54611a07565b5b602002602001015181526020019081526020015f206040518060c00160405290815f8201548152602001600182015f9054906101000a900460ff166004811115610ca257610ca161152f565b5b6004811115610cb457610cb361152f565b5b8152602001600282015481526020016003820154815260200160048201548152602001600582015f9054906101000a900460ff16151515158152505090508060a00151158015610d08575080608001514211155b15610d5457858281518110610d2057610d1f611a07565b5b6020026020010151848480610d3490611966565b955081518110610d4757610d46611a07565b5b6020026020010181815250505b508080600101915050610c35565b5081945050505050919050565b610d77611283565b60025f8381526020019081526020015f206040518060c00160405290815f8201548152602001600182015f9054906101000a900460ff166004811115610dc057610dbf61152f565b5b6004811115610dd257610dd161152f565b5b8152602001600282015481526020016003820154815260200160048201548152602001600582015f9054906101000a900460ff1615151515815250509050919050565b60015f9054906101000a900473ffffffffffffffffffffffffffffffffffffffff1681565b610e67335f357fffffffff000000000000000000000000000000000000000000000000000000001661114a565b610e9d576040517f82b4290000000000000000000000000000000000000000000000000000000000815260040160405180910390fd5b5f60025f8481526020019081526020015f2090505f8160020154148015610ec757505f8160040154145b15610f0957826040517fb7e7643d000000000000000000000000000000000000000000000000000000008152600401610f009190611907565b60405180910390fd5b806005015f9054906101000a900460ff1615610f5c57826040517f2d2d6131000000000000000000000000000000000000000000000000000000008152600401610f539190611907565b60405180910390fd5b8060040154421115610fa557826040517f8a069ae0000000000000000000000000000000000000000000000000000000008152600401610f9c9190611907565b60405180910390fd5b6001816005015f6101000a81548160ff021916908315150217905550827f9786b6130eb3f865a4e23269305694aecc1af38d36e8edeff06a7a55eedc151d83604051610ff19190611ab5565b60405180910390a2505050565b5f5f9054906101000a900473ffffffffffffffffffffffffffffffffffffffff1673ffffffffffffffffffffffffffffffffffffffff163373ffffffffffffffffffffffffffffffffffffffff1614611083576040517f82b4290000000000000000000000000000000000000000000000000000000000815260040160405180910390fd5b805f5f6101000a81548173ffffffffffffffffffffffffffffffffffffffff021916908373ffffffffffffffffffffffffffffffffffffffff1602179055508073ffffffffffffffffffffffffffffffffffffffff163373ffffffffffffffffffffffffffffffffffffffff167f8be0079c531659141344cd1fd0a4f28419497f9722a3daafe3b4186f6b6457e060405160405180910390a350565b6003602052815f5260405f208181548110611138575f80fd5b905f5260205f20015f91509150505481565b5f5f60015f9054906101000a900473ffffffffffffffffffffffffffffffffffffffff1690505f73ffffffffffffffffffffffffffffffffffffffff168173ffffffffffffffffffffffffffffffffffffffff161415801561122457508073ffffffffffffffffffffffffffffffffffffffff1663b70096138530866040518463ffffffff1660e01b81526004016111e493929190611b08565b602060405180830381865afa1580156111ff573d5f5f3e3d5ffd5b505050506040513d601f19601f820116820180604052508101906112239190611b51565b5b8061127a57505f5f9054906101000a900473ffffffffffffffffffffffffffffffffffffffff1673ffffffffffffffffffffffffffffffffffffffff168473ffffffffffffffffffffffffffffffffffffffff16145b91505092915050565b6040518060c001604052805f81526020015f60048111156112a7576112a661152f565b5b81526020015f81526020015f81526020015f81526020015f151581525090565b5f5ffd5b600581106112d7575f5ffd5b50565b5f813590506112e8816112cb565b92915050565b5f60208284031215611303576113026112c7565b5b5f611310848285016112da565b91505092915050565b5f81519050919050565b5f82825260208201905092915050565b5f819050602082019050919050565b5f819050919050565b61135481611342565b82525050565b5f611365838361134b565b60208301905092915050565b5f602082019050919050565b5f61138782611319565b6113918185611323565b935061139c83611333565b805f5b838110156113cc5781516113b3888261135a565b97506113be83611371565b92505060018101905061139f565b5085935050505092915050565b5f6020820190508181035f8301526113f1818461137d565b905092915050565b5f819050919050565b61140b816113f9565b82525050565b5f6020820190506114245f830184611402565b92915050565b61143381611342565b811461143d575f5ffd5b50565b5f8135905061144e8161142a565b92915050565b61145d816113f9565b8114611467575f5ffd5b50565b5f8135905061147881611454565b92915050565b5f5f5f5f5f60a08688031215611497576114966112c7565b5b5f6114a488828901611440565b95505060206114b5888289016112da565b94505060406114c68882890161146a565b93505060606114d78882890161146a565b92505060806114e88882890161146a565b9150509295509295909350565b5f6020828403121561150a576115096112c7565b5b5f61151784828501611440565b91505092915050565b61152981611342565b82525050565b7f4e487b71000000000000000000000000000000000000000000000000000000005f52602160045260245ffd5b6005811061156d5761156c61152f565b5b50565b5f81905061157d8261155c565b919050565b5f61158c82611570565b9050919050565b61159c81611582565b82525050565b5f8115159050919050565b6115b6816115a2565b82525050565b5f60c0820190506115cf5f830189611520565b6115dc6020830188611593565b6115e96040830187611402565b6115f66060830186611402565b6116036080830185611402565b61161060a08301846115ad565b979650505050505050565b5f73ffffffffffffffffffffffffffffffffffffffff82169050919050565b5f6116448261161b565b9050919050565b5f6116558261163a565b9050919050565b6116658161164b565b811461166f575f5ffd5b50565b5f813590506116808161165c565b92915050565b5f6020828403121561169b5761169a6112c7565b5b5f6116a884828501611672565b91505092915050565b6116ba8161163a565b82525050565b5f6020820190506116d35f8301846116b1565b92915050565b6116e281611582565b82525050565b6116f1816113f9565b82525050565b611700816115a2565b82525050565b60c082015f82015161171a5f85018261134b565b50602082015161172d60208501826116d9565b50604082015161174060408501826116e8565b50606082015161175360608501826116e8565b50608082015161176660808501826116e8565b5060a082015161177960a08501826116f7565b50505050565b5f60c0820190506117925f830184611706565b92915050565b5f819050919050565b5f6117bb6117b66117b18461161b565b611798565b61161b565b9050919050565b5f6117cc826117a1565b9050919050565b5f6117dd826117c2565b9050919050565b6117ed816117d3565b82525050565b5f6020820190506118065f8301846117e4565b92915050565b611815816115a2565b811461181f575f5ffd5b50565b5f813590506118308161180c565b92915050565b5f5f6040838503121561184c5761184b6112c7565b5b5f61185985828601611440565b925050602061186a85828601611822565b9150509250929050565b61187d8161163a565b8114611887575f5ffd5b50565b5f8135905061189881611874565b92915050565b5f602082840312156118b3576118b26112c7565b5b5f6118c08482850161188a565b91505092915050565b5f5f604083850312156118df576118de6112c7565b5b5f6118ec858286016112da565b92505060206118fd8582860161146a565b9150509250929050565b5f60208201905061191a5f830184611520565b92915050565b5f6020820190506119335f830184611593565b92915050565b7f4e487b71000000000000000000000000000000000000000000000000000000005f52601160045260245ffd5b5f611970826113f9565b91507fffffffffffffffffffffffffffffffffffffffffffffffffffffffffffffffff82036119a2576119a1611939565b5b600182019050919050565b5f6040820190506119c05f830185611593565b6119cd6020830184611402565b9392505050565b5f6119de826113f9565b91506119e9836113f9565b9250828203905081811115611a0157611a00611939565b5b92915050565b7f4e487b71000000000000000000000000000000000000000000000000000000005f52603260045260245ffd5b7f4e487b71000000000000000000000000000000000000000000000000000000005f52603160045260245ffd5b5f611a6b826113f9565b91505f8203611a7d57611a7c611939565b5b600182039050919050565b7f4e487b71000000000000000000000000000000000000000000000000000000005f52604160045260245ffd5b5f602082019050611ac85f8301846115ad565b92915050565b5f7fffffffff0000000000000000000000000000000000000000000000000000000082169050919050565b611b0281611ace565b82525050565b5f606082019050611b1b5f8301866116b1565b611b2860208301856116b1565b611b356040830184611af9565b949350505050565b5f81519050611b4b8161180c565b92915050565b5f60208284031215611b6657611b656112c7565b5b5f611b7384828501611b3d565b9150509291505056fea264697066735822122097799e88772f76ca7ade36dae8ec47f3c8a292f1229c2ea3557a94fa2c2105d464736f6c634300081e0033","linkReferences":{}},"methodIdentifiers":{"MAX_OPPORTUNITIES_PER_TYPE()":"7ffba02f","addOpportunity(bytes32,uint8,uint256,uint256,uint256)":"3841148f","authority()":"bf7e214f","clearExpiredOpportunities(uint8)":"3abca317","getActiveOpportunities(uint8)":"9005682d","getOpportunitiesByType(uint8)":"187fed21","getOpportunity(bytes32)":"bae328fa","markProcessed(bytes32,bool)":"cc60e77d","opportunities(bytes32)":"3d834506","opportunitiesByType(uint8,uint256)":"fbfdcfe6","opportunityCount(uint8)":"1cf2d17f","owner()":"8da5cb5b","setAuthority(address)":"7a9e5e4b","transferOwnership(address)":"f2fde38b"},"id":35}