{"abi":[{"type":"constructor","inputs":[{"name":"_owner","type":"address","internalType":"address"},{"name":"_authority","type":"address","internalType":"contract Authority"}],"stateMutability":"nonpayable"},{"type":"function","name":"authority","inputs":[],"outputs":[{"name":"","type":"address","internalType":"contract Authority"}],"stateMutability":"view"},{"type":"function","name":"executionHistory","inputs":[{"name":"","type":"bytes32","internalType":"bytes32"},{"name":"","type":"uint256","internalType":"uint256"}],"outputs":[{"name":"timestamp","type":"uint256","internalType":"uint256"},{"name":"gasUsed","type":"uint256","internalType":"uint256"},{"name":"gasPrice","type":"uint256","internalType":"uint256"},{"name":"profit","type":"uint256","internalType":"uint256"},{"name":"success","type":"bool","internalType":"bool"}],"stateMutability":"view"},{"type":"function","name":"executorGasSpent","inputs":[{"name":"","type":"address","internalType":"address"}],"outputs":[{"name":"","type":"uint256","internalType":"uint256"}],"stateMutability":"view"},{"type":"function","name":"getAverageGasUsed","inputs":[{"name":"executionId","type":"bytes32","internalType":"bytes32"}],"outputs":[{"name":"","type":"uint256","internalType":"uint256"}],"stateMutability":"view"},{"type":"function","name":"getExecutionCount","inputs":[{"name":"executionId","type":"bytes32","internalType":"bytes32"}],"outputs":[{"name":"","type":"uint256","internalType":"uint256"}],"stateMutability":"view"},{"type":"function","name":"getExecutionHistory","inputs":[{"name":"executionId","type":"bytes32","internalType":"bytes32"}],"outputs":[{"name":"","type":"tuple[]","internalType":"struct ExecutionAnalytics.ExecutionRecord[]","components":[{"name":"timestamp","type":"uint256","internalType":"uint256"},{"name":"gasUsed","type":"uint256","internalType":"uint256"},{"name":"gasPrice","type":"uint256","internalType":"uint256"},{"name":"profit","type":"uint256","internalType":"uint256"},{"name":"success","type":"bool","internalType":"bool"}]}],"stateMutability":"view"},{"type":"function","name":"getProtocolStats","inputs":[],"outputs":[{"name":"executions","type":"uint256","internalType":"uint256"},{"name":"gas","type":"uint256","internalType":"uint256"}],"stateMutability":"view"},{"type":"function","name":"owner","inputs":[],"outputs":[{"name":"","type":"address","internalType":"address"}],"stateMutability":"view"},{"type":"function","name":"recordExecution","inputs":[{"name":"executionId","type":"bytes32","internalType":"bytes32"},{"name":"gasUsed","type":"uint256","internalType":"uint256"},{"name":"gasPrice","type":"uint256","internalType":"uint256"},{"name":"profit","type":"uint256","internalType":"uint256"},{"name":"success","type":"bool","internalType":"bool"}],"outputs":[],"stateMutability":"nonpayable"},{"type":"function","name":"setAuthority","inputs":[{"name":"newAuthority","type":"address","internalType":"contract Authority"}],"outputs":[],"stateMutability":"nonpayable"},{"type":"function","name":"totalExecutions","inputs":[],"outputs":[{"name":"","type":"uint256","internalType":"uint256"}],"stateMutability":"view"},{"type":"function","name":"totalGasUsed","inputs":[],"outputs":[{"name":"","type":"uint256","internalType":"uint256"}],"stateMutability":"view"},{"type":"function","name":"transferOwnership","inputs":[{"name":"newOwner","type":"address","internalType":"address"}],"outputs":[],"stateMutability":"nonpayable"},{"type":"event","name":"AuthorityUpdated","inputs":[{"name":"user","type":"address","indexed":true,"internalType":"address"},{"name":"newAuthority","type":"address","indexed":true,"internalType":"contract Authority"}],"anonymous":false},{"type":"event","name":"ExecutionRecorded","inputs":[{"name":"executionId","type":"bytes32","indexed":true,"internalType":"bytes32"},{"name":"gasUsed","type":"uint256","indexed":false,"internalType":"uint256"},{"name":"profit","type":"uint256","indexed":false,"internalType":"uint256"},{"name":"success","type":"bool","indexed":false,"internalType":"bool"}],"anonymous":false},{"type":"event","name":"OwnershipTransferred","inputs":[{"name":"user","type":"address","indexed":true,"internalType":"address"},{"name":"newOwner","type":"address","indexed":true,"internalType":"address"}],"anonymous":false},{"type":"error","name":"Unauthorized","inputs":[]}],"bytecode":{"object":"0x608060405234801561000f575f5ffd5b5060405161149f38038061149f83398181016040528101906100319190610208565b8181815f5f6101000a81548173ffffffffffffffffffffffffffffffffffffffff021916908373ffffffffffffffffffffffffffffffffffffffff1602179055508060015f6101000a81548173ffffffffffffffffffffffffffffffffffffffff021916908373ffffffffffffffffffffffffffffffffffffffff1602179055508173ffffffffffffffffffffffffffffffffffffffff165f73ffffffffffffffffffffffffffffffffffffffff167f8be0079c531659141344cd1fd0a4f28419497f9722a3daafe3b4186f6b6457e060405160405180910390a38073ffffffffffffffffffffffffffffffffffffffff165f73ffffffffffffffffffffffffffffffffffffffff167fa3396fd7f6e0a21b50e5089d2da70d5ac0a3bbbd1f617a93f134b7638998019860405160405180910390a350505050610246565b5f5ffd5b5f73ffffffffffffffffffffffffffffffffffffffff82169050919050565b5f61019c82610173565b9050919050565b6101ac81610192565b81146101b6575f5ffd5b50565b5f815190506101c7816101a3565b92915050565b5f6101d782610192565b9050919050565b6101e7816101cd565b81146101f1575f5ffd5b50565b5f81519050610202816101de565b92915050565b5f5f6040838503121561021e5761021d61016f565b5b5f61022b858286016101b9565b925050602061023c858286016101f4565b9150509250929050565b61124c806102535f395ff3fe608060405234801561000f575f5ffd5b50600436106100cd575f3560e01c8063906d66e21161008a578063a6329c7f11610064578063a6329c7f14610212578063bf7e214f14610246578063e2152e8d14610264578063f2fde38b14610294576100cd565b8063906d66e2146101945780639dc04776146101c45780639fbefb26146101f4576100cd565b80631833f0cf146100d15780634dd0d03e14610101578063642f7d5e1461011d578063771aceef1461013b5780637a9e5e4b1461015a5780638da5cb5b14610176575b5f5ffd5b6100eb60048036038101906100e69190610af7565b6102b0565b6040516100f89190610c62565b60405180910390f35b61011b60048036038101906101169190610cd6565b61035e565b005b610125610538565b6040516101329190610d5c565b60405180910390f35b61014361053e565b604051610151929190610d75565b60405180910390f35b610174600480360381019061016f9190610e07565b61054e565b005b61017e610670565b60405161018b9190610e41565b60405180910390f35b6101ae60048036038101906101a99190610e84565b610694565b6040516101bb9190610d5c565b60405180910390f35b6101de60048036038101906101d99190610af7565b6106a9565b6040516101eb9190610d5c565b60405180910390f35b6101fc6106c6565b6040516102099190610d5c565b60405180910390f35b61022c60048036038101906102279190610eaf565b6106cc565b60405161023d959493929190610efc565b60405180910390f35b61024e610724565b60405161025b9190610fa8565b60405180910390f35b61027e60048036038101906102799190610af7565b610749565b60405161028b9190610d5c565b60405180910390f35b6102ae60048036038101906102a99190610e84565b610866565b005b606060025f8381526020019081526020015f20805480602002602001604051908101604052809291908181526020015f905b82821015610353578382905f5260205f2090600502016040518060a00160405290815f8201548152602001600182015481526020016002820154815260200160038201548152602001600482015f9054906101000a900460ff161515151581525050815260200190600101906102e2565b505050509050919050565b61038b335f357fffffffff0000000000000000000000000000000000000000000000000000000016610987565b6103c1576040517f82b4290000000000000000000000000000000000000000000000000000000000815260040160405180910390fd5b60025f8681526020019081526020015f206040518060a00160405280428152602001868152602001858152602001848152602001831515815250908060018154018082558091505060019003905f5260205f2090600502015f909190919091505f820151815f01556020820151816001015560408201518160020155606082015181600301556080820151816004015f6101000a81548160ff021916908315150217905550505082846104749190610fee565b60035f3373ffffffffffffffffffffffffffffffffffffffff1673ffffffffffffffffffffffffffffffffffffffff1681526020019081526020015f205f8282546104bf919061102f565b9250508190555060045f8154809291906104d890611062565b91905055508360055f8282546104ee919061102f565b92505081905550847f3c599c8b85788d9ea77298f4f7dd8852fe384bb2c26ce73db50cacbf566d3dc8858484604051610529939291906110a9565b60405180910390a25050505050565b60045481565b5f5f600454600554915091509091565b5f5f9054906101000a900473ffffffffffffffffffffffffffffffffffffffff1673ffffffffffffffffffffffffffffffffffffffff163373ffffffffffffffffffffffffffffffffffffffff16146105d3576040517f82b4290000000000000000000000000000000000000000000000000000000000815260040160405180910390fd5b8060015f6101000a81548173ffffffffffffffffffffffffffffffffffffffff021916908373ffffffffffffffffffffffffffffffffffffffff1602179055508073ffffffffffffffffffffffffffffffffffffffff163373ffffffffffffffffffffffffffffffffffffffff167fa3396fd7f6e0a21b50e5089d2da70d5ac0a3bbbd1f617a93f134b7638998019860405160405180910390a350565b5f5f9054906101000a900473ffffffffffffffffffffffffffffffffffffffff1681565b6003602052805f5260405f205f915090505481565b5f60025f8381526020019081526020015f20805490509050919050565b60055481565b6002602052815f5260405f2081815481106106e5575f80fd5b905f5260205f2090600502015f9150915050805f015490806001015490806002015490806003015490806004015f9054906101000a900460ff16905085565b60015f9054906101000a900473ffffffffffffffffffffffffffffffffffffffff1681565b5f5f60025f8481526020019081526020015f20805480602002602001604051908101604052809291908181526020015f905b828210156107ec578382905f5260205f2090600502016040518060a00160405290815f8201548152602001600182015481526020016002820154815260200160038201548152602001600482015f9054906101000a900460ff1615151515815250508152602001906001019061077b565b5050505090505f815103610803575f915050610861565b5f5f90505f5f90505b825181101561084e57828181518110610828576108276110de565b5b6020026020010151602001518261083f919061102f565b9150808060010191505061080c565b5081518161085c9190611138565b925050505b919050565b5f5f9054906101000a900473ffffffffffffffffffffffffffffffffffffffff1673ffffffffffffffffffffffffffffffffffffffff163373ffffffffffffffffffffffffffffffffffffffff16146108eb576040517f82b4290000000000000000000000000000000000000000000000000000000000815260040160405180910390fd5b805f5f6101000a81548173ffffffffffffffffffffffffffffffffffffffff021916908373ffffffffffffffffffffffffffffffffffffffff1602179055508073ffffffffffffffffffffffffffffffffffffffff163373ffffffffffffffffffffffffffffffffffffffff167f8be0079c531659141344cd1fd0a4f28419497f9722a3daafe3b4186f6b6457e060405160405180910390a350565b5f5f60015f9054906101000a900473ffffffffffffffffffffffffffffffffffffffff1690505f73ffffffffffffffffffffffffffffffffffffffff168173ffffffffffffffffffffffffffffffffffffffff1614158015610a6157508073ffffffffffffffffffffffffffffffffffffffff1663b70096138530866040518463ffffffff1660e01b8152600401610a21939291906111a2565b602060405180830381865afa158015610a3c573d5f5f3e3d5ffd5b505050506040513d601f19601f82011682018060405250810190610a6091906111eb565b5b80610ab757505f5f9054906101000a900473ffffffffffffffffffffffffffffffffffffffff1673ffffffffffffffffffffffffffffffffffffffff168473ffffffffffffffffffffffffffffffffffffffff16145b91505092915050565b5f5ffd5b5f819050919050565b610ad681610ac4565b8114610ae0575f5ffd5b50565b5f81359050610af181610acd565b92915050565b5f60208284031215610b0c57610b0b610ac0565b5b5f610b1984828501610ae3565b91505092915050565b5f81519050919050565b5f82825260208201905092915050565b5f819050602082019050919050565b5f819050919050565b610b5d81610b4b565b82525050565b5f8115159050919050565b610b7781610b63565b82525050565b60a082015f820151610b915f850182610b54565b506020820151610ba46020850182610b54565b506040820151610bb76040850182610b54565b506060820151610bca6060850182610b54565b506080820151610bdd6080850182610b6e565b50505050565b5f610bee8383610b7d565b60a08301905092915050565b5f602082019050919050565b5f610c1082610b22565b610c1a8185610b2c565b9350610c2583610b3c565b805f5b83811015610c55578151610c3c8882610be3565b9750610c4783610bfa565b925050600181019050610c28565b5085935050505092915050565b5f6020820190508181035f830152610c7a8184610c06565b905092915050565b610c8b81610b4b565b8114610c95575f5ffd5b50565b5f81359050610ca681610c82565b92915050565b610cb581610b63565b8114610cbf575f5ffd5b50565b5f81359050610cd081610cac565b92915050565b5f5f5f5f5f60a08688031215610cef57610cee610ac0565b5b5f610cfc88828901610ae3565b9550506020610d0d88828901610c98565b9450506040610d1e88828901610c98565b9350506060610d2f88828901610c98565b9250506080610d4088828901610cc2565b9150509295509295909350565b610d5681610b4b565b82525050565b5f602082019050610d6f5f830184610d4d565b92915050565b5f604082019050610d885f830185610d4d565b610d956020830184610d4d565b9392505050565b5f73ffffffffffffffffffffffffffffffffffffffff82169050919050565b5f610dc582610d9c565b9050919050565b5f610dd682610dbb565b9050919050565b610de681610dcc565b8114610df0575f5ffd5b50565b5f81359050610e0181610ddd565b92915050565b5f60208284031215610e1c57610e1b610ac0565b5b5f610e2984828501610df3565b91505092915050565b610e3b81610dbb565b82525050565b5f602082019050610e545f830184610e32565b92915050565b610e6381610dbb565b8114610e6d575f5ffd5b50565b5f81359050610e7e81610e5a565b92915050565b5f60208284031215610e9957610e98610ac0565b5b5f610ea684828501610e70565b91505092915050565b5f5f60408385031215610ec557610ec4610ac0565b5b5f610ed285828601610ae3565b9250506020610ee385828601610c98565b9150509250929050565b610ef681610b63565b82525050565b5f60a082019050610f0f5f830188610d4d565b610f1c6020830187610d4d565b610f296040830186610d4d565b610f366060830185610d4d565b610f436080830184610eed565b9695505050505050565b5f819050919050565b5f610f70610f6b610f6684610d9c565b610f4d565b610d9c565b9050919050565b5f610f8182610f56565b9050919050565b5f610f9282610f77565b9050919050565b610fa281610f88565b82525050565b5f602082019050610fbb5f830184610f99565b92915050565b7f4e487b71000000000000000000000000000000000000000000000000000000005f52601160045260245ffd5b5f610ff882610b4b565b915061100383610b4b565b925082820261101181610b4b565b9150828204841483151761102857611027610fc1565b5b5092915050565b5f61103982610b4b565b915061104483610b4b565b925082820190508082111561105c5761105b610fc1565b5b92915050565b5f61106c82610b4b565b91507fffffffffffffffffffffffffffffffffffffffffffffffffffffffffffffffff820361109e5761109d610fc1565b5b600182019050919050565b5f6060820190506110bc5f830186610d4d565b6110c96020830185610d4d565b6110d66040830184610eed565b949350505050565b7f4e487b71000000000000000000000000000000000000000000000000000000005f52603260045260245ffd5b7f4e487b71000000000000000000000000000000000000000000000000000000005f52601260045260245ffd5b5f61114282610b4b565b915061114d83610b4b565b92508261115d5761115c61110b565b5b828204905092915050565b5f7fffffffff0000000000000000000000000000000000000000000000000000000082169050919050565b61119c81611168565b82525050565b5f6060820190506111b55f830186610e32565b6111c26020830185610e32565b6111cf6040830184611193565b949350505050565b5f815190506111e581610cac565b92915050565b5f60208284031215611200576111ff610ac0565b5b5f61120d848285016111d7565b9150509291505056fea2646970667358221220eaa378cbf4a94ac3fe0bc0b3dec2271dfd74cae40151d9fc3ee974fe4b4c276b64736f6c634300081e0033","linkReferences":{}},"methodIdentifiers":{"authority()":"bf7e214f","executionHistory(bytes32,uint256)":"a6329c7f","executorGasSpent(address)":"906d66e2","getAverageGasUsed(bytes32)":"e2152e8d","getExecutionCount(bytes32)":"9dc04776","getExecutionHistory(bytes32)":"1833f0cf","getProtocolStats()":"771aceef","owner()":"8da5cb5b","recordExecution(bytes32,uint256,uint256,uint256,bool)":"4dd0d03e","setAuthority(address)":"7a9e5e4b","totalExecutions()":"642f7d5e","totalGasUsed()":"9fbefb26","transferOwnership(address)":"f2fde38b"},"id":31}