{"abi":[{"type":"constructor","inputs":[{"name":"_owner","type":"address","internalType":"address"},{"name":"_authority","type":"address","internalType":"contract Authority"}],"stateMutability":"nonpayable"},{"type":"function","name":"COMMIT_DELAY","inputs":[],"outputs":[{"name":"","type":"uint256","internalType":"uint256"}],"stateMutability":"view"},{"type":"function","name":"COMMIT_EXPIRY","inputs":[],"outputs":[{"name":"","type":"uint256","internalType":"uint256"}],"stateMutability":"view"},{"type":"function","name":"COOLDOWN_PERIOD","inputs":[],"outputs":[{"name":"","type":"uint256","internalType":"uint256"}],"stateMutability":"view"},{"type":"function","name":"authority","inputs":[],"outputs":[{"name":"","type":"address","internalType":"contract Authority"}],"stateMutability":"view"},{"type":"function","name":"batchSetSelectorWhitelist","inputs":[{"name":"targets","type":"address[]","internalType":"address[]"},{"name":"selectors","type":"bytes4[]","internalType":"bytes4[]"},{"name":"statuses","type":"bool[]","internalType":"bool[]"}],"outputs":[],"stateMutability":"nonpayable"},{"type":"function","name":"batchSetTargetWhitelist","inputs":[{"name":"targets","type":"address[]","internalType":"address[]"},{"name":"statuses","type":"bool[]","internalType":"bool[]"}],"outputs":[],"stateMutability":"nonpayable"},{"type":"function","name":"canExecute","inputs":[{"name":"user","type":"address","internalType":"address"}],"outputs":[{"name":"","type":"bool","internalType":"bool"}],"stateMutability":"view"},{"type":"function","name":"commitExecution","inputs":[{"name":"commitHash","type":"bytes32","internalType":"bytes32"}],"outputs":[],"stateMutability":"nonpayable"},{"type":"function","name":"commitments","inputs":[{"name":"","type":"address","internalType":"address"}],"outputs":[{"name":"hash","type":"bytes32","internalType":"bytes32"},{"name":"blockNumber","type":"uint256","internalType":"uint256"}],"stateMutability":"view"},{"type":"function","name":"executeProtectedArbitrage","inputs":[{"name":"target","type":"address","internalType":"address"},{"name":"data","type":"bytes","internalType":"bytes"},{"name":"salt","type":"bytes32","internalType":"bytes32"}],"outputs":[{"name":"success","type":"bool","internalType":"bool"},{"name":"result","type":"bytes","internalType":"bytes"}],"stateMutability":"nonpayable"},{"type":"function","name":"getCommitment","inputs":[{"name":"user","type":"address","internalType":"address"}],"outputs":[{"name":"hash","type":"bytes32","internalType":"bytes32"},{"name":"blockNumber","type":"uint256","internalType":"uint256"}],"stateMutability":"view"},{"type":"function","name":"lastExecutionTime","inputs":[{"name":"","type":"address","internalType":"address"}],"outputs":[{"name":"","type":"uint256","internalType":"uint256"}],"stateMutability":"view"},{"type":"function","name":"owner","inputs":[],"outputs":[{"name":"","type":"address","internalType":"address"}],"stateMutability":"view"},{"type":"function","name":"setAuthority","inputs":[{"name":"newAuthority","type":"address","internalType":"contract Authority"}],"outputs":[],"stateMutability":"nonpayable"},{"type":"function","name":"setSelectorWhitelist","inputs":[{"name":"target","type":"address","internalType":"address"},{"name":"selector","type":"bytes4","internalType":"bytes4"},{"name":"status","type":"bool","internalType":"bool"}],"outputs":[],"stateMutability":"nonpayable"},{"type":"function","name":"setTargetWhitelist","inputs":[{"name":"target","type":"address","internalType":"address"},{"name":"status","type":"bool","internalType":"bool"}],"outputs":[],"stateMutability":"nonpayable"},{"type":"function","name":"transferOwnership","inputs":[{"name":"newOwner","type":"address","internalType":"address"}],"outputs":[],"stateMutability":"nonpayable"},{"type":"function","name":"whitelistedSelectors","inputs":[{"name":"","type":"address","internalType":"address"},{"name":"","type":"bytes4","internalType":"bytes4"}],"outputs":[{"name":"","type":"bool","internalType":"bool"}],"stateMutability":"view"},{"type":"function","name":"whitelistedTargets","inputs":[{"name":"","type":"address","internalType":"address"}],"outputs":[{"name":"","type":"bool","internalType":"bool"}],"stateMutability":"view"},{"type":"event","name":"AuthorityUpdated","inputs":[{"name":"user","type":"address","indexed":true,"internalType":"address"},{"name":"newAuthority","type":"address","indexed":true,"internalType":"contract Authority"}],"anonymous":false},{"type":"event","name":"CommitmentMade","inputs":[{"name":"user","type":"address","indexed":true,"internalType":"address"},{"name":"hash","type":"bytes32","indexed":false,"internalType":"bytes32"},{"name":"blockNumber","type":"uint256","indexed":false,"internalType":"uint256"}],"anonymous":false},{"type":"event","name":"OwnershipTransferred","inputs":[{"name":"user","type":"address","indexed":true,"internalType":"address"},{"name":"newOwner","type":"address","indexed":true,"internalType":"address"}],"anonymous":false},{"type":"event","name":"ProtectedExecutionComplete","inputs":[{"name":"user","type":"address","indexed":true,"internalType":"address"},{"name":"target","type":"address","indexed":true,"internalType":"address"},{"name":"success","type":"bool","indexed":false,"internalType":"bool"}],"anonymous":false},{"type":"event","name":"SelectorWhitelistUpdated","inputs":[{"name":"target","type":"address","indexed":true,"internalType":"address"},{"name":"selector","type":"bytes4","indexed":false,"internalType":"bytes4"},{"name":"status","type":"bool","indexed":false,"internalType":"bool"}],"anonymous":false},{"type":"event","name":"TargetWhitelistUpdated","inputs":[{"name":"target","type":"address","indexed":true,"internalType":"address"},{"name":"status","type":"bool","indexed":false,"internalType":"bool"}],"anonymous":false},{"type":"event","name":"ThreatDetected","inputs":[{"name":"source","type":"address","indexed":true,"internalType":"address"},{"name":"threatType","type":"string","indexed":false,"internalType":"string"}],"anonymous":false},{"type":"error","name":"CommitmentExpired","inputs":[{"name":"currentBlock","type":"uint256","internalType":"uint256"},{"name":"commitBlock","type":"uint256","internalType":"uint256"},{"name":"expiry","type":"uint256","internalType":"uint256"}]},{"type":"error","name":"CommitmentMismatch","inputs":[{"name":"expected","type":"bytes32","internalType":"bytes32"},{"name":"provided","type":"bytes32","internalType":"bytes32"}]},{"type":"error","name":"CommitmentTooRecent","inputs":[{"name":"currentBlock","type":"uint256","internalType":"uint256"},{"name":"commitBlock","type":"uint256","internalType":"uint256"},{"name":"required","type":"uint256","internalType":"uint256"}]},{"type":"error","name":"CooldownActive","inputs":[{"name":"timeRemaining","type":"uint256","internalType":"uint256"}]},{"type":"error","name":"ExecutionFailed","inputs":[]},{"type":"error","name":"NoCommitmentFound","inputs":[]},{"type":"error","name":"Reentrancy","inputs":[]},{"type":"error","name":"SelectorNotWhitelisted","inputs":[{"name":"target","type":"address","internalType":"address"},{"name":"selector","type":"bytes4","internalType":"bytes4"}]},{"type":"error","name":"TargetNotWhitelisted","inputs":[{"name":"target","type":"address","internalType":"address"}]},{"type":"error","name":"Unauthorized","inputs":[]},{"type":"error","name":"ZeroAddress","inputs":[]}],"bytecode":{"object":"0x60806040526001600255348015610014575f5ffd5b506040516128953803806128958339818101604052810190610036919061020d565b8181815f5f6101000a81548173ffffffffffffffffffffffffffffffffffffffff021916908373ffffffffffffffffffffffffffffffffffffffff1602179055508060015f6101000a81548173ffffffffffffffffffffffffffffffffffffffff021916908373ffffffffffffffffffffffffffffffffffffffff1602179055508173ffffffffffffffffffffffffffffffffffffffff165f73ffffffffffffffffffffffffffffffffffffffff167f8be0079c531659141344cd1fd0a4f28419497f9722a3daafe3b4186f6b6457e060405160405180910390a38073ffffffffffffffffffffffffffffffffffffffff165f73ffffffffffffffffffffffffffffffffffffffff167fa3396fd7f6e0a21b50e5089d2da70d5ac0a3bbbd1f617a93f134b7638998019860405160405180910390a35050505061024b565b5f5ffd5b5f73ffffffffffffffffffffffffffffffffffffffff82169050919050565b5f6101a182610178565b9050919050565b6101b181610197565b81146101bb575f5ffd5b50565b5f815190506101cc816101a8565b92915050565b5f6101dc82610197565b9050919050565b6101ec816101d2565b81146101f6575f5ffd5b50565b5f81519050610207816101e3565b92915050565b5f5f6040838503121561022357610222610174565b5b5f610230858286016101be565b9250506020610241858286016101f9565b9150509250929050565b61263d806102585f395ff3fe608060405234801561000f575f5ffd5b506004361061011f575f3560e01c806385c99e2b116100ab578063e8fcf7231161006f578063e8fcf72314610306578063f1a64b3e14610337578063f2fde38b14610353578063fa1026dd1461036f578063fb9ed257146103a05761011f565b806385c99e2b1461024e5780638da5cb5b1461027e578063bf7e214f1461029c578063c8a44efa146102ba578063dc6b8812146102ea5761011f565b806350857fb2116100f257806350857fb2146101a95780635256e6d3146101c7578063562955da146101f85780636e99d52f146102145780637a9e5e4b146102325761011f565b80630dc340e314610123578063108bdc1414610141578063154125db1461015d5780633257384d14610179575b5f5ffd5b61012b6103d0565b6040516101389190611a06565b60405180910390f35b61015b60048036038101906101569190611ab6565b6103d5565b005b61017760048036038101906101729190611baa565b610543565b005b610193600480360381019061018e9190611c28565b6107dc565b6040516101a09190611a06565b60405180910390f35b6101b16107f1565b6040516101be9190611a06565b60405180910390f35b6101e160048036038101906101dc9190611cdb565b6107f6565b6040516101ef929190611dcb565b60405180910390f35b610212600480360381019061020d9190611df9565b610e88565b005b61021c610f42565b6040516102299190611a06565b60405180910390f35b61024c60048036038101906102479190611e5f565b610f47565b005b61026860048036038101906102639190611c28565b611069565b6040516102759190611e8a565b60405180910390f35b61028661116a565b6040516102939190611eb2565b60405180910390f35b6102a461118e565b6040516102b19190611f26565b60405180910390f35b6102d460048036038101906102cf9190611f94565b6111b3565b6040516102e19190611e8a565b60405180910390f35b61030460048036038101906102ff9190611fd2565b6111dd565b005b610320600480360381019061031b9190611c28565b61139b565b60405161032e929190612031565b60405180910390f35b610351600480360381019061034c91906120ad565b6113bb565b005b61036d60048036038101906103689190611c28565b611704565b005b61038960048036038101906103849190611c28565b611825565b604051610397929190612031565b60405180910390f35b6103ba60048036038101906103b59190611c28565b611898565b6040516103c79190611e8a565b60405180910390f35b603281565b610402335f357fffffffff00000000000000000000000000000000000000000000000000000000166118b5565b610438576040517f82b4290000000000000000000000000000000000000000000000000000000000815260040160405180910390fd5b5f73ffffffffffffffffffffffffffffffffffffffff168273ffffffffffffffffffffffffffffffffffffffff160361049d576040517fd92e233d00000000000000000000000000000000000000000000000000000000815260040160405180910390fd5b8060055f8473ffffffffffffffffffffffffffffffffffffffff1673ffffffffffffffffffffffffffffffffffffffff1681526020019081526020015f205f6101000a81548160ff0219169083151502179055508173ffffffffffffffffffffffffffffffffffffffff167f52eec1a0372bcc0f149dd096fc04f013047c878bd949d11adecf9b39bc0c71dc826040516105379190611e8a565b60405180910390a25050565b610570335f357fffffffff00000000000000000000000000000000000000000000000000000000166118b5565b6105a6576040517f82b4290000000000000000000000000000000000000000000000000000000000815260040160405180910390fd5b8181905084849050146105ee576040517f08c379a00000000000000000000000000000000000000000000000000000000081526004016105e5906121b7565b60405180910390fd5b5f5f90505b848490508110156107d5575f73ffffffffffffffffffffffffffffffffffffffff16858583818110610628576106276121d5565b5b905060200201602081019061063d9190611c28565b73ffffffffffffffffffffffffffffffffffffffff160361068a576040517fd92e233d00000000000000000000000000000000000000000000000000000000815260040160405180910390fd5b82828281811061069d5761069c6121d5565b5b90506020020160208101906106b29190612202565b60055f8787858181106106c8576106c76121d5565b5b90506020020160208101906106dd9190611c28565b73ffffffffffffffffffffffffffffffffffffffff1673ffffffffffffffffffffffffffffffffffffffff1681526020019081526020015f205f6101000a81548160ff02191690831515021790555084848281811061073f5761073e6121d5565b5b90506020020160208101906107549190611c28565b73ffffffffffffffffffffffffffffffffffffffff167f52eec1a0372bcc0f149dd096fc04f013047c878bd949d11adecf9b39bc0c71dc84848481811061079e5761079d6121d5565b5b90506020020160208101906107b39190612202565b6040516107c09190611e8a565b60405180910390a280806001019150506105f3565b5050505050565b6004602052805f5260405f205f915090505481565b600281565b5f60606002805403610834576040517fab143c0600000000000000000000000000000000000000000000000000000000815260040160405180910390fd5b60028081905550610868335f357fffffffff00000000000000000000000000000000000000000000000000000000166118b5565b61089e576040517f82b4290000000000000000000000000000000000000000000000000000000000815260040160405180910390fd5b60055f8773ffffffffffffffffffffffffffffffffffffffff1673ffffffffffffffffffffffffffffffffffffffff1681526020019081526020015f205f9054906101000a900460ff1661092957856040517f47ccabe70000000000000000000000000000000000000000000000000000000081526004016109209190611eb2565b60405180910390fd5b5f85855f9060049261093d93929190612235565b906109489190612285565b905060065f8873ffffffffffffffffffffffffffffffffffffffff1673ffffffffffffffffffffffffffffffffffffffff1681526020019081526020015f205f827bffffffffffffffffffffffffffffffffffffffffffffffffffffffff19167bffffffffffffffffffffffffffffffffffffffffffffffffffffffff191681526020019081526020015f205f9054906101000a900460ff16610a245786816040517fd241bce0000000000000000000000000000000000000000000000000000000008152600401610a1b9291906122f2565b60405180910390fd5b5f60035f3373ffffffffffffffffffffffffffffffffffffffff1673ffffffffffffffffffffffffffffffffffffffff1681526020019081526020015f206040518060400160405290815f820154815260200160018201548152505090505f5f1b815f015103610ac0576040517fc6c155d800000000000000000000000000000000000000000000000000000000815260040160405180910390fd5b5f816020015143610ad19190612346565b90506002811015610b225743826020015160026040517f4713d168000000000000000000000000000000000000000000000000000000008152600401610b1993929190612379565b60405180910390fd5b6032811115610b715743826020015160326040517f17efbc4c000000000000000000000000000000000000000000000000000000008152600401610b6893929190612379565b60405180910390fd5b5f8989898933604051602001610b8b95949392919061244f565b60405160208183030381529060405280519060200120905080835f015114610c3b573373ffffffffffffffffffffffffffffffffffffffff167ff1f525d5997a7aa83a6efe647ca99f4fa329b4107e501b4d83b8b9a648a03034604051610bf1906124e4565b60405180910390a2825f0151816040517fc9e0e757000000000000000000000000000000000000000000000000000000008152600401610c32929190612502565b60405180910390fd5b5f60045f3373ffffffffffffffffffffffffffffffffffffffff1673ffffffffffffffffffffffffffffffffffffffff1681526020019081526020015f205442610c859190612346565b9050603c811015610cd95780603c610c9d9190612346565b6040517fc1ab61a1000000000000000000000000000000000000000000000000000000008152600401610cd09190611a06565b60405180910390fd5b60035f3373ffffffffffffffffffffffffffffffffffffffff1673ffffffffffffffffffffffffffffffffffffffff1681526020019081526020015f205f5f82015f9055600182015f905550504260045f3373ffffffffffffffffffffffffffffffffffffffff1673ffffffffffffffffffffffffffffffffffffffff1681526020019081526020015f20819055508a73ffffffffffffffffffffffffffffffffffffffff168a8a604051610d8f929190612529565b5f604051808303815f865af19150503d805f8114610dc8576040519150601f19603f3d011682016040523d82523d5f602084013e610dcd565b606091505b50809750819850505086610e0d576040517facfdb44400000000000000000000000000000000000000000000000000000000815260040160405180910390fd5b8a73ffffffffffffffffffffffffffffffffffffffff163373ffffffffffffffffffffffffffffffffffffffff167f3a274092d7f6cf2734b92376b25b37aebe3b50c1f6fa74e600103b712d83101789604051610e6a9190611e8a565b60405180910390a35050505050600160028190555094509492505050565b60405180604001604052808281526020014381525060035f3373ffffffffffffffffffffffffffffffffffffffff1673ffffffffffffffffffffffffffffffffffffffff1681526020019081526020015f205f820151815f0155602082015181600101559050503373ffffffffffffffffffffffffffffffffffffffff167f4dcc120720fe8f8767b609977100bd4c7108d952d54cd9722720c827539d243a8243604051610f37929190612031565b60405180910390a250565b603c81565b5f5f9054906101000a900473ffffffffffffffffffffffffffffffffffffffff1673ffffffffffffffffffffffffffffffffffffffff163373ffffffffffffffffffffffffffffffffffffffff1614610fcc576040517f82b4290000000000000000000000000000000000000000000000000000000000815260040160405180910390fd5b8060015f6101000a81548173ffffffffffffffffffffffffffffffffffffffff021916908373ffffffffffffffffffffffffffffffffffffffff1602179055508073ffffffffffffffffffffffffffffffffffffffff163373ffffffffffffffffffffffffffffffffffffffff167fa3396fd7f6e0a21b50e5089d2da70d5ac0a3bbbd1f617a93f134b7638998019860405160405180910390a350565b5f5f60035f8473ffffffffffffffffffffffffffffffffffffffff1673ffffffffffffffffffffffffffffffffffffffff1681526020019081526020015f206040518060400160405290815f820154815260200160018201548152505090505f5f1b815f0151036110dd575f915050611165565b5f8160200151436110ee9190612346565b905060028110806110ff5750603281115b1561110e575f92505050611165565b5f60045f8673ffffffffffffffffffffffffffffffffffffffff1673ffffffffffffffffffffffffffffffffffffffff1681526020019081526020015f2054426111589190612346565b9050603c81101593505050505b919050565b5f5f9054906101000a900473ffffffffffffffffffffffffffffffffffffffff1681565b60015f9054906101000a900473ffffffffffffffffffffffffffffffffffffffff1681565b6006602052815f5260405f20602052805f5260405f205f915091509054906101000a900460ff1681565b61120a335f357fffffffff00000000000000000000000000000000000000000000000000000000166118b5565b611240576040517f82b4290000000000000000000000000000000000000000000000000000000000815260040160405180910390fd5b5f73ffffffffffffffffffffffffffffffffffffffff168373ffffffffffffffffffffffffffffffffffffffff16036112a5576040517fd92e233d00000000000000000000000000000000000000000000000000000000815260040160405180910390fd5b8060065f8573ffffffffffffffffffffffffffffffffffffffff1673ffffffffffffffffffffffffffffffffffffffff1681526020019081526020015f205f847bffffffffffffffffffffffffffffffffffffffffffffffffffffffff19167bffffffffffffffffffffffffffffffffffffffffffffffffffffffff191681526020019081526020015f205f6101000a81548160ff0219169083151502179055508273ffffffffffffffffffffffffffffffffffffffff167f7358e0c8cc4e599d3dce63ee899196498191b6d98bb616b28162ff0658fba3f5838360405161138e929190612541565b60405180910390a2505050565b6003602052805f5260405f205f91509050805f0154908060010154905082565b6113e8335f357fffffffff00000000000000000000000000000000000000000000000000000000166118b5565b61141e576040517f82b4290000000000000000000000000000000000000000000000000000000000815260040160405180910390fd5b838390508686905014801561143857508181905084849050145b611477576040517f08c379a000000000000000000000000000000000000000000000000000000000815260040161146e906121b7565b60405180910390fd5b5f5f90505b868690508110156116fb575f73ffffffffffffffffffffffffffffffffffffffff168787838181106114b1576114b06121d5565b5b90506020020160208101906114c69190611c28565b73ffffffffffffffffffffffffffffffffffffffff1603611513576040517fd92e233d00000000000000000000000000000000000000000000000000000000815260040160405180910390fd5b828282818110611526576115256121d5565b5b905060200201602081019061153b9190612202565b60065f898985818110611551576115506121d5565b5b90506020020160208101906115669190611c28565b73ffffffffffffffffffffffffffffffffffffffff1673ffffffffffffffffffffffffffffffffffffffff1681526020019081526020015f205f8787858181106115b3576115b26121d5565b5b90506020020160208101906115c89190612568565b7bffffffffffffffffffffffffffffffffffffffffffffffffffffffff19167bffffffffffffffffffffffffffffffffffffffffffffffffffffffff191681526020019081526020015f205f6101000a81548160ff02191690831515021790555086868281811061163c5761163b6121d5565b5b90506020020160208101906116519190611c28565b73ffffffffffffffffffffffffffffffffffffffff167f7358e0c8cc4e599d3dce63ee899196498191b6d98bb616b28162ff0658fba3f586868481811061169b5761169a6121d5565b5b90506020020160208101906116b09190612568565b8585858181106116c3576116c26121d5565b5b90506020020160208101906116d89190612202565b6040516116e6929190612541565b60405180910390a2808060010191505061147c565b50505050505050565b5f5f9054906101000a900473ffffffffffffffffffffffffffffffffffffffff1673ffffffffffffffffffffffffffffffffffffffff163373ffffffffffffffffffffffffffffffffffffffff1614611789576040517f82b4290000000000000000000000000000000000000000000000000000000000815260040160405180910390fd5b805f5f6101000a81548173ffffffffffffffffffffffffffffffffffffffff021916908373ffffffffffffffffffffffffffffffffffffffff1602179055508073ffffffffffffffffffffffffffffffffffffffff163373ffffffffffffffffffffffffffffffffffffffff167f8be0079c531659141344cd1fd0a4f28419497f9722a3daafe3b4186f6b6457e060405160405180910390a350565b5f5f5f60035f8573ffffffffffffffffffffffffffffffffffffffff1673ffffffffffffffffffffffffffffffffffffffff1681526020019081526020015f206040518060400160405290815f82015481526020016001820154815250509050805f015181602001519250925050915091565b6005602052805f5260405f205f915054906101000a900460ff1681565b5f5f60015f9054906101000a900473ffffffffffffffffffffffffffffffffffffffff1690505f73ffffffffffffffffffffffffffffffffffffffff168173ffffffffffffffffffffffffffffffffffffffff161415801561198f57508073ffffffffffffffffffffffffffffffffffffffff1663b70096138530866040518463ffffffff1660e01b815260040161194f93929190612593565b602060405180830381865afa15801561196a573d5f5f3e3d5ffd5b505050506040513d601f19601f8201168201806040525081019061198e91906125dc565b5b806119e557505f5f9054906101000a900473ffffffffffffffffffffffffffffffffffffffff1673ffffffffffffffffffffffffffffffffffffffff168473ffffffffffffffffffffffffffffffffffffffff16145b91505092915050565b5f819050919050565b611a00816119ee565b82525050565b5f602082019050611a195f8301846119f7565b92915050565b5f5ffd5b5f5ffd5b5f73ffffffffffffffffffffffffffffffffffffffff82169050919050565b5f611a5082611a27565b9050919050565b611a6081611a46565b8114611a6a575f5ffd5b50565b5f81359050611a7b81611a57565b92915050565b5f8115159050919050565b611a9581611a81565b8114611a9f575f5ffd5b50565b5f81359050611ab081611a8c565b92915050565b5f5f60408385031215611acc57611acb611a1f565b5b5f611ad985828601611a6d565b9250506020611aea85828601611aa2565b9150509250929050565b5f5ffd5b5f5ffd5b5f5ffd5b5f5f83601f840112611b1557611b14611af4565b5b8235905067ffffffffffffffff811115611b3257611b31611af8565b5b602083019150836020820283011115611b4e57611b4d611afc565b5b9250929050565b5f5f83601f840112611b6a57611b69611af4565b5b8235905067ffffffffffffffff811115611b8757611b86611af8565b5b602083019150836020820283011115611ba357611ba2611afc565b5b9250929050565b5f5f5f5f60408587031215611bc257611bc1611a1f565b5b5f85013567ffffffffffffffff811115611bdf57611bde611a23565b5b611beb87828801611b00565b9450945050602085013567ffffffffffffffff811115611c0e57611c0d611a23565b5b611c1a87828801611b55565b925092505092959194509250565b5f60208284031215611c3d57611c3c611a1f565b5b5f611c4a84828501611a6d565b91505092915050565b5f5f83601f840112611c6857611c67611af4565b5b8235905067ffffffffffffffff811115611c8557611c84611af8565b5b602083019150836001820283011115611ca157611ca0611afc565b5b9250929050565b5f819050919050565b611cba81611ca8565b8114611cc4575f5ffd5b50565b5f81359050611cd581611cb1565b92915050565b5f5f5f5f60608587031215611cf357611cf2611a1f565b5b5f611d0087828801611a6d565b945050602085013567ffffffffffffffff811115611d2157611d20611a23565b5b611d2d87828801611c53565b93509350506040611d4087828801611cc7565b91505092959194509250565b611d5581611a81565b82525050565b5f81519050919050565b5f82825260208201905092915050565b8281835e5f83830152505050565b5f601f19601f8301169050919050565b5f611d9d82611d5b565b611da78185611d65565b9350611db7818560208601611d75565b611dc081611d83565b840191505092915050565b5f604082019050611dde5f830185611d4c565b8181036020830152611df08184611d93565b90509392505050565b5f60208284031215611e0e57611e0d611a1f565b5b5f611e1b84828501611cc7565b91505092915050565b5f611e2e82611a46565b9050919050565b611e3e81611e24565b8114611e48575f5ffd5b50565b5f81359050611e5981611e35565b92915050565b5f60208284031215611e7457611e73611a1f565b5b5f611e8184828501611e4b565b91505092915050565b5f602082019050611e9d5f830184611d4c565b92915050565b611eac81611a46565b82525050565b5f602082019050611ec55f830184611ea3565b92915050565b5f819050919050565b5f611eee611ee9611ee484611a27565b611ecb565b611a27565b9050919050565b5f611eff82611ed4565b9050919050565b5f611f1082611ef5565b9050919050565b611f2081611f06565b82525050565b5f602082019050611f395f830184611f17565b92915050565b5f7fffffffff0000000000000000000000000000000000000000000000000000000082169050919050565b611f7381611f3f565b8114611f7d575f5ffd5b50565b5f81359050611f8e81611f6a565b92915050565b5f5f60408385031215611faa57611fa9611a1f565b5b5f611fb785828601611a6d565b9250506020611fc885828601611f80565b9150509250929050565b5f5f5f60608486031215611fe957611fe8611a1f565b5b5f611ff686828701611a6d565b935050602061200786828701611f80565b925050604061201886828701611aa2565b9150509250925092565b61202b81611ca8565b82525050565b5f6040820190506120445f830185612022565b61205160208301846119f7565b9392505050565b5f5f83601f84011261206d5761206c611af4565b5b8235905067ffffffffffffffff81111561208a57612089611af8565b5b6020830191508360208202830111156120a6576120a5611afc565b5b9250929050565b5f5f5f5f5f5f606087890312156120c7576120c6611a1f565b5b5f87013567ffffffffffffffff8111156120e4576120e3611a23565b5b6120f089828a01611b00565b9650965050602087013567ffffffffffffffff81111561211357612112611a23565b5b61211f89828a01612058565b9450945050604087013567ffffffffffffffff81111561214257612141611a23565b5b61214e89828a01611b55565b92509250509295509295509295565b5f82825260208201905092915050565b7f4c454e4754485f4d49534d4154434800000000000000000000000000000000005f82015250565b5f6121a1600f8361215d565b91506121ac8261216d565b602082019050919050565b5f6020820190508181035f8301526121ce81612195565b9050919050565b7f4e487b71000000000000000000000000000000000000000000000000000000005f52603260045260245ffd5b5f6020828403121561221757612216611a1f565b5b5f61222484828501611aa2565b91505092915050565b5f5ffd5b5f5ffd5b5f5f858511156122485761224761222d565b5b8386111561225957612258612231565b5b6001850283019150848603905094509492505050565b5f82905092915050565b5f82821b905092915050565b5f612290838361226f565b8261229b8135611f3f565b925060048210156122db576122d67fffffffff0000000000000000000000000000000000000000000000000000000083600403600802612279565b831692505b505092915050565b6122ec81611f3f565b82525050565b5f6040820190506123055f830185611ea3565b61231260208301846122e3565b9392505050565b7f4e487b71000000000000000000000000000000000000000000000000000000005f52601160045260245ffd5b5f612350826119ee565b915061235b836119ee565b925082820390508181111561237357612372612319565b5b92915050565b5f60608201905061238c5f8301866119f7565b61239960208301856119f7565b6123a660408301846119f7565b949350505050565b5f8160601b9050919050565b5f6123c4826123ae565b9050919050565b5f6123d5826123ba565b9050919050565b6123ed6123e882611a46565b6123cb565b82525050565b5f81905092915050565b828183375f83830152505050565b5f61241683856123f3565b93506124238385846123fd565b82840190509392505050565b5f819050919050565b61244961244482611ca8565b61242f565b82525050565b5f61245a82886123dc565b60148201915061246b82868861240b565b91506124778285612438565b60208201915061248782846123dc565b6014820191508190509695505050505050565b7f434f4d4d49544d454e545f4d49534d41544348000000000000000000000000005f82015250565b5f6124ce60138361215d565b91506124d98261249a565b602082019050919050565b5f6020820190508181035f8301526124fb816124c2565b9050919050565b5f6040820190506125155f830185612022565b6125226020830184612022565b9392505050565b5f61253582848661240b565b91508190509392505050565b5f6040820190506125545f8301856122e3565b6125616020830184611d4c565b9392505050565b5f6020828403121561257d5761257c611a1f565b5b5f61258a84828501611f80565b91505092915050565b5f6060820190506125a65f830186611ea3565b6125b36020830185611ea3565b6125c060408301846122e3565b949350505050565b5f815190506125d681611a8c565b92915050565b5f602082840312156125f1576125f0611a1f565b5b5f6125fe848285016125c8565b9150509291505056fea2646970667358221220580a181cf27076f09168d93be607fd5924e9dff6bd4c82bc2bcc1a71e770ef3c64736f6c634300081e0033","linkReferences":{}},"methodIdentifiers":{"COMMIT_DELAY()":"50857fb2","COMMIT_EXPIRY()":"0dc340e3","COOLDOWN_PERIOD()":"6e99d52f","authority()":"bf7e214f","batchSetSelectorWhitelist(address[],bytes4[],bool[])":"f1a64b3e","batchSetTargetWhitelist(address[],bool[])":"154125db","canExecute(address)":"85c99e2b","commitExecution(bytes32)":"562955da","commitments(address)":"e8fcf723","executeProtectedArbitrage(address,bytes,bytes32)":"5256e6d3","getCommitment(address)":"fa1026dd","lastExecutionTime(address)":"3257384d","owner()":"8da5cb5b","setAuthority(address)":"7a9e5e4b","setSelectorWhitelist(address,bytes4,bool)":"dc6b8812","setTargetWhitelist(address,bool)":"108bdc14","transferOwnership(address)":"f2fde38b","whitelistedSelectors(address,bytes4)":"c8a44efa","whitelistedTargets(address)":"fb9ed257"},"id":36}