{"abi":[{"type":"constructor","inputs":[{"name":"_owner","type":"address","internalType":"address"},{"name":"_authority","type":"address","internalType":"contract Authority"}],"stateMutability":"nonpayable"},{"type":"receive","stateMutability":"payable"},{"type":"function","name":"addGasRefund","inputs":[{"name":"executor","type":"address","internalType":"address"},{"name":"amount","type":"uint256","internalType":"uint256"}],"outputs":[],"stateMutability":"nonpayable"},{"type":"function","name":"authority","inputs":[],"outputs":[{"name":"","type":"address","internalType":"contract Authority"}],"stateMutability":"view"},{"type":"function","name":"claimGasRefund","inputs":[],"outputs":[],"stateMutability":"nonpayable"},{"type":"function","name":"defaultPriorityFee","inputs":[],"outputs":[{"name":"","type":"uint256","internalType":"uint256"}],"stateMutability":"view"},{"type":"function","name":"estimateCost","inputs":[{"name":"gasEstimate","type":"uint256","internalType":"uint256"}],"outputs":[{"name":"","type":"uint256","internalType":"uint256"}],"stateMutability":"view"},{"type":"function","name":"executeWithMinimumCost","inputs":[{"name":"target","type":"address","internalType":"address"},{"name":"data","type":"bytes","internalType":"bytes"},{"name":"expectedProfit","type":"uint256","internalType":"uint256"}],"outputs":[{"name":"success","type":"bool","internalType":"bool"},{"name":"result","type":"bytes","internalType":"bytes"}],"stateMutability":"nonpayable"},{"type":"function","name":"executorGasRefunds","inputs":[{"name":"","type":"address","internalType":"address"}],"outputs":[{"name":"","type":"uint256","internalType":"uint256"}],"stateMutability":"view"},{"type":"function","name":"isGasPriceAcceptable","inputs":[],"outputs":[{"name":"","type":"bool","internalType":"bool"}],"stateMutability":"view"},{"type":"function","name":"maxCostPercentage","inputs":[],"outputs":[{"name":"","type":"uint256","internalType":"uint256"}],"stateMutability":"view"},{"type":"function","name":"maxGasPrice","inputs":[],"outputs":[{"name":"","type":"uint256","internalType":"uint256"}],"stateMutability":"view"},{"type":"function","name":"owner","inputs":[],"outputs":[{"name":"","type":"address","internalType":"address"}],"stateMutability":"view"},{"type":"function","name":"setAuthority","inputs":[{"name":"newAuthority","type":"address","internalType":"contract Authority"}],"outputs":[],"stateMutability":"nonpayable"},{"type":"function","name":"setDefaultPriorityFee","inputs":[{"name":"newFee","type":"uint256","internalType":"uint256"}],"outputs":[],"stateMutability":"nonpayable"},{"type":"function","name":"setMaxCostPercentage","inputs":[{"name":"newPercentage","type":"uint256","internalType":"uint256"}],"outputs":[],"stateMutability":"nonpayable"},{"type":"function","name":"setMaxGasPrice","inputs":[{"name":"newMaxGasPrice","type":"uint256","internalType":"uint256"}],"outputs":[],"stateMutability":"nonpayable"},{"type":"function","name":"transferOwnership","inputs":[{"name":"newOwner","type":"address","internalType":"address"}],"outputs":[],"stateMutability":"nonpayable"},{"type":"event","name":"AuthorityUpdated","inputs":[{"name":"user","type":"address","indexed":true,"internalType":"address"},{"name":"newAuthority","type":"address","indexed":true,"internalType":"contract Authority"}],"anonymous":false},{"type":"event","name":"DefaultPriorityFeeUpdated","inputs":[{"name":"oldValue","type":"uint256","indexed":false,"internalType":"uint256"},{"name":"newValue","type":"uint256","indexed":false,"internalType":"uint256"}],"anonymous":false},{"type":"event","name":"ExecutionCompleted","inputs":[{"name":"executor","type":"address","indexed":true,"internalType":"address"},{"name":"gasUsed","type":"uint256","indexed":false,"internalType":"uint256"},{"name":"cost","type":"uint256","indexed":false,"internalType":"uint256"},{"name":"profit","type":"uint256","indexed":false,"internalType":"uint256"}],"anonymous":false},{"type":"event","name":"GasRefundClaimed","inputs":[{"name":"executor","type":"address","indexed":true,"internalType":"address"},{"name":"amount","type":"uint256","indexed":false,"internalType":"uint256"}],"anonymous":false},{"type":"event","name":"MaxCostPercentageUpdated","inputs":[{"name":"oldValue","type":"uint256","indexed":false,"internalType":"uint256"},{"name":"newValue","type":"uint256","indexed":false,"internalType":"uint256"}],"anonymous":false},{"type":"event","name":"MaxGasPriceUpdated","inputs":[{"name":"oldValue","type":"uint256","indexed":false,"internalType":"uint256"},{"name":"newValue","type":"uint256","indexed":false,"internalType":"uint256"}],"anonymous":false},{"type":"event","name":"OwnershipTransferred","inputs":[{"name":"user","type":"address","indexed":true,"internalType":"address"},{"name":"newOwner","type":"address","indexed":true,"internalType":"address"}],"anonymous":false},{"type":"error","name":"CostExceedsLimit","inputs":[{"name":"cost","type":"uint256","internalType":"uint256"},{"name":"maxCost","type":"uint256","internalType":"uint256"}]},{"type":"error","name":"ExecutionFailed","inputs":[]},{"type":"error","name":"GasPriceTooHigh","inputs":[{"name":"gasPrice","type":"uint256","internalType":"uint256"},{"name":"maxGasPrice","type":"uint256","internalType":"uint256"}]},{"type":"error","name":"InvalidPercentage","inputs":[]},{"type":"error","name":"NoRefundAvailable","inputs":[]},{"type":"error","name":"Reentrancy","inputs":[]},{"type":"error","name":"Unauthorized","inputs":[]}],"bytecode":{"object":"0x608060405260016002556101f4600355633b9aca0060045564746a52880060055534801561002b575f5ffd5b50604051611820380380611820833981810160405281019061004d9190610224565b8181815f5f6101000a81548173ffffffffffffffffffffffffffffffffffffffff021916908373ffffffffffffffffffffffffffffffffffffffff1602179055508060015f6101000a81548173ffffffffffffffffffffffffffffffffffffffff021916908373ffffffffffffffffffffffffffffffffffffffff1602179055508173ffffffffffffffffffffffffffffffffffffffff165f73ffffffffffffffffffffffffffffffffffffffff167f8be0079c531659141344cd1fd0a4f28419497f9722a3daafe3b4186f6b6457e060405160405180910390a38073ffffffffffffffffffffffffffffffffffffffff165f73ffffffffffffffffffffffffffffffffffffffff167fa3396fd7f6e0a21b50e5089d2da70d5ac0a3bbbd1f617a93f134b7638998019860405160405180910390a350505050610262565b5f5ffd5b5f73ffffffffffffffffffffffffffffffffffffffff82169050919050565b5f6101b88261018f565b9050919050565b6101c8816101ae565b81146101d2575f5ffd5b50565b5f815190506101e3816101bf565b92915050565b5f6101f3826101ae565b9050919050565b610203816101e9565b811461020d575f5ffd5b50565b5f8151905061021e816101fa565b92915050565b5f5f6040838503121561023a5761023961018b565b5b5f610247858286016101d5565b925050602061025885828601610210565b9150509250929050565b6115b18061026f5f395ff3fe6080604052600436106100f6575f3560e01c80639b74eb8e11610089578063d2fa635e11610058578063d2fa635e14610316578063d7130f031461033e578063db6c83aa14610368578063f2fde38b14610390576100fd565b80639b74eb8e1461025e578063a595dbf414610286578063bf7e214f146102b0578063ce143faa146102da576100fd565b806349e181ba116100c557806349e181ba146101b95780637a9e5e4b146101cf5780638da5cb5b146101f7578063985837e914610221576100fd565b80631fedc14c146101015780632b8874e4146101295780633de39c111461015357806341807a541461017d576100fd565b366100fd57005b5f5ffd5b34801561010c575f5ffd5b5061012760048036038101906101229190610f75565b6103b8565b005b348015610134575f5ffd5b5061013d610472565b60405161014a9190610fcd565b60405180910390f35b34801561015e575f5ffd5b5061016761047e565b6040516101749190610ff5565b60405180910390f35b348015610188575f5ffd5b506101a3600480360381019061019e919061100e565b610484565b6040516101b09190610ff5565b60405180910390f35b3480156101c4575f5ffd5b506101cd6104a5565b005b3480156101da575f5ffd5b506101f560048036038101906101f09190611074565b610640565b005b348015610202575f5ffd5b5061020b610762565b60405161021891906110ae565b60405180910390f35b34801561022c575f5ffd5b5061024760048036038101906102429190611128565b610786565b604051610255929190611209565b60405180910390f35b348015610269575f5ffd5b50610284600480360381019061027f919061100e565b610a0c565b005b348015610291575f5ffd5b5061029a610ab4565b6040516102a79190610ff5565b60405180910390f35b3480156102bb575f5ffd5b506102c4610aba565b6040516102d19190611292565b60405180910390f35b3480156102e5575f5ffd5b5061030060048036038101906102fb91906112ab565b610adf565b60405161030d9190610ff5565b60405180910390f35b348015610321575f5ffd5b5061033c6004803603810190610337919061100e565b610af4565b005b348015610349575f5ffd5b50610352610b9c565b60405161035f9190610ff5565b60405180910390f35b348015610373575f5ffd5b5061038e6004803603810190610389919061100e565b610ba2565b005b34801561039b575f5ffd5b506103b660048036038101906103b191906112ab565b610c86565b005b6103e5335f357fffffffff0000000000000000000000000000000000000000000000000000000016610da7565b61041b576040517f82b4290000000000000000000000000000000000000000000000000000000000815260040160405180910390fd5b8060065f8473ffffffffffffffffffffffffffffffffffffffff1673ffffffffffffffffffffffffffffffffffffffff1681526020019081526020015f205f8282546104679190611303565b925050819055505050565b5f6005543a1115905090565b60055481565b5f6004543a6104939190611303565b8261049e9190611336565b9050919050565b60028054036104e0576040517fab143c0600000000000000000000000000000000000000000000000000000000815260040160405180910390fd5b600280819055505f60065f3373ffffffffffffffffffffffffffffffffffffffff1673ffffffffffffffffffffffffffffffffffffffff1681526020019081526020015f205490505f8103610561576040517fe49c14cb00000000000000000000000000000000000000000000000000000000815260040160405180910390fd5b5f60065f3373ffffffffffffffffffffffffffffffffffffffff1673ffffffffffffffffffffffffffffffffffffffff1681526020019081526020015f20819055503373ffffffffffffffffffffffffffffffffffffffff166108fc8290811502906040515f60405180830381858888f193505050501580156105e6573d5f5f3e3d5ffd5b503373ffffffffffffffffffffffffffffffffffffffff167f9c3c39d0eedd3d18612a0e8e76cc7bc873815d3e19206dbbf9825989b1c95e6b8260405161062d9190610ff5565b60405180910390a2506001600281905550565b5f5f9054906101000a900473ffffffffffffffffffffffffffffffffffffffff1673ffffffffffffffffffffffffffffffffffffffff163373ffffffffffffffffffffffffffffffffffffffff16146106c5576040517f82b4290000000000000000000000000000000000000000000000000000000000815260040160405180910390fd5b8060015f6101000a81548173ffffffffffffffffffffffffffffffffffffffff021916908373ffffffffffffffffffffffffffffffffffffffff1602179055508073ffffffffffffffffffffffffffffffffffffffff163373ffffffffffffffffffffffffffffffffffffffff167fa3396fd7f6e0a21b50e5089d2da70d5ac0a3bbbd1f617a93f134b7638998019860405160405180910390a350565b5f5f9054906101000a900473ffffffffffffffffffffffffffffffffffffffff1681565b5f606060028054036107c4576040517fab143c0600000000000000000000000000000000000000000000000000000000815260040160405180910390fd5b600280819055506107f8335f357fffffffff0000000000000000000000000000000000000000000000000000000016610da7565b61082e576040517f82b4290000000000000000000000000000000000000000000000000000000000815260040160405180910390fd5b5f5a90506005543a111561087d573a6005546040517f94118333000000000000000000000000000000000000000000000000000000008152600401610874929190611377565b60405180910390fd5b8673ffffffffffffffffffffffffffffffffffffffff1686866040516108a49291906113da565b5f604051808303815f865af19150503d805f81146108dd576040519150601f19603f3d011682016040523d82523d5f602084013e6108e2565b606091505b50809350819450505082610922576040517facfdb44400000000000000000000000000000000000000000000000000000000815260040160405180910390fd5b5f5a8261092f91906113f2565b90505f3a8261093e9190611336565b90505f612710600354886109529190611336565b61095c9190611452565b9050808211156109a55781816040517fd2c0a07b00000000000000000000000000000000000000000000000000000000815260040161099c929190611377565b60405180910390fd5b3373ffffffffffffffffffffffffffffffffffffffff167fb3f6d6e427a7c3b20e0119f5b4a7067267b2ce26ceedcd98f4c1a8ec6726220c84848a6040516109ef93929190611482565b60405180910390a250505050600160028190555094509492505050565b610a39335f357fffffffff0000000000000000000000000000000000000000000000000000000016610da7565b610a6f576040517f82b4290000000000000000000000000000000000000000000000000000000000815260040160405180910390fd5b7f940acd0fd7afdefb8bc62fcc695eb5dced4c5595c9fa19b0b798a9157f26422860045482604051610aa2929190611377565b60405180910390a18060048190555050565b60035481565b60015f9054906101000a900473ffffffffffffffffffffffffffffffffffffffff1681565b6006602052805f5260405f205f915090505481565b610b21335f357fffffffff0000000000000000000000000000000000000000000000000000000016610da7565b610b57576040517f82b4290000000000000000000000000000000000000000000000000000000000815260040160405180910390fd5b7fb1daf6a9ad2299bf65e68bf739b901d006349eb874677e4b9ce28e208bd41c2760055482604051610b8a929190611377565b60405180910390a18060058190555050565b60045481565b610bcf335f357fffffffff0000000000000000000000000000000000000000000000000000000016610da7565b610c05576040517f82b4290000000000000000000000000000000000000000000000000000000000815260040160405180910390fd5b612710811115610c41576040517f1f3b85d300000000000000000000000000000000000000000000000000000000815260040160405180910390fd5b7ff332d45c15f09630b67db17e13bf386d74f115b14d13d8a8b8c37c04596a4da760035482604051610c74929190611377565b60405180910390a18060038190555050565b5f5f9054906101000a900473ffffffffffffffffffffffffffffffffffffffff1673ffffffffffffffffffffffffffffffffffffffff163373ffffffffffffffffffffffffffffffffffffffff1614610d0b576040517f82b4290000000000000000000000000000000000000000000000000000000000815260040160405180910390fd5b805f5f6101000a81548173ffffffffffffffffffffffffffffffffffffffff021916908373ffffffffffffffffffffffffffffffffffffffff1602179055508073ffffffffffffffffffffffffffffffffffffffff163373ffffffffffffffffffffffffffffffffffffffff167f8be0079c531659141344cd1fd0a4f28419497f9722a3daafe3b4186f6b6457e060405160405180910390a350565b5f5f60015f9054906101000a900473ffffffffffffffffffffffffffffffffffffffff1690505f73ffffffffffffffffffffffffffffffffffffffff168173ffffffffffffffffffffffffffffffffffffffff1614158015610e8157508073ffffffffffffffffffffffffffffffffffffffff1663b70096138530866040518463ffffffff1660e01b8152600401610e41939291906114f1565b602060405180830381865afa158015610e5c573d5f5f3e3d5ffd5b505050506040513d601f19601f82011682018060405250810190610e809190611550565b5b80610ed757505f5f9054906101000a900473ffffffffffffffffffffffffffffffffffffffff1673ffffffffffffffffffffffffffffffffffffffff168473ffffffffffffffffffffffffffffffffffffffff16145b91505092915050565b5f5ffd5b5f5ffd5b5f73ffffffffffffffffffffffffffffffffffffffff82169050919050565b5f610f1182610ee8565b9050919050565b610f2181610f07565b8114610f2b575f5ffd5b50565b5f81359050610f3c81610f18565b92915050565b5f819050919050565b610f5481610f42565b8114610f5e575f5ffd5b50565b5f81359050610f6f81610f4b565b92915050565b5f5f60408385031215610f8b57610f8a610ee0565b5b5f610f9885828601610f2e565b9250506020610fa985828601610f61565b9150509250929050565b5f8115159050919050565b610fc781610fb3565b82525050565b5f602082019050610fe05f830184610fbe565b92915050565b610fef81610f42565b82525050565b5f6020820190506110085f830184610fe6565b92915050565b5f6020828403121561102357611022610ee0565b5b5f61103084828501610f61565b91505092915050565b5f61104382610f07565b9050919050565b61105381611039565b811461105d575f5ffd5b50565b5f8135905061106e8161104a565b92915050565b5f6020828403121561108957611088610ee0565b5b5f61109684828501611060565b91505092915050565b6110a881610f07565b82525050565b5f6020820190506110c15f83018461109f565b92915050565b5f5ffd5b5f5ffd5b5f5ffd5b5f5f83601f8401126110e8576110e76110c7565b5b8235905067ffffffffffffffff811115611105576111046110cb565b5b602083019150836001820283011115611121576111206110cf565b5b9250929050565b5f5f5f5f606085870312156111405761113f610ee0565b5b5f61114d87828801610f2e565b945050602085013567ffffffffffffffff81111561116e5761116d610ee4565b5b61117a878288016110d3565b9350935050604061118d87828801610f61565b91505092959194509250565b5f81519050919050565b5f82825260208201905092915050565b8281835e5f83830152505050565b5f601f19601f8301169050919050565b5f6111db82611199565b6111e581856111a3565b93506111f58185602086016111b3565b6111fe816111c1565b840191505092915050565b5f60408201905061121c5f830185610fbe565b818103602083015261122e81846111d1565b90509392505050565b5f819050919050565b5f61125a61125561125084610ee8565b611237565b610ee8565b9050919050565b5f61126b82611240565b9050919050565b5f61127c82611261565b9050919050565b61128c81611272565b82525050565b5f6020820190506112a55f830184611283565b92915050565b5f602082840312156112c0576112bf610ee0565b5b5f6112cd84828501610f2e565b91505092915050565b7f4e487b71000000000000000000000000000000000000000000000000000000005f52601160045260245ffd5b5f61130d82610f42565b915061131883610f42565b92508282019050808211156113305761132f6112d6565b5b92915050565b5f61134082610f42565b915061134b83610f42565b925082820261135981610f42565b915082820484148315176113705761136f6112d6565b5b5092915050565b5f60408201905061138a5f830185610fe6565b6113976020830184610fe6565b9392505050565b5f81905092915050565b828183375f83830152505050565b5f6113c1838561139e565b93506113ce8385846113a8565b82840190509392505050565b5f6113e68284866113b6565b91508190509392505050565b5f6113fc82610f42565b915061140783610f42565b925082820390508181111561141f5761141e6112d6565b5b92915050565b7f4e487b71000000000000000000000000000000000000000000000000000000005f52601260045260245ffd5b5f61145c82610f42565b915061146783610f42565b92508261147757611476611425565b5b828204905092915050565b5f6060820190506114955f830186610fe6565b6114a26020830185610fe6565b6114af6040830184610fe6565b949350505050565b5f7fffffffff0000000000000000000000000000000000000000000000000000000082169050919050565b6114eb816114b7565b82525050565b5f6060820190506115045f83018661109f565b611511602083018561109f565b61151e60408301846114e2565b949350505050565b61152f81610fb3565b8114611539575f5ffd5b50565b5f8151905061154a81611526565b92915050565b5f6020828403121561156557611564610ee0565b5b5f6115728482850161153c565b9150509291505056fea2646970667358221220d6ee108ee6a70d427d9fc2a6cfb04e2de3896d0567fecc78fe774d4b21f7ea3e64736f6c634300081e0033","linkReferences":{}},"methodIdentifiers":{"addGasRefund(address,uint256)":"1fedc14c","authority()":"bf7e214f","claimGasRefund()":"49e181ba","defaultPriorityFee()":"d7130f03","estimateCost(uint256)":"41807a54","executeWithMinimumCost(address,bytes,uint256)":"985837e9","executorGasRefunds(address)":"ce143faa","isGasPriceAcceptable()":"2b8874e4","maxCostPercentage()":"a595dbf4","maxGasPrice()":"3de39c11","owner()":"8da5cb5b","setAuthority(address)":"7a9e5e4b","setDefaultPriorityFee(uint256)":"9b74eb8e","setMaxCostPercentage(uint256)":"db6c83aa","setMaxGasPrice(uint256)":"d2fa635e","transferOwnership(address)":"f2fde38b"},"id":38}