{"abi":[{"type":"constructor","inputs":[{"name":"_owner","type":"address","internalType":"address"},{"name":"_authority","type":"address","internalType":"contract Authority"}],"stateMutability":"nonpayable"},{"type":"function","name":"DEFAULT_RISK_SCORE","inputs":[],"outputs":[{"name":"","type":"uint256","internalType":"uint256"}],"stateMutability":"view"},{"type":"function","name":"MAX_RISK_SCORE","inputs":[],"outputs":[{"name":"","type":"uint256","internalType":"uint256"}],"stateMutability":"view"},{"type":"function","name":"MIN_RISK_SCORE","inputs":[],"outputs":[{"name":"","type":"uint256","internalType":"uint256"}],"stateMutability":"view"},{"type":"function","name":"authority","inputs":[],"outputs":[{"name":"","type":"address","internalType":"contract Authority"}],"stateMutability":"view"},{"type":"function","name":"batchSetTokenRiskScores","inputs":[{"name":"tokens","type":"address[]","internalType":"address[]"},{"name":"scores","type":"uint256[]","internalType":"uint256[]"}],"outputs":[],"stateMutability":"nonpayable"},{"type":"function","name":"evaluate","inputs":[{"name":"token","type":"address","internalType":"address"},{"name":"amount","type":"uint256","internalType":"uint256"},{"name":"","type":"uint256","internalType":"uint256"}],"outputs":[{"name":"score","type":"uint256","internalType":"uint256"}],"stateMutability":"view"},{"type":"function","name":"evaluateBatch","inputs":[{"name":"tokens","type":"address[]","internalType":"address[]"},{"name":"amounts","type":"uint256[]","internalType":"uint256[]"}],"outputs":[{"name":"scores","type":"uint256[]","internalType":"uint256[]"}],"stateMutability":"view"},{"type":"function","name":"evaluatePair","inputs":[{"name":"tokenA","type":"address","internalType":"address"},{"name":"tokenB","type":"address","internalType":"address"},{"name":"amountA","type":"uint256","internalType":"uint256"},{"name":"amountB","type":"uint256","internalType":"uint256"}],"outputs":[{"name":"score","type":"uint256","internalType":"uint256"}],"stateMutability":"view"},{"type":"function","name":"globalRiskMultiplier","inputs":[],"outputs":[{"name":"","type":"uint256","internalType":"uint256"}],"stateMutability":"view"},{"type":"function","name":"owner","inputs":[],"outputs":[{"name":"","type":"address","internalType":"address"}],"stateMutability":"view"},{"type":"function","name":"pairRiskScores","inputs":[{"name":"","type":"bytes32","internalType":"bytes32"}],"outputs":[{"name":"","type":"uint256","internalType":"uint256"}],"stateMutability":"view"},{"type":"function","name":"riskParams","inputs":[],"outputs":[{"name":"volatilityWeight","type":"uint256","internalType":"uint256"},{"name":"liquidityWeight","type":"uint256","internalType":"uint256"},{"name":"correlationWeight","type":"uint256","internalType":"uint256"},{"name":"timeDecayFactor","type":"uint256","internalType":"uint256"}],"stateMutability":"view"},{"type":"function","name":"setAuthority","inputs":[{"name":"newAuthority","type":"address","internalType":"contract Authority"}],"outputs":[],"stateMutability":"nonpayable"},{"type":"function","name":"setGlobalRiskMultiplier","inputs":[{"name":"multiplier","type":"uint256","internalType":"uint256"}],"outputs":[],"stateMutability":"nonpayable"},{"type":"function","name":"setPairRiskScore","inputs":[{"name":"tokenA","type":"address","internalType":"address"},{"name":"tokenB","type":"address","internalType":"address"},{"name":"score","type":"uint256","internalType":"uint256"}],"outputs":[],"stateMutability":"nonpayable"},{"type":"function","name":"setRiskParams","inputs":[{"name":"volatilityWeight","type":"uint256","internalType":"uint256"},{"name":"liquidityWeight","type":"uint256","internalType":"uint256"},{"name":"correlationWeight","type":"uint256","internalType":"uint256"},{"name":"timeDecayFactor","type":"uint256","internalType":"uint256"}],"outputs":[],"stateMutability":"nonpayable"},{"type":"function","name":"setTokenRiskScore","inputs":[{"name":"token","type":"address","internalType":"address"},{"name":"score","type":"uint256","internalType":"uint256"}],"outputs":[],"stateMutability":"nonpayable"},{"type":"function","name":"tokenRiskScores","inputs":[{"name":"","type":"address","internalType":"address"}],"outputs":[{"name":"","type":"uint256","internalType":"uint256"}],"stateMutability":"view"},{"type":"function","name":"transferOwnership","inputs":[{"name":"newOwner","type":"address","internalType":"address"}],"outputs":[],"stateMutability":"nonpayable"},{"type":"event","name":"AuthorityUpdated","inputs":[{"name":"user","type":"address","indexed":true,"internalType":"address"},{"name":"newAuthority","type":"address","indexed":true,"internalType":"contract Authority"}],"anonymous":false},{"type":"event","name":"GlobalRiskMultiplierUpdated","inputs":[{"name":"oldMultiplier","type":"uint256","indexed":false,"internalType":"uint256"},{"name":"newMultiplier","type":"uint256","indexed":false,"internalType":"uint256"}],"anonymous":false},{"type":"event","name":"OwnershipTransferred","inputs":[{"name":"user","type":"address","indexed":true,"internalType":"address"},{"name":"newOwner","type":"address","indexed":true,"internalType":"address"}],"anonymous":false},{"type":"event","name":"PairRiskScoreUpdated","inputs":[{"name":"pairId","type":"bytes32","indexed":true,"internalType":"bytes32"},{"name":"oldScore","type":"uint256","indexed":false,"internalType":"uint256"},{"name":"newScore","type":"uint256","indexed":false,"internalType":"uint256"}],"anonymous":false},{"type":"event","name":"RiskEvaluated","inputs":[{"name":"token","type":"address","indexed":true,"internalType":"address"},{"name":"amount","type":"uint256","indexed":false,"internalType":"uint256"},{"name":"score","type":"uint256","indexed":false,"internalType":"uint256"}],"anonymous":false},{"type":"event","name":"RiskParamsUpdated","inputs":[{"name":"volatilityWeight","type":"uint256","indexed":false,"internalType":"uint256"},{"name":"liquidityWeight","type":"uint256","indexed":false,"internalType":"uint256"},{"name":"correlationWeight","type":"uint256","indexed":false,"internalType":"uint256"},{"name":"timeDecay","type":"uint256","indexed":false,"internalType":"uint256"}],"anonymous":false},{"type":"event","name":"TokenRiskScoreUpdated","inputs":[{"name":"token","type":"address","indexed":true,"internalType":"address"},{"name":"oldScore","type":"uint256","indexed":false,"internalType":"uint256"},{"name":"newScore","type":"uint256","indexed":false,"internalType":"uint256"}],"anonymous":false},{"type":"error","name":"InvalidRiskScore","inputs":[{"name":"score","type":"uint256","internalType":"uint256"}]},{"type":"error","name":"InvalidWeight","inputs":[]},{"type":"error","name":"Unauthorized","inputs":[]},{"type":"error","name":"ZeroAddress","inputs":[]}],"bytecode":{"object":"0x60806040526064600855348015610014575f5ffd5b5060405161220a38038061220a8339818101604052810190610036919061025d565b8181815f5f6101000a81548173ffffffffffffffffffffffffffffffffffffffff021916908373ffffffffffffffffffffffffffffffffffffffff1602179055508060015f6101000a81548173ffffffffffffffffffffffffffffffffffffffff021916908373ffffffffffffffffffffffffffffffffffffffff1602179055508173ffffffffffffffffffffffffffffffffffffffff165f73ffffffffffffffffffffffffffffffffffffffff167f8be0079c531659141344cd1fd0a4f28419497f9722a3daafe3b4186f6b6457e060405160405180910390a38073ffffffffffffffffffffffffffffffffffffffff165f73ffffffffffffffffffffffffffffffffffffffff167fa3396fd7f6e0a21b50e5089d2da70d5ac0a3bbbd1f617a93f134b7638998019860405160405180910390a350506040518060800160405280601e81526020016028815260200160148152602001600a81525060045f820151815f0155602082015181600101556040820151816002015560608201518160030155905050505061029b565b5f5ffd5b5f73ffffffffffffffffffffffffffffffffffffffff82169050919050565b5f6101f1826101c8565b9050919050565b610201816101e7565b811461020b575f5ffd5b50565b5f8151905061021c816101f8565b92915050565b5f61022c826101e7565b9050919050565b61023c81610222565b8114610246575f5ffd5b50565b5f8151905061025781610233565b92915050565b5f5f60408385031215610273576102726101c4565b5b5f6102808582860161020e565b925050602061029185828601610249565b9150509250929050565b611f62806102a85f395ff3fe608060405234801561000f575f5ffd5b506004361061011f575f3560e01c80638da5cb5b116100ab578063d7376af31161006f578063d7376af314610305578063d7b531f714610321578063e6f0015c14610351578063f2fde38b1461036f578063fefb36ce1461038b5761011f565b80638da5cb5b1461025d578063bc50caaf1461027b578063bf178ba414610299578063bf7e214f146102c9578063c5d8f766146102e75761011f565b80633112d242116100f25780633112d242146101a757806341a33c36146101c357806345f19131146101f35780637a9e5e4b14610211578063830fda321461022d5761011f565b8063035f5183146101235780631341f5af1461013f5780632a9903151461016f5780632ac187091461018b575b5f5ffd5b61013d60048036038101906101389190611624565b6103ac565b005b61015960048036038101906101549190611662565b610592565b604051610166919061169c565b60405180910390f35b6101896004803603810190610184919061176b565b6105a7565b005b6101a560048036038101906101a091906117e9565b6108f5565b005b6101c160048036038101906101bc9190611839565b610ab3565b005b6101dd60048036038101906101d89190611864565b610b60565b6040516101ea919061169c565b60405180910390f35b6101fb610c02565b604051610208919061169c565b60405180910390f35b61022b600480360381019061022691906118ef565b610c07565b005b6102476004803603810190610242919061176b565b610d29565b60405161025491906119d1565b60405180910390f35b610265610eda565b6040516102729190611a00565b60405180910390f35b610283610efe565b604051610290919061169c565b60405180910390f35b6102b360048036038101906102ae9190611a19565b610f02565b6040516102c0919061169c565b60405180910390f35b6102d1611049565b6040516102de9190611ad8565b60405180910390f35b6102ef61106e565b6040516102fc919061169c565b60405180910390f35b61031f600480360381019061031a9190611af1565b611073565b005b61033b60048036038101906103369190611b88565b6111c0565b604051610348919061169c565b60405180910390f35b6103596111d5565b604051610366919061169c565b60405180910390f35b61038960048036038101906103849190611662565b6111db565b005b6103936112fc565b6040516103a39493929190611bb3565b60405180910390f35b6103d9335f357fffffffff0000000000000000000000000000000000000000000000000000000016611319565b61040f576040517f82b4290000000000000000000000000000000000000000000000000000000000815260040160405180910390fd5b5f73ffffffffffffffffffffffffffffffffffffffff168273ffffffffffffffffffffffffffffffffffffffff1603610474576040517fd92e233d00000000000000000000000000000000000000000000000000000000815260040160405180910390fd5b60648111156104ba57806040517f9eaa81a40000000000000000000000000000000000000000000000000000000081526004016104b1919061169c565b60405180910390fd5b5f60025f8473ffffffffffffffffffffffffffffffffffffffff1673ffffffffffffffffffffffffffffffffffffffff1681526020019081526020015f205490508160025f8573ffffffffffffffffffffffffffffffffffffffff1673ffffffffffffffffffffffffffffffffffffffff1681526020019081526020015f20819055508273ffffffffffffffffffffffffffffffffffffffff167f379e9edf9af886c948ed3181e1b838402e0d73adb927b50398021d62c2309a2a8284604051610585929190611bf6565b60405180910390a2505050565b6002602052805f5260405f205f915090505481565b6105d4335f357fffffffff0000000000000000000000000000000000000000000000000000000016611319565b61060a576040517f82b4290000000000000000000000000000000000000000000000000000000000815260040160405180910390fd5b818190508484905014610652576040517f08c379a000000000000000000000000000000000000000000000000000000000815260040161064990611c77565b60405180910390fd5b5f5f90505b848490508110156108ee575f73ffffffffffffffffffffffffffffffffffffffff1685858381811061068c5761068b611c95565b5b90506020020160208101906106a19190611662565b73ffffffffffffffffffffffffffffffffffffffff16036106ee576040517fd92e233d00000000000000000000000000000000000000000000000000000000815260040160405180910390fd5b606483838381811061070357610702611c95565b5b9050602002013511156107665782828281811061072357610722611c95565b5b905060200201356040517f9eaa81a400000000000000000000000000000000000000000000000000000000815260040161075d919061169c565b60405180910390fd5b5f60025f87878581811061077d5761077c611c95565b5b90506020020160208101906107929190611662565b73ffffffffffffffffffffffffffffffffffffffff1673ffffffffffffffffffffffffffffffffffffffff1681526020019081526020015f205490508383838181106107e1576107e0611c95565b5b9050602002013560025f8888868181106107fe576107fd611c95565b5b90506020020160208101906108139190611662565b73ffffffffffffffffffffffffffffffffffffffff1673ffffffffffffffffffffffffffffffffffffffff1681526020019081526020015f208190555085858381811061086357610862611c95565b5b90506020020160208101906108789190611662565b73ffffffffffffffffffffffffffffffffffffffff167f379e9edf9af886c948ed3181e1b838402e0d73adb927b50398021d62c2309a2a828686868181106108c3576108c2611c95565b5b905060200201356040516108d8929190611bf6565b60405180910390a2508080600101915050610657565b5050505050565b610922335f357fffffffff0000000000000000000000000000000000000000000000000000000016611319565b610958576040517f82b4290000000000000000000000000000000000000000000000000000000000815260040160405180910390fd5b5f73ffffffffffffffffffffffffffffffffffffffff168373ffffffffffffffffffffffffffffffffffffffff1614806109bd57505f73ffffffffffffffffffffffffffffffffffffffff168273ffffffffffffffffffffffffffffffffffffffff16145b156109f4576040517fd92e233d00000000000000000000000000000000000000000000000000000000815260040160405180910390fd5b6064811115610a3a57806040517f9eaa81a4000000000000000000000000000000000000000000000000000000008152600401610a31919061169c565b60405180910390fd5b5f610a458484611452565b90505f60035f8381526020019081526020015f205490508260035f8481526020019081526020015f2081905550817f01df0645860da06b1cbf4a0440c3bfa62877960225ce388f972569b383a9e4908285604051610aa4929190611bf6565b60405180910390a25050505050565b610ae0335f357fffffffff0000000000000000000000000000000000000000000000000000000016611319565b610b16576040517f82b4290000000000000000000000000000000000000000000000000000000000815260040160405180910390fd5b5f6008549050816008819055507fd997b264919951e5a5eacf257144bc9123269b33116c6f395ecf2339e94c836b8183604051610b54929190611bf6565b60405180910390a15050565b5f5f60025f8673ffffffffffffffffffffffffffffffffffffffff1673ffffffffffffffffffffffffffffffffffffffff1681526020019081526020015f205490505f8103610bae57603290505b5f610bb8856114e6565b905060646008548284610bcb9190611cef565b610bd59190611d22565b610bdf9190611d90565b9250610bf75f6064856115689092919063ffffffff16565b925050509392505050565b606481565b5f5f9054906101000a900473ffffffffffffffffffffffffffffffffffffffff1673ffffffffffffffffffffffffffffffffffffffff163373ffffffffffffffffffffffffffffffffffffffff1614610c8c576040517f82b4290000000000000000000000000000000000000000000000000000000000815260040160405180910390fd5b8060015f6101000a81548173ffffffffffffffffffffffffffffffffffffffff021916908373ffffffffffffffffffffffffffffffffffffffff1602179055508073ffffffffffffffffffffffffffffffffffffffff163373ffffffffffffffffffffffffffffffffffffffff167fa3396fd7f6e0a21b50e5089d2da70d5ac0a3bbbd1f617a93f134b7638998019860405160405180910390a350565b6060828290508585905014610d73576040517f08c379a0000000000000000000000000000000000000000000000000000000008152600401610d6a90611c77565b60405180910390fd5b8484905067ffffffffffffffff811115610d9057610d8f611dc0565b5b604051908082528060200260200182016040528015610dbe5781602001602082028036833780820191505090505b5090505f5f90505b85859050811015610ed1575f60025f888885818110610de857610de7611c95565b5b9050602002016020810190610dfd9190611662565b73ffffffffffffffffffffffffffffffffffffffff1673ffffffffffffffffffffffffffffffffffffffff1681526020019081526020015f205490505f8103610e4557603290505b5f610e68868685818110610e5c57610e5b611c95565b5b905060200201356114e6565b9050610ea35f6064806008548587610e809190611cef565b610e8a9190611d22565b610e949190611d90565b6115689092919063ffffffff16565b848481518110610eb657610eb5611c95565b5b60200260200101818152505050508080600101915050610dc6565b50949350505050565b5f5f9054906101000a900473ffffffffffffffffffffffffffffffffffffffff1681565b5f81565b5f5f610f0e8686611452565b90505f60035f8381526020019081526020015f205490505f8103610fe3575f60025f8973ffffffffffffffffffffffffffffffffffffffff1673ffffffffffffffffffffffffffffffffffffffff1681526020019081526020015f205490505f60025f8973ffffffffffffffffffffffffffffffffffffffff1673ffffffffffffffffffffffffffffffffffffffff1681526020019081526020015f205490505f8203610fba57603291505b5f8103610fc657603290505b60028183610fd49190611cef565b610fde9190611d90565b925050505b5f8486610ff09190611cef565b90505f610ffc826114e6565b90506064600854828561100f9190611cef565b6110199190611d22565b6110239190611d90565b945061103b5f6064876115689092919063ffffffff16565b945050505050949350505050565b60015f9054906101000a900473ffffffffffffffffffffffffffffffffffffffff1681565b603281565b6110a0335f357fffffffff0000000000000000000000000000000000000000000000000000000016611319565b6110d6576040517f82b4290000000000000000000000000000000000000000000000000000000000815260040160405180910390fd5b6064818385876110e69190611cef565b6110f09190611cef565b6110fa9190611cef565b14611131576040517f585b926300000000000000000000000000000000000000000000000000000000815260040160405180910390fd5b60405180608001604052808581526020018481526020018381526020018281525060045f820151815f01556020820151816001015560408201518160020155606082015181600301559050507f5d3c7b528485e17fe0314971648177a48225c729bb2270e5426ad03876eb0889848484846040516111b29493929190611bb3565b60405180910390a150505050565b6003602052805f5260405f205f915090505481565b60085481565b5f5f9054906101000a900473ffffffffffffffffffffffffffffffffffffffff1673ffffffffffffffffffffffffffffffffffffffff163373ffffffffffffffffffffffffffffffffffffffff1614611260576040517f82b4290000000000000000000000000000000000000000000000000000000000815260040160405180910390fd5b805f5f6101000a81548173ffffffffffffffffffffffffffffffffffffffff021916908373ffffffffffffffffffffffffffffffffffffffff1602179055508073ffffffffffffffffffffffffffffffffffffffff163373ffffffffffffffffffffffffffffffffffffffff167f8be0079c531659141344cd1fd0a4f28419497f9722a3daafe3b4186f6b6457e060405160405180910390a350565b6004805f0154908060010154908060020154908060030154905084565b5f5f60015f9054906101000a900473ffffffffffffffffffffffffffffffffffffffff1690505f73ffffffffffffffffffffffffffffffffffffffff168173ffffffffffffffffffffffffffffffffffffffff16141580156113f357508073ffffffffffffffffffffffffffffffffffffffff1663b70096138530866040518463ffffffff1660e01b81526004016113b393929190611e27565b602060405180830381865afa1580156113ce573d5f5f3e3d5ffd5b505050506040513d601f19601f820116820180604052508101906113f29190611e91565b5b8061144957505f5f9054906101000a900473ffffffffffffffffffffffffffffffffffffffff1673ffffffffffffffffffffffffffffffffffffffff168473ffffffffffffffffffffffffffffffffffffffff16145b91505092915050565b5f8173ffffffffffffffffffffffffffffffffffffffff168373ffffffffffffffffffffffffffffffffffffffff16106114b4578183604051602001611499929190611f01565b604051602081830303815290604052805190602001206114de565b82826040516020016114c7929190611f01565b604051602081830303815290604052805190602001205b905092915050565b5f5f82036114f6575f9050611563565b670de0b6b3a764000082101561150e575f9050611563565b68056bc75e2d631000008210156115285760059050611563565b69021e19e0c9bab240000082101561154357600a9050611563565b69d3c21bcecceda100000082101561155e57600f9050611563565b601490505b919050565b5f8284106115845781841161157d578361157f565b815b611586565b825b90509392505050565b5f5ffd5b5f5ffd5b5f73ffffffffffffffffffffffffffffffffffffffff82169050919050565b5f6115c082611597565b9050919050565b6115d0816115b6565b81146115da575f5ffd5b50565b5f813590506115eb816115c7565b92915050565b5f819050919050565b611603816115f1565b811461160d575f5ffd5b50565b5f8135905061161e816115fa565b92915050565b5f5f6040838503121561163a5761163961158f565b5b5f611647858286016115dd565b925050602061165885828601611610565b9150509250929050565b5f602082840312156116775761167661158f565b5b5f611684848285016115dd565b91505092915050565b611696816115f1565b82525050565b5f6020820190506116af5f83018461168d565b92915050565b5f5ffd5b5f5ffd5b5f5ffd5b5f5f83601f8401126116d6576116d56116b5565b5b8235905067ffffffffffffffff8111156116f3576116f26116b9565b5b60208301915083602082028301111561170f5761170e6116bd565b5b9250929050565b5f5f83601f84011261172b5761172a6116b5565b5b8235905067ffffffffffffffff811115611748576117476116b9565b5b602083019150836020820283011115611764576117636116bd565b5b9250929050565b5f5f5f5f604085870312156117835761178261158f565b5b5f85013567ffffffffffffffff8111156117a05761179f611593565b5b6117ac878288016116c1565b9450945050602085013567ffffffffffffffff8111156117cf576117ce611593565b5b6117db87828801611716565b925092505092959194509250565b5f5f5f60608486031215611800576117ff61158f565b5b5f61180d868287016115dd565b935050602061181e868287016115dd565b925050604061182f86828701611610565b9150509250925092565b5f6020828403121561184e5761184d61158f565b5b5f61185b84828501611610565b91505092915050565b5f5f5f6060848603121561187b5761187a61158f565b5b5f611888868287016115dd565b935050602061189986828701611610565b92505060406118aa86828701611610565b9150509250925092565b5f6118be826115b6565b9050919050565b6118ce816118b4565b81146118d8575f5ffd5b50565b5f813590506118e9816118c5565b92915050565b5f602082840312156119045761190361158f565b5b5f611911848285016118db565b91505092915050565b5f81519050919050565b5f82825260208201905092915050565b5f819050602082019050919050565b61194c816115f1565b82525050565b5f61195d8383611943565b60208301905092915050565b5f602082019050919050565b5f61197f8261191a565b6119898185611924565b935061199483611934565b805f5b838110156119c45781516119ab8882611952565b97506119b683611969565b925050600181019050611997565b5085935050505092915050565b5f6020820190508181035f8301526119e98184611975565b905092915050565b6119fa816115b6565b82525050565b5f602082019050611a135f8301846119f1565b92915050565b5f5f5f5f60808587031215611a3157611a3061158f565b5b5f611a3e878288016115dd565b9450506020611a4f878288016115dd565b9350506040611a6087828801611610565b9250506060611a7187828801611610565b91505092959194509250565b5f819050919050565b5f611aa0611a9b611a9684611597565b611a7d565b611597565b9050919050565b5f611ab182611a86565b9050919050565b5f611ac282611aa7565b9050919050565b611ad281611ab8565b82525050565b5f602082019050611aeb5f830184611ac9565b92915050565b5f5f5f5f60808587031215611b0957611b0861158f565b5b5f611b1687828801611610565b9450506020611b2787828801611610565b9350506040611b3887828801611610565b9250506060611b4987828801611610565b91505092959194509250565b5f819050919050565b611b6781611b55565b8114611b71575f5ffd5b50565b5f81359050611b8281611b5e565b92915050565b5f60208284031215611b9d57611b9c61158f565b5b5f611baa84828501611b74565b91505092915050565b5f608082019050611bc65f83018761168d565b611bd3602083018661168d565b611be0604083018561168d565b611bed606083018461168d565b95945050505050565b5f604082019050611c095f83018561168d565b611c16602083018461168d565b9392505050565b5f82825260208201905092915050565b7f4c454e4754485f4d49534d4154434800000000000000000000000000000000005f82015250565b5f611c61600f83611c1d565b9150611c6c82611c2d565b602082019050919050565b5f6020820190508181035f830152611c8e81611c55565b9050919050565b7f4e487b71000000000000000000000000000000000000000000000000000000005f52603260045260245ffd5b7f4e487b71000000000000000000000000000000000000000000000000000000005f52601160045260245ffd5b5f611cf9826115f1565b9150611d04836115f1565b9250828201905080821115611d1c57611d1b611cc2565b5b92915050565b5f611d2c826115f1565b9150611d37836115f1565b9250828202611d45816115f1565b91508282048414831517611d5c57611d5b611cc2565b5b5092915050565b7f4e487b71000000000000000000000000000000000000000000000000000000005f52601260045260245ffd5b5f611d9a826115f1565b9150611da5836115f1565b925082611db557611db4611d63565b5b828204905092915050565b7f4e487b71000000000000000000000000000000000000000000000000000000005f52604160045260245ffd5b5f7fffffffff0000000000000000000000000000000000000000000000000000000082169050919050565b611e2181611ded565b82525050565b5f606082019050611e3a5f8301866119f1565b611e4760208301856119f1565b611e546040830184611e18565b949350505050565b5f8115159050919050565b611e7081611e5c565b8114611e7a575f5ffd5b50565b5f81519050611e8b81611e67565b92915050565b5f60208284031215611ea657611ea561158f565b5b5f611eb384828501611e7d565b91505092915050565b5f8160601b9050919050565b5f611ed282611ebc565b9050919050565b5f611ee382611ec8565b9050919050565b611efb611ef6826115b6565b611ed9565b82525050565b5f611f0c8285611eea565b601482019150611f1c8284611eea565b601482019150819050939250505056fea2646970667358221220ef0166a23331515ac0dc46e5a8c74aa809b092b9b94cf564c532c8e79675c43864736f6c634300081e0033","linkReferences":{}},"methodIdentifiers":{"DEFAULT_RISK_SCORE()":"c5d8f766","MAX_RISK_SCORE()":"45f19131","MIN_RISK_SCORE()":"bc50caaf","authority()":"bf7e214f","batchSetTokenRiskScores(address[],uint256[])":"2a990315","evaluate(address,uint256,uint256)":"41a33c36","evaluateBatch(address[],uint256[])":"830fda32","evaluatePair(address,address,uint256,uint256)":"bf178ba4","globalRiskMultiplier()":"e6f0015c","owner()":"8da5cb5b","pairRiskScores(bytes32)":"d7b531f7","riskParams()":"fefb36ce","setAuthority(address)":"7a9e5e4b","setGlobalRiskMultiplier(uint256)":"3112d242","setPairRiskScore(address,address,uint256)":"2ac18709","setRiskParams(uint256,uint256,uint256,uint256)":"d7376af3","setTokenRiskScore(address,uint256)":"035f5183","tokenRiskScores(address)":"1341f5af","transferOwnership(address)":"f2fde38b"},"id":40}