{"abi":[{"type":"constructor","inputs":[{"name":"_owner","type":"address","internalType":"address"},{"name":"_authority","type":"address","internalType":"contract Authority"}],"stateMutability":"nonpayable"},{"type":"function","name":"authority","inputs":[],"outputs":[{"name":"","type":"address","internalType":"contract Authority"}],"stateMutability":"view"},{"type":"function","name":"blacklist","inputs":[{"name":"account","type":"address","internalType":"address"}],"outputs":[],"stateMutability":"nonpayable"},{"type":"function","name":"canCall","inputs":[{"name":"user","type":"address","internalType":"address"},{"name":"target","type":"address","internalType":"address"},{"name":"functionSig","type":"bytes4","internalType":"bytes4"}],"outputs":[{"name":"","type":"bool","internalType":"bool"}],"stateMutability":"view"},{"type":"function","name":"checkBlacklisted","inputs":[{"name":"account","type":"address","internalType":"address"}],"outputs":[{"name":"","type":"bool","internalType":"bool"}],"stateMutability":"view"},{"type":"function","name":"doesRoleHaveCapability","inputs":[{"name":"role","type":"uint8","internalType":"uint8"},{"name":"target","type":"address","internalType":"address"},{"name":"functionSig","type":"bytes4","internalType":"bytes4"}],"outputs":[{"name":"","type":"bool","internalType":"bool"}],"stateMutability":"view"},{"type":"function","name":"doesUserHaveRole","inputs":[{"name":"user","type":"address","internalType":"address"},{"name":"role","type":"uint8","internalType":"uint8"}],"outputs":[{"name":"","type":"bool","internalType":"bool"}],"stateMutability":"view"},{"type":"function","name":"getRolesWithCapability","inputs":[{"name":"","type":"address","internalType":"address"},{"name":"","type":"bytes4","internalType":"bytes4"}],"outputs":[{"name":"","type":"bytes32","internalType":"bytes32"}],"stateMutability":"view"},{"type":"function","name":"getUserRoles","inputs":[{"name":"","type":"address","internalType":"address"}],"outputs":[{"name":"","type":"bytes32","internalType":"bytes32"}],"stateMutability":"view"},{"type":"function","name":"isBlacklisted","inputs":[{"name":"","type":"address","internalType":"address"}],"outputs":[{"name":"","type":"bool","internalType":"bool"}],"stateMutability":"view"},{"type":"function","name":"isCapabilityPublic","inputs":[{"name":"","type":"address","internalType":"address"},{"name":"","type":"bytes4","internalType":"bytes4"}],"outputs":[{"name":"","type":"bool","internalType":"bool"}],"stateMutability":"view"},{"type":"function","name":"originalOwner","inputs":[],"outputs":[{"name":"","type":"address","internalType":"address"}],"stateMutability":"view"},{"type":"function","name":"owner","inputs":[],"outputs":[{"name":"","type":"address","internalType":"address"}],"stateMutability":"view"},{"type":"function","name":"roleGrantCount","inputs":[],"outputs":[{"name":"","type":"uint256","internalType":"uint256"}],"stateMutability":"view"},{"type":"function","name":"setAuthority","inputs":[{"name":"newAuthority","type":"address","internalType":"contract Authority"}],"outputs":[],"stateMutability":"nonpayable"},{"type":"function","name":"setPublicCapability","inputs":[{"name":"target","type":"address","internalType":"address"},{"name":"functionSig","type":"bytes4","internalType":"bytes4"},{"name":"enabled","type":"bool","internalType":"bool"}],"outputs":[],"stateMutability":"nonpayable"},{"type":"function","name":"setRoleCapability","inputs":[{"name":"role","type":"uint8","internalType":"uint8"},{"name":"target","type":"address","internalType":"address"},{"name":"functionSig","type":"bytes4","internalType":"bytes4"},{"name":"enabled","type":"bool","internalType":"bool"}],"outputs":[],"stateMutability":"nonpayable"},{"type":"function","name":"setUserRole","inputs":[{"name":"user","type":"address","internalType":"address"},{"name":"role","type":"uint8","internalType":"uint8"},{"name":"enabled","type":"bool","internalType":"bool"}],"outputs":[],"stateMutability":"nonpayable"},{"type":"function","name":"simulateExternalCall","inputs":[{"name":"target","type":"address","internalType":"address"}],"outputs":[],"stateMutability":"nonpayable"},{"type":"function","name":"transferOwnership","inputs":[{"name":"newOwner","type":"address","internalType":"address"}],"outputs":[],"stateMutability":"nonpayable"},{"type":"function","name":"verifyOwnershipInvariant","inputs":[],"outputs":[],"stateMutability":"view"},{"type":"function","name":"verifyOwnershipTransfer","inputs":[{"name":"newOwner","type":"address","internalType":"address"}],"outputs":[],"stateMutability":"view"},{"type":"function","name":"verifyP0_DepositorCannotRedeem","inputs":[{"name":"vaultAddress","type":"address","internalType":"address"},{"name":"redeemSelector","type":"bytes4","internalType":"bytes4"}],"outputs":[],"stateMutability":"view"},{"type":"function","name":"verifyP0_DepositorCannotWithdraw","inputs":[{"name":"vaultAddress","type":"address","internalType":"address"},{"name":"withdrawSelector","type":"bytes4","internalType":"bytes4"}],"outputs":[],"stateMutability":"view"},{"type":"function","name":"verifyP0_PauseRestriction","inputs":[{"name":"vaultAddress","type":"address","internalType":"address"},{"name":"pauseSelector","type":"bytes4","internalType":"bytes4"}],"outputs":[],"stateMutability":"view"},{"type":"function","name":"verifyP1_ArbitrageManagerNoWithdraw","inputs":[{"name":"vaultAddress","type":"address","internalType":"address"},{"name":"withdrawSelector","type":"bytes4","internalType":"bytes4"}],"outputs":[],"stateMutability":"view"},{"type":"function","name":"verifyP1_ExecutorNoWhitelist","inputs":[{"name":"mevProtectorAddress","type":"address","internalType":"address"},{"name":"setWhitelistSelector","type":"bytes4","internalType":"bytes4"}],"outputs":[],"stateMutability":"view"},{"type":"function","name":"verifyP1_FeeUpdaterNoPause","inputs":[{"name":"vaultAddress","type":"address","internalType":"address"},{"name":"pauseSelector","type":"bytes4","internalType":"bytes4"}],"outputs":[],"stateMutability":"view"},{"type":"event","name":"AuthorityUpdated","inputs":[{"name":"user","type":"address","indexed":true,"internalType":"address"},{"name":"newAuthority","type":"address","indexed":true,"internalType":"contract Authority"}],"anonymous":false},{"type":"event","name":"OwnershipTransferred","inputs":[{"name":"user","type":"address","indexed":true,"internalType":"address"},{"name":"newOwner","type":"address","indexed":true,"internalType":"address"}],"anonymous":false},{"type":"event","name":"PublicCapabilityUpdated","inputs":[{"name":"target","type":"address","indexed":true,"internalType":"address"},{"name":"functionSig","type":"bytes4","indexed":true,"internalType":"bytes4"},{"name":"enabled","type":"bool","indexed":false,"internalType":"bool"}],"anonymous":false},{"type":"event","name":"RoleCapabilityUpdated","inputs":[{"name":"role","type":"uint8","indexed":true,"internalType":"uint8"},{"name":"target","type":"address","indexed":true,"internalType":"address"},{"name":"functionSig","type":"bytes4","indexed":true,"internalType":"bytes4"},{"name":"enabled","type":"bool","indexed":false,"internalType":"bool"}],"anonymous":false},{"type":"event","name":"UserRoleUpdated","inputs":[{"name":"user","type":"address","indexed":true,"internalType":"address"},{"name":"role","type":"uint8","indexed":true,"internalType":"uint8"},{"name":"enabled","type":"bool","indexed":false,"internalType":"bool"}],"anonymous":false},{"type":"error","name":"Unauthorized","inputs":[]}],"bytecode":{"object":"0x60a060405234801561000f575f5ffd5b50604051612acf380380612acf8339818101604052810190610031919061029c565b81818181815f5f6101000a81548173ffffffffffffffffffffffffffffffffffffffff021916908373ffffffffffffffffffffffffffffffffffffffff1602179055508060015f6101000a81548173ffffffffffffffffffffffffffffffffffffffff021916908373ffffffffffffffffffffffffffffffffffffffff1602179055508173ffffffffffffffffffffffffffffffffffffffff165f73ffffffffffffffffffffffffffffffffffffffff167f8be0079c531659141344cd1fd0a4f28419497f9722a3daafe3b4186f6b6457e060405160405180910390a38073ffffffffffffffffffffffffffffffffffffffff165f73ffffffffffffffffffffffffffffffffffffffff167fa3396fd7f6e0a21b50e5089d2da70d5ac0a3bbbd1f617a93f134b7638998019860405160405180910390a3505050508173ffffffffffffffffffffffffffffffffffffffff1660808173ffffffffffffffffffffffffffffffffffffffff16815250508173ffffffffffffffffffffffffffffffffffffffff165f5f9054906101000a900473ffffffffffffffffffffffffffffffffffffffff1673ffffffffffffffffffffffffffffffffffffffff16146101fc576101fb6102da565b5b5050610307565b5f5ffd5b5f73ffffffffffffffffffffffffffffffffffffffff82169050919050565b5f61023082610207565b9050919050565b61024081610226565b811461024a575f5ffd5b50565b5f8151905061025b81610237565b92915050565b5f61026b82610226565b9050919050565b61027b81610261565b8114610285575f5ffd5b50565b5f8151905061029681610272565b92915050565b5f5f604083850312156102b2576102b1610203565b5b5f6102bf8582860161024d565b92505060206102d085828601610288565b9150509250929050565b7f4e487b71000000000000000000000000000000000000000000000000000000005f52600160045260245ffd5b6080516127b061031f5f395f61172001526127b05ff3fe608060405234801561000f575f5ffd5b50600436106101a7575f3560e01c80638da5cb5b116100f7578063ea7ca27611610095578063f2fde38b1161006f578063f2fde38b146104b1578063f9f92be4146104cd578063fe575a87146104e9578063fed0f76c14610519576101a7565b8063ea7ca27614610447578063ebb7649414610477578063f1fffdcb14610493576101a7565b8063b7009613116100d1578063b7009613146103c1578063b990bb34146103f1578063bf7e214f1461040d578063c6b0263e1461042b576101a7565b80638da5cb5b14610357578063b4bad06a14610375578063b5535919146103a5576101a7565b806367aff48411610164578063772a5cc21161013e578063772a5cc2146102e55780637917b794146102ef5780637a9e5e4b1461031f5780637d40583d1461033b576101a7565b806367aff4841461027b5780636a8d73411461029757806371fb7493146102b5576101a7565b806306a36aee146101ab5780631a80d6cd146101db5780631b832d17146101f7578063249395f3146102135780632f47571f1461022f57806336e5aab61461025f575b5f5ffd5b6101c560048036038101906101c09190611f66565b610535565b6040516101d29190611fa9565b60405180910390f35b6101f560048036038101906101f09190612017565b61054a565b005b610211600480360381019061020c9190611f66565b6105fe565b005b61022d60048036038101906102289190612017565b610756565b005b61024960048036038101906102449190612017565b61080a565b604051610256919061206f565b60405180910390f35b61027960048036038101906102749190612017565b610834565b005b610295600480360381019061029091906120e8565b6108fc565b005b61029f610bca565b6040516102ac9190612150565b60405180910390f35b6102cf60048036038101906102ca9190611f66565b610bd0565b6040516102dc919061206f565b60405180910390f35b6102ed610c22565b005b61030960048036038101906103049190612017565b610c80565b6040516103169190611fa9565b60405180910390f35b610339600480360381019061033491906121a4565b610ca0565b005b610355600480360381019061035091906121cf565b610dc2565b005b61035f610fea565b60405161036c9190612242565b60405180910390f35b61038f600480360381019061038a919061225b565b61100e565b60405161039c919061206f565b60405180910390f35b6103bf60048036038101906103ba9190612017565b6110b1565b005b6103db60048036038101906103d691906122ab565b611165565b6040516103e8919061206f565b60405180910390f35b61040b60048036038101906104069190611f66565b61136f565b005b610415611479565b6040516104229190612356565b60405180910390f35b6104456004803603810190610440919061236f565b61149e565b005b610461600480360381019061045c91906123bf565b611615565b60405161046e919061206f565b60405180910390f35b610491600480360381019061048c9190612017565b61166a565b005b61049b61171e565b6040516104a89190612242565b60405180910390f35b6104cb60048036038101906104c69190611f66565b611742565b005b6104e760048036038101906104e29190611f66565b611863565b005b61050360048036038101906104fe9190611f66565b611a1a565b604051610510919061206f565b60405180910390f35b610533600480360381019061052e9190612017565b611a37565b005b6002602052805f5260405f205f915090505481565b5f60045f8473ffffffffffffffffffffffffffffffffffffffff1673ffffffffffffffffffffffffffffffffffffffff1681526020019081526020015f205f837bffffffffffffffffffffffffffffffffffffffffffffffffffffffff19167bffffffffffffffffffffffffffffffffffffffffffffffffffffffff191681526020019081526020015f205490505f600960ff166001901b90505f81835f1c16146105f8576105f76123fd565b5b50505050565b5f60025f3373ffffffffffffffffffffffffffffffffffffffff1673ffffffffffffffffffffffffffffffffffffffff1681526020019081526020015f205490505f60055f3373ffffffffffffffffffffffffffffffffffffffff1673ffffffffffffffffffffffffffffffffffffffff1681526020019081526020015f205f9054906101000a900460ff1690505f8373ffffffffffffffffffffffffffffffffffffffff166040516106b090612457565b5f604051808303815f865af19150503d805f81146106e9576040519150601f19603f3d011682016040523d82523d5f602084013e6106ee565b606091505b5050905081156107505760055f3373ffffffffffffffffffffffffffffffffffffffff1673ffffffffffffffffffffffffffffffffffffffff1681526020019081526020015f205f9054906101000a900460ff1661074f5761074e6123fd565b5b5b50505050565b5f60045f8473ffffffffffffffffffffffffffffffffffffffff1673ffffffffffffffffffffffffffffffffffffffff1681526020019081526020015f205f837bffffffffffffffffffffffffffffffffffffffffffffffffffffffff19167bffffffffffffffffffffffffffffffffffffffffffffffffffffffff191681526020019081526020015f205490505f600260ff166001901b90505f81835f1c1614610804576108036123fd565b5b50505050565b6003602052815f5260405f20602052805f5260405f205f915091509054906101000a900460ff1681565b5f60045f8473ffffffffffffffffffffffffffffffffffffffff1673ffffffffffffffffffffffffffffffffffffffff1681526020019081526020015f205f837bffffffffffffffffffffffffffffffffffffffffffffffffffffffff19167bffffffffffffffffffffffffffffffffffffffffffffffffffffffff191681526020019081526020015f205490505f5f60ff166001901b90505f600860ff166001901b90505f81831790505f8119855f1c16146108f4576108f36123fd565b5b505050505050565b610929335f357fffffffff0000000000000000000000000000000000000000000000000000000016611aeb565b61095f576040517f82b4290000000000000000000000000000000000000000000000000000000000815260040160405180910390fd5b80156109f05760055f8473ffffffffffffffffffffffffffffffffffffffff1673ffffffffffffffffffffffffffffffffffffffff1681526020019081526020015f205f9054906101000a900460ff16156109ef576040517f08c379a00000000000000000000000000000000000000000000000000000000081526004016109e6906124c5565b60405180910390fd5b5b5f60025f8573ffffffffffffffffffffffffffffffffffffffff1673ffffffffffffffffffffffffffffffffffffffff1681526020019081526020015f20549050610a3c848484611c24565b60055f8573ffffffffffffffffffffffffffffffffffffffff1673ffffffffffffffffffffffffffffffffffffffff1681526020019081526020015f205f9054906101000a900460ff161580610ad057505f5f1b60025f8673ffffffffffffffffffffffffffffffffffffffff1673ffffffffffffffffffffffffffffffffffffffff1681526020019081526020015f2054145b610add57610adc6123fd565b5b8115610b41575f8360ff166001901b5f1b9050808160025f8873ffffffffffffffffffffffffffffffffffffffff1673ffffffffffffffffffffffffffffffffffffffff1681526020019081526020015f20541614610b3f57610b3e6123fd565b5b505b81610ba6575f8360ff166001901b5f1b90505f5f1b8160025f8873ffffffffffffffffffffffffffffffffffffffff1673ffffffffffffffffffffffffffffffffffffffff1681526020019081526020015f20541614610ba457610ba36123fd565b5b505b8115610bc45760065f815480929190610bbe90612510565b91905055505b50505050565b60065481565b5f60055f8373ffffffffffffffffffffffffffffffffffffffff1673ffffffffffffffffffffffffffffffffffffffff1681526020019081526020015f205f9054906101000a900460ff169050919050565b5f73ffffffffffffffffffffffffffffffffffffffff165f5f9054906101000a900473ffffffffffffffffffffffffffffffffffffffff1673ffffffffffffffffffffffffffffffffffffffff1603610c7e57610c7d6123fd565b5b565b6004602052815f5260405f20602052805f5260405f205f91509150505481565b5f5f9054906101000a900473ffffffffffffffffffffffffffffffffffffffff1673ffffffffffffffffffffffffffffffffffffffff163373ffffffffffffffffffffffffffffffffffffffff1614610d25576040517f82b4290000000000000000000000000000000000000000000000000000000000815260040160405180910390fd5b8060015f6101000a81548173ffffffffffffffffffffffffffffffffffffffff021916908373ffffffffffffffffffffffffffffffffffffffff1602179055508073ffffffffffffffffffffffffffffffffffffffff163373ffffffffffffffffffffffffffffffffffffffff167fa3396fd7f6e0a21b50e5089d2da70d5ac0a3bbbd1f617a93f134b7638998019860405160405180910390a350565b610def335f357fffffffff0000000000000000000000000000000000000000000000000000000016611aeb565b610e25576040517f82b4290000000000000000000000000000000000000000000000000000000000815260040160405180910390fd5b8015610ed0578360ff166001901b5f1b60045f8573ffffffffffffffffffffffffffffffffffffffff1673ffffffffffffffffffffffffffffffffffffffff1681526020019081526020015f205f847bffffffffffffffffffffffffffffffffffffffffffffffffffffffff19167bffffffffffffffffffffffffffffffffffffffffffffffffffffffff191681526020019081526020015f205f8282541792505081905550610f72565b8360ff166001901b5f1b1960045f8573ffffffffffffffffffffffffffffffffffffffff1673ffffffffffffffffffffffffffffffffffffffff1681526020019081526020015f205f847bffffffffffffffffffffffffffffffffffffffffffffffffffffffff19167bffffffffffffffffffffffffffffffffffffffffffffffffffffffff191681526020019081526020015f205f82825416925050819055505b817bffffffffffffffffffffffffffffffffffffffffffffffffffffffff19168373ffffffffffffffffffffffffffffffffffffffff168560ff167fa52ea92e6e955aa8ac66420b86350f7139959adfcc7e6a14eee1bd116d09860e84604051610fdc919061206f565b60405180910390a450505050565b5f5f9054906101000a900473ffffffffffffffffffffffffffffffffffffffff1681565b5f5f60018560ff1660045f8773ffffffffffffffffffffffffffffffffffffffff1673ffffffffffffffffffffffffffffffffffffffff1681526020019081526020015f205f867bffffffffffffffffffffffffffffffffffffffffffffffffffffffff19167bffffffffffffffffffffffffffffffffffffffffffffffffffffffff191681526020019081526020015f20545f1c901c16141590509392505050565b5f60045f8473ffffffffffffffffffffffffffffffffffffffff1673ffffffffffffffffffffffffffffffffffffffff1681526020019081526020015f205f837bffffffffffffffffffffffffffffffffffffffffffffffffffffffff19167bffffffffffffffffffffffffffffffffffffffffffffffffffffffff191681526020019081526020015f205490505f600760ff166001901b90505f81835f1c161461115f5761115e6123fd565b5b50505050565b5f5f611172858585611d91565b90505f5f1b60025f8773ffffffffffffffffffffffffffffffffffffffff1673ffffffffffffffffffffffffffffffffffffffff1681526020019081526020015f2054036112655760035f8573ffffffffffffffffffffffffffffffffffffffff1673ffffffffffffffffffffffffffffffffffffffff1681526020019081526020015f205f847bffffffffffffffffffffffffffffffffffffffffffffffffffffffff19167bffffffffffffffffffffffffffffffffffffffffffffffffffffffff191681526020019081526020015f205f9054906101000a900460ff16151581151514611264576112636123fd565b5b5b60055f8673ffffffffffffffffffffffffffffffffffffffff1673ffffffffffffffffffffffffffffffffffffffff1681526020019081526020015f205f9054906101000a900460ff16801561134f575060035f8573ffffffffffffffffffffffffffffffffffffffff1673ffffffffffffffffffffffffffffffffffffffff1681526020019081526020015f205f847bffffffffffffffffffffffffffffffffffffffffffffffffffffffff19167bffffffffffffffffffffffffffffffffffffffffffffffffffffffff191681526020019081526020015f205f9054906101000a900460ff16155b15611364578015611363576113626123fd565b5b5b809150509392505050565b60055f8273ffffffffffffffffffffffffffffffffffffffff1673ffffffffffffffffffffffffffffffffffffffff1681526020019081526020015f205f9054906101000a900460ff16156113f9576040517f08c379a00000000000000000000000000000000000000000000000000000000081526004016113f0906125a1565b60405180910390fd5b5f73ffffffffffffffffffffffffffffffffffffffff168173ffffffffffffffffffffffffffffffffffffffff1603611467576040517f08c379a000000000000000000000000000000000000000000000000000000000815260040161145e90612609565b60405180910390fd5b6001611476576114756123fd565b5b50565b60015f9054906101000a900473ffffffffffffffffffffffffffffffffffffffff1681565b6114cb335f357fffffffff0000000000000000000000000000000000000000000000000000000016611aeb565b611501576040517f82b4290000000000000000000000000000000000000000000000000000000000815260040160405180910390fd5b8060035f8573ffffffffffffffffffffffffffffffffffffffff1673ffffffffffffffffffffffffffffffffffffffff1681526020019081526020015f205f847bffffffffffffffffffffffffffffffffffffffffffffffffffffffff19167bffffffffffffffffffffffffffffffffffffffffffffffffffffffff191681526020019081526020015f205f6101000a81548160ff021916908315150217905550817bffffffffffffffffffffffffffffffffffffffffffffffffffffffff19168373ffffffffffffffffffffffffffffffffffffffff167f950a343f5d10445e82a71036d3f4fb3016180a25805141932543b83e2078a93e83604051611608919061206f565b60405180910390a3505050565b5f5f60018360ff1660025f8773ffffffffffffffffffffffffffffffffffffffff1673ffffffffffffffffffffffffffffffffffffffff1681526020019081526020015f20545f1c901c161415905092915050565b5f60045f8473ffffffffffffffffffffffffffffffffffffffff1673ffffffffffffffffffffffffffffffffffffffff1681526020019081526020015f205f837bffffffffffffffffffffffffffffffffffffffffffffffffffffffff19167bffffffffffffffffffffffffffffffffffffffffffffffffffffffff191681526020019081526020015f205490505f600160ff166001901b90505f81835f1c1614611718576117176123fd565b5b50505050565b7f000000000000000000000000000000000000000000000000000000000000000081565b5f5f9054906101000a900473ffffffffffffffffffffffffffffffffffffffff1673ffffffffffffffffffffffffffffffffffffffff163373ffffffffffffffffffffffffffffffffffffffff16146117c7576040517f82b4290000000000000000000000000000000000000000000000000000000000815260040160405180910390fd5b805f5f6101000a81548173ffffffffffffffffffffffffffffffffffffffff021916908373ffffffffffffffffffffffffffffffffffffffff1602179055508073ffffffffffffffffffffffffffffffffffffffff163373ffffffffffffffffffffffffffffffffffffffff167f8be0079c531659141344cd1fd0a4f28419497f9722a3daafe3b4186f6b6457e060405160405180910390a350565b611890335f357fffffffff0000000000000000000000000000000000000000000000000000000016611aeb565b6118c6576040517f82b4290000000000000000000000000000000000000000000000000000000000815260040160405180910390fd5b5f5f9054906101000a900473ffffffffffffffffffffffffffffffffffffffff1673ffffffffffffffffffffffffffffffffffffffff168173ffffffffffffffffffffffffffffffffffffffff1603611954576040517f08c379a000000000000000000000000000000000000000000000000000000000815260040161194b90612671565b60405180910390fd5b5f73ffffffffffffffffffffffffffffffffffffffff168173ffffffffffffffffffffffffffffffffffffffff16036119c2576040517f08c379a00000000000000000000000000000000000000000000000000000000081526004016119b9906126d9565b60405180910390fd5b600160055f8373ffffffffffffffffffffffffffffffffffffffff1673ffffffffffffffffffffffffffffffffffffffff1681526020019081526020015f205f6101000a81548160ff02191690831515021790555050565b6005602052805f5260405f205f915054906101000a900460ff1681565b5f60045f8473ffffffffffffffffffffffffffffffffffffffff1673ffffffffffffffffffffffffffffffffffffffff1681526020019081526020015f205f837bffffffffffffffffffffffffffffffffffffffffffffffffffffffff19167bffffffffffffffffffffffffffffffffffffffffffffffffffffffff191681526020019081526020015f205490505f600760ff166001901b90505f81835f1c1614611ae557611ae46123fd565b5b50505050565b5f5f60015f9054906101000a900473ffffffffffffffffffffffffffffffffffffffff1690505f73ffffffffffffffffffffffffffffffffffffffff168173ffffffffffffffffffffffffffffffffffffffff1614158015611bc557508073ffffffffffffffffffffffffffffffffffffffff1663b70096138530866040518463ffffffff1660e01b8152600401611b8593929190612706565b602060405180830381865afa158015611ba0573d5f5f3e3d5ffd5b505050506040513d601f19601f82011682018060405250810190611bc4919061274f565b5b80611c1b57505f5f9054906101000a900473ffffffffffffffffffffffffffffffffffffffff1673ffffffffffffffffffffffffffffffffffffffff168473ffffffffffffffffffffffffffffffffffffffff16145b91505092915050565b611c51335f357fffffffff0000000000000000000000000000000000000000000000000000000016611aeb565b611c87576040517f82b4290000000000000000000000000000000000000000000000000000000000815260040160405180910390fd5b8015611ce5578160ff166001901b5f1b60025f8573ffffffffffffffffffffffffffffffffffffffff1673ffffffffffffffffffffffffffffffffffffffff1681526020019081526020015f205f8282541792505081905550611d3a565b8160ff166001901b5f1b1960025f8573ffffffffffffffffffffffffffffffffffffffff1673ffffffffffffffffffffffffffffffffffffffff1681526020019081526020015f205f82825416925050819055505b8160ff168373ffffffffffffffffffffffffffffffffffffffff167f4c9bdd0c8e073eb5eda2250b18d8e5121ff27b62064fbeeeed4869bb99bc5bf283604051611d84919061206f565b60405180910390a3505050565b5f60035f8473ffffffffffffffffffffffffffffffffffffffff1673ffffffffffffffffffffffffffffffffffffffff1681526020019081526020015f205f837bffffffffffffffffffffffffffffffffffffffffffffffffffffffff19167bffffffffffffffffffffffffffffffffffffffffffffffffffffffff191681526020019081526020015f205f9054906101000a900460ff1680611eff575060045f8473ffffffffffffffffffffffffffffffffffffffff1673ffffffffffffffffffffffffffffffffffffffff1681526020019081526020015f205f837bffffffffffffffffffffffffffffffffffffffffffffffffffffffff19167bffffffffffffffffffffffffffffffffffffffffffffffffffffffff191681526020019081526020015f205460025f8673ffffffffffffffffffffffffffffffffffffffff1673ffffffffffffffffffffffffffffffffffffffff1681526020019081526020015f2054165f5f1b14155b90509392505050565b5f5ffd5b5f73ffffffffffffffffffffffffffffffffffffffff82169050919050565b5f611f3582611f0c565b9050919050565b611f4581611f2b565b8114611f4f575f5ffd5b50565b5f81359050611f6081611f3c565b92915050565b5f60208284031215611f7b57611f7a611f08565b5b5f611f8884828501611f52565b91505092915050565b5f819050919050565b611fa381611f91565b82525050565b5f602082019050611fbc5f830184611f9a565b92915050565b5f7fffffffff0000000000000000000000000000000000000000000000000000000082169050919050565b611ff681611fc2565b8114612000575f5ffd5b50565b5f8135905061201181611fed565b92915050565b5f5f6040838503121561202d5761202c611f08565b5b5f61203a85828601611f52565b925050602061204b85828601612003565b9150509250929050565b5f8115159050919050565b61206981612055565b82525050565b5f6020820190506120825f830184612060565b92915050565b5f60ff82169050919050565b61209d81612088565b81146120a7575f5ffd5b50565b5f813590506120b881612094565b92915050565b6120c781612055565b81146120d1575f5ffd5b50565b5f813590506120e2816120be565b92915050565b5f5f5f606084860312156120ff576120fe611f08565b5b5f61210c86828701611f52565b935050602061211d868287016120aa565b925050604061212e868287016120d4565b9150509250925092565b5f819050919050565b61214a81612138565b82525050565b5f6020820190506121635f830184612141565b92915050565b5f61217382611f2b565b9050919050565b61218381612169565b811461218d575f5ffd5b50565b5f8135905061219e8161217a565b92915050565b5f602082840312156121b9576121b8611f08565b5b5f6121c684828501612190565b91505092915050565b5f5f5f5f608085870312156121e7576121e6611f08565b5b5f6121f4878288016120aa565b945050602061220587828801611f52565b935050604061221687828801612003565b9250506060612227878288016120d4565b91505092959194509250565b61223c81611f2b565b82525050565b5f6020820190506122555f830184612233565b92915050565b5f5f5f6060848603121561227257612271611f08565b5b5f61227f868287016120aa565b935050602061229086828701611f52565b92505060406122a186828701612003565b9150509250925092565b5f5f5f606084860312156122c2576122c1611f08565b5b5f6122cf86828701611f52565b93505060206122e086828701611f52565b92505060406122f186828701612003565b9150509250925092565b5f819050919050565b5f61231e61231961231484611f0c565b6122fb565b611f0c565b9050919050565b5f61232f82612304565b9050919050565b5f61234082612325565b9050919050565b61235081612336565b82525050565b5f6020820190506123695f830184612347565b92915050565b5f5f5f6060848603121561238657612385611f08565b5b5f61239386828701611f52565b93505060206123a486828701612003565b92505060406123b5868287016120d4565b9150509250925092565b5f5f604083850312156123d5576123d4611f08565b5b5f6123e285828601611f52565b92505060206123f3858286016120aa565b9150509250929050565b7f4e487b71000000000000000000000000000000000000000000000000000000005f52600160045260245ffd5b5f81905092915050565b50565b5f6124425f8361242a565b915061244d82612434565b5f82019050919050565b5f61246182612437565b9150819050919050565b5f82825260208201905092915050565b7f555345525f424c41434b4c4953544544000000000000000000000000000000005f82015250565b5f6124af60108361246b565b91506124ba8261247b565b602082019050919050565b5f6020820190508181035f8301526124dc816124a3565b9050919050565b7f4e487b71000000000000000000000000000000000000000000000000000000005f52601160045260245ffd5b5f61251a82612138565b91507fffffffffffffffffffffffffffffffffffffffffffffffffffffffffffffffff820361254c5761254b6124e3565b5b600182019050919050565b7f4e45575f4f574e45525f424c41434b4c495354454400000000000000000000005f82015250565b5f61258b60158361246b565b915061259682612557565b602082019050919050565b5f6020820190508181035f8301526125b88161257f565b9050919050565b7f5a45524f5f4f574e4552000000000000000000000000000000000000000000005f82015250565b5f6125f3600a8361246b565b91506125fe826125bf565b602082019050919050565b5f6020820190508181035f830152612620816125e7565b9050919050565b7f43414e4e4f545f424c41434b4c4953545f4f574e4552000000000000000000005f82015250565b5f61265b60168361246b565b915061266682612627565b602082019050919050565b5f6020820190508181035f8301526126888161264f565b9050919050565b7f5a45524f5f4144445245535300000000000000000000000000000000000000005f82015250565b5f6126c3600c8361246b565b91506126ce8261268f565b602082019050919050565b5f6020820190508181035f8301526126f0816126b7565b9050919050565b61270081611fc2565b82525050565b5f6060820190506127195f830186612233565b6127266020830185612233565b61273360408301846126f7565b949350505050565b5f81519050612749816120be565b92915050565b5f6020828403121561276457612763611f08565b5b5f6127718482850161273b565b9150509291505056fea26469706673582212205c98600a639e72e8520a06e3615c2126b58dd93411b22940367e281ceefae0dc64736f6c634300081e0033","linkReferences":{}},"methodIdentifiers":{"authority()":"bf7e214f","blacklist(address)":"f9f92be4","canCall(address,address,bytes4)":"b7009613","checkBlacklisted(address)":"71fb7493","doesRoleHaveCapability(uint8,address,bytes4)":"b4bad06a","doesUserHaveRole(address,uint8)":"ea7ca276","getRolesWithCapability(address,bytes4)":"7917b794","getUserRoles(address)":"06a36aee","isBlacklisted(address)":"fe575a87","isCapabilityPublic(address,bytes4)":"2f47571f","originalOwner()":"f1fffdcb","owner()":"8da5cb5b","roleGrantCount()":"6a8d7341","setAuthority(address)":"7a9e5e4b","setPublicCapability(address,bytes4,bool)":"c6b0263e","setRoleCapability(uint8,address,bytes4,bool)":"7d40583d","setUserRole(address,uint8,bool)":"67aff484","simulateExternalCall(address)":"1b832d17","transferOwnership(address)":"f2fde38b","verifyOwnershipInvariant()":"772a5cc2","verifyOwnershipTransfer(address)":"b990bb34","verifyP0_DepositorCannotRedeem(address,bytes4)":"b5535919","verifyP0_DepositorCannotWithdraw(address,bytes4)":"fed0f76c","verifyP0_PauseRestriction(address,bytes4)":"36e5aab6","verifyP1_ArbitrageManagerNoWithdraw(address,bytes4)":"249395f3","verifyP1_ExecutorNoWhitelist(address,bytes4)":"ebb76494","verifyP1_FeeUpdaterNoPause(address,bytes4)":"1a80d6cd"},"id":41}