{"abi":[{"type":"constructor","inputs":[{"name":"_owner","type":"address","internalType":"address"},{"name":"_authority","type":"address","internalType":"contract Authority"}],"stateMutability":"nonpayable"},{"type":"function","name":"CONFIG_TIMELOCK","inputs":[],"outputs":[{"name":"","type":"uint256","internalType":"uint256"}],"stateMutability":"view"},{"type":"function","name":"authority","inputs":[],"outputs":[{"name":"","type":"address","internalType":"contract Authority"}],"stateMutability":"view"},{"type":"function","name":"cancelPendingConfig","inputs":[{"name":"chainId","type":"uint256","internalType":"uint256"}],"outputs":[],"stateMutability":"nonpayable"},{"type":"function","name":"chainConfigs","inputs":[{"name":"","type":"uint256","internalType":"uint256"}],"outputs":[{"name":"bridge","type":"address","internalType":"address"},{"name":"minAmount","type":"uint256","internalType":"uint256"},{"name":"maxAmount","type":"uint256","internalType":"uint256"},{"name":"active","type":"bool","internalType":"bool"}],"stateMutability":"view"},{"type":"function","name":"dailyVolume","inputs":[{"name":"","type":"uint256","internalType":"uint256"}],"outputs":[{"name":"","type":"uint256","internalType":"uint256"}],"stateMutability":"view"},{"type":"function","name":"dailyVolumeLimit","inputs":[{"name":"","type":"uint256","internalType":"uint256"}],"outputs":[{"name":"","type":"uint256","internalType":"uint256"}],"stateMutability":"view"},{"type":"function","name":"executeChainConfig","inputs":[{"name":"chainId","type":"uint256","internalType":"uint256"}],"outputs":[],"stateMutability":"nonpayable"},{"type":"function","name":"executeCrossChainTrade","inputs":[{"name":"chainId","type":"uint256","internalType":"uint256"},{"name":"token","type":"address","internalType":"address"},{"name":"amount","type":"uint256","internalType":"uint256"},{"name":"bridgeData","type":"bytes","internalType":"bytes"}],"outputs":[{"name":"messageId","type":"bytes32","internalType":"bytes32"}],"stateMutability":"nonpayable"},{"type":"function","name":"getChainConfig","inputs":[{"name":"chainId","type":"uint256","internalType":"uint256"}],"outputs":[{"name":"","type":"tuple","internalType":"struct CrossChainRouter.ChainConfig","components":[{"name":"bridge","type":"address","internalType":"address"},{"name":"minAmount","type":"uint256","internalType":"uint256"},{"name":"maxAmount","type":"uint256","internalType":"uint256"},{"name":"active","type":"bool","internalType":"bool"}]}],"stateMutability":"view"},{"type":"function","name":"getPendingConfig","inputs":[{"name":"chainId","type":"uint256","internalType":"uint256"}],"outputs":[{"name":"","type":"tuple","internalType":"struct CrossChainRouter.PendingConfig","components":[{"name":"config","type":"tuple","internalType":"struct CrossChainRouter.ChainConfig","components":[{"name":"bridge","type":"address","internalType":"address"},{"name":"minAmount","type":"uint256","internalType":"uint256"},{"name":"maxAmount","type":"uint256","internalType":"uint256"},{"name":"active","type":"bool","internalType":"bool"}]},{"name":"executeAfter","type":"uint256","internalType":"uint256"},{"name":"exists","type":"bool","internalType":"bool"}]}],"stateMutability":"view"},{"type":"function","name":"getRemainingDailyVolume","inputs":[{"name":"chainId","type":"uint256","internalType":"uint256"}],"outputs":[{"name":"","type":"uint256","internalType":"uint256"}],"stateMutability":"view"},{"type":"function","name":"getSupportedChains","inputs":[],"outputs":[{"name":"","type":"uint256[]","internalType":"uint256[]"}],"stateMutability":"view"},{"type":"function","name":"isChainActive","inputs":[{"name":"chainId","type":"uint256","internalType":"uint256"}],"outputs":[{"name":"","type":"bool","internalType":"bool"}],"stateMutability":"view"},{"type":"function","name":"lastVolumeReset","inputs":[{"name":"","type":"uint256","internalType":"uint256"}],"outputs":[{"name":"","type":"uint256","internalType":"uint256"}],"stateMutability":"view"},{"type":"function","name":"owner","inputs":[],"outputs":[{"name":"","type":"address","internalType":"address"}],"stateMutability":"view"},{"type":"function","name":"pendingConfigs","inputs":[{"name":"","type":"uint256","internalType":"uint256"}],"outputs":[{"name":"config","type":"tuple","internalType":"struct CrossChainRouter.ChainConfig","components":[{"name":"bridge","type":"address","internalType":"address"},{"name":"minAmount","type":"uint256","internalType":"uint256"},{"name":"maxAmount","type":"uint256","internalType":"uint256"},{"name":"active","type":"bool","internalType":"bool"}]},{"name":"executeAfter","type":"uint256","internalType":"uint256"},{"name":"exists","type":"bool","internalType":"bool"}],"stateMutability":"view"},{"type":"function","name":"queueChainConfig","inputs":[{"name":"chainId","type":"uint256","internalType":"uint256"},{"name":"bridge","type":"address","internalType":"address"},{"name":"minAmount","type":"uint256","internalType":"uint256"},{"name":"maxAmount","type":"uint256","internalType":"uint256"},{"name":"active","type":"bool","internalType":"bool"}],"outputs":[],"stateMutability":"nonpayable"},{"type":"function","name":"setAuthority","inputs":[{"name":"newAuthority","type":"address","internalType":"contract Authority"}],"outputs":[],"stateMutability":"nonpayable"},{"type":"function","name":"setDailyLimit","inputs":[{"name":"chainId","type":"uint256","internalType":"uint256"},{"name":"limit","type":"uint256","internalType":"uint256"}],"outputs":[],"stateMutability":"nonpayable"},{"type":"function","name":"supportedChains","inputs":[{"name":"","type":"uint256","internalType":"uint256"}],"outputs":[{"name":"","type":"uint256","internalType":"uint256"}],"stateMutability":"view"},{"type":"function","name":"transferOwnership","inputs":[{"name":"newOwner","type":"address","internalType":"address"}],"outputs":[],"stateMutability":"nonpayable"},{"type":"event","name":"AuthorityUpdated","inputs":[{"name":"user","type":"address","indexed":true,"internalType":"address"},{"name":"newAuthority","type":"address","indexed":true,"internalType":"contract Authority"}],"anonymous":false},{"type":"event","name":"ChainConfigCancelled","inputs":[{"name":"chainId","type":"uint256","indexed":true,"internalType":"uint256"}],"anonymous":false},{"type":"event","name":"ChainConfigExecuted","inputs":[{"name":"chainId","type":"uint256","indexed":true,"internalType":"uint256"},{"name":"bridge","type":"address","indexed":false,"internalType":"address"},{"name":"minAmount","type":"uint256","indexed":false,"internalType":"uint256"},{"name":"maxAmount","type":"uint256","indexed":false,"internalType":"uint256"}],"anonymous":false},{"type":"event","name":"ChainConfigQueued","inputs":[{"name":"chainId","type":"uint256","indexed":true,"internalType":"uint256"},{"name":"bridge","type":"address","indexed":false,"internalType":"address"},{"name":"minAmount","type":"uint256","indexed":false,"internalType":"uint256"},{"name":"maxAmount","type":"uint256","indexed":false,"internalType":"uint256"},{"name":"executeAfter","type":"uint256","indexed":false,"internalType":"uint256"}],"anonymous":false},{"type":"event","name":"CrossChainTradeExecuted","inputs":[{"name":"chainId","type":"uint256","indexed":true,"internalType":"uint256"},{"name":"token","type":"address","indexed":true,"internalType":"address"},{"name":"amount","type":"uint256","indexed":false,"internalType":"uint256"},{"name":"messageId","type":"bytes32","indexed":false,"internalType":"bytes32"}],"anonymous":false},{"type":"event","name":"DailyLimitUpdated","inputs":[{"name":"chainId","type":"uint256","indexed":true,"internalType":"uint256"},{"name":"newLimit","type":"uint256","indexed":false,"internalType":"uint256"}],"anonymous":false},{"type":"event","name":"DailyVolumeReset","inputs":[{"name":"chainId","type":"uint256","indexed":true,"internalType":"uint256"},{"name":"timestamp","type":"uint256","indexed":false,"internalType":"uint256"}],"anonymous":false},{"type":"event","name":"OwnershipTransferred","inputs":[{"name":"user","type":"address","indexed":true,"internalType":"address"},{"name":"newOwner","type":"address","indexed":true,"internalType":"address"}],"anonymous":false},{"type":"error","name":"AmountAboveMaximum","inputs":[{"name":"amount","type":"uint256","internalType":"uint256"},{"name":"maximum","type":"uint256","internalType":"uint256"}]},{"type":"error","name":"AmountBelowMinimum","inputs":[{"name":"amount","type":"uint256","internalType":"uint256"},{"name":"minimum","type":"uint256","internalType":"uint256"}]},{"type":"error","name":"BridgeCallFailed","inputs":[]},{"type":"error","name":"ChainNotActive","inputs":[{"name":"chainId","type":"uint256","internalType":"uint256"}]},{"type":"error","name":"ConfigTimelockActive","inputs":[{"name":"chainId","type":"uint256","internalType":"uint256"},{"name":"executeAfter","type":"uint256","internalType":"uint256"},{"name":"currentTime","type":"uint256","internalType":"uint256"}]},{"type":"error","name":"DailyVolumeLimitExceeded","inputs":[{"name":"requested","type":"uint256","internalType":"uint256"},{"name":"remaining","type":"uint256","internalType":"uint256"}]},{"type":"error","name":"InvalidChainId","inputs":[]},{"type":"error","name":"NoPendingConfig","inputs":[{"name":"chainId","type":"uint256","internalType":"uint256"}]},{"type":"error","name":"Reentrancy","inputs":[]},{"type":"error","name":"Unauthorized","inputs":[]},{"type":"error","name":"ZeroAddress","inputs":[]}],"bytecode":{"object":"0x60806040526001600255348015610014575f5ffd5b506040516128da3803806128da8339818101604052810190610036919061020d565b8181815f5f6101000a81548173ffffffffffffffffffffffffffffffffffffffff021916908373ffffffffffffffffffffffffffffffffffffffff1602179055508060015f6101000a81548173ffffffffffffffffffffffffffffffffffffffff021916908373ffffffffffffffffffffffffffffffffffffffff1602179055508173ffffffffffffffffffffffffffffffffffffffff165f73ffffffffffffffffffffffffffffffffffffffff167f8be0079c531659141344cd1fd0a4f28419497f9722a3daafe3b4186f6b6457e060405160405180910390a38073ffffffffffffffffffffffffffffffffffffffff165f73ffffffffffffffffffffffffffffffffffffffff167fa3396fd7f6e0a21b50e5089d2da70d5ac0a3bbbd1f617a93f134b7638998019860405160405180910390a35050505061024b565b5f5ffd5b5f73ffffffffffffffffffffffffffffffffffffffff82169050919050565b5f6101a182610178565b9050919050565b6101b181610197565b81146101bb575f5ffd5b50565b5f815190506101cc816101a8565b92915050565b5f6101dc82610197565b9050919050565b6101ec816101d2565b81146101f6575f5ffd5b50565b5f81519050610207816101e3565b92915050565b5f5f6040838503121561022357610222610174565b5b5f610230858286016101be565b9250506020610241858286016101f9565b9150509250929050565b612682806102585f395ff3fe608060405234801561000f575f5ffd5b5060043610610135575f3560e01c80636b9709fb116100b65780638da5cb5b1161007a5780638da5cb5b14610398578063943ca3b9146103b6578063bf7e214f146103e6578063c4bffe2b14610404578063f182190814610422578063f2fde38b1461045257610135565b80636b9709fb146102f85780636f221dab146103285780637a9e5e4b1461034457806388362d4b146103605780638a9caaf11461037c57610135565b8063548d496f116100fd578063548d496f1461021a5780635dfcd96e1461024a5780635e2a579c1461027a578063619dface146102aa57806362ac7505146102da57610135565b80630490a5e8146101395780630e4c91cb1461016b578063115260311461018757806319ed16dc146101b757806351bfbc32146101e7575b5f5ffd5b610153600480360381019061014e9190611b59565b61046e565b60405161016293929190611c5d565b60405180910390f35b61018560048036038101906101809190611b59565b61052c565b005b6101a1600480360381019061019c9190611d1d565b61069b565b6040516101ae9190611db9565b60405180910390f35b6101d160048036038101906101cc9190611b59565b610b2b565b6040516101de9190611dd2565b60405180910390f35b61020160048036038101906101fc9190611b59565b610bd8565b6040516102119493929190611dfa565b60405180910390f35b610234600480360381019061022f9190611b59565b610c2f565b6040516102419190611e3d565b60405180910390f35b610264600480360381019061025f9190611b59565b610c4f565b6040516102719190611e3d565b60405180910390f35b610294600480360381019061028f9190611b59565b610d10565b6040516102a19190611e56565b60405180910390f35b6102c460048036038101906102bf9190611b59565b610d39565b6040516102d19190611e3d565b60405180910390f35b6102e2610d4e565b6040516102ef9190611e3d565b60405180910390f35b610312600480360381019061030d9190611b59565b610d55565b60405161031f9190611e3d565b60405180910390f35b610342600480360381019061033d9190611e99565b610d6a565b005b61035e60048036038101906103599190611f4b565b610fd6565b005b61037a60048036038101906103759190611f76565b6110f8565b005b61039660048036038101906103919190611b59565b6111ad565b005b6103a061156e565b6040516103ad9190611fb4565b60405180910390f35b6103d060048036038101906103cb9190611b59565b611592565b6040516103dd9190611e3d565b60405180910390f35b6103ee6115a7565b6040516103fb9190612028565b60405180910390f35b61040c6115cc565b60405161041991906120e9565b60405180910390f35b61043c60048036038101906104379190611b59565b611622565b604051610449919061219c565b60405180910390f35b61046c600480360381019061046791906121b5565b611706565b005b6004602052805f5260405f205f91509050805f016040518060800160405290815f82015f9054906101000a900473ffffffffffffffffffffffffffffffffffffffff1673ffffffffffffffffffffffffffffffffffffffff1673ffffffffffffffffffffffffffffffffffffffff1681526020016001820154815260200160028201548152602001600382015f9054906101000a900460ff16151515158152505090806004015490806005015f9054906101000a900460ff16905083565b610559335f357fffffffff0000000000000000000000000000000000000000000000000000000016611827565b61058f576040517f82b4290000000000000000000000000000000000000000000000000000000000815260040160405180910390fd5b60045f8281526020019081526020015f206005015f9054906101000a900460ff166105f157806040517f7389abb30000000000000000000000000000000000000000000000000000000081526004016105e89190611e3d565b60405180910390fd5b60045f8281526020019081526020015f205f5f82015f5f82015f6101000a81549073ffffffffffffffffffffffffffffffffffffffff0219169055600182015f9055600282015f9055600382015f6101000a81549060ff02191690555050600482015f9055600582015f6101000a81549060ff02191690555050807f7eb997629c26d46ec29a49355bcda3d43bce22b018ddb3022edf23802de2889d60405160405180910390a250565b5f60028054036106d7576040517fab143c0600000000000000000000000000000000000000000000000000000000815260040160405180910390fd5b6002808190555061070b335f357fffffffff0000000000000000000000000000000000000000000000000000000016611827565b610741576040517f82b4290000000000000000000000000000000000000000000000000000000000815260040160405180910390fd5b5f60035f8881526020019081526020015f206040518060800160405290815f82015f9054906101000a900473ffffffffffffffffffffffffffffffffffffffff1673ffffffffffffffffffffffffffffffffffffffff1673ffffffffffffffffffffffffffffffffffffffff1681526020016001820154815260200160028201548152602001600382015f9054906101000a900460ff1615151515815250509050806060015161082857866040517f77267b7d00000000000000000000000000000000000000000000000000000000815260040161081f9190611e3d565b60405180910390fd5b8060200151851015610877578481602001516040517f30196ade00000000000000000000000000000000000000000000000000000000815260040161086e9291906121e0565b60405180910390fd5b80604001518511156108c6578481604001516040517fa8792b540000000000000000000000000000000000000000000000000000000081526004016108bd9291906121e0565b60405180910390fd5b6108cf87611960565b5f60065f8981526020019081526020015f205490505f81111561099b575f60055f8a81526020019081526020015f2054821161090b575f610929565b60055f8a81526020019081526020015f2054826109289190612234565b5b9050808711156109725786816040517f4b6e32050000000000000000000000000000000000000000000000000000000081526004016109699291906121e0565b60405180910390fd5b8660055f8b81526020019081526020015f205f8282546109929190612267565b92505081905550505b6109cb33835f0151888a73ffffffffffffffffffffffffffffffffffffffff166119f4909392919063ffffffff16565b5f5f835f015173ffffffffffffffffffffffffffffffffffffffff1687876040516109f79291906122d6565b5f604051808303815f865af19150503d805f8114610a30576040519150601f19603f3d011682016040523d82523d5f602084013e610a35565b606091505b509150915081610a71576040517f376fb55a00000000000000000000000000000000000000000000000000000000815260040160405180910390fd5b6020815110610a955780806020019051810190610a8e9190612318565b9450610ac5565b89898942604051602001610aac94939291906123a8565b6040516020818303038152906040528051906020012094505b8873ffffffffffffffffffffffffffffffffffffffff168a7f047ba8f4947f0be4e7b1f4071f5cc1ea2d5d13dea270cc470fa24f1706a0d16a8a88604051610b0e9291906123f5565b60405180910390a350505050600160028190555095945050505050565b610b33611abb565b60035f8381526020019081526020015f206040518060800160405290815f82015f9054906101000a900473ffffffffffffffffffffffffffffffffffffffff1673ffffffffffffffffffffffffffffffffffffffff1673ffffffffffffffffffffffffffffffffffffffff1681526020016001820154815260200160028201548152602001600382015f9054906101000a900460ff1615151515815250509050919050565b6003602052805f5260405f205f91509050805f015f9054906101000a900473ffffffffffffffffffffffffffffffffffffffff1690806001015490806002015490806003015f9054906101000a900460ff16905084565b60088181548110610c3e575f80fd5b905f5260205f20015f915090505481565b5f5f60065f8481526020019081526020015f205490505f8103610c95577fffffffffffffffffffffffffffffffffffffffffffffffffffffffffffffffff915050610d0b565b5f6201518042610ca59190612449565b90508060075f8681526020019081526020015f20541015610cca578192505050610d0b565b60055f8581526020019081526020015f20548211610ce8575f610d06565b60055f8581526020019081526020015f205482610d059190612234565b5b925050505b919050565b5f60035f8381526020019081526020015f206003015f9054906101000a900460ff169050919050565b6006602052805f5260405f205f915090505481565b6201518081565b6007602052805f5260405f205f915090505481565b610d97335f357fffffffff0000000000000000000000000000000000000000000000000000000016611827565b610dcd576040517f82b4290000000000000000000000000000000000000000000000000000000000815260040160405180910390fd5b5f73ffffffffffffffffffffffffffffffffffffffff168473ffffffffffffffffffffffffffffffffffffffff1603610e32576040517fd92e233d00000000000000000000000000000000000000000000000000000000815260040160405180910390fd5b5f8503610e6b576040517f7a47c9a200000000000000000000000000000000000000000000000000000000815260040160405180910390fd5b5f6201518042610e7b9190612267565b9050604051806060016040528060405180608001604052808873ffffffffffffffffffffffffffffffffffffffff16815260200187815260200186815260200185151581525081526020018281526020016001151581525060045f8881526020019081526020015f205f820151815f015f820151815f015f6101000a81548173ffffffffffffffffffffffffffffffffffffffff021916908373ffffffffffffffffffffffffffffffffffffffff16021790555060208201518160010155604082015181600201556060820151816003015f6101000a81548160ff0219169083151502179055505050602082015181600401556040820151816005015f6101000a81548160ff021916908315150217905550905050857f206ca838ad90dd8cf654697f447160fdb049626b02da8aae9aba070b4c1ff5c386868685604051610fc69493929190612479565b60405180910390a2505050505050565b5f5f9054906101000a900473ffffffffffffffffffffffffffffffffffffffff1673ffffffffffffffffffffffffffffffffffffffff163373ffffffffffffffffffffffffffffffffffffffff161461105b576040517f82b4290000000000000000000000000000000000000000000000000000000000815260040160405180910390fd5b8060015f6101000a81548173ffffffffffffffffffffffffffffffffffffffff021916908373ffffffffffffffffffffffffffffffffffffffff1602179055508073ffffffffffffffffffffffffffffffffffffffff163373ffffffffffffffffffffffffffffffffffffffff167fa3396fd7f6e0a21b50e5089d2da70d5ac0a3bbbd1f617a93f134b7638998019860405160405180910390a350565b611125335f357fffffffff0000000000000000000000000000000000000000000000000000000016611827565b61115b576040517f82b4290000000000000000000000000000000000000000000000000000000000815260040160405180910390fd5b8060065f8481526020019081526020015f2081905550817f207c4cbdf55ec315a13f0d5e047732ec5d947da056e706593aa509909941cedf826040516111a19190611e3d565b60405180910390a25050565b6111da335f357fffffffff0000000000000000000000000000000000000000000000000000000016611827565b611210576040517f82b4290000000000000000000000000000000000000000000000000000000000815260040160405180910390fd5b5f60045f8381526020019081526020015f206040518060600160405290815f82016040518060800160405290815f82015f9054906101000a900473ffffffffffffffffffffffffffffffffffffffff1673ffffffffffffffffffffffffffffffffffffffff1673ffffffffffffffffffffffffffffffffffffffff1681526020016001820154815260200160028201548152602001600382015f9054906101000a900460ff161515151581525050815260200160048201548152602001600582015f9054906101000a900460ff1615151515815250509050806040015161132e57816040517f7389abb30000000000000000000000000000000000000000000000000000000081526004016113259190611e3d565b60405180910390fd5b806020015142101561137f57818160200151426040517f341e8122000000000000000000000000000000000000000000000000000000008152600401611376939291906124bc565b60405180910390fd5b5f5f73ffffffffffffffffffffffffffffffffffffffff1660035f8581526020019081526020015f205f015f9054906101000a900473ffffffffffffffffffffffffffffffffffffffff1673ffffffffffffffffffffffffffffffffffffffff16149050801561141057600883908060018154018082558091505060019003905f5260205f20015f90919091909150555b815f015160035f8581526020019081526020015f205f820151815f015f6101000a81548173ffffffffffffffffffffffffffffffffffffffff021916908373ffffffffffffffffffffffffffffffffffffffff16021790555060208201518160010155604082015181600201556060820151816003015f6101000a81548160ff02191690831515021790555090505060045f8481526020019081526020015f205f5f82015f5f82015f6101000a81549073ffffffffffffffffffffffffffffffffffffffff0219169055600182015f9055600282015f9055600382015f6101000a81549060ff02191690555050600482015f9055600582015f6101000a81549060ff02191690555050827f76c3085813458e12ba1be3ecfeac7cb64df300f93e3863a3a6493284c85e5662835f01515f0151845f015160200151855f015160400151604051611561939291906124f1565b60405180910390a2505050565b5f5f9054906101000a900473ffffffffffffffffffffffffffffffffffffffff1681565b6005602052805f5260405f205f915090505481565b60015f9054906101000a900473ffffffffffffffffffffffffffffffffffffffff1681565b6060600880548060200260200160405190810160405280929190818152602001828054801561161857602002820191905f5260205f20905b815481526020019060010190808311611604575b5050505050905090565b61162a611af7565b60045f8381526020019081526020015f206040518060600160405290815f82016040518060800160405290815f82015f9054906101000a900473ffffffffffffffffffffffffffffffffffffffff1673ffffffffffffffffffffffffffffffffffffffff1673ffffffffffffffffffffffffffffffffffffffff1681526020016001820154815260200160028201548152602001600382015f9054906101000a900460ff161515151581525050815260200160048201548152602001600582015f9054906101000a900460ff1615151515815250509050919050565b5f5f9054906101000a900473ffffffffffffffffffffffffffffffffffffffff1673ffffffffffffffffffffffffffffffffffffffff163373ffffffffffffffffffffffffffffffffffffffff161461178b576040517f82b4290000000000000000000000000000000000000000000000000000000000815260040160405180910390fd5b805f5f6101000a81548173ffffffffffffffffffffffffffffffffffffffff021916908373ffffffffffffffffffffffffffffffffffffffff1602179055508073ffffffffffffffffffffffffffffffffffffffff163373ffffffffffffffffffffffffffffffffffffffff167f8be0079c531659141344cd1fd0a4f28419497f9722a3daafe3b4186f6b6457e060405160405180910390a350565b5f5f60015f9054906101000a900473ffffffffffffffffffffffffffffffffffffffff1690505f73ffffffffffffffffffffffffffffffffffffffff168173ffffffffffffffffffffffffffffffffffffffff161415801561190157508073ffffffffffffffffffffffffffffffffffffffff1663b70096138530866040518463ffffffff1660e01b81526004016118c193929190612560565b602060405180830381865afa1580156118dc573d5f5f3e3d5ffd5b505050506040513d601f19601f8201168201806040525081019061190091906125a9565b5b8061195757505f5f9054906101000a900473ffffffffffffffffffffffffffffffffffffffff1673ffffffffffffffffffffffffffffffffffffffff168473ffffffffffffffffffffffffffffffffffffffff16145b91505092915050565b5f62015180426119709190612449565b90508060075f8481526020019081526020015f205410156119f0575f60055f8481526020019081526020015f20819055508060075f8481526020019081526020015f2081905550817f10ee94e9840988debcde08483d660602ba7cc7450991da1f586e2ef21e036933426040516119e79190611e3d565b60405180910390a25b5050565b5f6040517f23b872dd00000000000000000000000000000000000000000000000000000000815273ffffffffffffffffffffffffffffffffffffffff8516600482015273ffffffffffffffffffffffffffffffffffffffff8416602482015282604482015260205f6064835f8a5af13d15601f3d1160015f511416171691505080611ab4576040517f08c379a0000000000000000000000000000000000000000000000000000000008152600401611aab9061262e565b60405180910390fd5b5050505050565b60405180608001604052805f73ffffffffffffffffffffffffffffffffffffffff1681526020015f81526020015f81526020015f151581525090565b6040518060600160405280611b0a611abb565b81526020015f81526020015f151581525090565b5f5ffd5b5f5ffd5b5f819050919050565b611b3881611b26565b8114611b42575f5ffd5b50565b5f81359050611b5381611b2f565b92915050565b5f60208284031215611b6e57611b6d611b1e565b5b5f611b7b84828501611b45565b91505092915050565b5f73ffffffffffffffffffffffffffffffffffffffff82169050919050565b5f611bad82611b84565b9050919050565b611bbd81611ba3565b82525050565b611bcc81611b26565b82525050565b5f8115159050919050565b611be681611bd2565b82525050565b608082015f820151611c005f850182611bb4565b506020820151611c136020850182611bc3565b506040820151611c266040850182611bc3565b506060820151611c396060850182611bdd565b50505050565b611c4881611b26565b82525050565b611c5781611bd2565b82525050565b5f60c082019050611c705f830186611bec565b611c7d6080830185611c3f565b611c8a60a0830184611c4e565b949350505050565b611c9b81611ba3565b8114611ca5575f5ffd5b50565b5f81359050611cb681611c92565b92915050565b5f5ffd5b5f5ffd5b5f5ffd5b5f5f83601f840112611cdd57611cdc611cbc565b5b8235905067ffffffffffffffff811115611cfa57611cf9611cc0565b5b602083019150836001820283011115611d1657611d15611cc4565b5b9250929050565b5f5f5f5f5f60808688031215611d3657611d35611b1e565b5b5f611d4388828901611b45565b9550506020611d5488828901611ca8565b9450506040611d6588828901611b45565b935050606086013567ffffffffffffffff811115611d8657611d85611b22565b5b611d9288828901611cc8565b92509250509295509295909350565b5f819050919050565b611db381611da1565b82525050565b5f602082019050611dcc5f830184611daa565b92915050565b5f608082019050611de55f830184611bec565b92915050565b611df481611ba3565b82525050565b5f608082019050611e0d5f830187611deb565b611e1a6020830186611c3f565b611e276040830185611c3f565b611e346060830184611c4e565b95945050505050565b5f602082019050611e505f830184611c3f565b92915050565b5f602082019050611e695f830184611c4e565b92915050565b611e7881611bd2565b8114611e82575f5ffd5b50565b5f81359050611e9381611e6f565b92915050565b5f5f5f5f5f60a08688031215611eb257611eb1611b1e565b5b5f611ebf88828901611b45565b9550506020611ed088828901611ca8565b9450506040611ee188828901611b45565b9350506060611ef288828901611b45565b9250506080611f0388828901611e85565b9150509295509295909350565b5f611f1a82611ba3565b9050919050565b611f2a81611f10565b8114611f34575f5ffd5b50565b5f81359050611f4581611f21565b92915050565b5f60208284031215611f6057611f5f611b1e565b5b5f611f6d84828501611f37565b91505092915050565b5f5f60408385031215611f8c57611f8b611b1e565b5b5f611f9985828601611b45565b9250506020611faa85828601611b45565b9150509250929050565b5f602082019050611fc75f830184611deb565b92915050565b5f819050919050565b5f611ff0611feb611fe684611b84565b611fcd565b611b84565b9050919050565b5f61200182611fd6565b9050919050565b5f61201282611ff7565b9050919050565b61202281612008565b82525050565b5f60208201905061203b5f830184612019565b92915050565b5f81519050919050565b5f82825260208201905092915050565b5f819050602082019050919050565b5f6120758383611bc3565b60208301905092915050565b5f602082019050919050565b5f61209782612041565b6120a1818561204b565b93506120ac8361205b565b805f5b838110156120dc5781516120c3888261206a565b97506120ce83612081565b9250506001810190506120af565b5085935050505092915050565b5f6020820190508181035f830152612101818461208d565b905092915050565b608082015f82015161211d5f850182611bb4565b5060208201516121306020850182611bc3565b5060408201516121436040850182611bc3565b5060608201516121566060850182611bdd565b50505050565b60c082015f8201516121705f850182612109565b5060208201516121836080850182611bc3565b50604082015161219660a0850182611bdd565b50505050565b5f60c0820190506121af5f83018461215c565b92915050565b5f602082840312156121ca576121c9611b1e565b5b5f6121d784828501611ca8565b91505092915050565b5f6040820190506121f35f830185611c3f565b6122006020830184611c3f565b9392505050565b7f4e487b71000000000000000000000000000000000000000000000000000000005f52601160045260245ffd5b5f61223e82611b26565b915061224983611b26565b925082820390508181111561226157612260612207565b5b92915050565b5f61227182611b26565b915061227c83611b26565b925082820190508082111561229457612293612207565b5b92915050565b5f81905092915050565b828183375f83830152505050565b5f6122bd838561229a565b93506122ca8385846122a4565b82840190509392505050565b5f6122e28284866122b2565b91508190509392505050565b6122f781611da1565b8114612301575f5ffd5b50565b5f81519050612312816122ee565b92915050565b5f6020828403121561232d5761232c611b1e565b5b5f61233a84828501612304565b91505092915050565b5f819050919050565b61235d61235882611b26565b612343565b82525050565b5f8160601b9050919050565b5f61237982612363565b9050919050565b5f61238a8261236f565b9050919050565b6123a261239d82611ba3565b612380565b82525050565b5f6123b3828761234c565b6020820191506123c38286612391565b6014820191506123d3828561234c565b6020820191506123e3828461234c565b60208201915081905095945050505050565b5f6040820190506124085f830185611c3f565b6124156020830184611daa565b9392505050565b7f4e487b71000000000000000000000000000000000000000000000000000000005f52601260045260245ffd5b5f61245382611b26565b915061245e83611b26565b92508261246e5761246d61241c565b5b828204905092915050565b5f60808201905061248c5f830187611deb565b6124996020830186611c3f565b6124a66040830185611c3f565b6124b36060830184611c3f565b95945050505050565b5f6060820190506124cf5f830186611c3f565b6124dc6020830185611c3f565b6124e96040830184611c3f565b949350505050565b5f6060820190506125045f830186611deb565b6125116020830185611c3f565b61251e6040830184611c3f565b949350505050565b5f7fffffffff0000000000000000000000000000000000000000000000000000000082169050919050565b61255a81612526565b82525050565b5f6060820190506125735f830186611deb565b6125806020830185611deb565b61258d6040830184612551565b949350505050565b5f815190506125a381611e6f565b92915050565b5f602082840312156125be576125bd611b1e565b5b5f6125cb84828501612595565b91505092915050565b5f82825260208201905092915050565b7f5452414e534645525f46524f4d5f4641494c45440000000000000000000000005f82015250565b5f6126186014836125d4565b9150612623826125e4565b602082019050919050565b5f6020820190508181035f8301526126458161260c565b905091905056fea2646970667358221220baf38f58c02ab149e228571de22f2a06c58ace26f2bf94f6c5d3600645118de964736f6c634300081e0033","linkReferences":{}},"methodIdentifiers":{"CONFIG_TIMELOCK()":"62ac7505","authority()":"bf7e214f","cancelPendingConfig(uint256)":"0e4c91cb","chainConfigs(uint256)":"51bfbc32","dailyVolume(uint256)":"943ca3b9","dailyVolumeLimit(uint256)":"619dface","executeChainConfig(uint256)":"8a9caaf1","executeCrossChainTrade(uint256,address,uint256,bytes)":"11526031","getChainConfig(uint256)":"19ed16dc","getPendingConfig(uint256)":"f1821908","getRemainingDailyVolume(uint256)":"5dfcd96e","getSupportedChains()":"c4bffe2b","isChainActive(uint256)":"5e2a579c","lastVolumeReset(uint256)":"6b9709fb","owner()":"8da5cb5b","pendingConfigs(uint256)":"0490a5e8","queueChainConfig(uint256,address,uint256,uint256,bool)":"6f221dab","setAuthority(address)":"7a9e5e4b","setDailyLimit(uint256,uint256)":"88362d4b","supportedChains(uint256)":"548d496f","transferOwnership(address)":"f2fde38b"},"id":30}