{"abi":[{"type":"constructor","inputs":[],"stateMutability":"nonpayable"},{"type":"function","name":"attacker_grantRole","inputs":[{"name":"role","type":"uint8","internalType":"uint8"}],"outputs":[],"stateMutability":"nonpayable"},{"type":"function","name":"attacker_hasNoRoles","inputs":[],"outputs":[],"stateMutability":"nonpayable"},{"type":"function","name":"attacker_pause","inputs":[],"outputs":[],"stateMutability":"nonpayable"},{"type":"function","name":"attacker_setCapability","inputs":[{"name":"role","type":"uint8","internalType":"uint8"},{"name":"target","type":"address","internalType":"address"},{"name":"selector","type":"bytes4","internalType":"bytes4"}],"outputs":[],"stateMutability":"nonpayable"},{"type":"function","name":"attacker_setWhitelist","inputs":[{"name":"target","type":"address","internalType":"address"}],"outputs":[],"stateMutability":"nonpayable"},{"type":"function","name":"attacker_withdraw","inputs":[{"name":"amount","type":"uint256","internalType":"uint256"}],"outputs":[],"stateMutability":"nonpayable"},{"type":"function","name":"depositor_deposit","inputs":[{"name":"amount","type":"uint256","internalType":"uint256"}],"outputs":[],"stateMutability":"nonpayable"},{"type":"function","name":"depositor_redeem","inputs":[{"name":"shares","type":"uint256","internalType":"uint256"}],"outputs":[],"stateMutability":"nonpayable"},{"type":"function","name":"depositor_withdraw","inputs":[{"name":"amount","type":"uint256","internalType":"uint256"}],"outputs":[],"stateMutability":"nonpayable"},{"type":"function","name":"echidna_depositor_cannot_redeem","inputs":[],"outputs":[{"name":"","type":"bool","internalType":"bool"}],"stateMutability":"view"},{"type":"function","name":"echidna_depositor_cannot_withdraw","inputs":[],"outputs":[{"name":"","type":"bool","internalType":"bool"}],"stateMutability":"view"},{"type":"function","name":"echidna_executor_no_whitelist","inputs":[],"outputs":[{"name":"","type":"bool","internalType":"bool"}],"stateMutability":"view"},{"type":"function","name":"echidna_guardian_can_pause","inputs":[],"outputs":[{"name":"","type":"bool","internalType":"bool"}],"stateMutability":"view"},{"type":"function","name":"echidna_no_privilege_escalation","inputs":[],"outputs":[{"name":"","type":"bool","internalType":"bool"}],"stateMutability":"view"},{"type":"function","name":"echidna_owner_is_admin","inputs":[],"outputs":[{"name":"","type":"bool","internalType":"bool"}],"stateMutability":"view"},{"type":"function","name":"executor_setWhitelist","inputs":[{"name":"target","type":"address","internalType":"address"}],"outputs":[],"stateMutability":"nonpayable"},{"type":"function","name":"guardian_canPause","inputs":[],"outputs":[],"stateMutability":"nonpayable"},{"type":"function","name":"owner_hasAdmin","inputs":[],"outputs":[],"stateMutability":"nonpayable"},{"type":"function","name":"whitelistAdmin_canSetWhitelist","inputs":[],"outputs":[],"stateMutability":"nonpayable"}],"bytecode":{"object":"0x608060405234801561001057600080fd5b50600680546001600160a01b031990811662010000908117909255600780548216620200001790556008805482166203000017905560098054821662040000179055600a8054821662050000179055600b80549091166206000017905560405160009061007c90610cc2565b6001600160a01b03928316815291166020820152604001604051809103906000f0801580156100af573d6000803e3d6000fd5b50600080546001600160a01b0319166001600160a01b03929092169190911790556040516100dc90610ccf565b604051809103906000f0801580156100f8573d6000803e3d6000fd5b50600180546001600160a01b0319166001600160a01b039283169081179091556006546000546040519293918216928392919091169061013790610cdc565b6001600160a01b03948516815260c0602082018190526005908201526415985d5b1d60da1b60e0820152610100604082018190526003908201526215931560ea1b6101208201529284166060840152908316608083015290911660a082015261014001604051809103906000f0801580156101b6573d6000803e3d6000fd5b50600280546001600160a01b0319166001600160a01b039283161790556006546000546040519183169216906101eb90610ce9565b6001600160a01b03928316815291166020820152604001604051809103906000f08015801561021e573d6000803e3d6000fd5b50600380546001600160a01b0319166001600160a01b0392831617905560065460005460405191831692169061025390610cf6565b6001600160a01b03928316815291166020820152604001604051809103906000f080158015610286573d6000803e3d6000fd5b50600480546001600160a01b0319166001600160a01b039283161790556006546000546040519183169216906102bb90610d03565b6001600160a01b03928316815291166020820152604001604051809103906000f0801580156102ee573d6000803e3d6000fd5b50600580546001600160a01b0319166001600160a01b0392909216919091179055610317610562565b61031f610ac3565b6001546008546040516340c10f1960e01b81526001600160a01b03918216600482015269d3c21bcecceda100000060248201529116906340c10f1990604401600060405180830381600087803b15801561037857600080fd5b505af115801561038c573d6000803e3d6000fd5b50506001546009546040516340c10f1960e01b81526001600160a01b03918216600482015269d3c21bcecceda10000006024820152911692506340c10f199150604401600060405180830381600087803b1580156103e957600080fd5b505af11580156103fd573d6000803e3d6000fd5b50506001546040516340c10f1960e01b81523060048201526103e860248201526001600160a01b0390911692506340c10f199150604401600060405180830381600087803b15801561044e57600080fd5b505af1158015610462573d6000803e3d6000fd5b505060015460025460405163095ea7b360e01b81526001600160a01b0391821660048201526103e860248201529116925063095ea7b391506044016020604051808303816000875af11580156104bc573d6000803e3d6000fd5b505050506040513d601f19601f820116820180604052508101906104e09190610d10565b50600260009054906101000a90046001600160a01b03166001600160a01b031663ec6280706040518163ffffffff1660e01b8152600401600060405180830381600087803b15801561053157600080fd5b505af1158015610545573d6000803e3d6000fd5b5050600b805460ff60a01b1916600160a01b17905550610d399050565b600054600254604051637d40583d60e01b8152600760048201526001600160a01b039182166024820152636e553f6560e01b604482015260016064820152911690637d40583d90608401600060405180830381600087803b1580156105c657600080fd5b505af11580156105da573d6000803e3d6000fd5b505060008054600254604051637d40583d60e01b815260048101939093526001600160a01b039081166024840152632d182be560e21b604484015260016064840152169250637d40583d9150608401600060405180830381600087803b15801561064357600080fd5b505af1158015610657573d6000803e3d6000fd5b505060008054600254604051637d40583d60e01b815260048101939093526001600160a01b039081166024840152635d043b2960e11b604484015260016064840152169250637d40583d9150608401600060405180830381600087803b1580156106c057600080fd5b505af11580156106d4573d6000803e3d6000fd5b505060008054600254604051637d40583d60e01b815260048101939093526001600160a01b039081166024840152638456cb5960e01b604484015260016064840152169250637d40583d9150608401600060405180830381600087803b15801561073d57600080fd5b505af1158015610751573d6000803e3d6000fd5b5050600054600254604051637d40583d60e01b8152600860048201526001600160a01b039182166024820152638456cb5960e01b60448201526001606482015291169250637d40583d9150608401600060405180830381600087803b1580156107b957600080fd5b505af11580156107cd573d6000803e3d6000fd5b505060008054600254604051637d40583d60e01b815260048101939093526001600160a01b0390811660248401526395ccea6760e01b604484015260016064840152169250637d40583d9150608401600060405180830381600087803b15801561083657600080fd5b505af115801561084a573d6000803e3d6000fd5b5050600054600354604051637d40583d60e01b81526001600482018190526001600160a01b039283166024830152632b14aaed60e11b6044830152606482015291169250637d40583d9150608401600060405180830381600087803b1580156108b257600080fd5b505af11580156108c6573d6000803e3d6000fd5b5050600054600354604051637d40583d60e01b8152600a60048201526001600160a01b039182166024820152630422f70560e21b60448201526001606482015291169250637d40583d9150608401600060405180830381600087803b15801561092e57600080fd5b505af1158015610942573d6000803e3d6000fd5b505060005460048054604051637d40583d60e01b81526002928101929092526001600160a01b039081166024830152631408e11960e01b6044830152600160648301529091169250637d40583d9150608401600060405180830381600087803b1580156109ae57600080fd5b505af11580156109c2573d6000803e3d6000fd5b50506000805460048054604051637d40583d60e01b8152918201939093526001600160a01b039283166024820152630392f1bb60e01b60448201526001606482015291169250637d40583d9150608401600060405180830381600087803b158015610a2c57600080fd5b505af1158015610a40573d6000803e3d6000fd5b5050600054600554604051637d40583d60e01b8152600360048201526001600160a01b03918216602482015263035f518360e01b60448201526001606482015291169250637d40583d91506084015b600060405180830381600087803b158015610aa957600080fd5b505af1158015610abd573d6000803e3d6000fd5b50505050565b600080546006546040516319ebfd2160e21b81526001600160a01b03918216600482015260248101939093526001604484015216906367aff48490606401600060405180830381600087803b158015610b1b57600080fd5b505af1158015610b2f573d6000803e3d6000fd5b50506000546007546040516319ebfd2160e21b81526001600160a01b0391821660048201526001602482018190526044820152911692506367aff4849150606401600060405180830381600087803b158015610b8a57600080fd5b505af1158015610b9e573d6000803e3d6000fd5b50506000546008546040516319ebfd2160e21b81526001600160a01b0391821660048201526007602482015260016044820152911692506367aff4849150606401600060405180830381600087803b158015610bf957600080fd5b505af1158015610c0d573d6000803e3d6000fd5b5050600054600a546040516319ebfd2160e21b81526001600160a01b0391821660048201526008602482015260016044820152911692506367aff4849150606401600060405180830381600087803b158015610c6857600080fd5b505af1158015610c7c573d6000803e3d6000fd5b5050600054600b546040516319ebfd2160e21b81526001600160a01b039182166004820152600a602482015260016044820152911692506367aff4849150606401610a8f565b610ad380611bf583390190565b61086e806126c883390190565b6127af80612f3683390190565b611619806156e583390190565b6114f280616cfe83390190565b6112f3806181f083390190565b600060208284031215610d2257600080fd5b81518015158114610d3257600080fd5b9392505050565b610ead80610d486000396000f3fe608060405234801561001057600080fd5b50600436106101215760003560e01c806381d526c3116100ad578063b0d126ca11610071578063b0d126ca146101f9578063b3102b3214610201578063b6c0e40f14610209578063d40db08814610211578063e5c691c31461021957600080fd5b806381d526c31461019c578063848b6da3146101af57806384b63c95146101cb57806396afce8c146101de578063a8e8fbee146101f157600080fd5b8063311612ed116100f4578063311612ed1461015e5780633cded7fd1461016657806359ea074e1461016e5780636408d93d1461018157806375f9b0871461018957600080fd5b80630c4d2422146101265780630e3ccb63146101305780630f6bd5081461013857806328293e531461014b575b600080fd5b61012e61022c565b005b61012e6102c4565b61012e610146366004610cd8565b6102fb565b61012e610159366004610d0d565b61049b565b61012e610535565b61012e6105cb565b61012e61017c366004610cd8565b610610565b61012e610655565b61012e610197366004610d39565b6106fe565b61012e6101aa366004610d0d565b6107aa565b6101b76107ef565b604051901515815260200160405180910390f35b61012e6101d9366004610cd8565b61087b565b61012e6101ec366004610cd8565b6108c0565b6101b7610905565b6101b7610990565b6101b76109d5565b6101b7610a82565b6101b7610ac7565b61012e610227366004610d8d565b610afe565b60008054600b5460035460405163b700961360e01b81526001600160a01b039384169363b7009613936102719390821692911690630422f70560e21b90600401610da8565b602060405180830381865afa15801561028e573d6000803e3d6000fd5b505050506040513d601f19601f820116820180604052508101906102b29190610dd5565b9050806102c1576102c1610df7565b50565b6000805460065460405163753e513b60e11b81526001600160a01b039283169263ea7ca27692610271929116908590600401610e0d565b61031881670de0b6b3a764000069152d02c7e14af6800000610cae565b6001546040516340c10f1960e01b8152306004820152602481018390529192506001600160a01b0316906340c10f1990604401600060405180830381600087803b15801561036557600080fd5b505af1158015610379573d6000803e3d6000fd5b505060015460025460405163095ea7b360e01b81526001600160a01b039182166004820152602481018690529116925063095ea7b391506044016020604051808303816000875af11580156103d2573d6000803e3d6000fd5b505050506040513d601f19601f820116820180604052508101906103f69190610dd5565b5060005460085460025460405163b700961360e01b81526001600160a01b039384169363b70096139361043b9390821692911690636e553f6560e01b90600401610da8565b602060405180830381865afa158015610458573d6000803e3d6000fd5b505050506040513d601f19601f8201168201806040525081019061047c9190610dd5565b156102c15780600c60008282546104939190610e3f565b909155505050565b6000805460095460035460405163b700961360e01b81526001600160a01b039384169363b7009613936104e09390821692911690630422f70560e21b90600401610da8565b602060405180830381865afa1580156104fd573d6000803e3d6000fd5b505050506040513d601f19601f820116820180604052508101906105219190610dd5565b9050801561053157610531610df7565b5050565b6000805460095460025460405163b700961360e01b81526001600160a01b039384169363b70096139361057a9390821692911690638456cb5960e01b90600401610da8565b602060405180830381865afa158015610597573d6000803e3d6000fd5b505050506040513d601f19601f820116820180604052508101906105bb9190610dd5565b905080156102c1576102c1610df7565b60008054600a5460025460405163b700961360e01b81526001600160a01b039384169363b7009613936102719390821692911690638456cb5960e01b90600401610da8565b6000805460085460025460405163b700961360e01b81526001600160a01b039384169363b7009613936104e09390821692911690635d043b2960e11b90600401610da8565b60005b600a8160ff16116102c1576000805460095460405163753e513b60e11b81526001600160a01b039283169263ea7ca2769261069a929116908690600401610e0d565b602060405180830381865afa1580156106b7573d6000803e3d6000fd5b505050506040513d601f19601f820116820180604052508101906106db9190610dd5565b905080156106eb576106eb610df7565b50806106f681610e58565b915050610658565b61070e8360ff166000600a610cae565b6000805460095460405163b700961360e01b815293965091926001600160a01b039182169263b700961392610753929116908490637d40583d60e01b90600401610da8565b602060405180830381865afa158015610770573d6000803e3d6000fd5b505050506040513d601f19601f820116820180604052508101906107949190610dd5565b905080156107a4576107a4610df7565b50505050565b6000805460075460035460405163b700961360e01b81526001600160a01b039384169363b7009613936104e09390821692911690630422f70560e21b90600401610da8565b6000805460085460025460405163b700961360e01b81526001600160a01b039384169363b7009613936108349390821692911690635d043b2960e11b90600401610da8565b602060405180830381865afa158015610851573d6000803e3d6000fd5b505050506040513d601f19601f820116820180604052508101906108759190610dd5565b15905090565b6000805460095460025460405163b700961360e01b81526001600160a01b039384169363b7009613936104e09390821692911690632d182be560e21b90600401610da8565b6000805460085460025460405163b700961360e01b81526001600160a01b039384169363b7009613936104e09390821692911690632d182be560e21b90600401610da8565b60008054600a5460025460405163b700961360e01b81526001600160a01b039384169363b70096139361094a9390821692911690638456cb5960e01b90600401610da8565b602060405180830381865afa158015610967573d6000803e3d6000fd5b505050506040513d601f19601f8201168201806040525081019061098b9190610dd5565b905090565b6000805460085460025460405163b700961360e01b81526001600160a01b039384169363b7009613936108349390821692911690632d182be560e21b90600401610da8565b6000805b600a8160ff1611610a7a5760005460095460405163753e513b60e11b81526001600160a01b039283169263ea7ca27692610a1a929116908590600401610e0d565b602060405180830381865afa158015610a37573d6000803e3d6000fd5b505050506040513d601f19601f82011682018060405250810190610a5b9190610dd5565b15610a6857600091505090565b80610a7281610e58565b9150506109d9565b506001905090565b6000805460075460035460405163b700961360e01b81526001600160a01b039384169363b7009613936108349390821692911690630422f70560e21b90600401610da8565b6000805460065460405163753e513b60e11b81526001600160a01b039283169263ea7ca2769261094a929116908590600401610e0d565b610b0e8160ff166000600a610cae565b6000805460095460405163753e513b60e11b815293945091926001600160a01b039182169263ea7ca27692610b4a929116908690600401610e0d565b602060405180830381865afa158015610b67573d6000803e3d6000fd5b505050506040513d601f19601f82011682018060405250810190610b8b9190610dd5565b6000805460095460405163b700961360e01b815293945091926001600160a01b039182169263b700961392610bd09291169084906319ebfd2160e21b90600401610da8565b602060405180830381865afa158015610bed573d6000803e3d6000fd5b505050506040513d601f19601f82011682018060405250810190610c119190610dd5565b90508015610c2157610c21610df7565b6000805460095460405163753e513b60e11b81526001600160a01b039283169263ea7ca27692610c58929116908890600401610e0d565b602060405180830381865afa158015610c75573d6000803e3d6000fd5b505050506040513d601f19601f82011682018060405250810190610c999190610dd5565b9050801515831515146107a4576107a4610df7565b600082841015610cbf575081610cd1565b81841115610cce575080610cd1565b50825b9392505050565b600060208284031215610cea57600080fd5b5035919050565b80356001600160a01b0381168114610d0857600080fd5b919050565b600060208284031215610d1f57600080fd5b610cd182610cf1565b803560ff81168114610d0857600080fd5b600080600060608486031215610d4e57600080fd5b610d5784610d28565b9250610d6560208501610cf1565b915060408401356001600160e01b031981168114610d8257600080fd5b809150509250925092565b600060208284031215610d9f57600080fd5b610cd182610d28565b6001600160a01b0393841681529190921660208201526001600160e01b0319909116604082015260600190565b600060208284031215610de757600080fd5b81518015158114610cd157600080fd5b634e487b7160e01b600052600160045260246000fd5b6001600160a01b0392909216825260ff16602082015260400190565b634e487b7160e01b600052601160045260246000fd5b80820180821115610e5257610e52610e29565b92915050565b600060ff821660ff8103610e6e57610e6e610e29565b6001019291505056fea264697066735822122054120fe57b255785fbf1cc2bfd923629ba0245a2673f0ce37a93647fdb9143b664736f6c634300081c0033608060405234801561001057600080fd5b50604051610ad3380380610ad383398101604081905261002f916100e1565b600080546001600160a01b03199081166001600160a01b038581169182178455600180549093169085161790915560405184928492917f8be0079c531659141344cd1fd0a4f28419497f9722a3daafe3b4186f6b6457e0908290a36040516001600160a01b038216906000907fa3396fd7f6e0a21b50e5089d2da70d5ac0a3bbbd1f617a93f134b76389980198908290a35050505061011b565b6001600160a01b03811681146100de57600080fd5b50565b600080604083850312156100f457600080fd5b82516100ff816100c9565b6020840151909250610110816100c9565b809150509250929050565b6109a98061012a6000396000f3fe608060405234801561001057600080fd5b50600436106100cf5760003560e01c80638da5cb5b1161008c578063bf7e214f11610066578063bf7e214f14610236578063c6b0263e14610249578063ea7ca2761461025c578063f2fde38b1461029357600080fd5b80638da5cb5b146101ab578063b4bad06a146101d6578063b70096131461022357600080fd5b806306a36aee146100d45780632f47571f1461010757806367aff484146101455780637917b7941461015a5780637a9e5e4b146101855780637d40583d14610198575b600080fd5b6100f46100e2366004610761565b60026020526000908152604090205481565b6040519081526020015b60405180910390f35b6101356101153660046107a2565b600360209081526000928352604080842090915290825290205460ff1681565b60405190151581526020016100fe565b6101586101533660046107f6565b6102a6565b005b6100f46101683660046107a2565b600460209081526000928352604080842090915290825290205481565b610158610193366004610761565b61037b565b6101586101a636600461083f565b6103f1565b6000546101be906001600160a01b031681565b6040516001600160a01b0390911681526020016100fe565b6101356101e4366004610897565b6001600160a01b039190911660009081526004602090815260408083206001600160e01b031990941683529290522054600160ff929092161c16151590565b6101356102313660046108dc565b6104fc565b6001546101be906001600160a01b031681565b6101586102573660046108fc565b61057b565b61013561026a36600461092a565b6001600160a01b0391909116600090815260026020526040902054600160ff9092161c16151590565b6101586102a1366004610761565b61061c565b6102bc336000356001600160e01b031916610691565b6102d8576040516282b42960e81b815260040160405180910390fd5b8015610307576001600160a01b03831660009081526002602052604090208054600160ff85161b17905561032d565b6001600160a01b03831660009081526002602052604090208054600160ff85161b191690555b8160ff16836001600160a01b03167f4c9bdd0c8e073eb5eda2250b18d8e5121ff27b62064fbeeeed4869bb99bc5bf28360405161036e911515815260200190565b60405180910390a3505050565b6000546001600160a01b031633146103a5576040516282b42960e81b815260040160405180910390fd5b600180546001600160a01b0319166001600160a01b03831690811790915560405133907fa3396fd7f6e0a21b50e5089d2da70d5ac0a3bbbd1f617a93f134b7638998019890600090a350565b610407336000356001600160e01b031916610691565b610423576040516282b42960e81b815260040160405180910390fd5b8015610467576001600160a01b03831660009081526004602090815260408083206001600160e01b03198616845290915290208054600160ff87161b1790556104a2565b6001600160a01b03831660009081526004602090815260408083206001600160e01b03198616845290915290208054600160ff87161b191690555b816001600160e01b031916836001600160a01b03168560ff167fa52ea92e6e955aa8ac66420b86350f7139959adfcc7e6a14eee1bd116d09860e846040516104ee911515815260200190565b60405180910390a450505050565b6001600160a01b03821660009081526003602090815260408083206001600160e01b03198516845290915281205460ff168061057357506001600160a01b0380841660009081526004602090815260408083206001600160e01b031987168452825280832054938816835260029091529020541615155b949350505050565b610591336000356001600160e01b031916610691565b6105ad576040516282b42960e81b815260040160405180910390fd5b6001600160a01b03831660008181526003602090815260408083206001600160e01b0319871680855290835292819020805460ff191686151590811790915590519081529192917f950a343f5d10445e82a71036d3f4fb3016180a25805141932543b83e2078a93e910161036e565b6000546001600160a01b03163314610646576040516282b42960e81b815260040160405180910390fd5b600080546001600160a01b0319166001600160a01b0383169081178255604051909133917f8be0079c531659141344cd1fd0a4f28419497f9722a3daafe3b4186f6b6457e09190a350565b6001546000906001600160a01b0316801580159061072a575060405163b700961360e01b81526001600160a01b0385811660048301523060248301526001600160e01b03198516604483015282169063b700961390606401602060405180830381865afa158015610706573d6000803e3d6000fd5b505050506040513d601f19601f8201168201806040525081019061072a9190610956565b8061057357506000546001600160a01b03858116911614949350505050565b6001600160a01b038116811461075e57600080fd5b50565b60006020828403121561077357600080fd5b813561077e81610749565b9392505050565b80356001600160e01b03198116811461079d57600080fd5b919050565b600080604083850312156107b557600080fd5b82356107c081610749565b91506107ce60208401610785565b90509250929050565b803560ff8116811461079d57600080fd5b801515811461075e57600080fd5b60008060006060848603121561080b57600080fd5b833561081681610749565b9250610824602085016107d7565b91506040840135610834816107e8565b809150509250925092565b6000806000806080858703121561085557600080fd5b61085e856107d7565b9350602085013561086e81610749565b925061087c60408601610785565b9150606085013561088c816107e8565b939692955090935050565b6000806000606084860312156108ac57600080fd5b6108b5846107d7565b925060208401356108c581610749565b91506108d360408501610785565b90509250925092565b6000806000606084860312156108f157600080fd5b83356108b581610749565b60008060006060848603121561091157600080fd5b833561091c81610749565b925061082460208501610785565b6000806040838503121561093d57600080fd5b823561094881610749565b91506107ce602084016107d7565b60006020828403121561096857600080fd5b815161077e816107e856fea26469706673582212207c5b6901c4a888feab01fb52a6d4c89862836d9a313ea10c8320225f3002b93164736f6c634300081c003360a060405234801561001057600080fd5b50604051806040016040528060048152602001634d6f636b60e01b815250604051806040016040528060038152602001624d434b60e81b8152506012826000908161005b9190610116565b5060016100688382610116565b5060ff16608052506101d49050565b634e487b7160e01b600052604160045260246000fd5b600181811c908216806100a157607f821691505b6020821081036100c157634e487b7160e01b600052602260045260246000fd5b50919050565b601f82111561011157806000526020600020601f840160051c810160208510156100ee5750805b601f840160051c820191505b8181101561010e57600081556001016100fa565b50505b505050565b81516001600160401b0381111561012f5761012f610077565b6101438161013d845461008d565b846100c7565b6020601f821160018114610177576000831561015f5750848201515b600019600385901b1c1916600184901b17845561010e565b600084815260208120601f198516915b828110156101a75787850151825560209485019460019092019101610187565b50848210156101c55786840151600019600387901b60f8161c191681555b50505050600190811b01905550565b60805161067f6101ef6000396000610113015261067f6000f3fe608060405234801561001057600080fd5b506004361061009e5760003560e01c806340c10f191161006657806340c10f191461014757806370a082311461015c57806395d89b411461017c578063a9059cbb14610184578063dd62ed3e1461019757600080fd5b806306fdde03146100a3578063095ea7b3146100c157806318160ddd146100e457806323b872dd146100fb578063313ce5671461010e575b600080fd5b6100ab6101c2565b6040516100b891906104ad565b60405180910390f35b6100d46100cf366004610517565b610250565b60405190151581526020016100b8565b6100ed60025481565b6040519081526020016100b8565b6100d4610109366004610541565b6102bd565b6101357f000000000000000000000000000000000000000000000000000000000000000081565b60405160ff90911681526020016100b8565b61015a610155366004610517565b6103af565b005b6100ed61016a36600461057e565b60036020526000908152604090205481565b6100ab6103bd565b6100d4610192366004610517565b6103ca565b6100ed6101a53660046105a0565b600460209081526000928352604080842090915290825290205481565b600080546101cf906105d3565b80601f01602080910402602001604051908101604052809291908181526020018280546101fb906105d3565b80156102485780601f1061021d57610100808354040283529160200191610248565b820191906000526020600020905b81548152906001019060200180831161022b57829003601f168201915b505050505081565b3360008181526004602090815260408083206001600160a01b038716808552925280832085905551919290917f8c5be1e5ebec7d5bd14f71427d1e84f3dd0314c0f7b2291e5b200ac8c7c3b925906102ab9086815260200190565b60405180910390a35060015b92915050565b6001600160a01b03831660009081526004602090815260408083203384529091528120546000198114610319576102f48382610623565b6001600160a01b03861660009081526004602090815260408083203384529091529020555b6001600160a01b03851660009081526003602052604081208054859290610341908490610623565b90915550506001600160a01b03808516600081815260036020526040908190208054870190555190918716907fddf252ad1be2c89b69c2b068fc378daa952ba7f163c4a11628f55a4df523b3ef9061039c9087815260200190565b60405180910390a3506001949350505050565b6103b98282610442565b5050565b600180546101cf906105d3565b336000908152600360205260408120805483919083906103eb908490610623565b90915550506001600160a01b038316600081815260036020526040908190208054850190555133907fddf252ad1be2c89b69c2b068fc378daa952ba7f163c4a11628f55a4df523b3ef906102ab9086815260200190565b80600260008282546104549190610636565b90915550506001600160a01b0382166000818152600360209081526040808320805486019055518481527fddf252ad1be2c89b69c2b068fc378daa952ba7f163c4a11628f55a4df523b3ef910160405180910390a35050565b602081526000825180602084015260005b818110156104db57602081860181015160408684010152016104be565b506000604082850101526040601f19601f83011684010191505092915050565b80356001600160a01b038116811461051257600080fd5b919050565b6000806040838503121561052a57600080fd5b610533836104fb565b946020939093013593505050565b60008060006060848603121561055657600080fd5b61055f846104fb565b925061056d602085016104fb565b929592945050506040919091013590565b60006020828403121561059057600080fd5b610599826104fb565b9392505050565b600080604083850312156105b357600080fd5b6105bc836104fb565b91506105ca602084016104fb565b90509250929050565b600181811c908216806105e757607f821691505b60208210810361060757634e487b7160e01b600052602260045260246000fd5b50919050565b634e487b7160e01b600052601160045260246000fd5b818103818111156102b7576102b761060d565b808201808211156102b7576102b761060d56fea2646970667358221220d1305919989b7636a5f4692305fcdb4cd09c5c8126516a3bab976e51db35451064736f6c634300081c003360c0604052600160075534801561001557600080fd5b506040516127af3803806127af833981016040819052610034916102f7565b81818787878181846001600160a01b031663313ce5676040518163ffffffff1660e01b8152600401602060405180830381865afa158015610079573d6000803e3d6000fd5b505050506040513d601f19601f8201168201806040525081019061009d91906103ae565b60006100a98482610461565b5060016100b68382610461565b5060ff166080525050506001600160a01b0391821660a05250600580548483166001600160a01b031991821681179092556006805493851693909116929092179091556040516000907f8be0079c531659141344cd1fd0a4f28419497f9722a3daafe3b4186f6b6457e0908290a36040516001600160a01b038216906000907fa3396fd7f6e0a21b50e5089d2da70d5ac0a3bbbd1f617a93f134b76389980198908290a350506001600160a01b0383166101835760405163d92e233d60e01b815260040160405180910390fd5b600b80546001600160a01b0319166001600160a01b03851617905542600e556101b061dead6103e86101bb565b505050505050610546565b80600260008282546101cd919061051f565b90915550506001600160a01b0382166000818152600360209081526040808320805486019055518481527fddf252ad1be2c89b69c2b068fc378daa952ba7f163c4a11628f55a4df523b3ef910160405180910390a35050565b6001600160a01b038116811461023b57600080fd5b50565b634e487b7160e01b600052604160045260246000fd5b600082601f83011261026557600080fd5b81516001600160401b0381111561027e5761027e61023e565b604051601f8201601f19908116603f011681016001600160401b03811182821017156102ac576102ac61023e565b6040528181528382016020018510156102c457600080fd5b60005b828110156102e3576020818601810151838301820152016102c7565b506000918101602001919091529392505050565b60008060008060008060c0878903121561031057600080fd5b865161031b81610226565b60208801519096506001600160401b0381111561033757600080fd5b61034389828a01610254565b604089015190965090506001600160401b0381111561036157600080fd5b61036d89828a01610254565b945050606087015161037e81610226565b608088015190935061038f81610226565b60a08801519092506103a081610226565b809150509295509295509295565b6000602082840312156103c057600080fd5b815160ff811681146103d157600080fd5b9392505050565b600181811c908216806103ec57607f821691505b60208210810361040c57634e487b7160e01b600052602260045260246000fd5b50919050565b601f82111561045c57806000526020600020601f840160051c810160208510156104395750805b601f840160051c820191505b818110156104595760008155600101610445565b50505b505050565b81516001600160401b0381111561047a5761047a61023e565b61048e8161048884546103d8565b84610412565b6020601f8211600181146104c257600083156104aa5750848201515b600019600385901b1c1916600184901b178455610459565b600084815260208120601f198516915b828110156104f257878501518255602094850194600190920191016104d2565b50848210156105105786840151600019600387901b60f8161c191681555b50505050600190811b01905550565b8082018082111561054057634e487b7160e01b600052601160045260246000fd5b92915050565b60805160a0516121f06105bf600039600081816104bf0152818161086501528181610bd701528181610e9d01528181610edc0152818161115c0152818161123f0152818161150c015281816115850152818161182f015281816118a80152818161198e0152611b500152600061047e01526121f06000f3fe608060405234801561001057600080fd5b50600436106103a35760003560e01c806387788782116101e9578063bf7e214f1161010f578063e74b981b116100ad578063f0de82281161007c578063f0de8228146107b9578063f19451d814610671578063f2fde38b146107c2578063ff50abdc146107d557600080fd5b8063e74b981b14610782578063e941fa7814610795578063ec6280701461079e578063ef8b30f7146107a657600080fd5b8063ce96cb77116100e9578063ce96cb7714610712578063d73792a914610725578063d905777e1461072e578063dd62ed3e1461075757600080fd5b8063bf7e214f146106ec578063c63d75b614610503578063c6e6f592146106ff57600080fd5b8063a1a47d7111610187578063b6ac642a11610156578063b6ac642a146106b3578063ba087652146106c6578063bc063e1a14610671578063beceed39146106d957600080fd5b8063a1a47d7114610671578063a9059cbb1461067a578063b3d7f6b91461068d578063b460af94146106a057600080fd5b806394bf804d116101c357806394bf804d1461063057806395ccea671461064357806395d89b41146106565780639e447fc61461065e57600080fd5b8063877887821461060b5780638da5cb5b146106145780639231cf741461062757600080fd5b8063446a2ec8116102ce57806367a527931161026c5780637a9e5e4b1161023b5780637a9e5e4b146105c75780637b0a47ee146105da578063818ae1ce146105e35780638456cb591461060357600080fd5b806367a52793146105785780636e553f651461058157806370897b231461059457806370a08231146105a757600080fd5b80634b319713116102a85780634b319713146105465780634cdad5061461054f5780634e6fd6c4146105625780635c975abb1461056b57600080fd5b8063446a2ec8146105185780634690484014610520578063490ae2101461053357600080fd5b80630ab747f011610346578063372500ab11610315578063372500ab146104b257806338d52e0f146104ba5780633f4ba83a146104f9578063402d267d1461050357600080fd5b80630ab747f01461045457806318160ddd1461045d57806323b872dd14610466578063313ce5671461047957600080fd5b80630700037d116103825780630700037d146103eb57806307a2d13a1461040b578063095ea7b31461041e5780630a28a4771461044157600080fd5b80628cc262146103a857806301e1d114146103ce57806306fdde03146103d6575b600080fd5b6103bb6103b6366004611f38565b6107de565b6040519081526020015b60405180910390f35b6103bb61085b565b6103de610899565b6040516103c59190611f55565b6103bb6103f9366004611f38565b60116020526000908152604090205481565b6103bb610419366004611fa3565b610927565b61043161042c366004611fbc565b61095e565b60405190151581526020016103c5565b6103bb61044f366004611fa3565b6109ca565b6103bb600f5481565b6103bb60025481565b610431610474366004611fe8565b6109fd565b6104a07f000000000000000000000000000000000000000000000000000000000000000081565b60405160ff90911681526020016103c5565b6103bb610add565b6104e17f000000000000000000000000000000000000000000000000000000000000000081565b6040516001600160a01b0390911681526020016103c5565b610501610c3b565b005b6103bb610511366004611f38565b5060001990565b6103bb610cad565b600b546104e1906001600160a01b031681565b610501610541366004611fa3565b610d06565b6103bb60135481565b6103bb61055d366004611fa3565b610da7565b6104e161dead81565b6014546104319060ff1681565b6103bb60085481565b6103bb61058f366004612029565b610db2565b6105016105a2366004611fa3565b610fbc565b6103bb6105b5366004611f38565b60036020526000908152604090205481565b6105016105d5366004611f38565b61105d565b6103bb600c5481565b6103bb6105f1366004611f38565b60106020526000908152604090205481565b6105016110d3565b6103bb600a5481565b6005546104e1906001600160a01b031681565b6103bb600e5481565b6103bb61063e366004612029565b611142565b610501610651366004611fbc565b6111d9565b6103de6112ad565b61050161066c366004611fa3565b6112ba565b6103bb6103e881565b610431610688366004611fbc565b611337565b6103bb61069b366004611fa3565b61139d565b6103bb6106ae366004612059565b6113bc565b6105016106c1366004611fa3565b61161d565b6103bb6106d4366004612059565b6116be565b6105016106e7366004611fa3565b61192e565b6006546104e1906001600160a01b031681565b6103bb61070d366004611fa3565b611a03565b6103bb610720366004611f38565b611a21565b6103bb61271081565b6103bb61073c366004611f38565b6001600160a01b031660009081526003602052604090205490565b6103bb61076536600461209b565b600460209081526000928352604080842090915290825290205481565b610501610790366004611f38565b611a43565b6103bb60095481565b610501611af8565b6103bb6107b4366004611fa3565b611b7c565b6103bb600d5481565b6105016107d0366004611f38565b611b87565b6103bb60125481565b6001600160a01b0381166000908152601160209081526040808320546010909252822054670de0b6b3a764000090610814610cad565b61081e91906120df565b6001600160a01b03851660009081526003602052604090205461084191906120f2565b61084b9190612109565b610855919061212b565b92915050565b6000600d5461088a7f000000000000000000000000000000000000000000000000000000000000000030611bfd565b61089491906120df565b905090565b600080546108a69061213e565b80601f01602080910402602001604051908101604052809291908181526020018280546108d29061213e565b801561091f5780601f106108f45761010080835404028352916020019161091f565b820191906000526020600020905b81548152906001019060200180831161090257829003601f168201915b505050505081565b6002546000908015610955578061093c61085b565b61094690856120f2565b6109509190612109565b610957565b825b9392505050565b3360008181526004602090815260408083206001600160a01b038716808552925280832085905551919290917f8c5be1e5ebec7d5bd14f71427d1e84f3dd0314c0f7b2291e5b200ac8c7c3b925906109b99086815260200190565b60405180910390a350600192915050565b6002546000908015610955576109de61085b565b6109e882856120f2565b6109f29190612109565b61095090600161212b565b6001600160a01b03831660009081526004602090815260408083203384529091528120546000198114610a5957610a3483826120df565b6001600160a01b03861660009081526004602090815260408083203384529091529020555b6001600160a01b03851660009081526003602052604081208054859290610a819084906120df565b90915550506001600160a01b038085166000818152600360205260409081902080548701905551909187169060008051602061219b83398151915290610aca9087815260200190565b60405180910390a3506001949350505050565b6000600754600203610b025760405163558a1e0360e11b815260040160405180910390fd5b600260075560145460ff1615610b2b5760405163ab35696f60e01b815260040160405180910390fd5b610b3433611c35565b503360009081526011602052604081205490819003610b66576040516356e16dff60e11b815260040160405180910390fd5b600d54811115610ba057600d54604051632f1a9a5160e11b8152610b97918391600401918252602082015260400190565b60405180910390fd5b336000908152601160205260408120819055600d8054839290610bc49084906120df565b90915550610bfe90506001600160a01b037f0000000000000000000000000000000000000000000000000000000000000000163383611c8b565b60405181815233907ffc30cddea38e2bf4d6ea7d3f9ed3b6ad7f176419f4963bd81318067a4aee73fe9060200160405180910390a2600160075590565b610c51336000356001600160e01b031916611d12565b610c6d576040516282b42960e81b815260040160405180910390fd5b6014805460ff191690556040513381527f5db9ee0a495bf2e6ff9c91a7834c1ba4fdd244a5e8aa4e537bd38aeae4b073aa906020015b60405180910390a1565b6000600254600003610cc05750600f5490565b600254600c54600e54610cd390426120df565b610cdd91906120f2565b610cef90670de0b6b3a76400006120f2565b610cf99190612109565b600f54610894919061212b565b610d1c336000356001600160e01b031916611d12565b610d38576040516282b42960e81b815260040160405180910390fd5b6103e8811115610d66576040516301ff117d60e11b8152600481018290526103e86024820152604401610b97565b60085460408051918252602082018390527f828cf983933545af35b9ba46eec951db1cb4c5433c3ec403aeced2963c264790910160405180910390a1600855565b600061085582610927565b6000600754600203610dd75760405163558a1e0360e11b815260040160405180910390fd5b600260075560145460ff1615610e005760405163ab35696f60e01b815260040160405180910390fd5b6103e8831015610e2e5760405163253bf97d60e11b8152600481018490526103e86024820152604401610b97565b610e3782611c35565b600061271060085485610e4a91906120f2565b610e549190612109565b90506000610e6282866120df565b9050610e6d81611b7c565b925082600003610e9057604051631f2a200560e01b815260040160405180910390fd5b610ec56001600160a01b037f000000000000000000000000000000000000000000000000000000000000000016333088611dcb565b8115610f4857600b54610f05906001600160a01b037f00000000000000000000000000000000000000000000000000000000000000008116911684611c8b565b600b546040518381526001600160a01b03909116907f9dc46f23cfb5ddcad0ae7ea2be38d47fec07bb9382ec7e564efc69e036dd66ce9060200160405180910390a25b610f528484611e67565b8060126000828254610f64919061212b565b909155505060408051828152602081018590526001600160a01b0386169133917fdcbc1c05240f31ff3ad067ef1ee35ce4997762752e3a095284754544f4c709d7910160405180910390a35050600160075592915050565b610fd2336000356001600160e01b031916611d12565b610fee576040516282b42960e81b815260040160405180910390fd5b6103e881111561101c576040516301ff117d60e11b8152600481018290526103e86024820152604401610b97565b600a5460408051918252602082018390527f607b1c943753982194530bf7133a5972ea2626e028005410efa54ab20035caf8910160405180910390a1600a55565b6005546001600160a01b03163314611087576040516282b42960e81b815260040160405180910390fd5b600680546001600160a01b0319166001600160a01b03831690811790915560405133907fa3396fd7f6e0a21b50e5089d2da70d5ac0a3bbbd1f617a93f134b7638998019890600090a350565b6110e9336000356001600160e01b031916611d12565b611105576040516282b42960e81b815260040160405180910390fd5b6014805460ff191660011790556040513381527f62e78cea01bee320cd4e420270b5ea74000d11b0c9f74754ebdbfc544b05a25890602001610ca3565b600061114d8361139d565b90506111846001600160a01b037f000000000000000000000000000000000000000000000000000000000000000016333084611dcb565b61118e8284611e67565b60408051828152602081018590526001600160a01b0384169133917fdcbc1c05240f31ff3ad067ef1ee35ce4997762752e3a095284754544f4c709d7910160405180910390a3610855565b6111ef336000356001600160e01b031916611d12565b61120b576040516282b42960e81b815260040160405180910390fd5b6001600160a01b0382166112325760405163d92e233d60e01b815260040160405180910390fd5b6112666001600160a01b037f0000000000000000000000000000000000000000000000000000000000000000168383611c8b565b816001600160a01b03167f5fafa99d0643513820be26656b45130b01e1c03062e1266bf36f88cbd3bd9695826040516112a191815260200190565b60405180910390a25050565b600180546108a69061213e565b6112d0336000356001600160e01b031916611d12565b6112ec576040516282b42960e81b815260040160405180910390fd5b6112f66000611c35565b600c5460408051918252602082018390527fc390a98ace15a7bb6bab611eedfdbb2685043b241a869420043cdfb23ccfee50910160405180910390a1600c55565b336000908152600360205260408120805483919083906113589084906120df565b90915550506001600160a01b0383166000818152600360205260409081902080548501905551339060008051602061219b833981519152906109b99086815260200190565b600254600090801561095557806113b261085b565b6109e890856120f2565b60006007546002036113e15760405163558a1e0360e11b815260040160405180910390fd5b600260075560145460ff161561140a5760405163ab35696f60e01b815260040160405180910390fd5b611420336000356001600160e01b031916611d12565b61143c576040516282b42960e81b815260040160405180910390fd5b61144582611c35565b61144e846109ca565b9050336001600160a01b038316146114be576001600160a01b038216600090815260046020908152604080832033845290915290205460001981146114bc5761149782826120df565b6001600160a01b03841660009081526004602090815260408083203384529091529020555b505b6114c88282611ec1565b6000612710600954866114db91906120f2565b6114e59190612109565b905060006114f382876120df565b9050811561157857600b54611535906001600160a01b037f00000000000000000000000000000000000000000000000000000000000000008116911684611c8b565b600b546040518381526001600160a01b03909116907f9dc46f23cfb5ddcad0ae7ea2be38d47fec07bb9382ec7e564efc69e036dd66ce9060200160405180910390a25b6115ac6001600160a01b037f0000000000000000000000000000000000000000000000000000000000000000168683611c8b565b85601360008282546115be919061212b565b909155505060408051878152602081018590526001600160a01b03808716929088169133917ffbde797d201c681b91056529119e0b02407c7bb96a4a2c75c01fc9667232c8db91015b60405180910390a4505060016007559392505050565b611633336000356001600160e01b031916611d12565b61164f576040516282b42960e81b815260040160405180910390fd5b6103e881111561167d576040516301ff117d60e11b8152600481018290526103e86024820152604401610b97565b60095460408051918252602082018390527f733071ab8253b372ed26a6d1b04aec71c4bfcd209c93397df32bb77478cdd2c8910160405180910390a1600955565b60006007546002036116e35760405163558a1e0360e11b815260040160405180910390fd5b600260075560145460ff161561170c5760405163ab35696f60e01b815260040160405180910390fd5b611722336000356001600160e01b031916611d12565b61173e576040516282b42960e81b815260040160405180910390fd5b61174782611c35565b336001600160a01b038316146117b5576001600160a01b038216600090815260046020908152604080832033845290915290205460001981146117b35761178e85826120df565b6001600160a01b03841660009081526004602090815260408083203384529091529020555b505b6117be84610da7565b9050806000036117e157604051631f2a200560e01b815260040160405180910390fd5b6117eb8285611ec1565b6000612710600954836117fe91906120f2565b6118089190612109565b9050600061181682846120df565b9050811561189b57600b54611858906001600160a01b037f00000000000000000000000000000000000000000000000000000000000000008116911684611c8b565b600b546040518381526001600160a01b03909116907f9dc46f23cfb5ddcad0ae7ea2be38d47fec07bb9382ec7e564efc69e036dd66ce9060200160405180910390a25b6118cf6001600160a01b037f0000000000000000000000000000000000000000000000000000000000000000168683611c8b565b82601360008282546118e1919061212b565b909155505060408051848152602081018890526001600160a01b03808716929088169133917ffbde797d201c681b91056529119e0b02407c7bb96a4a2c75c01fc9667232c8db9101611607565b611944336000356001600160e01b031916611d12565b611960576040516282b42960e81b815260040160405180910390fd5b8060000361198157604051631f2a200560e01b815260040160405180910390fd5b6119b66001600160a01b037f000000000000000000000000000000000000000000000000000000000000000016333084611dcb565b80600d60008282546119c8919061212b565b90915550506040518181527ff8fad42e780bfa5459be3fe691e8ba1aec70342250112139c5771c3fd155f3129060200160405180910390a150565b600254600090801561095557611a1761085b565b61094682856120f2565b6001600160a01b03811660009081526003602052604081205461085590610927565b611a59336000356001600160e01b031916611d12565b611a75576040516282b42960e81b815260040160405180910390fd5b6001600160a01b038116611a9c5760405163d92e233d60e01b815260040160405180910390fd5b600b546040516001600160a01b038084169216907faaebcf1bfa00580e41d966056b48521fa9f202645c86d4ddf28113e617c1b1d390600090a3600b80546001600160a01b0319166001600160a01b0392909216919091179055565b611b0061085b565b15611b435760405162461bcd60e51b81526020600482015260136024820152721053149150511657d253925512505312569151606a1b6044820152606401610b97565b611b7a6001600160a01b037f00000000000000000000000000000000000000000000000000000000000000001633306103e8611dcb565b565b600061085582611a03565b6005546001600160a01b03163314611bb1576040516282b42960e81b815260040160405180910390fd5b600580546001600160a01b0319166001600160a01b03831690811790915560405133907f8be0079c531659141344cd1fd0a4f28419497f9722a3daafe3b4186f6b6457e090600090a350565b60006040516370a0823160e01b81526001600160a01b0383166004820152602081602483875afa611c2d57600080fd5b519392505050565b611c3d610cad565b600f5542600e556001600160a01b03811615611c8857611c5c816107de565b6001600160a01b038216600090815260116020908152604080832093909355600f546010909152919020555b50565b600060405163a9059cbb60e01b81526001600160a01b0384166004820152826024820152602060006044836000895af13d15601f3d1160016000511416171691505080611d0c5760405162461bcd60e51b815260206004820152600f60248201526e1514905394d1915497d19052531151608a1b6044820152606401610b97565b50505050565b6006546000906001600160a01b03168015801590611dab575060405163b700961360e01b81526001600160a01b0385811660048301523060248301526001600160e01b03198516604483015282169063b700961390606401602060405180830381865afa158015611d87573d6000803e3d6000fd5b505050506040513d601f19601f82011682018060405250810190611dab9190612178565b80611dc357506005546001600160a01b038581169116145b949350505050565b60006040516323b872dd60e01b81526001600160a01b03851660048201526001600160a01b03841660248201528260448201526020600060648360008a5af13d15601f3d1160016000511416171691505080611e605760405162461bcd60e51b81526020600482015260146024820152731514905394d1915497d19493d357d1905253115160621b6044820152606401610b97565b5050505050565b8060026000828254611e79919061212b565b90915550506001600160a01b03821660008181526003602090815260408083208054860190555184815260008051602061219b83398151915291015b60405180910390a35050565b6001600160a01b03821660009081526003602052604081208054839290611ee99084906120df565b90915550506002805482900390556040518181526000906001600160a01b0384169060008051602061219b83398151915290602001611eb5565b6001600160a01b0381168114611c8857600080fd5b600060208284031215611f4a57600080fd5b813561095781611f23565b602081526000825180602084015260005b81811015611f835760208186018101516040868401015201611f66565b506000604082850101526040601f19601f83011684010191505092915050565b600060208284031215611fb557600080fd5b5035919050565b60008060408385031215611fcf57600080fd5b8235611fda81611f23565b946020939093013593505050565b600080600060608486031215611ffd57600080fd5b833561200881611f23565b9250602084013561201881611f23565b929592945050506040919091013590565b6000806040838503121561203c57600080fd5b82359150602083013561204e81611f23565b809150509250929050565b60008060006060848603121561206e57600080fd5b83359250602084013561208081611f23565b9150604084013561209081611f23565b809150509250925092565b600080604083850312156120ae57600080fd5b82356120b981611f23565b9150602083013561204e81611f23565b634e487b7160e01b600052601160045260246000fd5b81810381811115610855576108556120c9565b8082028115828204841417610855576108556120c9565b60008261212657634e487b7160e01b600052601260045260246000fd5b500490565b80820180821115610855576108556120c9565b600181811c9082168061215257607f821691505b60208210810361217257634e487b7160e01b600052602260045260246000fd5b50919050565b60006020828403121561218a57600080fd5b8151801515811461095757600080fdfeddf252ad1be2c89b69c2b068fc378daa952ba7f163c4a11628f55a4df523b3efa26469706673582212204c5606db033fe0f9ca545be8da22333e96e407184edf7c98e551cebba96c0d8564736f6c634300081c00336080604052600160025534801561001557600080fd5b50604051611619380380611619833981016040819052610034916100e6565b600080546001600160a01b03199081166001600160a01b038581169182178455600180549093169085161790915560405184928492917f8be0079c531659141344cd1fd0a4f28419497f9722a3daafe3b4186f6b6457e0908290a36040516001600160a01b038216906000907fa3396fd7f6e0a21b50e5089d2da70d5ac0a3bbbd1f617a93f134b76389980198908290a350505050610120565b6001600160a01b03811681146100e357600080fd5b50565b600080604083850312156100f957600080fd5b8251610104816100ce565b6020840151909250610115816100ce565b809150509250929050565b6114ea8061012f6000396000f3fe608060405234801561001057600080fd5b50600436106101215760003560e01c806385c99e2b116100ad578063e8fcf72311610071578063e8fcf72314610282578063f1a64b3e146102be578063f2fde38b146102d1578063fa1026dd146102e4578063fb9ed2571461032a57600080fd5b806385c99e2b146101e05780638da5cb5b14610203578063bf7e214f1461022e578063c8a44efa14610241578063dc6b88121461026f57600080fd5b806350857fb2116100f457806350857fb2146101895780635256e6d314610191578063562955da146101b25780636e99d52f146101c55780637a9e5e4b146101cd57600080fd5b80630dc340e314610126578063108bdc1414610141578063154125db146101565780633257384d14610169575b600080fd5b61012e603281565b6040519081526020015b60405180910390f35b61015461014f366004611016565b61034d565b005b61015461016436600461109b565b610405565b61012e61017736600461110c565b60046020526000908152604090205481565b61012e600281565b6101a461019f366004611130565b6105ec565b6040516101389291906111be565b6101546101c0366004611215565b6109f4565b61012e603c81565b6101546101db36600461110c565b610a61565b6101f36101ee36600461110c565b610ad7565b6040519015158152602001610138565b600054610216906001600160a01b031681565b6040516001600160a01b039091168152602001610138565b600154610216906001600160a01b031681565b6101f361024f36600461124b565b600660209081526000928352604080842090915290825290205460ff1681565b61015461027d366004611280565b610b7c565b6102a961029036600461110c565b6003602052600090815260409020805460019091015482565b60408051928352602083019190915201610138565b6101546102cc3660046112c9565b610c50565b6101546102df36600461110c565b610ec0565b6102a96102f236600461110c565b6001600160a01b0316600090815260036020908152604091829020825180840190935280548084526001909101549290910182905291565b6101f361033836600461110c565b60056020526000908152604090205460ff1681565b610363336000356001600160e01b031916610f35565b61037f576040516282b42960e81b815260040160405180910390fd5b6001600160a01b0382166103a65760405163d92e233d60e01b815260040160405180910390fd5b6001600160a01b038216600081815260056020908152604091829020805460ff191685151590811790915591519182527f52eec1a0372bcc0f149dd096fc04f013047c878bd949d11adecf9b39bc0c71dc910160405180910390a25050565b61041b336000356001600160e01b031916610f35565b610437576040516282b42960e81b815260040160405180910390fd5b82811461047d5760405162461bcd60e51b815260206004820152600f60248201526e0988a9c8ea890be9a92a69a82a8869608b1b60448201526064015b60405180910390fd5b60005b838110156105e557600085858381811061049c5761049c61136f565b90506020020160208101906104b1919061110c565b6001600160a01b0316036104d85760405163d92e233d60e01b815260040160405180910390fd5b8282828181106104ea576104ea61136f565b90506020020160208101906104ff9190611385565b600560008787858181106105155761051561136f565b905060200201602081019061052a919061110c565b6001600160a01b031681526020810191909152604001600020805460ff19169115159190911790558484828181106105645761056461136f565b9050602002016020810190610579919061110c565b6001600160a01b03167f52eec1a0372bcc0f149dd096fc04f013047c878bd949d11adecf9b39bc0c71dc8484848181106105b5576105b561136f565b90506020020160208101906105ca9190611385565b604051901515815260200160405180910390a2600101610480565b5050505050565b600060606002546002036106135760405163558a1e0360e11b815260040160405180910390fd5b6002805561062d336001600160e01b031960003516610f35565b610649576040516282b42960e81b815260040160405180910390fd5b6001600160a01b03861660009081526005602052604090205460ff1661068d576040516347ccabe760e01b81526001600160a01b0387166004820152602401610474565b600061069c60048287896113a2565b6106a5916113cc565b6001600160a01b03881660009081526006602090815260408083206001600160e01b03198516845290915290205490915060ff16610711576040516306920de760e51b81526001600160a01b03881660048201526001600160e01b031982166024820152604401610474565b33600090815260036020908152604091829020825180840190935280548084526001909101549183019190915261075b576040516318d82abb60e31b815260040160405180910390fd5b600081602001514361076d9190611404565b905060028110156107a75760208201516040516308e27a2d60e31b8152436004820152602481019190915260026044820152606401610474565b60328111156107df5760208201516040516305fbef1360e21b8152436004820152602481019190915260326044820152606401610474565b600089898989336040516020016107fa959493929190611425565b604051602081830303815290604052805190602001209050808360000151146108aa57336001600160a01b03167ff1f525d5997a7aa83a6efe647ca99f4fa329b4107e501b4d83b8b9a648a0303460405161087c906020808252601390820152720869e9a9a92a89a8a9ca8be9a92a69a82a8869606b1b604082015260600190565b60405180910390a2825160405163c9e0e75760e01b8152600481019190915260248101829052604401610474565b336000908152600460205260408120546108c49042611404565b9050603c8110156108f6576108da81603c611404565b60405163c1ab61a160e01b815260040161047491815260200190565b336000908152600360209081526040808320838155600101839055600490915290819020429055516001600160a01b038c1690610936908c908c9061146c565b6000604051808303816000865af19150503d8060008114610973576040519150601f19603f3d011682016040523d82523d6000602084013e610978565b606091505b5090975095508661099c57604051632b3f6d1160e21b815260040160405180910390fd5b60405187151581526001600160a01b038c169033907f3a274092d7f6cf2734b92376b25b37aebe3b50c1f6fa74e600103b712d8310179060200160405180910390a35050505050600160028190555094509492505050565b6040805180820182528281524360208083018281523360008181526003845286902094518555905160019094019390935583518581529081019190915290917f4dcc120720fe8f8767b609977100bd4c7108d952d54cd9722720c827539d243a910160405180910390a250565b6000546001600160a01b03163314610a8b576040516282b42960e81b815260040160405180910390fd5b600180546001600160a01b0319166001600160a01b03831690811790915560405133907fa3396fd7f6e0a21b50e5089d2da70d5ac0a3bbbd1f617a93f134b7638998019890600090a350565b6001600160a01b0381166000908152600360209081526040808320815180830190925280548083526001909101549282019290925290610b1a5750600092915050565b6000816020015143610b2c9190611404565b90506002811080610b3d5750603281115b15610b4c575060009392505050565b6001600160a01b038416600090815260046020526040812054610b6f9042611404565b603c111595945050505050565b610b92336000356001600160e01b031916610f35565b610bae576040516282b42960e81b815260040160405180910390fd5b6001600160a01b038316610bd55760405163d92e233d60e01b815260040160405180910390fd5b6001600160a01b03831660008181526006602090815260408083206001600160e01b0319871680855290835292819020805460ff19168615159081179091558151938452918301919091527f7358e0c8cc4e599d3dce63ee899196498191b6d98bb616b28162ff0658fba3f5910160405180910390a2505050565b610c66336000356001600160e01b031916610f35565b610c82576040516282b42960e81b815260040160405180910390fd5b8483148015610c9057508281145b610cce5760405162461bcd60e51b815260206004820152600f60248201526e0988a9c8ea890be9a92a69a82a8869608b1b6044820152606401610474565b60005b85811015610eb7576000878783818110610ced57610ced61136f565b9050602002016020810190610d02919061110c565b6001600160a01b031603610d295760405163d92e233d60e01b815260040160405180910390fd5b828282818110610d3b57610d3b61136f565b9050602002016020810190610d509190611385565b60066000898985818110610d6657610d6661136f565b9050602002016020810190610d7b919061110c565b6001600160a01b03166001600160a01b031681526020019081526020016000206000878785818110610daf57610daf61136f565b9050602002016020810190610dc4919061147c565b6001600160e01b03191681526020810191909152604001600020805460ff1916911515919091179055868682818110610dff57610dff61136f565b9050602002016020810190610e14919061110c565b6001600160a01b03167f7358e0c8cc4e599d3dce63ee899196498191b6d98bb616b28162ff0658fba3f5868684818110610e5057610e5061136f565b9050602002016020810190610e65919061147c565b858585818110610e7757610e7761136f565b9050602002016020810190610e8c9190611385565b604080516001600160e01b0319909316835290151560208301520160405180910390a2600101610cd1565b50505050505050565b6000546001600160a01b03163314610eea576040516282b42960e81b815260040160405180910390fd5b600080546001600160a01b0319166001600160a01b0383169081178255604051909133917f8be0079c531659141344cd1fd0a4f28419497f9722a3daafe3b4186f6b6457e09190a350565b6001546000906001600160a01b03168015801590610fce575060405163b700961360e01b81526001600160a01b0385811660048301523060248301526001600160e01b03198516604483015282169063b700961390606401602060405180830381865afa158015610faa573d6000803e3d6000fd5b505050506040513d601f19601f82011682018060405250810190610fce9190611497565b80610fe657506000546001600160a01b038581169116145b9150505b92915050565b6001600160a01b038116811461100557600080fd5b50565b801515811461100557600080fd5b6000806040838503121561102957600080fd5b823561103481610ff0565b9150602083013561104481611008565b809150509250929050565b60008083601f84011261106157600080fd5b50813567ffffffffffffffff81111561107957600080fd5b6020830191508360208260051b850101111561109457600080fd5b9250929050565b600080600080604085870312156110b157600080fd5b843567ffffffffffffffff8111156110c857600080fd5b6110d48782880161104f565b909550935050602085013567ffffffffffffffff8111156110f457600080fd5b6111008782880161104f565b95989497509550505050565b60006020828403121561111e57600080fd5b813561112981610ff0565b9392505050565b6000806000806060858703121561114657600080fd5b843561115181610ff0565b9350602085013567ffffffffffffffff81111561116d57600080fd5b8501601f8101871361117e57600080fd5b803567ffffffffffffffff81111561119557600080fd5b8760208284010111156111a757600080fd5b949760209190910196509394604001359392505050565b8215158152604060208201526000825180604084015260005b818110156111f457602081860181015160608684010152016111d7565b506000606082850101526060601f19601f8301168401019150509392505050565b60006020828403121561122757600080fd5b5035919050565b80356001600160e01b03198116811461124657600080fd5b919050565b6000806040838503121561125e57600080fd5b823561126981610ff0565b91506112776020840161122e565b90509250929050565b60008060006060848603121561129557600080fd5b83356112a081610ff0565b92506112ae6020850161122e565b915060408401356112be81611008565b809150509250925092565b600080600080600080606087890312156112e257600080fd5b863567ffffffffffffffff8111156112f957600080fd5b61130589828a0161104f565b909750955050602087013567ffffffffffffffff81111561132557600080fd5b61133189828a0161104f565b909550935050604087013567ffffffffffffffff81111561135157600080fd5b61135d89828a0161104f565b979a9699509497509295939492505050565b634e487b7160e01b600052603260045260246000fd5b60006020828403121561139757600080fd5b813561112981611008565b600080858511156113b257600080fd5b838611156113bf57600080fd5b5050820193919092039150565b80356001600160e01b031981169060048410156113fd576001600160e01b0319600485900360031b81901b82161691505b5092915050565b81810381811115610fea57634e487b7160e01b600052601160045260246000fd5b6bffffffffffffffffffffffff198660601b16815283856014830137601493019283019190915260601b6bffffffffffffffffffffffff1916603482015260480192915050565b8183823760009101908152919050565b60006020828403121561148e57600080fd5b6111298261122e565b6000602082840312156114a957600080fd5b81516111298161100856fea2646970667358221220a6efc5a515b5b8eef3563232afecfd2042fa27baaf2fdc9adddcb0f633ea873064736f6c634300081c00336080604052600160025560326007556101f460085534801561002057600080fd5b506040516114f23803806114f283398101604081905261003f916100f1565b600080546001600160a01b03199081166001600160a01b038581169182178455600180549093169085161790915560405184928492917f8be0079c531659141344cd1fd0a4f28419497f9722a3daafe3b4186f6b6457e0908290a36040516001600160a01b038216906000907fa3396fd7f6e0a21b50e5089d2da70d5ac0a3bbbd1f617a93f134b76389980198908290a35050505061012b565b6001600160a01b03811681146100ee57600080fd5b50565b6000806040838503121561010457600080fd5b825161010f816100d9565b6020840151909250610120816100d9565b809150509250929050565b6113b88061013a6000396000f3fe608060405234801561001057600080fd5b506004361061014d5760003560e01c80636605a2dd116100c3578063bf7e214f1161007c578063bf7e214f146103b3578063c38f7af4146103c6578063c4aa7395146103e9578063d55be8c6146103f2578063e1a45218146103fb578063f2fde38b1461040457600080fd5b80636605a2dd14610321578063679d86a71461033457806376f30174146103575780637a9e5e4b1461036c5780638da5cb5b1461037f57806396667621146103aa57600080fd5b80632c18e9a5116101155780632c18e9a51461023957806333c0950a1461024c578063363cc3ad146102e057806346ce4175146102f3578063602fdf0b146102fb57806362bb2f401461030e57600080fd5b80630392f1bb146101525780630b29f032146101675780631408e1191461017a5780631acc050e146101a05780631d661b4714610203575b600080fd5b610165610160366004611025565b610417565b005b61016561017536600461105d565b6105b3565b61018d6101883660046110cb565b610657565b6040519081526020015b60405180910390f35b6101dc6101ae36600461116d565b6003602052600090815260409020805460018201546002909201546001600160a01b03909116919060ff1683565b604080516001600160a01b0390941684526020840192909252151590820152606001610197565b61022961021136600461116d565b60009081526003602052604090206002015460ff1690565b6040519015158152602001610197565b61018d61024736600461116d565b6109e4565b6102b361025a36600461116d565b60408051606080820183526000808352602080840182905292840181905293845260038252928290208251938401835280546001600160a01b031684526001810154918401919091526002015460ff1615159082015290565b6040805182516001600160a01b031681526020808401519082015291810151151590820152606001610197565b6101656102ee366004611194565b610a05565b60045461018d565b61016561030936600461116d565b610abe565b61016561031c366004611194565b610c31565b61016561032f3660046111cd565b610ce2565b610229610342366004611206565b60066020526000908152604090205460ff1681565b61035f610dd7565b604051610197919061122a565b61016561037a366004611206565b610e2f565b600054610392906001600160a01b031681565b6040516001600160a01b039091168152602001610197565b61018d60075481565b600154610392906001600160a01b031681565b6102296103d4366004611206565b60056020526000908152604090205460ff1681565b61018d60085481565b61018d6101f481565b61018d61271081565b610165610412366004611206565b610ea5565b61042d336000356001600160e01b031916610f1a565b610449576040516282b42960e81b815260040160405180910390fd5b6001600160a01b0382166104705760405163d92e233d60e01b815260040160405180910390fd5b6101f48111156104a3576040516301ff117d60e11b8152600481018290526101f460248201526044015b60405180910390fd5b6000838152600360205260409020546001600160a01b0316156104dc576040516366adec8b60e11b81526004810184905260240161049a565b604080516060810182526001600160a01b038481168083526020808401868152600185870181815260008b815260038552888120975188546001600160a01b031916971696909617875591518682015590516002909501805460ff1916951515959095179094556004805494850181559092527f8a35acfbc15ff81a39ae7d344fd709f28e8600b4aa8c65c6b64bfe7fe36bd19b9092018690558251918252810183905284917f3002bb40053c0e15a814fb7770be56233bcb58b5e2e3789e728497a57bdb86e091015b60405180910390a2505050565b6105c9336000356001600160e01b031916610f1a565b6105e5576040516282b42960e81b815260040160405180910390fd5b808211156106105760405163661c5f6560e01b8152600481018390526024810182905260440161049a565b6007829055600881905560408051838152602081018390527f191c97414b9f095caa63f64f09a7ff7a678fb8d535075b30afa787cf3fd1be5d910160405180910390a15050565b600060025460020361067c5760405163558a1e0360e11b815260040160405180910390fd5b60028055610696336001600160e01b031960003516610f1a565b6106b2576040516282b42960e81b815260040160405180910390fd5b600089815260036020908152604091829020825160608101845281546001600160a01b031681526001820154928101929092526002015460ff161515918101829052906107155760405163b89ccc6760e01b8152600481018b905260240161049a565b8760000361073657604051631f2a200560e01b815260040160405180910390fd5b60005b868110156107e157600560008989848181106107575761075761126d565b905060200201602081019061076c9190611206565b6001600160a01b0316815260208101919091526040016000205460ff166107d95787878281811061079f5761079f61126d565b90506020020160208101906107b49190611206565b60405163740bb42360e11b81526001600160a01b03909116600482015260240161049a565b600101610739565b5060006107f76001600160a01b038b1630610fd5565b905060005b878110156108f25760008989838181106108185761081861126d565b905060200201602081019061082d9190611206565b6001600160a01b03168888848181106108485761084861126d565b905060200281019061085a9190611283565b6040516108689291906112ca565b6000604051808303816000865af19150503d80600081146108a5576040519150601f19603f3d011682016040523d82523d6000602084013e6108aa565b606091505b50509050806108e95760405162461bcd60e51b815260206004820152600b60248201526a14d5d05417d1905253115160aa1b604482015260640161049a565b506001016107fc565b5060006109086001600160a01b038c1630610fd5565b9050600061271084602001518c61091f91906112f0565b6109299190611307565b90506109358184611329565b821015610945576000945061095d565b80610950848461133c565b61095a919061133c565b94505b8585101561098857604051632744211560e11b8152600481018690526024810187905260440161049a565b604080518c8152602081018390526001600160a01b038e16918f917fce3a4faa63c2e344a14564932d8e29f85e50087e1e13218370235f3e2dcec7a2910160405180910390a35050600160025550909998505050505050505050565b600481815481106109f457600080fd5b600091825260209091200154905081565b610a1b336000356001600160e01b031916610f1a565b610a37576040516282b42960e81b815260040160405180910390fd5b6001600160a01b038216610a5e5760405163d92e233d60e01b815260040160405180910390fd5b6001600160a01b038216600081815260056020908152604091829020805460ff191685151590811790915591519182527f655e4fa82869de5d03a3a31e048bd522dc8d5b171452e89d1030c081786dd14b91015b60405180910390a25050565b610ad4336000356001600160e01b031916610f1a565b610af0576040516282b42960e81b815260040160405180910390fd5b6000818152600360205260409020546001600160a01b0316610b275760405162b4805560e71b81526004810182905260240161049a565b600081815260036020526040812080546001600160a01b031916815560018101829055600201805460ff191690555b600454811015610c02578160048281548110610b7457610b7461126d565b906000526020600020015403610bfa5760048054610b949060019061133c565b81548110610ba457610ba461126d565b906000526020600020015460048281548110610bc257610bc261126d565b6000918252602090912001556004805480610bdf57610bdf61134f565b60019003818190600052602060002001600090559055610c02565b600101610b56565b5060405181907f8ff904e4b42585f1f2cb73869349c4eac41d8715d0bfb32ac1087d9623147c4a90600090a250565b610c47336000356001600160e01b031916610f1a565b610c63576040516282b42960e81b815260040160405180910390fd5b6001600160a01b038216610c8a5760405163d92e233d60e01b815260040160405180910390fd5b6001600160a01b038216600081815260066020908152604091829020805460ff191685151590811790915591519182527f9fdbc2d48b8a0db2f62663bf9312ad02f5b1f6414ad600b55a247d09aeec3ea29101610ab2565b610cf8336000356001600160e01b031916610f1a565b610d14576040516282b42960e81b815260040160405180910390fd5b6000838152600360205260409020546001600160a01b0316610d4b5760405162b4805560e71b81526004810184905260240161049a565b6101f4821115610d79576040516301ff117d60e11b8152600481018390526101f4602482015260440161049a565b60008381526003602090815260409182902060018101859055600201805460ff191684151590811790915582518581529182015284917f7186b991304216e25ce88e85460e9a834465d8bb8545980df184321fe1d44b2391016105a6565b60606004805480602002602001604051908101604052809291908181526020018280548015610e2557602002820191906000526020600020905b815481526020019060010190808311610e11575b5050505050905090565b6000546001600160a01b03163314610e59576040516282b42960e81b815260040160405180910390fd5b600180546001600160a01b0319166001600160a01b03831690811790915560405133907fa3396fd7f6e0a21b50e5089d2da70d5ac0a3bbbd1f617a93f134b7638998019890600090a350565b6000546001600160a01b03163314610ecf576040516282b42960e81b815260040160405180910390fd5b600080546001600160a01b0319166001600160a01b0383169081178255604051909133917f8be0079c531659141344cd1fd0a4f28419497f9722a3daafe3b4186f6b6457e09190a350565b6001546000906001600160a01b03168015801590610fb3575060405163b700961360e01b81526001600160a01b0385811660048301523060248301526001600160e01b03198516604483015282169063b700961390606401602060405180830381865afa158015610f8f573d6000803e3d6000fd5b505050506040513d601f19601f82011682018060405250810190610fb39190611365565b80610fcb57506000546001600160a01b038581169116145b9150505b92915050565b60006040516370a0823160e01b81526001600160a01b0383166004820152602081602483875afa61100557600080fd5b519392505050565b6001600160a01b038116811461102257600080fd5b50565b60008060006060848603121561103a57600080fd5b83359250602084013561104c8161100d565b929592945050506040919091013590565b6000806040838503121561107057600080fd5b50508035926020909101359150565b60008083601f84011261109157600080fd5b50813567ffffffffffffffff8111156110a957600080fd5b6020830191508360208260051b85010111156110c457600080fd5b9250929050565b60008060008060008060008060c0898b0312156110e757600080fd5b8835975060208901356110f98161100d565b965060408901359550606089013567ffffffffffffffff81111561111c57600080fd5b6111288b828c0161107f565b909650945050608089013567ffffffffffffffff81111561114857600080fd5b6111548b828c0161107f565b999c989b50969995989497949560a00135949350505050565b60006020828403121561117f57600080fd5b5035919050565b801515811461102257600080fd5b600080604083850312156111a757600080fd5b82356111b28161100d565b915060208301356111c281611186565b809150509250929050565b6000806000606084860312156111e257600080fd5b833592506020840135915060408401356111fb81611186565b809150509250925092565b60006020828403121561121857600080fd5b81356112238161100d565b9392505050565b602080825282518282018190526000918401906040840190835b81811015611262578351835260209384019390920191600101611244565b509095945050505050565b634e487b7160e01b600052603260045260246000fd5b6000808335601e1984360301811261129a57600080fd5b83018035915067ffffffffffffffff8211156112b557600080fd5b6020019150368190038213156110c457600080fd5b8183823760009101908152919050565b634e487b7160e01b600052601160045260246000fd5b8082028115828204841417610fcf57610fcf6112da565b60008261132457634e487b7160e01b600052601260045260246000fd5b500490565b80820180821115610fcf57610fcf6112da565b81810381811115610fcf57610fcf6112da565b634e487b7160e01b600052603160045260246000fd5b60006020828403121561137757600080fd5b81516112238161118656fea2646970667358221220b0581d859e5569f320aa2d0e8094389dfef739a47bd058fc401c534335e34ea464736f6c634300081c00336080604052606460085534801561001557600080fd5b506040516112f33803806112f383398101604081905261003491610123565b600080546001600160a01b03199081166001600160a01b038581169182178455600180549093169085161790915560405184928492917f8be0079c531659141344cd1fd0a4f28419497f9722a3daafe3b4186f6b6457e0908290a36040516001600160a01b038216906000907fa3396fd7f6e0a21b50e5089d2da70d5ac0a3bbbd1f617a93f134b76389980198908290a3505060408051608081018252601e8082526028602083018190526014938301849052600a60609093018390526004919091556005556006919091556007555061015d9050565b6001600160a01b038116811461012057600080fd5b50565b6000806040838503121561013657600080fd5b82516101418161010b565b60208401519092506101528161010b565b809150509250929050565b6111878061016c6000396000f3fe608060405234801561001057600080fd5b50600436106101215760003560e01c80638da5cb5b116100ad578063d7376af311610071578063d7376af314610256578063d7b531f714610269578063e6f0015c14610289578063f2fde38b14610292578063fefb36ce146102a557600080fd5b80638da5cb5b146101f5578063bc50caaf14610220578063bf178ba414610228578063bf7e214f1461023b578063c5d8f7661461024e57600080fd5b80633112d242116100f45780633112d2421461019457806341a33c36146101a757806345f19131146101ba5780637a9e5e4b146101c2578063830fda32146101d557600080fd5b8063035f5183146101265780631341f5af1461013b5780632a9903151461016e5780632ac1870914610181575b600080fd5b610139610134366004610e51565b6102db565b005b61015b610149366004610e7d565b60026020526000908152604090205481565b6040519081526020015b60405180910390f35b61013961017c366004610ee6565b6103bd565b61013961018f366004610f57565b610629565b6101396101a2366004610f98565b610721565b61015b6101b5366004610fb1565b610798565b61015b606481565b6101396101d0366004610e7d565b610807565b6101e86101e3366004610ee6565b61087d565b6040516101659190610fe6565b600054610208906001600160a01b031681565b6040516001600160a01b039091168152602001610165565b61015b600081565b61015b610236366004611029565b6109f3565b600154610208906001600160a01b031681565b61015b603281565b61013961026436600461106f565b610acc565b61015b610277366004610f98565b60036020526000908152604090205481565b61015b60085481565b6101396102a0366004610e7d565b610bbe565b6004546005546006546007546102bb9392919084565b604080519485526020850193909352918301526060820152608001610165565b6102f1336000356001600160e01b031916610c33565b61030d576040516282b42960e81b815260040160405180910390fd5b6001600160a01b0382166103345760405163d92e233d60e01b815260040160405180910390fd5b606481111561035e576040516327aaa06960e21b8152600481018290526024015b60405180910390fd5b6001600160a01b038216600081815260026020908152604091829020805490859055825181815291820185905292917f379e9edf9af886c948ed3181e1b838402e0d73adb927b50398021d62c2309a2a910160405180910390a2505050565b6103d3336000356001600160e01b031916610c33565b6103ef576040516282b42960e81b815260040160405180910390fd5b8281146104305760405162461bcd60e51b815260206004820152600f60248201526e0988a9c8ea890be9a92a69a82a8869608b1b6044820152606401610355565b60005b8381101561062257600085858381811061044f5761044f6110a1565b90506020020160208101906104649190610e7d565b6001600160a01b03160361048b5760405163d92e233d60e01b815260040160405180910390fd5b606483838381811061049f5761049f6110a1565b9050602002013511156104e1578282828181106104be576104be6110a1565b905060200201356040516327aaa06960e21b815260040161035591815260200190565b6000600260008787858181106104f9576104f96110a1565b905060200201602081019061050e9190610e7d565b6001600160a01b03166001600160a01b03168152602001908152602001600020549050838383818110610543576105436110a1565b9050602002013560026000888886818110610560576105606110a1565b90506020020160208101906105759190610e7d565b6001600160a01b031681526020810191909152604001600020558585838181106105a1576105a16110a1565b90506020020160208101906105b69190610e7d565b6001600160a01b03167f379e9edf9af886c948ed3181e1b838402e0d73adb927b50398021d62c2309a2a828686868181106105f3576105f36110a1565b90506020020135604051610611929190918252602082015260400190565b60405180910390a250600101610433565b5050505050565b61063f336000356001600160e01b031916610c33565b61065b576040516282b42960e81b815260040160405180910390fd5b6001600160a01b038316158061067857506001600160a01b038216155b156106965760405163d92e233d60e01b815260040160405180910390fd5b60648111156106bb576040516327aaa06960e21b815260048101829052602401610355565b60006106c78484610cee565b600081815260036020908152604091829020805490869055825181815291820186905292935083917f01df0645860da06b1cbf4a0440c3bfa62877960225ce388f972569b383a9e490910160405180910390a25050505050565b610737336000356001600160e01b031916610c33565b610753576040516282b42960e81b815260040160405180910390fd5b600880549082905560408051828152602081018490527fd997b264919951e5a5eacf257144bc9123269b33116c6f395ecf2339e94c836b910160405180910390a15050565b6001600160a01b0383166000908152600260205260408120548082036107bc575060325b60006107c785610d94565b9050606460085482846107da91906110cd565b6107e491906110e0565b6107ee91906110f7565b92506107fd8360006064610e13565b9695505050505050565b6000546001600160a01b03163314610831576040516282b42960e81b815260040160405180910390fd5b600180546001600160a01b0319166001600160a01b03831690811790915560405133907fa3396fd7f6e0a21b50e5089d2da70d5ac0a3bbbd1f617a93f134b7638998019890600090a350565b60608382146108c05760405162461bcd60e51b815260206004820152600f60248201526e0988a9c8ea890be9a92a69a82a8869608b1b6044820152606401610355565b8367ffffffffffffffff8111156108d9576108d9611119565b604051908082528060200260200182016040528015610902578160200160208202803683370190505b50905060005b848110156109ea57600060026000888885818110610928576109286110a1565b905060200201602081019061093d9190610e7d565b6001600160a01b03166001600160a01b031681526020019081526020016000205490508060000361096c575060325b600061098f868685818110610983576109836110a1565b90506020020135610d94565b90506109c3600060648060085485876109a891906110cd565b6109b291906110e0565b6109bc91906110f7565b9190610e13565b8484815181106109d5576109d56110a1565b60209081029190910101525050600101610908565b50949350505050565b600080610a008686610cee565b600081815260036020526040812054919250819003610a70576001600160a01b0380881660009081526002602052604080822054928916825281205490829003610a4957603291505b80600003610a55575060325b6002610a6182846110cd565b610a6b91906110f7565b925050505b6000610a7c85876110cd565b90506000610a8982610d94565b905060646008548285610a9c91906110cd565b610aa691906110e0565b610ab091906110f7565b9450610abf8560006064610e13565b9998505050505050505050565b610ae2336000356001600160e01b031916610c33565b610afe576040516282b42960e81b815260040160405180910390fd5b8082610b0a85876110cd565b610b1491906110cd565b610b1e91906110cd565b606414610b3e5760405163585b926360e01b815260040160405180910390fd5b604080516080808201835286825260208083018790528284018690526060928301859052600488905560058790556006869055600785905583518881529081018790529283018590529082018390527f5d3c7b528485e17fe0314971648177a48225c729bb2270e5426ad03876eb0889910160405180910390a150505050565b6000546001600160a01b03163314610be8576040516282b42960e81b815260040160405180910390fd5b600080546001600160a01b0319166001600160a01b0383169081178255604051909133917f8be0079c531659141344cd1fd0a4f28419497f9722a3daafe3b4186f6b6457e09190a350565b6001546000906001600160a01b03168015801590610ccc575060405163b700961360e01b81526001600160a01b0385811660048301523060248301526001600160e01b03198516604483015282169063b700961390606401602060405180830381865afa158015610ca8573d6000803e3d6000fd5b505050506040513d601f19601f82011682018060405250810190610ccc919061112f565b80610ce457506000546001600160a01b038581169116145b9150505b92915050565b6000816001600160a01b0316836001600160a01b031610610d4d576040516bffffffffffffffffffffffff19606084811b8216602084015285901b16603482015260480160405160208183030381529060405280519060200120610d8d565b6040516bffffffffffffffffffffffff19606085811b8216602084015284901b166034820152604801604051602081830303815290604052805190602001205b9392505050565b600081600003610da657506000919050565b670de0b6b3a7640000821015610dbe57506000919050565b68056bc75e2d63100000821015610dd757506005919050565b69021e19e0c9bab2400000821015610df15750600a919050565b69d3c21bcecceda1000000821015610e0b5750600f919050565b506014919050565b6000828410610e2f57818411610e295783610e31565b81610e31565b825b949350505050565b6001600160a01b0381168114610e4e57600080fd5b50565b60008060408385031215610e6457600080fd5b8235610e6f81610e39565b946020939093013593505050565b600060208284031215610e8f57600080fd5b8135610d8d81610e39565b60008083601f840112610eac57600080fd5b50813567ffffffffffffffff811115610ec457600080fd5b6020830191508360208260051b8501011115610edf57600080fd5b9250929050565b60008060008060408587031215610efc57600080fd5b843567ffffffffffffffff811115610f1357600080fd5b610f1f87828801610e9a565b909550935050602085013567ffffffffffffffff811115610f3f57600080fd5b610f4b87828801610e9a565b95989497509550505050565b600080600060608486031215610f6c57600080fd5b8335610f7781610e39565b92506020840135610f8781610e39565b929592945050506040919091013590565b600060208284031215610faa57600080fd5b5035919050565b600080600060608486031215610fc657600080fd5b8335610fd181610e39565b95602085013595506040909401359392505050565b602080825282518282018190526000918401906040840190835b8181101561101e578351835260209384019390920191600101611000565b509095945050505050565b6000806000806080858703121561103f57600080fd5b843561104a81610e39565b9350602085013561105a81610e39565b93969395505050506040820135916060013590565b6000806000806080858703121561108557600080fd5b5050823594602084013594506040840135936060013592509050565b634e487b7160e01b600052603260045260246000fd5b634e487b7160e01b600052601160045260246000fd5b80820180821115610ce857610ce86110b7565b8082028115828204841417610ce857610ce86110b7565b60008261111457634e487b7160e01b600052601260045260246000fd5b500490565b634e487b7160e01b600052604160045260246000fd5b60006020828403121561114157600080fd5b81518015158114610d8d57600080fdfea2646970667358221220587ed123b3d36352feaf0f43977058273fa17d79f658809fc62dbdcafa377b5664736f6c634300081c0033","linkReferences":{}},"methodIdentifiers":{"attacker_grantRole(uint8)":"e5c691c3","attacker_hasNoRoles()":"6408d93d","attacker_pause()":"311612ed","attacker_setCapability(uint8,address,bytes4)":"75f9b087","attacker_setWhitelist(address)":"28293e53","attacker_withdraw(uint256)":"84b63c95","depositor_deposit(uint256)":"0f6bd508","depositor_redeem(uint256)":"59ea074e","depositor_withdraw(uint256)":"96afce8c","echidna_depositor_cannot_redeem()":"848b6da3","echidna_depositor_cannot_withdraw()":"b0d126ca","echidna_executor_no_whitelist()":"b6c0e40f","echidna_guardian_can_pause()":"a8e8fbee","echidna_no_privilege_escalation()":"b3102b32","echidna_owner_is_admin()":"d40db088","executor_setWhitelist(address)":"81d526c3","guardian_canPause()":"3cded7fd","owner_hasAdmin()":"0e3ccb63","whitelistAdmin_canSetWhitelist()":"0c4d2422"},"id":0}