{"abi":[{"type":"constructor","inputs":[{"name":"_asset","type":"address","internalType":"contract ERC20"},{"name":"_name","type":"string","internalType":"string"},{"name":"_symbol","type":"string","internalType":"string"},{"name":"_feeRecipient","type":"address","internalType":"address"},{"name":"_owner","type":"address","internalType":"address"},{"name":"_authority","type":"address","internalType":"contract Authority"}],"stateMutability":"nonpayable"},{"type":"function","name":"DEAD_ADDRESS","inputs":[],"outputs":[{"name":"","type":"address","internalType":"address"}],"stateMutability":"view"},{"type":"function","name":"FEE_DENOMINATOR","inputs":[],"outputs":[{"name":"","type":"uint256","internalType":"uint256"}],"stateMutability":"view"},{"type":"function","name":"MAX_FEE","inputs":[],"outputs":[{"name":"","type":"uint256","internalType":"uint256"}],"stateMutability":"view"},{"type":"function","name":"MINIMUM_DEPOSIT","inputs":[],"outputs":[{"name":"","type":"uint256","internalType":"uint256"}],"stateMutability":"view"},{"type":"function","name":"MINIMUM_SHARES","inputs":[],"outputs":[{"name":"","type":"uint256","internalType":"uint256"}],"stateMutability":"view"},{"type":"function","name":"addRewards","inputs":[{"name":"amount","type":"uint256","internalType":"uint256"}],"outputs":[],"stateMutability":"nonpayable"},{"type":"function","name":"allowance","inputs":[{"name":"","type":"address","internalType":"address"},{"name":"","type":"address","internalType":"address"}],"outputs":[{"name":"","type":"uint256","internalType":"uint256"}],"stateMutability":"view"},{"type":"function","name":"approve","inputs":[{"name":"spender","type":"address","internalType":"address"},{"name":"amount","type":"uint256","internalType":"uint256"}],"outputs":[{"name":"","type":"bool","internalType":"bool"}],"stateMutability":"nonpayable"},{"type":"function","name":"asset","inputs":[],"outputs":[{"name":"","type":"address","internalType":"contract ERC20"}],"stateMutability":"view"},{"type":"function","name":"authority","inputs":[],"outputs":[{"name":"","type":"address","internalType":"contract Authority"}],"stateMutability":"view"},{"type":"function","name":"balanceOf","inputs":[{"name":"","type":"address","internalType":"address"}],"outputs":[{"name":"","type":"uint256","internalType":"uint256"}],"stateMutability":"view"},{"type":"function","name":"claimRewards","inputs":[],"outputs":[{"name":"reward","type":"uint256","internalType":"uint256"}],"stateMutability":"nonpayable"},{"type":"function","name":"convertToAssets","inputs":[{"name":"shares","type":"uint256","internalType":"uint256"}],"outputs":[{"name":"","type":"uint256","internalType":"uint256"}],"stateMutability":"view"},{"type":"function","name":"convertToShares","inputs":[{"name":"assets","type":"uint256","internalType":"uint256"}],"outputs":[{"name":"","type":"uint256","internalType":"uint256"}],"stateMutability":"view"},{"type":"function","name":"decimals","inputs":[],"outputs":[{"name":"","type":"uint8","internalType":"uint8"}],"stateMutability":"view"},{"type":"function","name":"deposit","inputs":[{"name":"assets","type":"uint256","internalType":"uint256"},{"name":"receiver","type":"address","internalType":"address"}],"outputs":[{"name":"shares","type":"uint256","internalType":"uint256"}],"stateMutability":"nonpayable"},{"type":"function","name":"depositFee","inputs":[],"outputs":[{"name":"","type":"uint256","internalType":"uint256"}],"stateMutability":"view"},{"type":"function","name":"earned","inputs":[{"name":"account","type":"address","internalType":"address"}],"outputs":[{"name":"","type":"uint256","internalType":"uint256"}],"stateMutability":"view"},{"type":"function","name":"emergencyWithdraw","inputs":[{"name":"to","type":"address","internalType":"address"},{"name":"amount","type":"uint256","internalType":"uint256"}],"outputs":[],"stateMutability":"nonpayable"},{"type":"function","name":"feeRecipient","inputs":[],"outputs":[{"name":"","type":"address","internalType":"address"}],"stateMutability":"view"},{"type":"function","name":"initializeDeadShares","inputs":[],"outputs":[],"stateMutability":"nonpayable"},{"type":"function","name":"lastRewardTime","inputs":[],"outputs":[{"name":"","type":"uint256","internalType":"uint256"}],"stateMutability":"view"},{"type":"function","name":"maxDeposit","inputs":[{"name":"","type":"address","internalType":"address"}],"outputs":[{"name":"","type":"uint256","internalType":"uint256"}],"stateMutability":"view"},{"type":"function","name":"maxMint","inputs":[{"name":"","type":"address","internalType":"address"}],"outputs":[{"name":"","type":"uint256","internalType":"uint256"}],"stateMutability":"view"},{"type":"function","name":"maxRedeem","inputs":[{"name":"owner","type":"address","internalType":"address"}],"outputs":[{"name":"","type":"uint256","internalType":"uint256"}],"stateMutability":"view"},{"type":"function","name":"maxWithdraw","inputs":[{"name":"owner","type":"address","internalType":"address"}],"outputs":[{"name":"","type":"uint256","internalType":"uint256"}],"stateMutability":"view"},{"type":"function","name":"mint","inputs":[{"name":"shares","type":"uint256","internalType":"uint256"},{"name":"receiver","type":"address","internalType":"address"}],"outputs":[{"name":"assets","type":"uint256","internalType":"uint256"}],"stateMutability":"nonpayable"},{"type":"function","name":"name","inputs":[],"outputs":[{"name":"","type":"string","internalType":"string"}],"stateMutability":"view"},{"type":"function","name":"owner","inputs":[],"outputs":[{"name":"","type":"address","internalType":"address"}],"stateMutability":"view"},{"type":"function","name":"pause","inputs":[],"outputs":[],"stateMutability":"nonpayable"},{"type":"function","name":"paused","inputs":[],"outputs":[{"name":"","type":"bool","internalType":"bool"}],"stateMutability":"view"},{"type":"function","name":"performanceFee","inputs":[],"outputs":[{"name":"","type":"uint256","internalType":"uint256"}],"stateMutability":"view"},{"type":"function","name":"previewDeposit","inputs":[{"name":"assets","type":"uint256","internalType":"uint256"}],"outputs":[{"name":"","type":"uint256","internalType":"uint256"}],"stateMutability":"view"},{"type":"function","name":"previewMint","inputs":[{"name":"shares","type":"uint256","internalType":"uint256"}],"outputs":[{"name":"","type":"uint256","internalType":"uint256"}],"stateMutability":"view"},{"type":"function","name":"previewRedeem","inputs":[{"name":"shares","type":"uint256","internalType":"uint256"}],"outputs":[{"name":"","type":"uint256","internalType":"uint256"}],"stateMutability":"view"},{"type":"function","name":"previewWithdraw","inputs":[{"name":"assets","type":"uint256","internalType":"uint256"}],"outputs":[{"name":"","type":"uint256","internalType":"uint256"}],"stateMutability":"view"},{"type":"function","name":"redeem","inputs":[{"name":"shares","type":"uint256","internalType":"uint256"},{"name":"receiver","type":"address","internalType":"address"},{"name":"_owner","type":"address","internalType":"address"}],"outputs":[{"name":"assets","type":"uint256","internalType":"uint256"}],"stateMutability":"nonpayable"},{"type":"function","name":"rewardPerShare","inputs":[],"outputs":[{"name":"","type":"uint256","internalType":"uint256"}],"stateMutability":"view"},{"type":"function","name":"rewardPerShareStored","inputs":[],"outputs":[{"name":"","type":"uint256","internalType":"uint256"}],"stateMutability":"view"},{"type":"function","name":"rewardRate","inputs":[],"outputs":[{"name":"","type":"uint256","internalType":"uint256"}],"stateMutability":"view"},{"type":"function","name":"rewardReserves","inputs":[],"outputs":[{"name":"","type":"uint256","internalType":"uint256"}],"stateMutability":"view"},{"type":"function","name":"rewards","inputs":[{"name":"","type":"address","internalType":"address"}],"outputs":[{"name":"","type":"uint256","internalType":"uint256"}],"stateMutability":"view"},{"type":"function","name":"setAuthority","inputs":[{"name":"newAuthority","type":"address","internalType":"contract Authority"}],"outputs":[],"stateMutability":"nonpayable"},{"type":"function","name":"setDepositFee","inputs":[{"name":"newFee","type":"uint256","internalType":"uint256"}],"outputs":[],"stateMutability":"nonpayable"},{"type":"function","name":"setFeeRecipient","inputs":[{"name":"newRecipient","type":"address","internalType":"address"}],"outputs":[],"stateMutability":"nonpayable"},{"type":"function","name":"setPerformanceFee","inputs":[{"name":"newFee","type":"uint256","internalType":"uint256"}],"outputs":[],"stateMutability":"nonpayable"},{"type":"function","name":"setRewardRate","inputs":[{"name":"newRate","type":"uint256","internalType":"uint256"}],"outputs":[],"stateMutability":"nonpayable"},{"type":"function","name":"setWithdrawFee","inputs":[{"name":"newFee","type":"uint256","internalType":"uint256"}],"outputs":[],"stateMutability":"nonpayable"},{"type":"function","name":"symbol","inputs":[],"outputs":[{"name":"","type":"string","internalType":"string"}],"stateMutability":"view"},{"type":"function","name":"totalAssets","inputs":[],"outputs":[{"name":"","type":"uint256","internalType":"uint256"}],"stateMutability":"view"},{"type":"function","name":"totalDeposited","inputs":[],"outputs":[{"name":"","type":"uint256","internalType":"uint256"}],"stateMutability":"view"},{"type":"function","name":"totalSupply","inputs":[],"outputs":[{"name":"","type":"uint256","internalType":"uint256"}],"stateMutability":"view"},{"type":"function","name":"totalWithdrawn","inputs":[],"outputs":[{"name":"","type":"uint256","internalType":"uint256"}],"stateMutability":"view"},{"type":"function","name":"transfer","inputs":[{"name":"to","type":"address","internalType":"address"},{"name":"amount","type":"uint256","internalType":"uint256"}],"outputs":[{"name":"","type":"bool","internalType":"bool"}],"stateMutability":"nonpayable"},{"type":"function","name":"transferFrom","inputs":[{"name":"from","type":"address","internalType":"address"},{"name":"to","type":"address","internalType":"address"},{"name":"amount","type":"uint256","internalType":"uint256"}],"outputs":[{"name":"","type":"bool","internalType":"bool"}],"stateMutability":"nonpayable"},{"type":"function","name":"transferOwnership","inputs":[{"name":"newOwner","type":"address","internalType":"address"}],"outputs":[],"stateMutability":"nonpayable"},{"type":"function","name":"unpause","inputs":[],"outputs":[],"stateMutability":"nonpayable"},{"type":"function","name":"userRewardPerSharePaid","inputs":[{"name":"","type":"address","internalType":"address"}],"outputs":[{"name":"","type":"uint256","internalType":"uint256"}],"stateMutability":"view"},{"type":"function","name":"withdraw","inputs":[{"name":"assets","type":"uint256","internalType":"uint256"},{"name":"receiver","type":"address","internalType":"address"},{"name":"_owner","type":"address","internalType":"address"}],"outputs":[{"name":"shares","type":"uint256","internalType":"uint256"}],"stateMutability":"nonpayable"},{"type":"function","name":"withdrawFee","inputs":[],"outputs":[{"name":"","type":"uint256","internalType":"uint256"}],"stateMutability":"view"},{"type":"event","name":"Approval","inputs":[{"name":"owner","type":"address","indexed":true,"internalType":"address"},{"name":"spender","type":"address","indexed":true,"internalType":"address"},{"name":"amount","type":"uint256","indexed":false,"internalType":"uint256"}],"anonymous":false},{"type":"event","name":"AuthorityUpdated","inputs":[{"name":"user","type":"address","indexed":true,"internalType":"address"},{"name":"newAuthority","type":"address","indexed":true,"internalType":"contract Authority"}],"anonymous":false},{"type":"event","name":"Deposit","inputs":[{"name":"caller","type":"address","indexed":true,"internalType":"address"},{"name":"owner","type":"address","indexed":true,"internalType":"address"},{"name":"assets","type":"uint256","indexed":false,"internalType":"uint256"},{"name":"shares","type":"uint256","indexed":false,"internalType":"uint256"}],"anonymous":false},{"type":"event","name":"DepositFeeUpdated","inputs":[{"name":"oldFee","type":"uint256","indexed":false,"internalType":"uint256"},{"name":"newFee","type":"uint256","indexed":false,"internalType":"uint256"}],"anonymous":false},{"type":"event","name":"EmergencyWithdraw","inputs":[{"name":"to","type":"address","indexed":true,"internalType":"address"},{"name":"amount","type":"uint256","indexed":false,"internalType":"uint256"}],"anonymous":false},{"type":"event","name":"FeeRecipientUpdated","inputs":[{"name":"oldRecipient","type":"address","indexed":true,"internalType":"address"},{"name":"newRecipient","type":"address","indexed":true,"internalType":"address"}],"anonymous":false},{"type":"event","name":"FeesCollected","inputs":[{"name":"recipient","type":"address","indexed":true,"internalType":"address"},{"name":"amount","type":"uint256","indexed":false,"internalType":"uint256"}],"anonymous":false},{"type":"event","name":"OwnershipTransferred","inputs":[{"name":"user","type":"address","indexed":true,"internalType":"address"},{"name":"newOwner","type":"address","indexed":true,"internalType":"address"}],"anonymous":false},{"type":"event","name":"Paused","inputs":[{"name":"account","type":"address","indexed":false,"internalType":"address"}],"anonymous":false},{"type":"event","name":"PerformanceFeeUpdated","inputs":[{"name":"oldFee","type":"uint256","indexed":false,"internalType":"uint256"},{"name":"newFee","type":"uint256","indexed":false,"internalType":"uint256"}],"anonymous":false},{"type":"event","name":"RewardRateUpdated","inputs":[{"name":"oldRate","type":"uint256","indexed":false,"internalType":"uint256"},{"name":"newRate","type":"uint256","indexed":false,"internalType":"uint256"}],"anonymous":false},{"type":"event","name":"RewardsAdded","inputs":[{"name":"amount","type":"uint256","indexed":false,"internalType":"uint256"}],"anonymous":false},{"type":"event","name":"RewardsClaimed","inputs":[{"name":"user","type":"address","indexed":true,"internalType":"address"},{"name":"amount","type":"uint256","indexed":false,"internalType":"uint256"}],"anonymous":false},{"type":"event","name":"Transfer","inputs":[{"name":"from","type":"address","indexed":true,"internalType":"address"},{"name":"to","type":"address","indexed":true,"internalType":"address"},{"name":"amount","type":"uint256","indexed":false,"internalType":"uint256"}],"anonymous":false},{"type":"event","name":"Unpaused","inputs":[{"name":"account","type":"address","indexed":false,"internalType":"address"}],"anonymous":false},{"type":"event","name":"Withdraw","inputs":[{"name":"caller","type":"address","indexed":true,"internalType":"address"},{"name":"receiver","type":"address","indexed":true,"internalType":"address"},{"name":"owner","type":"address","indexed":true,"internalType":"address"},{"name":"assets","type":"uint256","indexed":false,"internalType":"uint256"},{"name":"shares","type":"uint256","indexed":false,"internalType":"uint256"}],"anonymous":false},{"type":"event","name":"WithdrawFeeUpdated","inputs":[{"name":"oldFee","type":"uint256","indexed":false,"internalType":"uint256"},{"name":"newFee","type":"uint256","indexed":false,"internalType":"uint256"}],"anonymous":false},{"type":"error","name":"ContractPaused","inputs":[]},{"type":"error","name":"DepositTooSmall","inputs":[{"name":"amount","type":"uint256","internalType":"uint256"},{"name":"minimum","type":"uint256","internalType":"uint256"}]},{"type":"error","name":"FeeExceedsMax","inputs":[{"name":"fee","type":"uint256","internalType":"uint256"},{"name":"maxFee","type":"uint256","internalType":"uint256"}]},{"type":"error","name":"InsufficientRewardReserves","inputs":[{"name":"requested","type":"uint256","internalType":"uint256"},{"name":"available","type":"uint256","internalType":"uint256"}]},{"type":"error","name":"InsufficientRewards","inputs":[]},{"type":"error","name":"Reentrancy","inputs":[]},{"type":"error","name":"Unauthorized","inputs":[]},{"type":"error","name":"ZeroAddress","inputs":[]},{"type":"error","name":"ZeroAmount","inputs":[]}],"bytecode":{"object":"0x60c06040526001600755348015610014575f5ffd5b50604051614ab5380380614ab5833981810160405281019061003691906105fa565b818187878781818473ffffffffffffffffffffffffffffffffffffffff1663313ce5676040518163ffffffff1660e01b8152600401602060405180830381865afa158015610086573d5f5f3e3d5ffd5b505050506040513d601f19601f820116820180604052508101906100aa91906106f1565b825f90816100b8919061092c565b5081600190816100c8919061092c565b508060ff1660808160ff16815250505050508273ffffffffffffffffffffffffffffffffffffffff1660a08173ffffffffffffffffffffffffffffffffffffffff16815250505050508160055f6101000a81548173ffffffffffffffffffffffffffffffffffffffff021916908373ffffffffffffffffffffffffffffffffffffffff1602179055508060065f6101000a81548173ffffffffffffffffffffffffffffffffffffffff021916908373ffffffffffffffffffffffffffffffffffffffff1602179055508173ffffffffffffffffffffffffffffffffffffffff165f73ffffffffffffffffffffffffffffffffffffffff167f8be0079c531659141344cd1fd0a4f28419497f9722a3daafe3b4186f6b6457e060405160405180910390a38073ffffffffffffffffffffffffffffffffffffffff165f73ffffffffffffffffffffffffffffffffffffffff167fa3396fd7f6e0a21b50e5089d2da70d5ac0a3bbbd1f617a93f134b7638998019860405160405180910390a350505f73ffffffffffffffffffffffffffffffffffffffff168373ffffffffffffffffffffffffffffffffffffffff16036102ac576040517fd92e233d00000000000000000000000000000000000000000000000000000000815260040160405180910390fd5b82600b5f6101000a81548173ffffffffffffffffffffffffffffffffffffffff021916908373ffffffffffffffffffffffffffffffffffffffff16021790555042600e8190555061030761dead6103e861031260201b60201c565b505050505050610a83565b8060025f8282546103239190610a28565b925050819055508060035f8473ffffffffffffffffffffffffffffffffffffffff1673ffffffffffffffffffffffffffffffffffffffff1681526020019081526020015f205f82825401925050819055508173ffffffffffffffffffffffffffffffffffffffff165f73ffffffffffffffffffffffffffffffffffffffff167fddf252ad1be2c89b69c2b068fc378daa952ba7f163c4a11628f55a4df523b3ef836040516103d19190610a6a565b60405180910390a35050565b5f604051905090565b5f5ffd5b5f5ffd5b5f73ffffffffffffffffffffffffffffffffffffffff82169050919050565b5f610417826103ee565b9050919050565b5f6104288261040d565b9050919050565b6104388161041e565b8114610442575f5ffd5b50565b5f815190506104538161042f565b92915050565b5f5ffd5b5f5ffd5b5f601f19601f8301169050919050565b7f4e487b71000000000000000000000000000000000000000000000000000000005f52604160045260245ffd5b6104a782610461565b810181811067ffffffffffffffff821117156104c6576104c5610471565b5b80604052505050565b5f6104d86103dd565b90506104e4828261049e565b919050565b5f67ffffffffffffffff82111561050357610502610471565b5b61050c82610461565b9050602081019050919050565b8281835e5f83830152505050565b5f610539610534846104e9565b6104cf565b9050828152602081018484840111156105555761055461045d565b5b610560848285610519565b509392505050565b5f82601f83011261057c5761057b610459565b5b815161058c848260208601610527565b91505092915050565b61059e8161040d565b81146105a8575f5ffd5b50565b5f815190506105b981610595565b92915050565b5f6105c98261040d565b9050919050565b6105d9816105bf565b81146105e3575f5ffd5b50565b5f815190506105f4816105d0565b92915050565b5f5f5f5f5f5f60c08789031215610614576106136103e6565b5b5f61062189828a01610445565b965050602087015167ffffffffffffffff811115610642576106416103ea565b5b61064e89828a01610568565b955050604087015167ffffffffffffffff81111561066f5761066e6103ea565b5b61067b89828a01610568565b945050606061068c89828a016105ab565b935050608061069d89828a016105ab565b92505060a06106ae89828a016105e6565b9150509295509295509295565b5f60ff82169050919050565b6106d0816106bb565b81146106da575f5ffd5b50565b5f815190506106eb816106c7565b92915050565b5f60208284031215610706576107056103e6565b5b5f610713848285016106dd565b91505092915050565b5f81519050919050565b7f4e487b71000000000000000000000000000000000000000000000000000000005f52602260045260245ffd5b5f600282049050600182168061076a57607f821691505b60208210810361077d5761077c610726565b5b50919050565b5f819050815f5260205f209050919050565b5f6020601f8301049050919050565b5f82821b905092915050565b5f600883026107df7fffffffffffffffffffffffffffffffffffffffffffffffffffffffffffffffff826107a4565b6107e986836107a4565b95508019841693508086168417925050509392505050565b5f819050919050565b5f819050919050565b5f61082d61082861082384610801565b61080a565b610801565b9050919050565b5f819050919050565b61084683610813565b61085a61085282610834565b8484546107b0565b825550505050565b5f5f905090565b610871610862565b61087c81848461083d565b505050565b5b8181101561089f576108945f82610869565b600181019050610882565b5050565b601f8211156108e4576108b581610783565b6108be84610795565b810160208510156108cd578190505b6108e16108d985610795565b830182610881565b50505b505050565b5f82821c905092915050565b5f6109045f19846008026108e9565b1980831691505092915050565b5f61091c83836108f5565b9150826002028217905092915050565b6109358261071c565b67ffffffffffffffff81111561094e5761094d610471565b5b6109588254610753565b6109638282856108a3565b5f60209050601f831160018114610994575f8415610982578287015190505b61098c8582610911565b8655506109f3565b601f1984166109a286610783565b5f5b828110156109c9578489015182556001820191506020850194506020810190506109a4565b868310156109e657848901516109e2601f8916826108f5565b8355505b6001600288020188555050505b505050505050565b7f4e487b71000000000000000000000000000000000000000000000000000000005f52601160045260245ffd5b5f610a3282610801565b9150610a3d83610801565b9250828201905080821115610a5557610a546109fb565b5b92915050565b610a6481610801565b82525050565b5f602082019050610a7d5f830184610a5b565b92915050565b60805160a051613fbd610af85f395f8181610cef01528181611356015281816113f5015281816117fc0152818161187101528181611cff01528181611e940152818161248b0152818161254601528181612a2701528181612ae201528181612c77015261303001525f61117b0152613fbd5ff3fe608060405234801561000f575f5ffd5b50600436106103a1575f3560e01c806387788782116101e7578063bf7e214f1161010d578063e74b981b116100ab578063f0de82281161007a578063f0de822814610b75578063f19451d814610b93578063f2fde38b14610bb1578063ff50abdc14610bcd576103a1565b8063e74b981b14610b01578063e941fa7814610b1d578063ec62807014610b3b578063ef8b30f714610b45576103a1565b8063ce96cb77116100e7578063ce96cb7714610a53578063d73792a914610a83578063d905777e14610aa1578063dd62ed3e14610ad1576103a1565b8063bf7e214f146109d5578063c63d75b6146109f3578063c6e6f59214610a23576103a1565b8063a1a47d7111610185578063b6ac642a11610154578063b6ac642a1461094f578063ba0876521461096b578063bc063e1a1461099b578063beceed39146109b9576103a1565b8063a1a47d71146108a1578063a9059cbb146108bf578063b3d7f6b9146108ef578063b460af941461091f576103a1565b806394bf804d116101c157806394bf804d1461081b57806395ccea671461084b57806395d89b41146108675780639e447fc614610885576103a1565b806387788782146107c15780638da5cb5b146107df5780639231cf74146107fd576103a1565b8063446a2ec8116102cc57806367a527931161026a5780637a9e5e4b116102395780637a9e5e4b1461074d5780637b0a47ee14610769578063818ae1ce146107875780638456cb59146107b7576103a1565b806367a52793146106b35780636e553f65146106d157806370897b231461070157806370a082311461071d576103a1565b80634b319713116102a65780634b319713146106295780634cdad506146106475780634e6fd6c4146106775780635c975abb14610695576103a1565b8063446a2ec8146105d157806346904840146105ef578063490ae2101461060d576103a1565b80630ab747f011610344578063372500ab11610313578063372500ab1461055b57806338d52e0f146105795780633f4ba83a14610597578063402d267d146105a1576103a1565b80630ab747f0146104d157806318160ddd146104ef57806323b872dd1461050d578063313ce5671461053d576103a1565b80630700037d116103805780630700037d1461041157806307a2d13a14610441578063095ea7b3146104715780630a28a477146104a1576103a1565b80628cc262146103a557806301e1d114146103d557806306fdde03146103f3575b5f5ffd5b6103bf60048036038101906103ba9190613799565b610beb565b6040516103cc91906137dc565b60405180910390f35b6103dd610ce6565b6040516103ea91906137dc565b60405180910390f35b6103fb610d23565b6040516104089190613865565b60405180910390f35b61042b60048036038101906104269190613799565b610dae565b60405161043891906137dc565b60405180910390f35b61045b600480360381019061045691906138af565b610dc3565b60405161046891906137dc565b60405180910390f35b61048b600480360381019061048691906138da565b610dfe565b6040516104989190613932565b60405180910390f35b6104bb60048036038101906104b691906138af565b610eeb565b6040516104c891906137dc565b60405180910390f35b6104d9610f32565b6040516104e691906137dc565b60405180910390f35b6104f7610f38565b60405161050491906137dc565b60405180910390f35b6105276004803603810190610522919061394b565b610f3e565b6040516105349190613932565b60405180910390f35b610545611179565b60405161055291906139b6565b60405180910390f35b61056361119d565b60405161057091906137dc565b60405180910390f35b6105816113f3565b60405161058e9190613a2a565b60405180910390f35b61059f611417565b005b6105bb60048036038101906105b69190613799565b6114cc565b6040516105c891906137dc565b60405180910390f35b6105d96114f5565b6040516105e691906137dc565b60405180910390f35b6105f7611557565b6040516106049190613a52565b60405180910390f35b610627600480360381019061062291906138af565b61157c565b005b61063161166f565b60405161063e91906137dc565b60405180910390f35b610661600480360381019061065c91906138af565b611675565b60405161066e91906137dc565b60405180910390f35b61067f611686565b60405161068c9190613a52565b60405180910390f35b61069d61168c565b6040516106aa9190613932565b60405180910390f35b6106bb61169e565b6040516106c891906137dc565b60405180910390f35b6106eb60048036038101906106e69190613a6b565b6116a4565b6040516106f891906137dc565b60405180910390f35b61071b600480360381019061071691906138af565b6119be565b005b61073760048036038101906107329190613799565b611ab1565b60405161074491906137dc565b60405180910390f35b61076760048036038101906107629190613ae4565b611ac6565b005b610771611be9565b60405161077e91906137dc565b60405180910390f35b6107a1600480360381019061079c9190613799565b611bef565b6040516107ae91906137dc565b60405180910390f35b6107bf611c04565b005b6107c9611cba565b6040516107d691906137dc565b60405180910390f35b6107e7611cc0565b6040516107f49190613a52565b60405180910390f35b610805611ce5565b60405161081291906137dc565b60405180910390f35b61083560048036038101906108309190613a6b565b611ceb565b60405161084291906137dc565b60405180910390f35b610865600480360381019061086091906138da565b611dc5565b005b61086f611f2a565b60405161087c9190613865565b60405180910390f35b61089f600480360381019061089a91906138af565b611fb6565b005b6108a9612067565b6040516108b691906137dc565b60405180910390f35b6108d960048036038101906108d491906138da565b61206d565b6040516108e69190613932565b60405180910390f35b610909600480360381019061090491906138af565b61217a565b60405161091691906137dc565b60405180910390f35b61093960048036038101906109349190613b0f565b6121c1565b60405161094691906137dc565b60405180910390f35b610969600480360381019061096491906138af565b612631565b005b61098560048036038101906109809190613b0f565b612724565b60405161099291906137dc565b60405180910390f35b6109a3612bcd565b6040516109b091906137dc565b60405180910390f35b6109d360048036038101906109ce91906138af565b612bd3565b005b6109dd612d0e565b6040516109ea9190613b7f565b60405180910390f35b610a0d6004803603810190610a089190613799565b612d33565b604051610a1a91906137dc565b60405180910390f35b610a3d6004803603810190610a3891906138af565b612d5c565b604051610a4a91906137dc565b60405180910390f35b610a6d6004803603810190610a689190613799565b612d97565b604051610a7a91906137dc565b60405180910390f35b610a8b612de5565b604051610a9891906137dc565b60405180910390f35b610abb6004803603810190610ab69190613799565b612deb565b604051610ac891906137dc565b60405180910390f35b610aeb6004803603810190610ae69190613b98565b612e31565b604051610af891906137dc565b60405180910390f35b610b1b6004803603810190610b169190613799565b612e51565b005b610b25612fd7565b604051610b3291906137dc565b60405180910390f35b610b43612fdd565b005b610b5f6004803603810190610b5a91906138af565b613077565b604051610b6c91906137dc565b60405180910390f35b610b7d613088565b604051610b8a91906137dc565b60405180910390f35b610b9b61308e565b604051610ba891906137dc565b60405180910390f35b610bcb6004803603810190610bc69190613799565b613094565b005b610bd56131b7565b604051610be291906137dc565b60405180910390f35b5f60115f8373ffffffffffffffffffffffffffffffffffffffff1673ffffffffffffffffffffffffffffffffffffffff1681526020019081526020015f2054670de0b6b3a764000060105f8573ffffffffffffffffffffffffffffffffffffffff1673ffffffffffffffffffffffffffffffffffffffff1681526020019081526020015f2054610c796114f5565b610c839190613c03565b60035f8673ffffffffffffffffffffffffffffffffffffffff1673ffffffffffffffffffffffffffffffffffffffff1681526020019081526020015f2054610ccb9190613c36565b610cd59190613ca4565b610cdf9190613cd4565b9050919050565b5f600d54610d147f0000000000000000000000000000000000000000000000000000000000000000306131bd565b610d1e9190613c03565b905090565b5f8054610d2f90613d34565b80601f0160208091040260200160405190810160405280929190818152602001828054610d5b90613d34565b8015610da65780601f10610d7d57610100808354040283529160200191610da6565b820191905f5260205f20905b815481529060010190602001808311610d8957829003601f168201915b505050505081565b6011602052805f5260405f205f915090505481565b5f5f60025490505f8114610df45780610dda610ce6565b84610de59190613c36565b610def9190613ca4565b610df6565b825b915050919050565b5f8160045f3373ffffffffffffffffffffffffffffffffffffffff1673ffffffffffffffffffffffffffffffffffffffff1681526020019081526020015f205f8573ffffffffffffffffffffffffffffffffffffffff1673ffffffffffffffffffffffffffffffffffffffff1681526020019081526020015f20819055508273ffffffffffffffffffffffffffffffffffffffff163373ffffffffffffffffffffffffffffffffffffffff167f8c5be1e5ebec7d5bd14f71427d1e84f3dd0314c0f7b2291e5b200ac8c7c3b92584604051610ed991906137dc565b60405180910390a36001905092915050565b5f5f60025490505f8114610f28576001610f03610ce6565b8285610f0f9190613c36565b610f199190613ca4565b610f239190613cd4565b610f2a565b825b915050919050565b600f5481565b60025481565b5f5f60045f8673ffffffffffffffffffffffffffffffffffffffff1673ffffffffffffffffffffffffffffffffffffffff1681526020019081526020015f205f3373ffffffffffffffffffffffffffffffffffffffff1673ffffffffffffffffffffffffffffffffffffffff1681526020019081526020015f205490507fffffffffffffffffffffffffffffffffffffffffffffffffffffffffffffffff811461106b578281610fee9190613c03565b60045f8773ffffffffffffffffffffffffffffffffffffffff1673ffffffffffffffffffffffffffffffffffffffff1681526020019081526020015f205f3373ffffffffffffffffffffffffffffffffffffffff1673ffffffffffffffffffffffffffffffffffffffff1681526020019081526020015f20819055505b8260035f8773ffffffffffffffffffffffffffffffffffffffff1673ffffffffffffffffffffffffffffffffffffffff1681526020019081526020015f205f8282546110b79190613c03565b925050819055508260035f8673ffffffffffffffffffffffffffffffffffffffff1673ffffffffffffffffffffffffffffffffffffffff1681526020019081526020015f205f82825401925050819055508373ffffffffffffffffffffffffffffffffffffffff168573ffffffffffffffffffffffffffffffffffffffff167fddf252ad1be2c89b69c2b068fc378daa952ba7f163c4a11628f55a4df523b3ef8560405161116591906137dc565b60405180910390a360019150509392505050565b7f000000000000000000000000000000000000000000000000000000000000000081565b5f6002600754036111da576040517fab143c0600000000000000000000000000000000000000000000000000000000815260040160405180910390fd5b600260078190555060145f9054906101000a900460ff1615611228576040517fab35696f00000000000000000000000000000000000000000000000000000000815260040160405180910390fd5b6112313361321c565b60115f3373ffffffffffffffffffffffffffffffffffffffff1673ffffffffffffffffffffffffffffffffffffffff1681526020019081526020015f205490505f81036112aa576040517fadc2dbfe00000000000000000000000000000000000000000000000000000000815260040160405180910390fd5b600d548111156112f55780600d546040517f5e3534a20000000000000000000000000000000000000000000000000000000081526004016112ec929190613d64565b60405180910390fd5b5f60115f3373ffffffffffffffffffffffffffffffffffffffff1673ffffffffffffffffffffffffffffffffffffffff1681526020019081526020015f208190555080600d5f8282546113489190613c03565b9250508190555061139a33827f000000000000000000000000000000000000000000000000000000000000000073ffffffffffffffffffffffffffffffffffffffff166132f69092919063ffffffff16565b3373ffffffffffffffffffffffffffffffffffffffff167ffc30cddea38e2bf4d6ea7d3f9ed3b6ad7f176419f4963bd81318067a4aee73fe826040516113e091906137dc565b60405180910390a2600160078190555090565b7f000000000000000000000000000000000000000000000000000000000000000081565b611444335f357fffffffff00000000000000000000000000000000000000000000000000000000166133a0565b61147a576040517f82b4290000000000000000000000000000000000000000000000000000000000815260040160405180910390fd5b5f60145f6101000a81548160ff0219169083151502179055507f5db9ee0a495bf2e6ff9c91a7834c1ba4fdd244a5e8aa4e537bd38aeae4b073aa336040516114c29190613a52565b60405180910390a1565b5f7fffffffffffffffffffffffffffffffffffffffffffffffffffffffffffffffff9050919050565b5f5f6002540361150957600f549050611554565b600254670de0b6b3a7640000600c54600e54426115269190613c03565b6115309190613c36565b61153a9190613c36565b6115449190613ca4565b600f546115519190613cd4565b90505b90565b600b5f9054906101000a900473ffffffffffffffffffffffffffffffffffffffff1681565b6115a9335f357fffffffff00000000000000000000000000000000000000000000000000000000166133a0565b6115df576040517f82b4290000000000000000000000000000000000000000000000000000000000815260040160405180910390fd5b6103e881111561162a57806103e86040517f03fe22fa000000000000000000000000000000000000000000000000000000008152600401611621929190613d64565b60405180910390fd5b7f828cf983933545af35b9ba46eec951db1cb4c5433c3ec403aeced2963c2647906008548260405161165d929190613d64565b60405180910390a18060088190555050565b60135481565b5f61167f82610dc3565b9050919050565b61dead81565b60145f9054906101000a900460ff1681565b60085481565b5f6002600754036116e1576040517fab143c0600000000000000000000000000000000000000000000000000000000815260040160405180910390fd5b600260078190555060145f9054906101000a900460ff161561172f576040517fab35696f00000000000000000000000000000000000000000000000000000000815260040160405180910390fd5b6103e883101561177a57826103e86040517f4a77f2fa000000000000000000000000000000000000000000000000000000008152600401611771929190613d64565b60405180910390fd5b6117838261321c565b5f612710600854856117959190613c36565b61179f9190613ca4565b90505f81856117ae9190613c03565b90506117b981613077565b92505f83036117f4576040517f1f2a200500000000000000000000000000000000000000000000000000000000815260040160405180910390fd5b6118413330877f000000000000000000000000000000000000000000000000000000000000000073ffffffffffffffffffffffffffffffffffffffff166134da909392919063ffffffff16565b5f821115611925576118b5600b5f9054906101000a900473ffffffffffffffffffffffffffffffffffffffff16837f000000000000000000000000000000000000000000000000000000000000000073ffffffffffffffffffffffffffffffffffffffff166132f69092919063ffffffff16565b600b5f9054906101000a900473ffffffffffffffffffffffffffffffffffffffff1673ffffffffffffffffffffffffffffffffffffffff167f9dc46f23cfb5ddcad0ae7ea2be38d47fec07bb9382ec7e564efc69e036dd66ce8360405161191c91906137dc565b60405180910390a25b61192f84846135a1565b8060125f8282546119409190613cd4565b925050819055508373ffffffffffffffffffffffffffffffffffffffff163373ffffffffffffffffffffffffffffffffffffffff167fdcbc1c05240f31ff3ad067ef1ee35ce4997762752e3a095284754544f4c709d783866040516119a6929190613d64565b60405180910390a35050600160078190555092915050565b6119eb335f357fffffffff00000000000000000000000000000000000000000000000000000000166133a0565b611a21576040517f82b4290000000000000000000000000000000000000000000000000000000000815260040160405180910390fd5b6103e8811115611a6c57806103e86040517f03fe22fa000000000000000000000000000000000000000000000000000000008152600401611a63929190613d64565b60405180910390fd5b7f607b1c943753982194530bf7133a5972ea2626e028005410efa54ab20035caf8600a5482604051611a9f929190613d64565b60405180910390a180600a8190555050565b6003602052805f5260405f205f915090505481565b60055f9054906101000a900473ffffffffffffffffffffffffffffffffffffffff1673ffffffffffffffffffffffffffffffffffffffff163373ffffffffffffffffffffffffffffffffffffffff1614611b4c576040517f82b4290000000000000000000000000000000000000000000000000000000000815260040160405180910390fd5b8060065f6101000a81548173ffffffffffffffffffffffffffffffffffffffff021916908373ffffffffffffffffffffffffffffffffffffffff1602179055508073ffffffffffffffffffffffffffffffffffffffff163373ffffffffffffffffffffffffffffffffffffffff167fa3396fd7f6e0a21b50e5089d2da70d5ac0a3bbbd1f617a93f134b7638998019860405160405180910390a350565b600c5481565b6010602052805f5260405f205f915090505481565b611c31335f357fffffffff00000000000000000000000000000000000000000000000000000000166133a0565b611c67576040517f82b4290000000000000000000000000000000000000000000000000000000000815260040160405180910390fd5b600160145f6101000a81548160ff0219169083151502179055507f62e78cea01bee320cd4e420270b5ea74000d11b0c9f74754ebdbfc544b05a25833604051611cb09190613a52565b60405180910390a1565b600a5481565b60055f9054906101000a900473ffffffffffffffffffffffffffffffffffffffff1681565b600e5481565b5f611cf58361217a565b9050611d443330837f000000000000000000000000000000000000000000000000000000000000000073ffffffffffffffffffffffffffffffffffffffff166134da909392919063ffffffff16565b611d4e82846135a1565b8173ffffffffffffffffffffffffffffffffffffffff163373ffffffffffffffffffffffffffffffffffffffff167fdcbc1c05240f31ff3ad067ef1ee35ce4997762752e3a095284754544f4c709d78386604051611dad929190613d64565b60405180910390a3611dbf818461366c565b92915050565b611df2335f357fffffffff00000000000000000000000000000000000000000000000000000000166133a0565b611e28576040517f82b4290000000000000000000000000000000000000000000000000000000000815260040160405180910390fd5b5f73ffffffffffffffffffffffffffffffffffffffff168273ffffffffffffffffffffffffffffffffffffffff1603611e8d576040517fd92e233d00000000000000000000000000000000000000000000000000000000815260040160405180910390fd5b611ed882827f000000000000000000000000000000000000000000000000000000000000000073ffffffffffffffffffffffffffffffffffffffff166132f69092919063ffffffff16565b8173ffffffffffffffffffffffffffffffffffffffff167f5fafa99d0643513820be26656b45130b01e1c03062e1266bf36f88cbd3bd969582604051611f1e91906137dc565b60405180910390a25050565b60018054611f3790613d34565b80601f0160208091040260200160405190810160405280929190818152602001828054611f6390613d34565b8015611fae5780601f10611f8557610100808354040283529160200191611fae565b820191905f5260205f20905b815481529060010190602001808311611f9157829003601f168201915b505050505081565b611fe3335f357fffffffff00000000000000000000000000000000000000000000000000000000166133a0565b612019576040517f82b4290000000000000000000000000000000000000000000000000000000000815260040160405180910390fd5b6120225f61321c565b7fc390a98ace15a7bb6bab611eedfdbb2685043b241a869420043cdfb23ccfee50600c5482604051612055929190613d64565b60405180910390a180600c8190555050565b6103e881565b5f8160035f3373ffffffffffffffffffffffffffffffffffffffff1673ffffffffffffffffffffffffffffffffffffffff1681526020019081526020015f205f8282546120ba9190613c03565b925050819055508160035f8573ffffffffffffffffffffffffffffffffffffffff1673ffffffffffffffffffffffffffffffffffffffff1681526020019081526020015f205f82825401925050819055508273ffffffffffffffffffffffffffffffffffffffff163373ffffffffffffffffffffffffffffffffffffffff167fddf252ad1be2c89b69c2b068fc378daa952ba7f163c4a11628f55a4df523b3ef8460405161216891906137dc565b60405180910390a36001905092915050565b5f5f60025490505f81146121b757600181612193610ce6565b8561219e9190613c36565b6121a89190613ca4565b6121b29190613cd4565b6121b9565b825b915050919050565b5f6002600754036121fe576040517fab143c0600000000000000000000000000000000000000000000000000000000815260040160405180910390fd5b600260078190555060145f9054906101000a900460ff161561224c576040517fab35696f00000000000000000000000000000000000000000000000000000000815260040160405180910390fd5b612279335f357fffffffff00000000000000000000000000000000000000000000000000000000166133a0565b6122af576040517f82b4290000000000000000000000000000000000000000000000000000000000815260040160405180910390fd5b6122b88261321c565b6122c184610eeb565b90508173ffffffffffffffffffffffffffffffffffffffff163373ffffffffffffffffffffffffffffffffffffffff1614612424575f60045f8473ffffffffffffffffffffffffffffffffffffffff1673ffffffffffffffffffffffffffffffffffffffff1681526020019081526020015f205f3373ffffffffffffffffffffffffffffffffffffffff1673ffffffffffffffffffffffffffffffffffffffff1681526020019081526020015f205490507fffffffffffffffffffffffffffffffffffffffffffffffffffffffffffffffff81146124225781816123a59190613c03565b60045f8573ffffffffffffffffffffffffffffffffffffffff1673ffffffffffffffffffffffffffffffffffffffff1681526020019081526020015f205f3373ffffffffffffffffffffffffffffffffffffffff1673ffffffffffffffffffffffffffffffffffffffff1681526020019081526020015f20819055505b505b61242e8282613670565b5f612710600954866124409190613c36565b61244a9190613ca4565b90505f81866124599190613c03565b90505f82111561253f576124cf600b5f9054906101000a900473ffffffffffffffffffffffffffffffffffffffff16837f000000000000000000000000000000000000000000000000000000000000000073ffffffffffffffffffffffffffffffffffffffff166132f69092919063ffffffff16565b600b5f9054906101000a900473ffffffffffffffffffffffffffffffffffffffff1673ffffffffffffffffffffffffffffffffffffffff167f9dc46f23cfb5ddcad0ae7ea2be38d47fec07bb9382ec7e564efc69e036dd66ce8360405161253691906137dc565b60405180910390a25b61258a85827f000000000000000000000000000000000000000000000000000000000000000073ffffffffffffffffffffffffffffffffffffffff166132f69092919063ffffffff16565b8560135f82825461259b9190613cd4565b925050819055508373ffffffffffffffffffffffffffffffffffffffff168573ffffffffffffffffffffffffffffffffffffffff163373ffffffffffffffffffffffffffffffffffffffff167ffbde797d201c681b91056529119e0b02407c7bb96a4a2c75c01fc9667232c8db8987604051612618929190613d64565b60405180910390a4505060016007819055509392505050565b61265e335f357fffffffff00000000000000000000000000000000000000000000000000000000166133a0565b612694576040517f82b4290000000000000000000000000000000000000000000000000000000000815260040160405180910390fd5b6103e88111156126df57806103e86040517f03fe22fa0000000000000000000000000000000000000000000000000000000081526004016126d6929190613d64565b60405180910390fd5b7f733071ab8253b372ed26a6d1b04aec71c4bfcd209c93397df32bb77478cdd2c860095482604051612712929190613d64565b60405180910390a18060098190555050565b5f600260075403612761576040517fab143c0600000000000000000000000000000000000000000000000000000000815260040160405180910390fd5b600260078190555060145f9054906101000a900460ff16156127af576040517fab35696f00000000000000000000000000000000000000000000000000000000815260040160405180910390fd5b6127dc335f357fffffffff00000000000000000000000000000000000000000000000000000000166133a0565b612812576040517f82b4290000000000000000000000000000000000000000000000000000000000815260040160405180910390fd5b61281b8261321c565b8173ffffffffffffffffffffffffffffffffffffffff163373ffffffffffffffffffffffffffffffffffffffff161461297c575f60045f8473ffffffffffffffffffffffffffffffffffffffff1673ffffffffffffffffffffffffffffffffffffffff1681526020019081526020015f205f3373ffffffffffffffffffffffffffffffffffffffff1673ffffffffffffffffffffffffffffffffffffffff1681526020019081526020015f205490507fffffffffffffffffffffffffffffffffffffffffffffffffffffffffffffffff811461297a5784816128fd9190613c03565b60045f8573ffffffffffffffffffffffffffffffffffffffff1673ffffffffffffffffffffffffffffffffffffffff1681526020019081526020015f205f3373ffffffffffffffffffffffffffffffffffffffff1673ffffffffffffffffffffffffffffffffffffffff1681526020019081526020015f20819055505b505b61298584611675565b90505f81036129c0576040517f1f2a200500000000000000000000000000000000000000000000000000000000815260040160405180910390fd5b6129ca8285613670565b5f612710600954836129dc9190613c36565b6129e69190613ca4565b90505f81836129f59190613c03565b90505f821115612adb57612a6b600b5f9054906101000a900473ffffffffffffffffffffffffffffffffffffffff16837f000000000000000000000000000000000000000000000000000000000000000073ffffffffffffffffffffffffffffffffffffffff166132f69092919063ffffffff16565b600b5f9054906101000a900473ffffffffffffffffffffffffffffffffffffffff1673ffffffffffffffffffffffffffffffffffffffff167f9dc46f23cfb5ddcad0ae7ea2be38d47fec07bb9382ec7e564efc69e036dd66ce83604051612ad291906137dc565b60405180910390a25b612b2685827f000000000000000000000000000000000000000000000000000000000000000073ffffffffffffffffffffffffffffffffffffffff166132f69092919063ffffffff16565b8260135f828254612b379190613cd4565b925050819055508373ffffffffffffffffffffffffffffffffffffffff168573ffffffffffffffffffffffffffffffffffffffff163373ffffffffffffffffffffffffffffffffffffffff167ffbde797d201c681b91056529119e0b02407c7bb96a4a2c75c01fc9667232c8db868a604051612bb4929190613d64565b60405180910390a4505060016007819055509392505050565b6103e881565b612c00335f357fffffffff00000000000000000000000000000000000000000000000000000000166133a0565b612c36576040517f82b4290000000000000000000000000000000000000000000000000000000000815260040160405180910390fd5b5f8103612c6f576040517f1f2a200500000000000000000000000000000000000000000000000000000000815260040160405180910390fd5b612cbc3330837f000000000000000000000000000000000000000000000000000000000000000073ffffffffffffffffffffffffffffffffffffffff166134da909392919063ffffffff16565b80600d5f828254612ccd9190613cd4565b925050819055507ff8fad42e780bfa5459be3fe691e8ba1aec70342250112139c5771c3fd155f31281604051612d0391906137dc565b60405180910390a150565b60065f9054906101000a900473ffffffffffffffffffffffffffffffffffffffff1681565b5f7fffffffffffffffffffffffffffffffffffffffffffffffffffffffffffffffff9050919050565b5f5f60025490505f8114612d8d57612d72610ce6565b8184612d7e9190613c36565b612d889190613ca4565b612d8f565b825b915050919050565b5f612dde60035f8473ffffffffffffffffffffffffffffffffffffffff1673ffffffffffffffffffffffffffffffffffffffff1681526020019081526020015f2054610dc3565b9050919050565b61271081565b5f60035f8373ffffffffffffffffffffffffffffffffffffffff1673ffffffffffffffffffffffffffffffffffffffff1681526020019081526020015f20549050919050565b6004602052815f5260405f20602052805f5260405f205f91509150505481565b612e7e335f357fffffffff00000000000000000000000000000000000000000000000000000000166133a0565b612eb4576040517f82b4290000000000000000000000000000000000000000000000000000000000815260040160405180910390fd5b5f73ffffffffffffffffffffffffffffffffffffffff168173ffffffffffffffffffffffffffffffffffffffff1603612f19576040517fd92e233d00000000000000000000000000000000000000000000000000000000815260040160405180910390fd5b8073ffffffffffffffffffffffffffffffffffffffff16600b5f9054906101000a900473ffffffffffffffffffffffffffffffffffffffff1673ffffffffffffffffffffffffffffffffffffffff167faaebcf1bfa00580e41d966056b48521fa9f202645c86d4ddf28113e617c1b1d360405160405180910390a380600b5f6101000a81548173ffffffffffffffffffffffffffffffffffffffff021916908373ffffffffffffffffffffffffffffffffffffffff16021790555050565b60095481565b5f612fe6610ce6565b14613026576040517f08c379a000000000000000000000000000000000000000000000000000000000815260040161301d90613dd5565b60405180910390fd5b61307533306103e87f000000000000000000000000000000000000000000000000000000000000000073ffffffffffffffffffffffffffffffffffffffff166134da909392919063ffffffff16565b565b5f61308182612d5c565b9050919050565b600d5481565b6103e881565b60055f9054906101000a900473ffffffffffffffffffffffffffffffffffffffff1673ffffffffffffffffffffffffffffffffffffffff163373ffffffffffffffffffffffffffffffffffffffff161461311a576040517f82b4290000000000000000000000000000000000000000000000000000000000815260040160405180910390fd5b8060055f6101000a81548173ffffffffffffffffffffffffffffffffffffffff021916908373ffffffffffffffffffffffffffffffffffffffff1602179055508073ffffffffffffffffffffffffffffffffffffffff163373ffffffffffffffffffffffffffffffffffffffff167f8be0079c531659141344cd1fd0a4f28419497f9722a3daafe3b4186f6b6457e060405160405180910390a350565b60125481565b5f6040517f70a0823100000000000000000000000000000000000000000000000000000000815273ffffffffffffffffffffffffffffffffffffffff83166004820152602081602483875afa613211575f5ffd5b805191505092915050565b6132246114f5565b600f8190555042600e819055505f73ffffffffffffffffffffffffffffffffffffffff168173ffffffffffffffffffffffffffffffffffffffff16146132f35761326d81610beb565b60115f8373ffffffffffffffffffffffffffffffffffffffff1673ffffffffffffffffffffffffffffffffffffffff1681526020019081526020015f2081905550600f5460105f8373ffffffffffffffffffffffffffffffffffffffff1673ffffffffffffffffffffffffffffffffffffffff1681526020019081526020015f20819055505b50565b5f6040517fa9059cbb00000000000000000000000000000000000000000000000000000000815273ffffffffffffffffffffffffffffffffffffffff8416600482015282602482015260205f6044835f895af13d15601f3d1160015f51141617169150508061339a576040517f08c379a000000000000000000000000000000000000000000000000000000000815260040161339190613e3d565b60405180910390fd5b50505050565b5f5f60065f9054906101000a900473ffffffffffffffffffffffffffffffffffffffff1690505f73ffffffffffffffffffffffffffffffffffffffff168173ffffffffffffffffffffffffffffffffffffffff161415801561347a57508073ffffffffffffffffffffffffffffffffffffffff1663b70096138530866040518463ffffffff1660e01b815260040161343a93929190613e95565b602060405180830381865afa158015613455573d5f5f3e3d5ffd5b505050506040513d601f19601f820116820180604052508101906134799190613ef4565b5b806134d1575060055f9054906101000a900473ffffffffffffffffffffffffffffffffffffffff1673ffffffffffffffffffffffffffffffffffffffff168473ffffffffffffffffffffffffffffffffffffffff16145b91505092915050565b5f6040517f23b872dd00000000000000000000000000000000000000000000000000000000815273ffffffffffffffffffffffffffffffffffffffff8516600482015273ffffffffffffffffffffffffffffffffffffffff8416602482015282604482015260205f6064835f8a5af13d15601f3d1160015f51141617169150508061359a576040517f08c379a000000000000000000000000000000000000000000000000000000000815260040161359190613f69565b60405180910390fd5b5050505050565b8060025f8282546135b29190613cd4565b925050819055508060035f8473ffffffffffffffffffffffffffffffffffffffff1673ffffffffffffffffffffffffffffffffffffffff1681526020019081526020015f205f82825401925050819055508173ffffffffffffffffffffffffffffffffffffffff165f73ffffffffffffffffffffffffffffffffffffffff167fddf252ad1be2c89b69c2b068fc378daa952ba7f163c4a11628f55a4df523b3ef8360405161366091906137dc565b60405180910390a35050565b5050565b8060035f8473ffffffffffffffffffffffffffffffffffffffff1673ffffffffffffffffffffffffffffffffffffffff1681526020019081526020015f205f8282546136bc9190613c03565b925050819055508060025f82825403925050819055505f73ffffffffffffffffffffffffffffffffffffffff168273ffffffffffffffffffffffffffffffffffffffff167fddf252ad1be2c89b69c2b068fc378daa952ba7f163c4a11628f55a4df523b3ef8360405161372f91906137dc565b60405180910390a35050565b5f5ffd5b5f73ffffffffffffffffffffffffffffffffffffffff82169050919050565b5f6137688261373f565b9050919050565b6137788161375e565b8114613782575f5ffd5b50565b5f813590506137938161376f565b92915050565b5f602082840312156137ae576137ad61373b565b5b5f6137bb84828501613785565b91505092915050565b5f819050919050565b6137d6816137c4565b82525050565b5f6020820190506137ef5f8301846137cd565b92915050565b5f81519050919050565b5f82825260208201905092915050565b8281835e5f83830152505050565b5f601f19601f8301169050919050565b5f613837826137f5565b61384181856137ff565b935061385181856020860161380f565b61385a8161381d565b840191505092915050565b5f6020820190508181035f83015261387d818461382d565b905092915050565b61388e816137c4565b8114613898575f5ffd5b50565b5f813590506138a981613885565b92915050565b5f602082840312156138c4576138c361373b565b5b5f6138d18482850161389b565b91505092915050565b5f5f604083850312156138f0576138ef61373b565b5b5f6138fd85828601613785565b925050602061390e8582860161389b565b9150509250929050565b5f8115159050919050565b61392c81613918565b82525050565b5f6020820190506139455f830184613923565b92915050565b5f5f5f606084860312156139625761396161373b565b5b5f61396f86828701613785565b935050602061398086828701613785565b92505060406139918682870161389b565b9150509250925092565b5f60ff82169050919050565b6139b08161399b565b82525050565b5f6020820190506139c95f8301846139a7565b92915050565b5f819050919050565b5f6139f26139ed6139e88461373f565b6139cf565b61373f565b9050919050565b5f613a03826139d8565b9050919050565b5f613a14826139f9565b9050919050565b613a2481613a0a565b82525050565b5f602082019050613a3d5f830184613a1b565b92915050565b613a4c8161375e565b82525050565b5f602082019050613a655f830184613a43565b92915050565b5f5f60408385031215613a8157613a8061373b565b5b5f613a8e8582860161389b565b9250506020613a9f85828601613785565b9150509250929050565b5f613ab38261375e565b9050919050565b613ac381613aa9565b8114613acd575f5ffd5b50565b5f81359050613ade81613aba565b92915050565b5f60208284031215613af957613af861373b565b5b5f613b0684828501613ad0565b91505092915050565b5f5f5f60608486031215613b2657613b2561373b565b5b5f613b338682870161389b565b9350506020613b4486828701613785565b9250506040613b5586828701613785565b9150509250925092565b5f613b69826139f9565b9050919050565b613b7981613b5f565b82525050565b5f602082019050613b925f830184613b70565b92915050565b5f5f60408385031215613bae57613bad61373b565b5b5f613bbb85828601613785565b9250506020613bcc85828601613785565b9150509250929050565b7f4e487b71000000000000000000000000000000000000000000000000000000005f52601160045260245ffd5b5f613c0d826137c4565b9150613c18836137c4565b9250828203905081811115613c3057613c2f613bd6565b5b92915050565b5f613c40826137c4565b9150613c4b836137c4565b9250828202613c59816137c4565b91508282048414831517613c7057613c6f613bd6565b5b5092915050565b7f4e487b71000000000000000000000000000000000000000000000000000000005f52601260045260245ffd5b5f613cae826137c4565b9150613cb9836137c4565b925082613cc957613cc8613c77565b5b828204905092915050565b5f613cde826137c4565b9150613ce9836137c4565b9250828201905080821115613d0157613d00613bd6565b5b92915050565b7f4e487b71000000000000000000000000000000000000000000000000000000005f52602260045260245ffd5b5f6002820490506001821680613d4b57607f821691505b602082108103613d5e57613d5d613d07565b5b50919050565b5f604082019050613d775f8301856137cd565b613d8460208301846137cd565b9392505050565b7f414c52454144595f494e495449414c495a4544000000000000000000000000005f82015250565b5f613dbf6013836137ff565b9150613dca82613d8b565b602082019050919050565b5f6020820190508181035f830152613dec81613db3565b9050919050565b7f5452414e534645525f4641494c454400000000000000000000000000000000005f82015250565b5f613e27600f836137ff565b9150613e3282613df3565b602082019050919050565b5f6020820190508181035f830152613e5481613e1b565b9050919050565b5f7fffffffff0000000000000000000000000000000000000000000000000000000082169050919050565b613e8f81613e5b565b82525050565b5f606082019050613ea85f830186613a43565b613eb56020830185613a43565b613ec26040830184613e86565b949350505050565b613ed381613918565b8114613edd575f5ffd5b50565b5f81519050613eee81613eca565b92915050565b5f60208284031215613f0957613f0861373b565b5b5f613f1684828501613ee0565b91505092915050565b7f5452414e534645525f46524f4d5f4641494c45440000000000000000000000005f82015250565b5f613f536014836137ff565b9150613f5e82613f1f565b602082019050919050565b5f6020820190508181035f830152613f8081613f47565b905091905056fea26469706673582212208ca76ace56a5158da5916bfc5f54f72bffc53b5d0613f806ce850ac427a949cb64736f6c634300081e0033","linkReferences":{}},"methodIdentifiers":{"DEAD_ADDRESS()":"4e6fd6c4","FEE_DENOMINATOR()":"d73792a9","MAX_FEE()":"bc063e1a","MINIMUM_DEPOSIT()":"f19451d8","MINIMUM_SHARES()":"a1a47d71","addRewards(uint256)":"beceed39","allowance(address,address)":"dd62ed3e","approve(address,uint256)":"095ea7b3","asset()":"38d52e0f","authority()":"bf7e214f","balanceOf(address)":"70a08231","claimRewards()":"372500ab","convertToAssets(uint256)":"07a2d13a","convertToShares(uint256)":"c6e6f592","decimals()":"313ce567","deposit(uint256,address)":"6e553f65","depositFee()":"67a52793","earned(address)":"008cc262","emergencyWithdraw(address,uint256)":"95ccea67","feeRecipient()":"46904840","initializeDeadShares()":"ec628070","lastRewardTime()":"9231cf74","maxDeposit(address)":"402d267d","maxMint(address)":"c63d75b6","maxRedeem(address)":"d905777e","maxWithdraw(address)":"ce96cb77","mint(uint256,address)":"94bf804d","name()":"06fdde03","owner()":"8da5cb5b","pause()":"8456cb59","paused()":"5c975abb","performanceFee()":"87788782","previewDeposit(uint256)":"ef8b30f7","previewMint(uint256)":"b3d7f6b9","previewRedeem(uint256)":"4cdad506","previewWithdraw(uint256)":"0a28a477","redeem(uint256,address,address)":"ba087652","rewardPerShare()":"446a2ec8","rewardPerShareStored()":"0ab747f0","rewardRate()":"7b0a47ee","rewardReserves()":"f0de8228","rewards(address)":"0700037d","setAuthority(address)":"7a9e5e4b","setDepositFee(uint256)":"490ae210","setFeeRecipient(address)":"e74b981b","setPerformanceFee(uint256)":"70897b23","setRewardRate(uint256)":"9e447fc6","setWithdrawFee(uint256)":"b6ac642a","symbol()":"95d89b41","totalAssets()":"01e1d114","totalDeposited()":"ff50abdc","totalSupply()":"18160ddd","totalWithdrawn()":"4b319713","transfer(address,uint256)":"a9059cbb","transferFrom(address,address,uint256)":"23b872dd","transferOwnership(address)":"f2fde38b","unpause()":"3f4ba83a","userRewardPerSharePaid(address)":"818ae1ce","withdraw(uint256,address,address)":"b460af94","withdrawFee()":"e941fa78"},"id":33}